{
  "_format": "hh-sol-artifact-1",
  "contractName": "Airdrop",
  "sourceName": "contracts/Airdrop.sol",
  "abi": [
    {
      "inputs": [
        {
          "internalType": "bytes32",
          "name": "_root",
          "type": "bytes32"
        },
        {
          "internalType": "string",
          "name": "_nftTokenURIs",
          "type": "string"
        },
        {
          "internalType": "address",
          "name": "_nftAddress",
          "type": "address"
        }
      ],
      "stateMutability": "nonpayable",
      "type": "constructor"
    },
    {
      "inputs": [
        {
          "internalType": "address",
          "name": "caller",
          "type": "address"
        }
      ],
      "name": "Airdrop__AlreadyClaimed",
      "type": "error"
    },
    {
      "inputs": [
        {
          "internalType": "address",
          "name": "caller",
          "type": "address"
        }
      ],
      "name": "Airdrop__NotInAllowList",
      "type": "error"
    },
    {
      "anonymous": false,
      "inputs": [
        {
          "indexed": true,
          "internalType": "address",
          "name": "owner",
          "type": "address"
        },
        {
          "indexed": true,
          "internalType": "uint256",
          "name": "tokenId",
          "type": "uint256"
        }
      ],
      "name": "AirdropClaimed",
      "type": "event"
    },
    {
      "anonymous": false,
      "inputs": [
        {
          "indexed": true,
          "internalType": "address",
          "name": "account",
          "type": "address"
        },
        {
          "indexed": true,
          "internalType": "address",
          "name": "operator",
          "type": "address"
        },
        {
          "indexed": false,
          "internalType": "bool",
          "name": "approved",
          "type": "bool"
        }
      ],
      "name": "ApprovalForAll",
      "type": "event"
    },
    {
      "anonymous": false,
      "inputs": [
        {
          "indexed": true,
          "internalType": "address",
          "name": "previousOwner",
          "type": "address"
        },
        {
          "indexed": true,
          "internalType": "address",
          "name": "newOwner",
          "type": "address"
        }
      ],
      "name": "OwnershipTransferred",
      "type": "event"
    },
    {
      "anonymous": false,
      "inputs": [
        {
          "indexed": true,
          "internalType": "address",
          "name": "owner",
          "type": "address"
        },
        {
          "indexed": true,
          "internalType": "uint256",
          "name": "tokenId",
          "type": "uint256"
        }
      ],
      "name": "TokenBurned",
      "type": "event"
    },
    {
      "anonymous": false,
      "inputs": [
        {
          "indexed": true,
          "internalType": "address",
          "name": "operator",
          "type": "address"
        },
        {
          "indexed": true,
          "internalType": "address",
          "name": "from",
          "type": "address"
        },
        {
          "indexed": true,
          "internalType": "address",
          "name": "to",
          "type": "address"
        },
        {
          "indexed": false,
          "internalType": "uint256[]",
          "name": "ids",
          "type": "uint256[]"
        },
        {
          "indexed": false,
          "internalType": "uint256[]",
          "name": "values",
          "type": "uint256[]"
        }
      ],
      "name": "TransferBatch",
      "type": "event"
    },
    {
      "anonymous": false,
      "inputs": [
        {
          "indexed": true,
          "internalType": "address",
          "name": "operator",
          "type": "address"
        },
        {
          "indexed": true,
          "internalType": "address",
          "name": "from",
          "type": "address"
        },
        {
          "indexed": true,
          "internalType": "address",
          "name": "to",
          "type": "address"
        },
        {
          "indexed": false,
          "internalType": "uint256",
          "name": "id",
          "type": "uint256"
        },
        {
          "indexed": false,
          "internalType": "uint256",
          "name": "value",
          "type": "uint256"
        }
      ],
      "name": "TransferSingle",
      "type": "event"
    },
    {
      "anonymous": false,
      "inputs": [
        {
          "indexed": false,
          "internalType": "string",
          "name": "value",
          "type": "string"
        },
        {
          "indexed": true,
          "internalType": "uint256",
          "name": "id",
          "type": "uint256"
        }
      ],
      "name": "URI",
      "type": "event"
    },
    {
      "inputs": [
        {
          "internalType": "address",
          "name": "account",
          "type": "address"
        },
        {
          "internalType": "uint256",
          "name": "id",
          "type": "uint256"
        }
      ],
      "name": "balanceOf",
      "outputs": [
        {
          "internalType": "uint256",
          "name": "",
          "type": "uint256"
        }
      ],
      "stateMutability": "view",
      "type": "function"
    },
    {
      "inputs": [
        {
          "internalType": "address[]",
          "name": "accounts",
          "type": "address[]"
        },
        {
          "internalType": "uint256[]",
          "name": "ids",
          "type": "uint256[]"
        }
      ],
      "name": "balanceOfBatch",
      "outputs": [
        {
          "internalType": "uint256[]",
          "name": "",
          "type": "uint256[]"
        }
      ],
      "stateMutability": "view",
      "type": "function"
    },
    {
      "inputs": [
        {
          "internalType": "uint256",
          "name": "tokenId",
          "type": "uint256"
        }
      ],
      "name": "burn",
      "outputs": [],
      "stateMutability": "nonpayable",
      "type": "function"
    },
    {
      "inputs": [
        {
          "internalType": "bytes32[]",
          "name": "_proof",
          "type": "bytes32[]"
        }
      ],
      "name": "canClaim",
      "outputs": [
        {
          "internalType": "bool",
          "name": "",
          "type": "bool"
        }
      ],
      "stateMutability": "view",
      "type": "function"
    },
    {
      "inputs": [
        {
          "internalType": "bytes32[]",
          "name": "_proof",
          "type": "bytes32[]"
        }
      ],
      "name": "claimAirdrop",
      "outputs": [],
      "stateMutability": "nonpayable",
      "type": "function"
    },
    {
      "inputs": [
        {
          "internalType": "address",
          "name": "_owner",
          "type": "address"
        }
      ],
      "name": "getNftBalance",
      "outputs": [
        {
          "internalType": "uint256",
          "name": "",
          "type": "uint256"
        }
      ],
      "stateMutability": "view",
      "type": "function"
    },
    {
      "inputs": [
        {
          "internalType": "address",
          "name": "_owner",
          "type": "address"
        }
      ],
      "name": "getTokenId",
      "outputs": [
        {
          "internalType": "uint256",
          "name": "",
          "type": "uint256"
        }
      ],
      "stateMutability": "view",
      "type": "function"
    },
    {
      "inputs": [],
      "name": "i_root",
      "outputs": [
        {
          "internalType": "bytes32",
          "name": "",
          "type": "bytes32"
        }
      ],
      "stateMutability": "view",
      "type": "function"
    },
    {
      "inputs": [
        {
          "internalType": "address",
          "name": "account",
          "type": "address"
        },
        {
          "internalType": "address",
          "name": "operator",
          "type": "address"
        }
      ],
      "name": "isApprovedForAll",
      "outputs": [
        {
          "internalType": "bool",
          "name": "",
          "type": "bool"
        }
      ],
      "stateMutability": "view",
      "type": "function"
    },
    {
      "inputs": [],
      "name": "owner",
      "outputs": [
        {
          "internalType": "address",
          "name": "",
          "type": "address"
        }
      ],
      "stateMutability": "view",
      "type": "function"
    },
    {
      "inputs": [
        {
          "internalType": "uint256",
          "name": "tokenId",
          "type": "uint256"
        }
      ],
      "name": "ownerOf",
      "outputs": [
        {
          "internalType": "bool",
          "name": "",
          "type": "bool"
        }
      ],
      "stateMutability": "view",
      "type": "function"
    },
    {
      "inputs": [],
      "name": "renounceOwnership",
      "outputs": [],
      "stateMutability": "nonpayable",
      "type": "function"
    },
    {
      "inputs": [
        {
          "internalType": "address",
          "name": "_contractAddress",
          "type": "address"
        }
      ],
      "name": "revokeApproval",
      "outputs": [],
      "stateMutability": "nonpayable",
      "type": "function"
    },
    {
      "inputs": [
        {
          "internalType": "address",
          "name": "",
          "type": "address"
        }
      ],
      "name": "s_claimed",
      "outputs": [
        {
          "internalType": "bool",
          "name": "",
          "type": "bool"
        }
      ],
      "stateMutability": "view",
      "type": "function"
    },
    {
      "inputs": [],
      "name": "s_nftTokenURIs",
      "outputs": [
        {
          "internalType": "string",
          "name": "",
          "type": "string"
        }
      ],
      "stateMutability": "view",
      "type": "function"
    },
    {
      "inputs": [
        {
          "internalType": "uint256",
          "name": "",
          "type": "uint256"
        }
      ],
      "name": "s_tokenOwners",
      "outputs": [
        {
          "internalType": "address",
          "name": "",
          "type": "address"
        }
      ],
      "stateMutability": "view",
      "type": "function"
    },
    {
      "inputs": [
        {
          "internalType": "uint256",
          "name": "",
          "type": "uint256"
        }
      ],
      "name": "s_tokenURIs",
      "outputs": [
        {
          "internalType": "string",
          "name": "",
          "type": "string"
        }
      ],
      "stateMutability": "view",
      "type": "function"
    },
    {
      "inputs": [
        {
          "internalType": "address",
          "name": "from",
          "type": "address"
        },
        {
          "internalType": "address",
          "name": "to",
          "type": "address"
        },
        {
          "internalType": "uint256[]",
          "name": "ids",
          "type": "uint256[]"
        },
        {
          "internalType": "uint256[]",
          "name": "amounts",
          "type": "uint256[]"
        },
        {
          "internalType": "bytes",
          "name": "data",
          "type": "bytes"
        }
      ],
      "name": "safeBatchTransferFrom",
      "outputs": [],
      "stateMutability": "nonpayable",
      "type": "function"
    },
    {
      "inputs": [
        {
          "internalType": "address",
          "name": "from",
          "type": "address"
        },
        {
          "internalType": "address",
          "name": "to",
          "type": "address"
        },
        {
          "internalType": "uint256",
          "name": "id",
          "type": "uint256"
        },
        {
          "internalType": "uint256",
          "name": "amount",
          "type": "uint256"
        },
        {
          "internalType": "bytes",
          "name": "data",
          "type": "bytes"
        }
      ],
      "name": "safeTransferFrom",
      "outputs": [],
      "stateMutability": "nonpayable",
      "type": "function"
    },
    {
      "inputs": [
        {
          "internalType": "address",
          "name": "operator",
          "type": "address"
        },
        {
          "internalType": "bool",
          "name": "approved",
          "type": "bool"
        }
      ],
      "name": "setApprovalForAll",
      "outputs": [],
      "stateMutability": "nonpayable",
      "type": "function"
    },
    {
      "inputs": [
        {
          "internalType": "address",
          "name": "_contractAddress",
          "type": "address"
        }
      ],
      "name": "setApprovedContract",
      "outputs": [],
      "stateMutability": "nonpayable",
      "type": "function"
    },
    {
      "inputs": [
        {
          "internalType": "bytes32",
          "name": "_root",
          "type": "bytes32"
        }
      ],
      "name": "setMerkleRoot",
      "outputs": [],
      "stateMutability": "nonpayable",
      "type": "function"
    },
    {
      "inputs": [
        {
          "internalType": "bytes4",
          "name": "interfaceId",
          "type": "bytes4"
        }
      ],
      "name": "supportsInterface",
      "outputs": [
        {
          "internalType": "bool",
          "name": "",
          "type": "bool"
        }
      ],
      "stateMutability": "view",
      "type": "function"
    },
    {
      "inputs": [
        {
          "internalType": "address",
          "name": "newOwner",
          "type": "address"
        }
      ],
      "name": "transferOwnership",
      "outputs": [],
      "stateMutability": "nonpayable",
      "type": "function"
    },
    {
      "inputs": [
        {
          "internalType": "uint256",
          "name": "_tokenId",
          "type": "uint256"
        }
      ],
      "name": "uri",
      "outputs": [
        {
          "internalType": "string",
          "name": "",
          "type": "string"
        }
      ],
      "stateMutability": "view",
      "type": "function"
    }
  ],
  "bytecode": "0x60806040523480156200001157600080fd5b50604051620028d6380380620028d68339810160408190526200003491620001f6565b6040805160208101909152600081526200004e8162000146565b506200005a336200015f565b600683905560076200006d838262000377565b50600580546001600160a01b0319166001600160a01b03831617905560005b6005546040516331a9108f60e11b8152600481018390526001600160a01b0390911690636352211e90602401602060405180830381865afa925050508015620000f4575060408051601f3d908101601f19168201909252620000f19181019062000443565b60015b156200013c576001600160a01b0381166000908152600b60205260408120805491620001208362000468565b91905055508180620001329062000468565b925050506200008c565b5050505062000490565b6200015c81620001b160201b62000d5f1760201c565b50565b600380546001600160a01b038381166001600160a01b0319831681179093556040519116919082907f8be0079c531659141344cd1fd0a4f28419497f9722a3daafe3b4186f6b6457e090600090a35050565b6002620001bf828262000377565b5050565b634e487b7160e01b600052604160045260246000fd5b80516001600160a01b0381168114620001f157600080fd5b919050565b6000806000606084860312156200020c57600080fd5b8351602080860151919450906001600160401b03808211156200022e57600080fd5b818701915087601f8301126200024357600080fd5b815181811115620002585762000258620001c3565b604051601f8201601f19908116603f01168101908382118183101715620002835762000283620001c3565b816040528281528a868487010111156200029c57600080fd5b600093505b82841015620002c05784840186015181850187015292850192620002a1565b6000868483010152809750505050505050620002df60408501620001d9565b90509250925092565b600181811c90821680620002fd57607f821691505b6020821081036200031e57634e487b7160e01b600052602260045260246000fd5b50919050565b601f8211156200037257600081815260208120601f850160051c810160208610156200034d5750805b601f850160051c820191505b818110156200036e5782815560010162000359565b5050505b505050565b81516001600160401b03811115620003935762000393620001c3565b620003ab81620003a48454620002e8565b8462000324565b602080601f831160018114620003e35760008415620003ca5750858301515b600019600386901b1c1916600185901b1785556200036e565b600085815260208120601f198616915b828110156200041457888601518255948401946001909101908401620003f3565b5085821015620004335787850151600019600388901b60f8161c191681555b5050505050600190811b01905550565b6000602082840312156200045657600080fd5b6200046182620001d9565b9392505050565b6000600182016200048957634e487b7160e01b600052601160045260246000fd5b5060010190565b61243680620004a06000396000f3fe608060405234801561001057600080fd5b50600436106101725760003560e01c806369242dc6116100de578063c637954b11610097578063e985e9c511610071578063e985e9c514610373578063f1537686146103af578063f242432a146103d8578063f2fde38b146103eb57600080fd5b8063c637954b14610319578063e07ac24314610342578063e1e4fec01461034a57600080fd5b806369242dc614610290578063715018a6146102a357806374b3c7ec146102ab5780637cb64759146102ce5780638da5cb5b146102e1578063a22cb4651461030657600080fd5b8063484685b011610130578063484685b01461021b5780634d75bbf91461022e5780634e1273f41461023757806353223ab0146102575780635c0148631461026a5780636352211e1461027d57600080fd5b8062fdd58e1461017757806301ffc9a71461019d5780630e89341c146101c05780631e40dff4146101e05780632eb2c2d6146101f357806342966c6814610208575b600080fd5b61018a61018536600461195f565b6103fe565b6040519081526020015b60405180910390f35b6101b06101ab3660046119a1565b610497565b6040519015158152602001610194565b6101d36101ce3660046119be565b6104e7565b6040516101949190611a27565b6101b06101ee366004611a3a565b6105f7565b610206610201366004611bfb565b61068a565b005b6102066102163660046119be565b6106d6565b610206610229366004611ca9565b61078e565b61018a60065481565b61024a610245366004611cc6565b6107b7565b6040516101949190611dce565b610206610265366004611de1565b6108e1565b6101d36102783660046119be565b610b8a565b6101b061028b3660046119be565b610c24565b61020661029e366004611ca9565b610c38565b610206610c64565b6101b06102b9366004611ca9565b60086020526000908152604090205460ff1681565b6102066102dc3660046119be565b610c78565b6003546001600160a01b03165b6040516001600160a01b039091168152602001610194565b610206610314366004611e7d565b610c85565b61018a610327366004611ca9565b6001600160a01b03166000908152600b602052604090205490565b6101d3610c94565b6102ee6103583660046119be565b600c602052600090815260409020546001600160a01b031681565b6101b0610381366004611ebb565b6001600160a01b03918216600090815260016020908152604080832093909416825291909152205460ff1690565b61018a6103bd366004611ca9565b6001600160a01b03166000908152600a602052604090205490565b6102066103e6366004611ee9565b610ca1565b6102066103f9366004611ca9565b610ce6565b60006001600160a01b03831661046e5760405162461bcd60e51b815260206004820152602a60248201527f455243313135353a2061646472657373207a65726f206973206e6f742061207660448201526930b634b21037bbb732b960b11b60648201526084015b60405180910390fd5b506000818152602081815260408083206001600160a01b03861684529091529020545b92915050565b60006001600160e01b03198216636cdb3d1360e11b14806104c857506001600160e01b031982166303a24d0760e21b145b8061049157506301ffc9a760e01b6001600160e01b0319831614610491565b60008181526009602052604090205460609060ff166105595760405162461bcd60e51b815260206004820152602860248201527f41697264726f703a2055524920717565727920666f72206e6f6e657869737465604482015267373a103a37b5b2b760c11b6064820152608401610465565b6000828152600d60205260409020805461057290611f52565b80601f016020809104026020016040519081016040528092919081815260200182805461059e90611f52565b80156105eb5780601f106105c0576101008083540402835291602001916105eb565b820191906000526020600020905b8154815290600101906020018083116105ce57829003601f168201915b50505050509050919050565b3360009081526008602052604081205460ff161580156106835750610683838380806020026020016040519081016040528093929190818152602001838360200280828437600092019190915250506006546040516001600160601b03193360601b16602082015290925060340190505b60405160208183030381529060405280519060200120610d6b565b9392505050565b6001600160a01b0385163314806106a657506106a68533610381565b6106c25760405162461bcd60e51b815260040161046590611f8c565b6106cf8585858585610d81565b5050505050565b6000818152600c60205260409020546001600160a01b031633146107525760405162461bcd60e51b815260206004820152602d60248201527f41697264726f703a2063616c6c6572206973206e6f7420746865206f776e657260448201526c1037b3103a3432903a37b5b2b760991b6064820152608401610465565b61075e33826001610f6c565b604051819033907f1af5163f80e79b5e554f61e1d052084d3a3fe1166e42a265798c4e2ddce8ffa290600090a350565b610796610fa8565b6001600160a01b03166000908152600e60205260409020805460ff19169055565b6060815183511461081c5760405162461bcd60e51b815260206004820152602960248201527f455243313135353a206163636f756e747320616e6420696473206c656e677468604482015268040dad2e6dac2e8c6d60bb1b6064820152608401610465565b6000835167ffffffffffffffff81111561083857610838611aaf565b604051908082528060200260200182016040528015610861578160200160208202803683370190505b50905060005b84518110156108d9576108ac85828151811061088557610885611fda565b602002602001015185838151811061089f5761089f611fda565b60200260200101516103fe565b8282815181106108be576108be611fda565b60209081029190910101526108d281612006565b9050610867565b509392505050565b3360009081526008602052604090205460ff16156109145760405163e0cd221960e01b8152336004820152602401610465565b61091d81611002565b61093c5760405163ae18156360e01b8152336004820152602401610465565b6005546040516370a0823160e01b81523360048201526000916001600160a01b0316906370a0823190602401602060405180830381865afa158015610985573d6000803e3d6000fd5b505050506040513d601f19601f820116820180604052508101906109a9919061201f565b9050600081116109fb5760405162461bcd60e51b815260206004820152601b60248201527f41697264726f703a204e6f20746f6b656e7320746f20636c61696d00000000006044820152606401610465565b60005b81811015610b53576000610a1160045490565b6005546040516331a9108f60e11b81526004810183905291925033916001600160a01b0390911690636352211e90602401602060405180830381865afa158015610a5f573d6000803e3d6000fd5b505050506040513d601f19601f82011682018060405250810190610a839190612038565b6001600160a01b031603610b3f57610aad338260016040518060200160405280600081525061102d565b6000818152600c6020526040902080546001600160a01b03191633908117909155610ad79061106f565b6000828152600d6020526040902090610af0908261209b565b50610aff600480546001019055565b81610b0981612006565b60405190935082915033907f650e45f04ef8a0c267b2f78d983913f69ae3a353b2b32de5429307522be0ab5590600090a3610b4d565b610b4d600480546001019055565b506109fe565b336000908152600b6020526040812055818103610b8557336000908152600860205260409020805460ff191660011790555b505050565b600d6020526000908152604090208054610ba390611f52565b80601f0160208091040260200160405190810160405280929190818152602001828054610bcf90611f52565b8015610c1c5780601f10610bf157610100808354040283529160200191610c1c565b820191906000526020600020905b815481529060010190602001808311610bff57829003601f168201915b505050505081565b6000610c3033836103fe565b151592915050565b610c40610fa8565b6001600160a01b03166000908152600e60205260409020805460ff19166001179055565b610c6c610fa8565b610c7660006110a9565b565b610c80610fa8565b600655565b610c903383836110fb565b5050565b60078054610ba390611f52565b6001600160a01b038516331480610cbd5750610cbd8533610381565b610cd95760405162461bcd60e51b815260040161046590611f8c565b6106cf85858585856111db565b610cee610fa8565b6001600160a01b038116610d535760405162461bcd60e51b815260206004820152602660248201527f4f776e61626c653a206e6577206f776e657220697320746865207a65726f206160448201526564647265737360d01b6064820152608401610465565b610d5c816110a9565b50565b6002610c90828261209b565b600082610d788584611313565b14949350505050565b8151835114610de35760405162461bcd60e51b815260206004820152602860248201527f455243313135353a2069647320616e6420616d6f756e7473206c656e677468206044820152670dad2e6dac2e8c6d60c31b6064820152608401610465565b6001600160a01b038416610e095760405162461bcd60e51b81526004016104659061215b565b33610e18818787878787611358565b60005b8451811015610efe576000858281518110610e3857610e38611fda565b602002602001015190506000858381518110610e5657610e56611fda565b602090810291909101810151600084815280835260408082206001600160a01b038e168352909352919091205490915081811015610ea65760405162461bcd60e51b8152600401610465906121a0565b6000838152602081815260408083206001600160a01b038e8116855292528083208585039055908b16825281208054849290610ee39084906121ea565b9250508190555050505080610ef790612006565b9050610e1b565b50846001600160a01b0316866001600160a01b0316826001600160a01b03167f4a39dc06d4c0dbc64b70af90fd698a233a518aa5d07e595d983b8c0526c8f7fb8787604051610f4e9291906121fd565b60405180910390a4610f648187878787876113f8565b505050505050565b610f7783838361155c565b506000908152600960209081526040808320805460ff191690556001600160a01b039093168252600a905290812055565b6003546001600160a01b03163314610c765760405162461bcd60e51b815260206004820181905260248201527f4f776e61626c653a2063616c6c6572206973206e6f7420746865206f776e65726044820152606401610465565b6006546040516001600160601b03193360601b16602082015260009161049191849190603401610668565b611039848484846116ec565b50506000818152600960209081526040808320805460ff191660011790556001600160a01b039094168252600a90529190912055565b6060600061107d6000611806565b9050808360405160200161109292919061222b565b604051602081830303815290604052915050919050565b600380546001600160a01b038381166001600160a01b0319831681179093556040519116919082907f8be0079c531659141344cd1fd0a4f28419497f9722a3daafe3b4186f6b6457e090600090a35050565b816001600160a01b0316836001600160a01b03160361116e5760405162461bcd60e51b815260206004820152602960248201527f455243313135353a2073657474696e6720617070726f76616c20737461747573604482015268103337b91039b2b63360b91b6064820152608401610465565b6001600160a01b03838116600081815260016020908152604080832094871680845294825291829020805460ff191686151590811790915591519182527f17307eab39ab6107e8899845ad3d59bd9653f200f220920489ca2b5937696c31910160405180910390a3505050565b6001600160a01b0384166112015760405162461bcd60e51b81526004016104659061215b565b33600061120d85611815565b9050600061121a85611815565b905061122a838989858589611358565b6000868152602081815260408083206001600160a01b038c1684529091529020548581101561126b5760405162461bcd60e51b8152600401610465906121a0565b6000878152602081815260408083206001600160a01b038d8116855292528083208985039055908a168252812080548892906112a89084906121ea565b909155505060408051888152602081018890526001600160a01b03808b16928c821692918816917fc3d58168c5ae7397731d063d5bbf3d657854427343f4c083240f7aacaa2d0f62910160405180910390a4611308848a8a8a8a8a611860565b505050505050505050565b600081815b84518110156108d9576113448286838151811061133757611337611fda565b602002602001015161191b565b91508061135081612006565b915050611318565b6001600160a01b03851615610f64576001600160a01b0384161580159061139857506001600160a01b0384166000908152600e602052604090205460ff16155b15610f645760405162461bcd60e51b815260206004820152602a60248201527f41697264726f703a207472616e7366657220746f206e6f6e20617070726f7665604482015269190818dbdb9d1c9858dd60b21b6064820152608401610465565b6001600160a01b0384163b15610f645760405163bc197c8160e01b81526001600160a01b0385169063bc197c819061143c908990899088908890889060040161225d565b6020604051808303816000875af1925050508015611477575060408051601f3d908101601f19168201909252611474918101906122bb565b60015b611523576114836122d8565b806308c379a0036114bc57506114976122f4565b806114a257506114be565b8060405162461bcd60e51b81526004016104659190611a27565b505b60405162461bcd60e51b815260206004820152603460248201527f455243313135353a207472616e7366657220746f206e6f6e2d455243313135356044820152732932b1b2b4bb32b91034b6b83632b6b2b73a32b960611b6064820152608401610465565b6001600160e01b0319811663bc197c8160e01b146115535760405162461bcd60e51b81526004016104659061237e565b50505050505050565b6001600160a01b0383166115be5760405162461bcd60e51b815260206004820152602360248201527f455243313135353a206275726e2066726f6d20746865207a65726f206164647260448201526265737360e81b6064820152608401610465565b3360006115ca84611815565b905060006115d784611815565b90506115f783876000858560405180602001604052806000815250611358565b6000858152602081815260408083206001600160a01b038a168452909152902054848110156116745760405162461bcd60e51b8152602060048201526024808201527f455243313135353a206275726e20616d6f756e7420657863656564732062616c604482015263616e636560e01b6064820152608401610465565b6000868152602081815260408083206001600160a01b038b81168086529184528285208a8703905582518b81529384018a90529092908816917fc3d58168c5ae7397731d063d5bbf3d657854427343f4c083240f7aacaa2d0f62910160405180910390a4604080516020810190915260009052611553565b6001600160a01b03841661174c5760405162461bcd60e51b815260206004820152602160248201527f455243313135353a206d696e7420746f20746865207a65726f206164647265736044820152607360f81b6064820152608401610465565b33600061175885611815565b9050600061176585611815565b905061177683600089858589611358565b6000868152602081815260408083206001600160a01b038b168452909152812080548792906117a69084906121ea565b909155505060408051878152602081018790526001600160a01b03808a1692600092918716917fc3d58168c5ae7397731d063d5bbf3d657854427343f4c083240f7aacaa2d0f62910160405180910390a461155383600089898989611860565b60606002805461057290611f52565b6040805160018082528183019092526060916000919060208083019080368337019050509050828160008151811061184f5761184f611fda565b602090810291909101015292915050565b6001600160a01b0384163b15610f645760405163f23a6e6160e01b81526001600160a01b0385169063f23a6e61906118a490899089908890889088906004016123c6565b6020604051808303816000875af19250505080156118df575060408051601f3d908101601f191682019092526118dc918101906122bb565b60015b6118eb576114836122d8565b6001600160e01b0319811663f23a6e6160e01b146115535760405162461bcd60e51b81526004016104659061237e565b6000818310611937576000828152602084905260409020610683565b6000838152602083905260409020610683565b6001600160a01b0381168114610d5c57600080fd5b6000806040838503121561197257600080fd5b823561197d8161194a565b946020939093013593505050565b6001600160e01b031981168114610d5c57600080fd5b6000602082840312156119b357600080fd5b81356106838161198b565b6000602082840312156119d057600080fd5b5035919050565b60005b838110156119f25781810151838201526020016119da565b50506000910152565b60008151808452611a138160208601602086016119d7565b601f01601f19169290920160200192915050565b60208152600061068360208301846119fb565b60008060208385031215611a4d57600080fd5b823567ffffffffffffffff80821115611a6557600080fd5b818501915085601f830112611a7957600080fd5b813581811115611a8857600080fd5b8660208260051b8501011115611a9d57600080fd5b60209290920196919550909350505050565b634e487b7160e01b600052604160045260246000fd5b601f8201601f1916810167ffffffffffffffff81118282101715611aeb57611aeb611aaf565b6040525050565b600067ffffffffffffffff821115611b0c57611b0c611aaf565b5060051b60200190565b600082601f830112611b2757600080fd5b81356020611b3482611af2565b604051611b418282611ac5565b83815260059390931b8501820192828101915086841115611b6157600080fd5b8286015b84811015611b7c5780358352918301918301611b65565b509695505050505050565b600082601f830112611b9857600080fd5b813567ffffffffffffffff811115611bb257611bb2611aaf565b604051611bc9601f8301601f191660200182611ac5565b818152846020838601011115611bde57600080fd5b816020850160208301376000918101602001919091529392505050565b600080600080600060a08688031215611c1357600080fd5b8535611c1e8161194a565b94506020860135611c2e8161194a565b9350604086013567ffffffffffffffff80821115611c4b57600080fd5b611c5789838a01611b16565b94506060880135915080821115611c6d57600080fd5b611c7989838a01611b16565b93506080880135915080821115611c8f57600080fd5b50611c9c88828901611b87565b9150509295509295909350565b600060208284031215611cbb57600080fd5b81356106838161194a565b60008060408385031215611cd957600080fd5b823567ffffffffffffffff80821115611cf157600080fd5b818501915085601f830112611d0557600080fd5b81356020611d1282611af2565b604051611d1f8282611ac5565b83815260059390931b8501820192828101915089841115611d3f57600080fd5b948201945b83861015611d66578535611d578161194a565b82529482019490820190611d44565b96505086013592505080821115611d7c57600080fd5b50611d8985828601611b16565b9150509250929050565b600081518084526020808501945080840160005b83811015611dc357815187529582019590820190600101611da7565b509495945050505050565b6020815260006106836020830184611d93565b60006020808385031215611df457600080fd5b823567ffffffffffffffff811115611e0b57600080fd5b8301601f81018513611e1c57600080fd5b8035611e2781611af2565b604051611e348282611ac5565b82815260059290921b8301840191848101915087831115611e5457600080fd5b928401925b82841015611e7257833582529284019290840190611e59565b979650505050505050565b60008060408385031215611e9057600080fd5b8235611e9b8161194a565b915060208301358015158114611eb057600080fd5b809150509250929050565b60008060408385031215611ece57600080fd5b8235611ed98161194a565b91506020830135611eb08161194a565b600080600080600060a08688031215611f0157600080fd5b8535611f0c8161194a565b94506020860135611f1c8161194a565b93506040860135925060608601359150608086013567ffffffffffffffff811115611f4657600080fd5b611c9c88828901611b87565b600181811c90821680611f6657607f821691505b602082108103611f8657634e487b7160e01b600052602260045260246000fd5b50919050565b6020808252602e908201527f455243313135353a2063616c6c6572206973206e6f7420746f6b656e206f776e60408201526d195c881bdc88185c1c1c9bdd995960921b606082015260800190565b634e487b7160e01b600052603260045260246000fd5b634e487b7160e01b600052601160045260246000fd5b60006001820161201857612018611ff0565b5060010190565b60006020828403121561203157600080fd5b5051919050565b60006020828403121561204a57600080fd5b81516106838161194a565b601f821115610b8557600081815260208120601f850160051c8101602086101561207c5750805b601f850160051c820191505b81811015610f6457828155600101612088565b815167ffffffffffffffff8111156120b5576120b5611aaf565b6120c9816120c38454611f52565b84612055565b602080601f8311600181146120fe57600084156120e65750858301515b600019600386901b1c1916600185901b178555610f64565b600085815260208120601f198616915b8281101561212d5788860151825594840194600190910190840161210e565b508582101561214b5787850151600019600388901b60f8161c191681555b5050505050600190811b01905550565b60208082526025908201527f455243313135353a207472616e7366657220746f20746865207a65726f206164604082015264647265737360d81b606082015260800190565b6020808252602a908201527f455243313135353a20696e73756666696369656e742062616c616e636520666f60408201526939103a3930b739b332b960b11b606082015260800190565b8082018082111561049157610491611ff0565b6040815260006122106040830185611d93565b82810360208401526122228185611d93565b95945050505050565b6000835161223d8184602088016119d7565b60609390931b6001600160601b0319169190920190815260140192915050565b6001600160a01b0386811682528516602082015260a06040820181905260009061228990830186611d93565b828103606084015261229b8186611d93565b905082810360808401526122af81856119fb565b98975050505050505050565b6000602082840312156122cd57600080fd5b81516106838161198b565b600060033d11156122f15760046000803e5060005160e01c5b90565b600060443d10156123025790565b6040516003193d81016004833e81513d67ffffffffffffffff816024840111818411171561233257505050505090565b828501915081518181111561234a5750505050505090565b843d87010160208285010111156123645750505050505090565b61237360208286010187611ac5565b509095945050505050565b60208082526028908201527f455243313135353a204552433131353552656365697665722072656a656374656040820152676420746f6b656e7360c01b606082015260800190565b6001600160a01b03868116825285166020820152604081018490526060810183905260a060808201819052600090611e72908301846119fb56fea264697066735822122029e9980e18a06a403f6fbe7a528e414763ecedd1e2f6023f309b7f44267eecf364736f6c63430008110033",
  "linkReferences": {},
  "deployedLinkReferences": {}
}