{
  "_format": "hh-sol-artifact-1",
  "contractName": "Airdrop",
  "sourceName": "contracts/Airdrop.sol",
  "abi": [
    {
      "inputs": [
        {
          "internalType": "bytes32",
          "name": "_root",
          "type": "bytes32"
        },
        {
          "internalType": "string",
          "name": "_nftTokenURIs",
          "type": "string"
        },
        {
          "internalType": "address",
          "name": "_nftAddress",
          "type": "address"
        }
      ],
      "stateMutability": "nonpayable",
      "type": "constructor"
    },
    {
      "inputs": [
        {
          "internalType": "address",
          "name": "caller",
          "type": "address"
        }
      ],
      "name": "Airdrop__AlreadyClaimed",
      "type": "error"
    },
    {
      "inputs": [
        {
          "internalType": "address",
          "name": "caller",
          "type": "address"
        }
      ],
      "name": "Airdrop__NotInAllowList",
      "type": "error"
    },
    {
      "anonymous": false,
      "inputs": [
        {
          "indexed": true,
          "internalType": "address",
          "name": "owner",
          "type": "address"
        },
        {
          "indexed": true,
          "internalType": "uint256",
          "name": "tokenId",
          "type": "uint256"
        }
      ],
      "name": "AirdropClaimed",
      "type": "event"
    },
    {
      "anonymous": false,
      "inputs": [
        {
          "indexed": true,
          "internalType": "address",
          "name": "account",
          "type": "address"
        },
        {
          "indexed": true,
          "internalType": "address",
          "name": "operator",
          "type": "address"
        },
        {
          "indexed": false,
          "internalType": "bool",
          "name": "approved",
          "type": "bool"
        }
      ],
      "name": "ApprovalForAll",
      "type": "event"
    },
    {
      "anonymous": false,
      "inputs": [
        {
          "indexed": true,
          "internalType": "address",
          "name": "previousOwner",
          "type": "address"
        },
        {
          "indexed": true,
          "internalType": "address",
          "name": "newOwner",
          "type": "address"
        }
      ],
      "name": "OwnershipTransferred",
      "type": "event"
    },
    {
      "anonymous": false,
      "inputs": [
        {
          "indexed": true,
          "internalType": "address",
          "name": "owner",
          "type": "address"
        },
        {
          "indexed": true,
          "internalType": "uint256",
          "name": "tokenId",
          "type": "uint256"
        }
      ],
      "name": "TokenBurned",
      "type": "event"
    },
    {
      "anonymous": false,
      "inputs": [
        {
          "indexed": true,
          "internalType": "address",
          "name": "operator",
          "type": "address"
        },
        {
          "indexed": true,
          "internalType": "address",
          "name": "from",
          "type": "address"
        },
        {
          "indexed": true,
          "internalType": "address",
          "name": "to",
          "type": "address"
        },
        {
          "indexed": false,
          "internalType": "uint256[]",
          "name": "ids",
          "type": "uint256[]"
        },
        {
          "indexed": false,
          "internalType": "uint256[]",
          "name": "values",
          "type": "uint256[]"
        }
      ],
      "name": "TransferBatch",
      "type": "event"
    },
    {
      "anonymous": false,
      "inputs": [
        {
          "indexed": true,
          "internalType": "address",
          "name": "operator",
          "type": "address"
        },
        {
          "indexed": true,
          "internalType": "address",
          "name": "from",
          "type": "address"
        },
        {
          "indexed": true,
          "internalType": "address",
          "name": "to",
          "type": "address"
        },
        {
          "indexed": false,
          "internalType": "uint256",
          "name": "id",
          "type": "uint256"
        },
        {
          "indexed": false,
          "internalType": "uint256",
          "name": "value",
          "type": "uint256"
        }
      ],
      "name": "TransferSingle",
      "type": "event"
    },
    {
      "anonymous": false,
      "inputs": [
        {
          "indexed": false,
          "internalType": "string",
          "name": "value",
          "type": "string"
        },
        {
          "indexed": true,
          "internalType": "uint256",
          "name": "id",
          "type": "uint256"
        }
      ],
      "name": "URI",
      "type": "event"
    },
    {
      "inputs": [
        {
          "internalType": "address",
          "name": "account",
          "type": "address"
        },
        {
          "internalType": "uint256",
          "name": "id",
          "type": "uint256"
        }
      ],
      "name": "balanceOf",
      "outputs": [
        {
          "internalType": "uint256",
          "name": "",
          "type": "uint256"
        }
      ],
      "stateMutability": "view",
      "type": "function"
    },
    {
      "inputs": [
        {
          "internalType": "address[]",
          "name": "accounts",
          "type": "address[]"
        },
        {
          "internalType": "uint256[]",
          "name": "ids",
          "type": "uint256[]"
        }
      ],
      "name": "balanceOfBatch",
      "outputs": [
        {
          "internalType": "uint256[]",
          "name": "",
          "type": "uint256[]"
        }
      ],
      "stateMutability": "view",
      "type": "function"
    },
    {
      "inputs": [
        {
          "internalType": "address",
          "name": "_account",
          "type": "address"
        },
        {
          "internalType": "uint256",
          "name": "_id",
          "type": "uint256"
        },
        {
          "internalType": "uint256",
          "name": "_amount",
          "type": "uint256"
        }
      ],
      "name": "burn",
      "outputs": [],
      "stateMutability": "nonpayable",
      "type": "function"
    },
    {
      "inputs": [
        {
          "internalType": "address",
          "name": "account",
          "type": "address"
        },
        {
          "internalType": "uint256[]",
          "name": "ids",
          "type": "uint256[]"
        },
        {
          "internalType": "uint256[]",
          "name": "values",
          "type": "uint256[]"
        }
      ],
      "name": "burnBatch",
      "outputs": [],
      "stateMutability": "nonpayable",
      "type": "function"
    },
    {
      "inputs": [
        {
          "internalType": "bytes32[]",
          "name": "_proof",
          "type": "bytes32[]"
        }
      ],
      "name": "canClaim",
      "outputs": [
        {
          "internalType": "bool",
          "name": "",
          "type": "bool"
        }
      ],
      "stateMutability": "view",
      "type": "function"
    },
    {
      "inputs": [
        {
          "internalType": "bytes32[]",
          "name": "_proof",
          "type": "bytes32[]"
        }
      ],
      "name": "claimAirdrop",
      "outputs": [],
      "stateMutability": "nonpayable",
      "type": "function"
    },
    {
      "inputs": [
        {
          "internalType": "address",
          "name": "_address",
          "type": "address"
        }
      ],
      "name": "getClaimStatus",
      "outputs": [
        {
          "internalType": "bool",
          "name": "",
          "type": "bool"
        }
      ],
      "stateMutability": "view",
      "type": "function"
    },
    {
      "inputs": [
        {
          "internalType": "address",
          "name": "_address",
          "type": "address"
        }
      ],
      "name": "getNftBalance",
      "outputs": [
        {
          "internalType": "uint256",
          "name": "",
          "type": "uint256"
        }
      ],
      "stateMutability": "view",
      "type": "function"
    },
    {
      "inputs": [
        {
          "internalType": "address",
          "name": "_owner",
          "type": "address"
        }
      ],
      "name": "getTokenId",
      "outputs": [
        {
          "internalType": "uint256[]",
          "name": "",
          "type": "uint256[]"
        }
      ],
      "stateMutability": "view",
      "type": "function"
    },
    {
      "inputs": [],
      "name": "i_root",
      "outputs": [
        {
          "internalType": "bytes32",
          "name": "",
          "type": "bytes32"
        }
      ],
      "stateMutability": "view",
      "type": "function"
    },
    {
      "inputs": [
        {
          "internalType": "address",
          "name": "account",
          "type": "address"
        },
        {
          "internalType": "address",
          "name": "operator",
          "type": "address"
        }
      ],
      "name": "isApprovedForAll",
      "outputs": [
        {
          "internalType": "bool",
          "name": "",
          "type": "bool"
        }
      ],
      "stateMutability": "view",
      "type": "function"
    },
    {
      "inputs": [],
      "name": "owner",
      "outputs": [
        {
          "internalType": "address",
          "name": "",
          "type": "address"
        }
      ],
      "stateMutability": "view",
      "type": "function"
    },
    {
      "inputs": [
        {
          "internalType": "uint256",
          "name": "tokenId",
          "type": "uint256"
        }
      ],
      "name": "ownerOf",
      "outputs": [
        {
          "internalType": "address",
          "name": "",
          "type": "address"
        }
      ],
      "stateMutability": "view",
      "type": "function"
    },
    {
      "inputs": [],
      "name": "renounceOwnership",
      "outputs": [],
      "stateMutability": "nonpayable",
      "type": "function"
    },
    {
      "inputs": [
        {
          "internalType": "address",
          "name": "_contractAddress",
          "type": "address"
        }
      ],
      "name": "revokeApproval",
      "outputs": [],
      "stateMutability": "nonpayable",
      "type": "function"
    },
    {
      "inputs": [
        {
          "internalType": "address",
          "name": "",
          "type": "address"
        }
      ],
      "name": "s_claimed",
      "outputs": [
        {
          "internalType": "bool",
          "name": "",
          "type": "bool"
        }
      ],
      "stateMutability": "view",
      "type": "function"
    },
    {
      "inputs": [],
      "name": "s_nftTokenURIs",
      "outputs": [
        {
          "internalType": "string",
          "name": "",
          "type": "string"
        }
      ],
      "stateMutability": "view",
      "type": "function"
    },
    {
      "inputs": [
        {
          "internalType": "uint256",
          "name": "",
          "type": "uint256"
        }
      ],
      "name": "s_tokenOwners",
      "outputs": [
        {
          "internalType": "address",
          "name": "",
          "type": "address"
        }
      ],
      "stateMutability": "view",
      "type": "function"
    },
    {
      "inputs": [
        {
          "internalType": "uint256",
          "name": "",
          "type": "uint256"
        }
      ],
      "name": "s_tokenURIs",
      "outputs": [
        {
          "internalType": "string",
          "name": "",
          "type": "string"
        }
      ],
      "stateMutability": "view",
      "type": "function"
    },
    {
      "inputs": [
        {
          "internalType": "address",
          "name": "from",
          "type": "address"
        },
        {
          "internalType": "address",
          "name": "to",
          "type": "address"
        },
        {
          "internalType": "uint256[]",
          "name": "ids",
          "type": "uint256[]"
        },
        {
          "internalType": "uint256[]",
          "name": "amounts",
          "type": "uint256[]"
        },
        {
          "internalType": "bytes",
          "name": "data",
          "type": "bytes"
        }
      ],
      "name": "safeBatchTransferFrom",
      "outputs": [],
      "stateMutability": "nonpayable",
      "type": "function"
    },
    {
      "inputs": [
        {
          "internalType": "address",
          "name": "from",
          "type": "address"
        },
        {
          "internalType": "address",
          "name": "to",
          "type": "address"
        },
        {
          "internalType": "uint256",
          "name": "id",
          "type": "uint256"
        },
        {
          "internalType": "uint256",
          "name": "amount",
          "type": "uint256"
        },
        {
          "internalType": "bytes",
          "name": "data",
          "type": "bytes"
        }
      ],
      "name": "safeTransferFrom",
      "outputs": [],
      "stateMutability": "nonpayable",
      "type": "function"
    },
    {
      "inputs": [
        {
          "internalType": "address",
          "name": "operator",
          "type": "address"
        },
        {
          "internalType": "bool",
          "name": "approved",
          "type": "bool"
        }
      ],
      "name": "setApprovalForAll",
      "outputs": [],
      "stateMutability": "nonpayable",
      "type": "function"
    },
    {
      "inputs": [
        {
          "internalType": "address",
          "name": "_contractAddress",
          "type": "address"
        }
      ],
      "name": "setApprovedContract",
      "outputs": [],
      "stateMutability": "nonpayable",
      "type": "function"
    },
    {
      "inputs": [
        {
          "internalType": "bytes32",
          "name": "_root",
          "type": "bytes32"
        }
      ],
      "name": "setMerkleRoot",
      "outputs": [],
      "stateMutability": "nonpayable",
      "type": "function"
    },
    {
      "inputs": [
        {
          "internalType": "bytes4",
          "name": "interfaceId",
          "type": "bytes4"
        }
      ],
      "name": "supportsInterface",
      "outputs": [
        {
          "internalType": "bool",
          "name": "",
          "type": "bool"
        }
      ],
      "stateMutability": "view",
      "type": "function"
    },
    {
      "inputs": [
        {
          "internalType": "address",
          "name": "newOwner",
          "type": "address"
        }
      ],
      "name": "transferOwnership",
      "outputs": [],
      "stateMutability": "nonpayable",
      "type": "function"
    },
    {
      "inputs": [
        {
          "internalType": "uint256",
          "name": "",
          "type": "uint256"
        }
      ],
      "name": "uri",
      "outputs": [
        {
          "internalType": "string",
          "name": "",
          "type": "string"
        }
      ],
      "stateMutability": "view",
      "type": "function"
    }
  ],
  "bytecode": "0x60806040523480156200001157600080fd5b5060405162002c8a38038062002c8a833981016040819052620000349162000147565b6040805160208101909152600081526200004e8162000097565b506200005a33620000b0565b600683905560076200006d8382620002c8565b50600580546001600160a01b0319166001600160a01b039290921691909117905550620003949050565b620000ad816200010260201b62000ea91760201c565b50565b600380546001600160a01b038381166001600160a01b0319831681179093556040519116919082907f8be0079c531659141344cd1fd0a4f28419497f9722a3daafe3b4186f6b6457e090600090a35050565b6002620001108282620002c8565b5050565b634e487b7160e01b600052604160045260246000fd5b80516001600160a01b03811681146200014257600080fd5b919050565b6000806000606084860312156200015d57600080fd5b8351602080860151919450906001600160401b03808211156200017f57600080fd5b818701915087601f8301126200019457600080fd5b815181811115620001a957620001a962000114565b604051601f8201601f19908116603f01168101908382118183101715620001d457620001d462000114565b816040528281528a86848701011115620001ed57600080fd5b600093505b82841015620002115784840186015181850187015292850192620001f2565b600086848301015280975050505050505062000230604085016200012a565b90509250925092565b600181811c908216806200024e57607f821691505b6020821081036200026f57634e487b7160e01b600052602260045260246000fd5b50919050565b601f821115620002c357600081815260208120601f850160051c810160208610156200029e5750805b601f850160051c820191505b81811015620002bf57828155600101620002aa565b5050505b505050565b81516001600160401b03811115620002e457620002e462000114565b620002fc81620002f5845462000239565b8462000275565b602080601f8311600181146200033457600084156200031b5750858301515b600019600386901b1c1916600185901b178555620002bf565b600085815260208120601f198616915b82811015620003655788860151825594840194600190910190840162000344565b5085821015620003845787850151600019600388901b60f8161c191681555b5050505050600190811b01905550565b6128e680620003a46000396000f3fe608060405234801561001057600080fd5b50600436106101a85760003560e01c8063715018a6116100f9578063e07ac24311610097578063f153768611610071578063f153768614610415578063f242432a14610428578063f2fde38b1461043b578063f5298aca1461044e57600080fd5b8063e07ac243146103a8578063e1e4fec0146103b0578063e985e9c5146103d957600080fd5b80638da5cb5b116100d35780638da5cb5b14610345578063a22cb46514610356578063c637954b14610369578063c9760f711461037c57600080fd5b8063715018a61461030757806374b3c7ec1461030f5780637cb647591461033257600080fd5b80634d75bbf9116101665780635c014863116101405780635c0148631461028d5780636352211e146102a057806369242dc6146102e15780636b20c454146102f457600080fd5b80634d75bbf9146102515780634e1273f41461025a57806353223ab01461027a57600080fd5b8062fdd58e146101ad57806301ffc9a7146101d35780630e89341c146101f65780631e40dff4146102165780632eb2c2d614610229578063484685b01461023e575b600080fd5b6101c06101bb366004611ccc565b610461565b6040519081526020015b60405180910390f35b6101e66101e1366004611d0c565b6104fa565b60405190151581526020016101ca565b610209610204366004611d29565b61054a565b6040516101ca9190611d92565b6101e6610224366004611da5565b6105de565b61023c610237366004611f62565b610671565b005b61023c61024c36600461200b565b6106bd565b6101c060065481565b61026d610268366004612026565b6106e6565b6040516101ca919061212b565b61023c61028836600461213e565b61080f565b61020961029b366004611d29565b610a89565b6102c96102ae366004611d29565b6000908152600c60205260409020546001600160a01b031690565b6040516001600160a01b0390911681526020016101ca565b61023c6102ef36600461200b565b610b23565b61023c6103023660046121d9565b610b4f565b61023c610b97565b6101e661031d36600461200b565b60086020526000908152604090205460ff1681565b61023c610340366004611d29565b610bab565b6003546001600160a01b03166102c9565b61023c61036436600461224c565b610bb8565b6101c061037736600461200b565b610bc7565b6101e661038a36600461200b565b6001600160a01b031660009081526008602052604090205460ff1690565b610209610c36565b6102c96103be366004611d29565b600c602052600090815260409020546001600160a01b031681565b6101e66103e7366004612288565b6001600160a01b03918216600090815260016020908152604080832093909416825291909152205460ff1690565b61026d61042336600461200b565b610c43565b61023c6104363660046122bb565b610cae565b61023c61044936600461200b565b610cf3565b61023c61045c36600461231f565b610d6c565b60006001600160a01b0383166104d15760405162461bcd60e51b815260206004820152602a60248201527f455243313135353a2061646472657373207a65726f206973206e6f742061207660448201526930b634b21037bbb732b960b11b60648201526084015b60405180910390fd5b506000818152602081815260408083206001600160a01b03861684529091529020545b92915050565b60006001600160e01b03198216636cdb3d1360e11b148061052b57506001600160e01b031982166303a24d0760e21b145b806104f457506301ffc9a760e01b6001600160e01b03198316146104f4565b60606002805461055990612352565b80601f016020809104026020016040519081016040528092919081815260200182805461058590612352565b80156105d25780601f106105a7576101008083540402835291602001916105d2565b820191906000526020600020905b8154815290600101906020018083116105b557829003601f168201915b50505050509050919050565b3360009081526008602052604081205460ff1615801561066a575061066a838380806020026020016040519081016040528093929190818152602001838360200280828437600092019190915250506006546040516001600160601b03193360601b16602082015290925060340190505b60405160208183030381529060405280519060200120610eb5565b9392505050565b6001600160a01b03851633148061068d575061068d85336103e7565b6106a95760405162461bcd60e51b81526004016104c89061238c565b6106b68585858585610ecb565b5050505050565b6106c5611075565b6001600160a01b03166000908152600e60205260409020805460ff19169055565b6060815183511461074b5760405162461bcd60e51b815260206004820152602960248201527f455243313135353a206163636f756e747320616e6420696473206c656e677468604482015268040dad2e6dac2e8c6d60bb1b60648201526084016104c8565b600083516001600160401b0381111561076657610766611e19565b60405190808252806020026020018201604052801561078f578160200160208202803683370190505b50905060005b8451811015610807576107da8582815181106107b3576107b36123da565b60200260200101518583815181106107cd576107cd6123da565b6020026020010151610461565b8282815181106107ec576107ec6123da565b602090810291909101015261080081612406565b9050610795565b509392505050565b3360009081526008602052604090205460ff16156108425760405163e0cd221960e01b81523360048201526024016104c8565b61084b816110cf565b61086a5760405163ae18156360e01b81523360048201526024016104c8565b6005546040516370a0823160e01b81523360048201526000916001600160a01b0316906370a0823190602401602060405180830381865afa1580156108b3573d6000803e3d6000fd5b505050506040513d601f19601f820116820180604052508101906108d7919061241f565b9050600081116109295760405162461bcd60e51b815260206004820152601b60248201527f41697264726f703a204e6f20746f6b656e7320746f20636c61696d000000000060448201526064016104c8565b6000816001600160401b0381111561094357610943611e19565b60405190808252806020026020018201604052801561096c578160200160208202803683370190505b50905060005b82811015610a4e57600061098633836110fa565b90508083838151811061099b5761099b6123da565b6020908102919091018101919091526000828152600c9091526040902080546001600160a01b031916339081179091556109d49061123a565b6000828152600d60205260409020906109ed908261247e565b50336000818152600a602090815260408083208054600181018255908452918320909101849055518392917f650e45f04ef8a0c267b2f78d983913f69ae3a353b2b32de5429307522be0ab5591a35080610a4681612406565b915050610972565b50610a6a33828460405180602001604052806000815250611274565b5050336000908152600860205260409020805460ff1916600117905550565b600d6020526000908152604090208054610aa290612352565b80601f0160208091040260200160405190810160405280929190818152602001828054610ace90612352565b8015610b1b5780601f10610af057610100808354040283529160200191610b1b565b820191906000526020600020905b815481529060010190602001808311610afe57829003601f168201915b505050505081565b610b2b611075565b6001600160a01b03166000908152600e60205260409020805460ff19166001179055565b6001600160a01b038316331480610b6b5750610b6b83336103e7565b610b875760405162461bcd60e51b81526004016104c89061238c565b610b928383836112fd565b505050565b610b9f611075565b610ba9600061149a565b565b610bb3611075565b600655565b610bc33383836114ec565b5050565b6005546040516370a0823160e01b81526001600160a01b03838116600483015260009216906370a0823190602401602060405180830381865afa158015610c12573d6000803e3d6000fd5b505050506040513d601f19601f820116820180604052508101906104f4919061241f565b60078054610aa290612352565b6001600160a01b0381166000908152600a60209081526040918290208054835181840281018401909452808452606093928301828280156105d257602002820191906000526020600020905b815481526020019060010190808311610c8f5750505050509050919050565b6001600160a01b038516331480610cca5750610cca85336103e7565b610ce65760405162461bcd60e51b81526004016104c89061238c565b6106b685858585856115cc565b610cfb611075565b6001600160a01b038116610d605760405162461bcd60e51b815260206004820152602660248201527f4f776e61626c653a206e6577206f776e657220697320746865207a65726f206160448201526564647265737360d01b60648201526084016104c8565b610d698161149a565b50565b336001600160a01b0384161480610d9c57506000828152600c60205260409020546001600160a01b038481169116145b610dfe5760405162461bcd60e51b815260206004820152602d60248201527f41697264726f703a2063616c6c6572206973206e6f7420746865206f776e657260448201526c1037b3103a3432903a37b5b2b760991b60648201526084016104c8565b80610e098484610461565b1015610e635760405162461bcd60e51b8152602060048201526024808201527f41697264726f703a206275726e20616d6f756e7420657863656564732062616c604482015263616e636560e01b60648201526084016104c8565b610e6e838383611704565b60405182906001600160a01b038516907f1af5163f80e79b5e554f61e1d052084d3a3fe1166e42a265798c4e2ddce8ffa290600090a3505050565b6002610bc3828261247e565b600082610ec28584611821565b14949350505050565b8151835114610eec5760405162461bcd60e51b81526004016104c89061253d565b6001600160a01b038416610f125760405162461bcd60e51b81526004016104c890612585565b33610f21818787878787611866565b60005b8451811015611007576000858281518110610f4157610f416123da565b602002602001015190506000858381518110610f5f57610f5f6123da565b602090810291909101810151600084815280835260408082206001600160a01b038e168352909352919091205490915081811015610faf5760405162461bcd60e51b81526004016104c8906125ca565b6000838152602081815260408083206001600160a01b038e8116855292528083208585039055908b16825281208054849290610fec908490612614565b925050819055505050508061100090612406565b9050610f24565b50846001600160a01b0316866001600160a01b0316826001600160a01b03167f4a39dc06d4c0dbc64b70af90fd698a233a518aa5d07e595d983b8c0526c8f7fb8787604051611057929190612627565b60405180910390a461106d818787878787611906565b505050505050565b6003546001600160a01b03163314610ba95760405162461bcd60e51b815260206004820181905260248201527f4f776e61626c653a2063616c6c6572206973206e6f7420746865206f776e657260448201526064016104c8565b6006546040516001600160601b03193360601b1660208201526000916104f49184919060340161064f565b6005546040516370a0823160e01b81526001600160a01b03848116600483015260009283929116906370a0823190602401602060405180830381865afa158015611148573d6000803e3d6000fd5b505050506040513d601f19601f8201168201806040525081019061116c919061241f565b90508083106111bd5760405162461bcd60e51b815260206004820152601c60248201527f41697264726f703a20696e646578206f7574206f6620626f756e64730000000060448201526064016104c8565b600554604051632f745c5960e01b81526001600160a01b0386811660048301526024820186905290911690632f745c5990604401602060405180830381865afa15801561120e573d6000803e3d6000fd5b505050506040513d601f19601f82011682018060405250810190611232919061241f565b949350505050565b60606000611248600061054a565b9050808360405160200161125d929190612655565b604051602081830303815290604052915050919050565b60005b83518110156106b6576112a585858381518110611296576112966123da565b60200260200101518585611a61565b6001600960008684815181106112bd576112bd6123da565b6020026020010151815260200190815260200160002060006101000a81548160ff02191690831515021790555080806112f590612406565b915050611277565b6001600160a01b0383166113235760405162461bcd60e51b81526004016104c890612687565b80518251146113445760405162461bcd60e51b81526004016104c89061253d565b600033905061136781856000868660405180602001604052806000815250611866565b60005b835181101561142c576000848281518110611387576113876123da565b6020026020010151905060008483815181106113a5576113a56123da565b602090810291909101810151600084815280835260408082206001600160a01b038c1683529093529190912054909150818110156113f55760405162461bcd60e51b81526004016104c8906126ca565b6000928352602083815260408085206001600160a01b038b168652909152909220910390558061142481612406565b91505061136a565b5060006001600160a01b0316846001600160a01b0316826001600160a01b03167f4a39dc06d4c0dbc64b70af90fd698a233a518aa5d07e595d983b8c0526c8f7fb868660405161147d929190612627565b60405180910390a460408051602081019091526000905250505050565b600380546001600160a01b038381166001600160a01b0319831681179093556040519116919082907f8be0079c531659141344cd1fd0a4f28419497f9722a3daafe3b4186f6b6457e090600090a35050565b816001600160a01b0316836001600160a01b03160361155f5760405162461bcd60e51b815260206004820152602960248201527f455243313135353a2073657474696e6720617070726f76616c20737461747573604482015268103337b91039b2b63360b91b60648201526084016104c8565b6001600160a01b03838116600081815260016020908152604080832094871680845294825291829020805460ff191686151590811790915591519182527f17307eab39ab6107e8899845ad3d59bd9653f200f220920489ca2b5937696c31910160405180910390a3505050565b6001600160a01b0384166115f25760405162461bcd60e51b81526004016104c890612585565b3360006115fe85611b7b565b9050600061160b85611b7b565b905061161b838989858589611866565b6000868152602081815260408083206001600160a01b038c1684529091529020548581101561165c5760405162461bcd60e51b81526004016104c8906125ca565b6000878152602081815260408083206001600160a01b038d8116855292528083208985039055908a16825281208054889290611699908490612614565b909155505060408051888152602081018890526001600160a01b03808b16928c821692918816917fc3d58168c5ae7397731d063d5bbf3d657854427343f4c083240f7aacaa2d0f62910160405180910390a46116f9848a8a8a8a8a611bc6565b505050505050505050565b6001600160a01b03831661172a5760405162461bcd60e51b81526004016104c890612687565b33600061173684611b7b565b9050600061174384611b7b565b905061176383876000858560405180602001604052806000815250611866565b6000858152602081815260408083206001600160a01b038a168452909152902054848110156117a45760405162461bcd60e51b81526004016104c8906126ca565b6000868152602081815260408083206001600160a01b038b81168086529184528285208a8703905582518b81529384018a90529092908816917fc3d58168c5ae7397731d063d5bbf3d657854427343f4c083240f7aacaa2d0f62910160405180910390a46040805160208101909152600090525b50505050505050565b600081815b84518110156108075761185282868381518110611845576118456123da565b6020026020010151611c81565b91508061185e81612406565b915050611826565b6001600160a01b0385161561106d576001600160a01b038416158015906118a657506001600160a01b0384166000908152600e602052604090205460ff16155b1561106d5760405162461bcd60e51b815260206004820152602a60248201527f41697264726f703a207472616e7366657220746f206e6f6e20617070726f7665604482015269190818dbdb9d1c9858dd60b21b60648201526084016104c8565b6001600160a01b0384163b1561106d5760405163bc197c8160e01b81526001600160a01b0385169063bc197c819061194a908990899088908890889060040161270e565b6020604051808303816000875af1925050508015611985575060408051601f3d908101601f191682019092526119829181019061276c565b60015b611a3157611991612789565b806308c379a0036119ca57506119a56127a5565b806119b057506119cc565b8060405162461bcd60e51b81526004016104c89190611d92565b505b60405162461bcd60e51b815260206004820152603460248201527f455243313135353a207472616e7366657220746f206e6f6e2d455243313135356044820152732932b1b2b4bb32b91034b6b83632b6b2b73a32b960611b60648201526084016104c8565b6001600160e01b0319811663bc197c8160e01b146118185760405162461bcd60e51b81526004016104c89061282e565b6001600160a01b038416611ac15760405162461bcd60e51b815260206004820152602160248201527f455243313135353a206d696e7420746f20746865207a65726f206164647265736044820152607360f81b60648201526084016104c8565b336000611acd85611b7b565b90506000611ada85611b7b565b9050611aeb83600089858589611866565b6000868152602081815260408083206001600160a01b038b16845290915281208054879290611b1b908490612614565b909155505060408051878152602081018790526001600160a01b03808a1692600092918716917fc3d58168c5ae7397731d063d5bbf3d657854427343f4c083240f7aacaa2d0f62910160405180910390a461181883600089898989611bc6565b60408051600180825281830190925260609160009190602080830190803683370190505090508281600081518110611bb557611bb56123da565b602090810291909101015292915050565b6001600160a01b0384163b1561106d5760405163f23a6e6160e01b81526001600160a01b0385169063f23a6e6190611c0a9089908990889088908890600401612876565b6020604051808303816000875af1925050508015611c45575060408051601f3d908101601f19168201909252611c429181019061276c565b60015b611c5157611991612789565b6001600160e01b0319811663f23a6e6160e01b146118185760405162461bcd60e51b81526004016104c89061282e565b6000818310611c9d57600082815260208490526040902061066a565b600083815260208390526040902061066a565b80356001600160a01b0381168114611cc757600080fd5b919050565b60008060408385031215611cdf57600080fd5b611ce883611cb0565b946020939093013593505050565b6001600160e01b031981168114610d6957600080fd5b600060208284031215611d1e57600080fd5b813561066a81611cf6565b600060208284031215611d3b57600080fd5b5035919050565b60005b83811015611d5d578181015183820152602001611d45565b50506000910152565b60008151808452611d7e816020860160208601611d42565b601f01601f19169290920160200192915050565b60208152600061066a6020830184611d66565b60008060208385031215611db857600080fd5b82356001600160401b0380821115611dcf57600080fd5b818501915085601f830112611de357600080fd5b813581811115611df257600080fd5b8660208260051b8501011115611e0757600080fd5b60209290920196919550909350505050565b634e487b7160e01b600052604160045260246000fd5b601f8201601f191681016001600160401b0381118282101715611e5457611e54611e19565b6040525050565b60006001600160401b03821115611e7457611e74611e19565b5060051b60200190565b600082601f830112611e8f57600080fd5b81356020611e9c82611e5b565b604051611ea98282611e2f565b83815260059390931b8501820192828101915086841115611ec957600080fd5b8286015b84811015611ee45780358352918301918301611ecd565b509695505050505050565b600082601f830112611f0057600080fd5b81356001600160401b03811115611f1957611f19611e19565b604051611f30601f8301601f191660200182611e2f565b818152846020838601011115611f4557600080fd5b816020850160208301376000918101602001919091529392505050565b600080600080600060a08688031215611f7a57600080fd5b611f8386611cb0565b9450611f9160208701611cb0565b935060408601356001600160401b0380821115611fad57600080fd5b611fb989838a01611e7e565b94506060880135915080821115611fcf57600080fd5b611fdb89838a01611e7e565b93506080880135915080821115611ff157600080fd5b50611ffe88828901611eef565b9150509295509295909350565b60006020828403121561201d57600080fd5b61066a82611cb0565b6000806040838503121561203957600080fd5b82356001600160401b038082111561205057600080fd5b818501915085601f83011261206457600080fd5b8135602061207182611e5b565b60405161207e8282611e2f565b83815260059390931b850182019282810191508984111561209e57600080fd5b948201945b838610156120c3576120b486611cb0565b825294820194908201906120a3565b965050860135925050808211156120d957600080fd5b506120e685828601611e7e565b9150509250929050565b600081518084526020808501945080840160005b8381101561212057815187529582019590820190600101612104565b509495945050505050565b60208152600061066a60208301846120f0565b6000602080838503121561215157600080fd5b82356001600160401b0381111561216757600080fd5b8301601f8101851361217857600080fd5b803561218381611e5b565b6040516121908282611e2f565b82815260059290921b83018401918481019150878311156121b057600080fd5b928401925b828410156121ce578335825292840192908401906121b5565b979650505050505050565b6000806000606084860312156121ee57600080fd5b6121f784611cb0565b925060208401356001600160401b038082111561221357600080fd5b61221f87838801611e7e565b9350604086013591508082111561223557600080fd5b5061224286828701611e7e565b9150509250925092565b6000806040838503121561225f57600080fd5b61226883611cb0565b91506020830135801515811461227d57600080fd5b809150509250929050565b6000806040838503121561229b57600080fd5b6122a483611cb0565b91506122b260208401611cb0565b90509250929050565b600080600080600060a086880312156122d357600080fd5b6122dc86611cb0565b94506122ea60208701611cb0565b9350604086013592506060860135915060808601356001600160401b0381111561231357600080fd5b611ffe88828901611eef565b60008060006060848603121561233457600080fd5b61233d84611cb0565b95602085013595506040909401359392505050565b600181811c9082168061236657607f821691505b60208210810361238657634e487b7160e01b600052602260045260246000fd5b50919050565b6020808252602e908201527f455243313135353a2063616c6c6572206973206e6f7420746f6b656e206f776e60408201526d195c881bdc88185c1c1c9bdd995960921b606082015260800190565b634e487b7160e01b600052603260045260246000fd5b634e487b7160e01b600052601160045260246000fd5b600060018201612418576124186123f0565b5060010190565b60006020828403121561243157600080fd5b5051919050565b601f821115610b9257600081815260208120601f850160051c8101602086101561245f5750805b601f850160051c820191505b8181101561106d5782815560010161246b565b81516001600160401b0381111561249757612497611e19565b6124ab816124a58454612352565b84612438565b602080601f8311600181146124e057600084156124c85750858301515b600019600386901b1c1916600185901b17855561106d565b600085815260208120601f198616915b8281101561250f578886015182559484019460019091019084016124f0565b508582101561252d5787850151600019600388901b60f8161c191681555b5050505050600190811b01905550565b60208082526028908201527f455243313135353a2069647320616e6420616d6f756e7473206c656e677468206040820152670dad2e6dac2e8c6d60c31b606082015260800190565b60208082526025908201527f455243313135353a207472616e7366657220746f20746865207a65726f206164604082015264647265737360d81b606082015260800190565b6020808252602a908201527f455243313135353a20696e73756666696369656e742062616c616e636520666f60408201526939103a3930b739b332b960b11b606082015260800190565b808201808211156104f4576104f46123f0565b60408152600061263a60408301856120f0565b828103602084015261264c81856120f0565b95945050505050565b60008351612667818460208801611d42565b60609390931b6001600160601b0319169190920190815260140192915050565b60208082526023908201527f455243313135353a206275726e2066726f6d20746865207a65726f206164647260408201526265737360e81b606082015260800190565b60208082526024908201527f455243313135353a206275726e20616d6f756e7420657863656564732062616c604082015263616e636560e01b606082015260800190565b6001600160a01b0386811682528516602082015260a06040820181905260009061273a908301866120f0565b828103606084015261274c81866120f0565b905082810360808401526127608185611d66565b98975050505050505050565b60006020828403121561277e57600080fd5b815161066a81611cf6565b600060033d11156127a25760046000803e5060005160e01c5b90565b600060443d10156127b35790565b6040516003193d81016004833e81513d6001600160401b0381602484011181841117156127e257505050505090565b82850191508151818111156127fa5750505050505090565b843d87010160208285010111156128145750505050505090565b61282360208286010187611e2f565b509095945050505050565b60208082526028908201527f455243313135353a204552433131353552656365697665722072656a656374656040820152676420746f6b656e7360c01b606082015260800190565b6001600160a01b03868116825285166020820152604081018490526060810183905260a0608082018190526000906121ce90830184611d6656fea26469706673582212203679ec5ffc0eb73b2416f68c1f3bd592e0aed401f24ad9a814812cb2f344b69464736f6c63430008110033",
  "linkReferences": {},
  "deployedLinkReferences": {}
}