{
  "_format": "hh-sol-artifact-1",
  "contractName": "Airdrop",
  "sourceName": "contracts/Airdrop.sol",
  "abi": [
    {
      "inputs": [
        {
          "internalType": "bytes32",
          "name": "_root",
          "type": "bytes32"
        },
        {
          "internalType": "string",
          "name": "_nftTokenURIs",
          "type": "string"
        },
        {
          "internalType": "address",
          "name": "_nftAddress",
          "type": "address"
        }
      ],
      "stateMutability": "nonpayable",
      "type": "constructor"
    },
    {
      "inputs": [
        {
          "internalType": "address",
          "name": "caller",
          "type": "address"
        }
      ],
      "name": "Airdrop__AlreadyClaimed",
      "type": "error"
    },
    {
      "inputs": [
        {
          "internalType": "address",
          "name": "caller",
          "type": "address"
        }
      ],
      "name": "Airdrop__NotInAllowList",
      "type": "error"
    },
    {
      "anonymous": false,
      "inputs": [
        {
          "indexed": true,
          "internalType": "address",
          "name": "owner",
          "type": "address"
        },
        {
          "indexed": true,
          "internalType": "uint256",
          "name": "tokenId",
          "type": "uint256"
        }
      ],
      "name": "AirdropClaimed",
      "type": "event"
    },
    {
      "anonymous": false,
      "inputs": [
        {
          "indexed": true,
          "internalType": "address",
          "name": "account",
          "type": "address"
        },
        {
          "indexed": true,
          "internalType": "address",
          "name": "operator",
          "type": "address"
        },
        {
          "indexed": false,
          "internalType": "bool",
          "name": "approved",
          "type": "bool"
        }
      ],
      "name": "ApprovalForAll",
      "type": "event"
    },
    {
      "anonymous": false,
      "inputs": [
        {
          "indexed": true,
          "internalType": "address",
          "name": "previousOwner",
          "type": "address"
        },
        {
          "indexed": true,
          "internalType": "address",
          "name": "newOwner",
          "type": "address"
        }
      ],
      "name": "OwnershipTransferred",
      "type": "event"
    },
    {
      "anonymous": false,
      "inputs": [
        {
          "indexed": true,
          "internalType": "address",
          "name": "owner",
          "type": "address"
        },
        {
          "indexed": true,
          "internalType": "uint256",
          "name": "tokenId",
          "type": "uint256"
        }
      ],
      "name": "TokenBurned",
      "type": "event"
    },
    {
      "anonymous": false,
      "inputs": [
        {
          "indexed": true,
          "internalType": "address",
          "name": "operator",
          "type": "address"
        },
        {
          "indexed": true,
          "internalType": "address",
          "name": "from",
          "type": "address"
        },
        {
          "indexed": true,
          "internalType": "address",
          "name": "to",
          "type": "address"
        },
        {
          "indexed": false,
          "internalType": "uint256[]",
          "name": "ids",
          "type": "uint256[]"
        },
        {
          "indexed": false,
          "internalType": "uint256[]",
          "name": "values",
          "type": "uint256[]"
        }
      ],
      "name": "TransferBatch",
      "type": "event"
    },
    {
      "anonymous": false,
      "inputs": [
        {
          "indexed": true,
          "internalType": "address",
          "name": "operator",
          "type": "address"
        },
        {
          "indexed": true,
          "internalType": "address",
          "name": "from",
          "type": "address"
        },
        {
          "indexed": true,
          "internalType": "address",
          "name": "to",
          "type": "address"
        },
        {
          "indexed": false,
          "internalType": "uint256",
          "name": "id",
          "type": "uint256"
        },
        {
          "indexed": false,
          "internalType": "uint256",
          "name": "value",
          "type": "uint256"
        }
      ],
      "name": "TransferSingle",
      "type": "event"
    },
    {
      "anonymous": false,
      "inputs": [
        {
          "indexed": false,
          "internalType": "string",
          "name": "value",
          "type": "string"
        },
        {
          "indexed": true,
          "internalType": "uint256",
          "name": "id",
          "type": "uint256"
        }
      ],
      "name": "URI",
      "type": "event"
    },
    {
      "inputs": [
        {
          "internalType": "address",
          "name": "account",
          "type": "address"
        },
        {
          "internalType": "uint256",
          "name": "id",
          "type": "uint256"
        }
      ],
      "name": "balanceOf",
      "outputs": [
        {
          "internalType": "uint256",
          "name": "",
          "type": "uint256"
        }
      ],
      "stateMutability": "view",
      "type": "function"
    },
    {
      "inputs": [
        {
          "internalType": "address[]",
          "name": "accounts",
          "type": "address[]"
        },
        {
          "internalType": "uint256[]",
          "name": "ids",
          "type": "uint256[]"
        }
      ],
      "name": "balanceOfBatch",
      "outputs": [
        {
          "internalType": "uint256[]",
          "name": "",
          "type": "uint256[]"
        }
      ],
      "stateMutability": "view",
      "type": "function"
    },
    {
      "inputs": [
        {
          "internalType": "uint256",
          "name": "tokenId",
          "type": "uint256"
        }
      ],
      "name": "burn",
      "outputs": [],
      "stateMutability": "nonpayable",
      "type": "function"
    },
    {
      "inputs": [
        {
          "internalType": "bytes32[]",
          "name": "_proof",
          "type": "bytes32[]"
        }
      ],
      "name": "canClaim",
      "outputs": [
        {
          "internalType": "bool",
          "name": "",
          "type": "bool"
        }
      ],
      "stateMutability": "view",
      "type": "function"
    },
    {
      "inputs": [
        {
          "internalType": "bytes32[]",
          "name": "_proof",
          "type": "bytes32[]"
        }
      ],
      "name": "claimAirdrop",
      "outputs": [],
      "stateMutability": "nonpayable",
      "type": "function"
    },
    {
      "inputs": [
        {
          "internalType": "address",
          "name": "_address",
          "type": "address"
        }
      ],
      "name": "getClaimStatus",
      "outputs": [
        {
          "internalType": "bool",
          "name": "",
          "type": "bool"
        }
      ],
      "stateMutability": "view",
      "type": "function"
    },
    {
      "inputs": [
        {
          "internalType": "address",
          "name": "_address",
          "type": "address"
        }
      ],
      "name": "getNftBalance",
      "outputs": [
        {
          "internalType": "uint256",
          "name": "",
          "type": "uint256"
        }
      ],
      "stateMutability": "view",
      "type": "function"
    },
    {
      "inputs": [
        {
          "internalType": "address",
          "name": "_owner",
          "type": "address"
        }
      ],
      "name": "getTokenId",
      "outputs": [
        {
          "internalType": "uint256",
          "name": "",
          "type": "uint256"
        }
      ],
      "stateMutability": "view",
      "type": "function"
    },
    {
      "inputs": [],
      "name": "i_root",
      "outputs": [
        {
          "internalType": "bytes32",
          "name": "",
          "type": "bytes32"
        }
      ],
      "stateMutability": "view",
      "type": "function"
    },
    {
      "inputs": [
        {
          "internalType": "address",
          "name": "account",
          "type": "address"
        },
        {
          "internalType": "address",
          "name": "operator",
          "type": "address"
        }
      ],
      "name": "isApprovedForAll",
      "outputs": [
        {
          "internalType": "bool",
          "name": "",
          "type": "bool"
        }
      ],
      "stateMutability": "view",
      "type": "function"
    },
    {
      "inputs": [],
      "name": "owner",
      "outputs": [
        {
          "internalType": "address",
          "name": "",
          "type": "address"
        }
      ],
      "stateMutability": "view",
      "type": "function"
    },
    {
      "inputs": [
        {
          "internalType": "uint256",
          "name": "tokenId",
          "type": "uint256"
        }
      ],
      "name": "ownerOf",
      "outputs": [
        {
          "internalType": "bool",
          "name": "",
          "type": "bool"
        }
      ],
      "stateMutability": "view",
      "type": "function"
    },
    {
      "inputs": [],
      "name": "renounceOwnership",
      "outputs": [],
      "stateMutability": "nonpayable",
      "type": "function"
    },
    {
      "inputs": [
        {
          "internalType": "address",
          "name": "_contractAddress",
          "type": "address"
        }
      ],
      "name": "revokeApproval",
      "outputs": [],
      "stateMutability": "nonpayable",
      "type": "function"
    },
    {
      "inputs": [
        {
          "internalType": "address",
          "name": "",
          "type": "address"
        }
      ],
      "name": "s_claimed",
      "outputs": [
        {
          "internalType": "bool",
          "name": "",
          "type": "bool"
        }
      ],
      "stateMutability": "view",
      "type": "function"
    },
    {
      "inputs": [],
      "name": "s_nftTokenURIs",
      "outputs": [
        {
          "internalType": "string",
          "name": "",
          "type": "string"
        }
      ],
      "stateMutability": "view",
      "type": "function"
    },
    {
      "inputs": [
        {
          "internalType": "uint256",
          "name": "",
          "type": "uint256"
        }
      ],
      "name": "s_tokenOwners",
      "outputs": [
        {
          "internalType": "address",
          "name": "",
          "type": "address"
        }
      ],
      "stateMutability": "view",
      "type": "function"
    },
    {
      "inputs": [
        {
          "internalType": "uint256",
          "name": "",
          "type": "uint256"
        }
      ],
      "name": "s_tokenURIs",
      "outputs": [
        {
          "internalType": "string",
          "name": "",
          "type": "string"
        }
      ],
      "stateMutability": "view",
      "type": "function"
    },
    {
      "inputs": [
        {
          "internalType": "address",
          "name": "from",
          "type": "address"
        },
        {
          "internalType": "address",
          "name": "to",
          "type": "address"
        },
        {
          "internalType": "uint256[]",
          "name": "ids",
          "type": "uint256[]"
        },
        {
          "internalType": "uint256[]",
          "name": "amounts",
          "type": "uint256[]"
        },
        {
          "internalType": "bytes",
          "name": "data",
          "type": "bytes"
        }
      ],
      "name": "safeBatchTransferFrom",
      "outputs": [],
      "stateMutability": "nonpayable",
      "type": "function"
    },
    {
      "inputs": [
        {
          "internalType": "address",
          "name": "from",
          "type": "address"
        },
        {
          "internalType": "address",
          "name": "to",
          "type": "address"
        },
        {
          "internalType": "uint256",
          "name": "id",
          "type": "uint256"
        },
        {
          "internalType": "uint256",
          "name": "amount",
          "type": "uint256"
        },
        {
          "internalType": "bytes",
          "name": "data",
          "type": "bytes"
        }
      ],
      "name": "safeTransferFrom",
      "outputs": [],
      "stateMutability": "nonpayable",
      "type": "function"
    },
    {
      "inputs": [
        {
          "internalType": "address",
          "name": "operator",
          "type": "address"
        },
        {
          "internalType": "bool",
          "name": "approved",
          "type": "bool"
        }
      ],
      "name": "setApprovalForAll",
      "outputs": [],
      "stateMutability": "nonpayable",
      "type": "function"
    },
    {
      "inputs": [
        {
          "internalType": "address",
          "name": "_contractAddress",
          "type": "address"
        }
      ],
      "name": "setApprovedContract",
      "outputs": [],
      "stateMutability": "nonpayable",
      "type": "function"
    },
    {
      "inputs": [
        {
          "internalType": "bytes32",
          "name": "_root",
          "type": "bytes32"
        }
      ],
      "name": "setMerkleRoot",
      "outputs": [],
      "stateMutability": "nonpayable",
      "type": "function"
    },
    {
      "inputs": [
        {
          "internalType": "bytes4",
          "name": "interfaceId",
          "type": "bytes4"
        }
      ],
      "name": "supportsInterface",
      "outputs": [
        {
          "internalType": "bool",
          "name": "",
          "type": "bool"
        }
      ],
      "stateMutability": "view",
      "type": "function"
    },
    {
      "inputs": [
        {
          "internalType": "address",
          "name": "newOwner",
          "type": "address"
        }
      ],
      "name": "transferOwnership",
      "outputs": [],
      "stateMutability": "nonpayable",
      "type": "function"
    },
    {
      "inputs": [
        {
          "internalType": "uint256",
          "name": "_tokenId",
          "type": "uint256"
        }
      ],
      "name": "uri",
      "outputs": [
        {
          "internalType": "string",
          "name": "",
          "type": "string"
        }
      ],
      "stateMutability": "view",
      "type": "function"
    }
  ],
  "bytecode": "0x60806040523480156200001157600080fd5b506040516200297138038062002971833981016040819052620000349162000201565b6040805160208101909152600081526200004e8162000151565b506200005a336200016a565b600683905560076200006d838262000382565b50600580546001600160a01b0319166001600160a01b03831617905560005b6005546040516331a9108f60e11b8152600481018390526001600160a01b0390911690636352211e90602401602060405180830381865afa925050508015620000f4575060408051601f3d908101601f19168201909252620000f1918101906200044e565b60015b1562000147576001600160a01b0381166000908152600b6020908152604080832085845290915281208054916200012b8362000473565b919050555081806200013d9062000473565b925050506200008c565b505050506200049b565b6200016781620001bc60201b62000def1760201c565b50565b600380546001600160a01b038381166001600160a01b0319831681179093556040519116919082907f8be0079c531659141344cd1fd0a4f28419497f9722a3daafe3b4186f6b6457e090600090a35050565b6002620001ca828262000382565b5050565b634e487b7160e01b600052604160045260246000fd5b80516001600160a01b0381168114620001fc57600080fd5b919050565b6000806000606084860312156200021757600080fd5b8351602080860151919450906001600160401b03808211156200023957600080fd5b818701915087601f8301126200024e57600080fd5b815181811115620002635762000263620001ce565b604051601f8201601f19908116603f011681019083821181831017156200028e576200028e620001ce565b816040528281528a86848701011115620002a757600080fd5b600093505b82841015620002cb5784840186015181850187015292850192620002ac565b6000868483010152809750505050505050620002ea60408501620001e4565b90509250925092565b600181811c908216806200030857607f821691505b6020821081036200032957634e487b7160e01b600052602260045260246000fd5b50919050565b601f8211156200037d57600081815260208120601f850160051c81016020861015620003585750805b601f850160051c820191505b81811015620003795782815560010162000364565b5050505b505050565b81516001600160401b038111156200039e576200039e620001ce565b620003b681620003af8454620002f3565b846200032f565b602080601f831160018114620003ee5760008415620003d55750858301515b600019600386901b1c1916600185901b17855562000379565b600085815260208120601f198616915b828110156200041f57888601518255948401946001909101908401620003fe565b50858210156200043e5787850151600019600388901b60f8161c191681555b5050505050600190811b01905550565b6000602082840312156200046157600080fd5b6200046c82620001e4565b9392505050565b6000600182016200049457634e487b7160e01b600052601160045260246000fd5b5060010190565b6124c680620004ab6000396000f3fe608060405234801561001057600080fd5b506004361061018d5760003560e01c8063715018a6116100de578063c9760f7111610097578063e985e9c511610071578063e985e9c5146103a4578063f1537686146103e0578063f242432a14610409578063f2fde38b1461041c57600080fd5b8063c9760f7114610347578063e07ac24314610373578063e1e4fec01461037b57600080fd5b8063715018a6146102be57806374b3c7ec146102c65780637cb64759146102e95780638da5cb5b146102fc578063a22cb46514610321578063c637954b1461033457600080fd5b8063484685b01161014b57806353223ab01161012557806353223ab0146102725780635c014863146102855780636352211e1461029857806369242dc6146102ab57600080fd5b8063484685b0146102365780634d75bbf9146102495780634e1273f41461025257600080fd5b8062fdd58e1461019257806301ffc9a7146101b85780630e89341c146101db5780631e40dff4146101fb5780632eb2c2d61461020e57806342966c6814610223575b600080fd5b6101a56101a03660046119ef565b61042f565b6040519081526020015b60405180910390f35b6101cb6101c6366004611a31565b6104c8565b60405190151581526020016101af565b6101ee6101e9366004611a4e565b610518565b6040516101af9190611ab7565b6101cb610209366004611aca565b610628565b61022161021c366004611c8b565b6106bb565b005b610221610231366004611a4e565b610707565b610221610244366004611d39565b6107bf565b6101a560065481565b610265610260366004611d56565b6107e8565b6040516101af9190611e5e565b610221610280366004611e71565b610912565b6101ee610293366004611a4e565b610bab565b6101cb6102a6366004611a4e565b610c45565b6102216102b9366004611d39565b610c59565b610221610c85565b6101cb6102d4366004611d39565b60086020526000908152604090205460ff1681565b6102216102f7366004611a4e565b610c99565b6003546001600160a01b03165b6040516001600160a01b0390911681526020016101af565b61022161032f366004611f0d565b610ca6565b6101a5610342366004611d39565b610cb5565b6101cb610355366004611d39565b6001600160a01b031660009081526008602052604090205460ff1690565b6101ee610d24565b610309610389366004611a4e565b600c602052600090815260409020546001600160a01b031681565b6101cb6103b2366004611f4b565b6001600160a01b03918216600090815260016020908152604080832093909416825291909152205460ff1690565b6101a56103ee366004611d39565b6001600160a01b03166000908152600a602052604090205490565b610221610417366004611f79565b610d31565b61022161042a366004611d39565b610d76565b60006001600160a01b03831661049f5760405162461bcd60e51b815260206004820152602a60248201527f455243313135353a2061646472657373207a65726f206973206e6f742061207660448201526930b634b21037bbb732b960b11b60648201526084015b60405180910390fd5b506000818152602081815260408083206001600160a01b03861684529091529020545b92915050565b60006001600160e01b03198216636cdb3d1360e11b14806104f957506001600160e01b031982166303a24d0760e21b145b806104c257506301ffc9a760e01b6001600160e01b03198316146104c2565b60008181526009602052604090205460609060ff1661058a5760405162461bcd60e51b815260206004820152602860248201527f41697264726f703a2055524920717565727920666f72206e6f6e657869737465604482015267373a103a37b5b2b760c11b6064820152608401610496565b6000828152600d6020526040902080546105a390611fe2565b80601f01602080910402602001604051908101604052809291908181526020018280546105cf90611fe2565b801561061c5780601f106105f15761010080835404028352916020019161061c565b820191906000526020600020905b8154815290600101906020018083116105ff57829003601f168201915b50505050509050919050565b3360009081526008602052604081205460ff161580156106b457506106b4838380806020026020016040519081016040528093929190818152602001838360200280828437600092019190915250506006546040516001600160601b03193360601b16602082015290925060340190505b60405160208183030381529060405280519060200120610dfb565b9392505050565b6001600160a01b0385163314806106d757506106d785336103b2565b6106f35760405162461bcd60e51b81526004016104969061201c565b6107008585858585610e11565b5050505050565b6000818152600c60205260409020546001600160a01b031633146107835760405162461bcd60e51b815260206004820152602d60248201527f41697264726f703a2063616c6c6572206973206e6f7420746865206f776e657260448201526c1037b3103a3432903a37b5b2b760991b6064820152608401610496565b61078f33826001610ffc565b604051819033907f1af5163f80e79b5e554f61e1d052084d3a3fe1166e42a265798c4e2ddce8ffa290600090a350565b6107c7611038565b6001600160a01b03166000908152600e60205260409020805460ff19169055565b6060815183511461084d5760405162461bcd60e51b815260206004820152602960248201527f455243313135353a206163636f756e747320616e6420696473206c656e677468604482015268040dad2e6dac2e8c6d60bb1b6064820152608401610496565b6000835167ffffffffffffffff81111561086957610869611b3f565b604051908082528060200260200182016040528015610892578160200160208202803683370190505b50905060005b845181101561090a576108dd8582815181106108b6576108b661206a565b60200260200101518583815181106108d0576108d061206a565b602002602001015161042f565b8282815181106108ef576108ef61206a565b602090810291909101015261090381612096565b9050610898565b509392505050565b3360009081526008602052604090205460ff16156109455760405163e0cd221960e01b8152336004820152602401610496565b61094e81611092565b61096d5760405163ae18156360e01b8152336004820152602401610496565b6005546040516370a0823160e01b81523360048201526000916001600160a01b0316906370a0823190602401602060405180830381865afa1580156109b6573d6000803e3d6000fd5b505050506040513d601f19601f820116820180604052508101906109da91906120af565b905060008111610a2c5760405162461bcd60e51b815260206004820152601b60248201527f41697264726f703a204e6f20746f6b656e7320746f20636c61696d00000000006044820152606401610496565b60005b81811015610b84576000610a4260045490565b6005546040516331a9108f60e11b81526004810183905291925033916001600160a01b0390911690636352211e90602401602060405180830381865afa158015610a90573d6000803e3d6000fd5b505050506040513d601f19601f82011682018060405250810190610ab491906120c8565b6001600160a01b031603610b7057610ade33826001604051806020016040528060008152506110bd565b6000818152600c6020526040902080546001600160a01b03191633908117909155610b08906110ff565b6000828152600d6020526040902090610b21908261212b565b50610b30600480546001019055565b81610b3a81612096565b60405190935082915033907f650e45f04ef8a0c267b2f78d983913f69ae3a353b2b32de5429307522be0ab5590600090a3610b7e565b610b7e600480546001019055565b50610a2f565b818103610ba657336000908152600860205260409020805460ff191660011790555b505050565b600d6020526000908152604090208054610bc490611fe2565b80601f0160208091040260200160405190810160405280929190818152602001828054610bf090611fe2565b8015610c3d5780601f10610c1257610100808354040283529160200191610c3d565b820191906000526020600020905b815481529060010190602001808311610c2057829003601f168201915b505050505081565b6000610c51338361042f565b151592915050565b610c61611038565b6001600160a01b03166000908152600e60205260409020805460ff19166001179055565b610c8d611038565b610c976000611139565b565b610ca1611038565b600655565b610cb133838361118b565b5050565b6005546040516370a0823160e01b81526001600160a01b03838116600483015260009216906370a0823190602401602060405180830381865afa158015610d00573d6000803e3d6000fd5b505050506040513d601f19601f820116820180604052508101906104c291906120af565b60078054610bc490611fe2565b6001600160a01b038516331480610d4d5750610d4d85336103b2565b610d695760405162461bcd60e51b81526004016104969061201c565b610700858585858561126b565b610d7e611038565b6001600160a01b038116610de35760405162461bcd60e51b815260206004820152602660248201527f4f776e61626c653a206e6577206f776e657220697320746865207a65726f206160448201526564647265737360d01b6064820152608401610496565b610dec81611139565b50565b6002610cb1828261212b565b600082610e0885846113a3565b14949350505050565b8151835114610e735760405162461bcd60e51b815260206004820152602860248201527f455243313135353a2069647320616e6420616d6f756e7473206c656e677468206044820152670dad2e6dac2e8c6d60c31b6064820152608401610496565b6001600160a01b038416610e995760405162461bcd60e51b8152600401610496906121eb565b33610ea88187878787876113e8565b60005b8451811015610f8e576000858281518110610ec857610ec861206a565b602002602001015190506000858381518110610ee657610ee661206a565b602090810291909101810151600084815280835260408082206001600160a01b038e168352909352919091205490915081811015610f365760405162461bcd60e51b815260040161049690612230565b6000838152602081815260408083206001600160a01b038e8116855292528083208585039055908b16825281208054849290610f7390849061227a565b9250508190555050505080610f8790612096565b9050610eab565b50846001600160a01b0316866001600160a01b0316826001600160a01b03167f4a39dc06d4c0dbc64b70af90fd698a233a518aa5d07e595d983b8c0526c8f7fb8787604051610fde92919061228d565b60405180910390a4610ff4818787878787611488565b505050505050565b6110078383836115ec565b506000908152600960209081526040808320805460ff191690556001600160a01b039093168252600a905290812055565b6003546001600160a01b03163314610c975760405162461bcd60e51b815260206004820181905260248201527f4f776e61626c653a2063616c6c6572206973206e6f7420746865206f776e65726044820152606401610496565b6006546040516001600160601b03193360601b1660208201526000916104c291849190603401610699565b6110c98484848461177c565b50506000818152600960209081526040808320805460ff191660011790556001600160a01b039094168252600a90529190912055565b6060600061110d6000611896565b905080836040516020016111229291906122bb565b604051602081830303815290604052915050919050565b600380546001600160a01b038381166001600160a01b0319831681179093556040519116919082907f8be0079c531659141344cd1fd0a4f28419497f9722a3daafe3b4186f6b6457e090600090a35050565b816001600160a01b0316836001600160a01b0316036111fe5760405162461bcd60e51b815260206004820152602960248201527f455243313135353a2073657474696e6720617070726f76616c20737461747573604482015268103337b91039b2b63360b91b6064820152608401610496565b6001600160a01b03838116600081815260016020908152604080832094871680845294825291829020805460ff191686151590811790915591519182527f17307eab39ab6107e8899845ad3d59bd9653f200f220920489ca2b5937696c31910160405180910390a3505050565b6001600160a01b0384166112915760405162461bcd60e51b8152600401610496906121eb565b33600061129d856118a5565b905060006112aa856118a5565b90506112ba8389898585896113e8565b6000868152602081815260408083206001600160a01b038c168452909152902054858110156112fb5760405162461bcd60e51b815260040161049690612230565b6000878152602081815260408083206001600160a01b038d8116855292528083208985039055908a1682528120805488929061133890849061227a565b909155505060408051888152602081018890526001600160a01b03808b16928c821692918816917fc3d58168c5ae7397731d063d5bbf3d657854427343f4c083240f7aacaa2d0f62910160405180910390a4611398848a8a8a8a8a6118f0565b505050505050505050565b600081815b845181101561090a576113d4828683815181106113c7576113c761206a565b60200260200101516119ab565b9150806113e081612096565b9150506113a8565b6001600160a01b03851615610ff4576001600160a01b0384161580159061142857506001600160a01b0384166000908152600e602052604090205460ff16155b15610ff45760405162461bcd60e51b815260206004820152602a60248201527f41697264726f703a207472616e7366657220746f206e6f6e20617070726f7665604482015269190818dbdb9d1c9858dd60b21b6064820152608401610496565b6001600160a01b0384163b15610ff45760405163bc197c8160e01b81526001600160a01b0385169063bc197c81906114cc90899089908890889088906004016122ed565b6020604051808303816000875af1925050508015611507575060408051601f3d908101601f191682019092526115049181019061234b565b60015b6115b357611513612368565b806308c379a00361154c5750611527612384565b80611532575061154e565b8060405162461bcd60e51b81526004016104969190611ab7565b505b60405162461bcd60e51b815260206004820152603460248201527f455243313135353a207472616e7366657220746f206e6f6e2d455243313135356044820152732932b1b2b4bb32b91034b6b83632b6b2b73a32b960611b6064820152608401610496565b6001600160e01b0319811663bc197c8160e01b146115e35760405162461bcd60e51b81526004016104969061240e565b50505050505050565b6001600160a01b03831661164e5760405162461bcd60e51b815260206004820152602360248201527f455243313135353a206275726e2066726f6d20746865207a65726f206164647260448201526265737360e81b6064820152608401610496565b33600061165a846118a5565b90506000611667846118a5565b9050611687838760008585604051806020016040528060008152506113e8565b6000858152602081815260408083206001600160a01b038a168452909152902054848110156117045760405162461bcd60e51b8152602060048201526024808201527f455243313135353a206275726e20616d6f756e7420657863656564732062616c604482015263616e636560e01b6064820152608401610496565b6000868152602081815260408083206001600160a01b038b81168086529184528285208a8703905582518b81529384018a90529092908816917fc3d58168c5ae7397731d063d5bbf3d657854427343f4c083240f7aacaa2d0f62910160405180910390a46040805160208101909152600090526115e3565b6001600160a01b0384166117dc5760405162461bcd60e51b815260206004820152602160248201527f455243313135353a206d696e7420746f20746865207a65726f206164647265736044820152607360f81b6064820152608401610496565b3360006117e8856118a5565b905060006117f5856118a5565b9050611806836000898585896113e8565b6000868152602081815260408083206001600160a01b038b1684529091528120805487929061183690849061227a565b909155505060408051878152602081018790526001600160a01b03808a1692600092918716917fc3d58168c5ae7397731d063d5bbf3d657854427343f4c083240f7aacaa2d0f62910160405180910390a46115e3836000898989896118f0565b6060600280546105a390611fe2565b604080516001808252818301909252606091600091906020808301908036833701905050905082816000815181106118df576118df61206a565b602090810291909101015292915050565b6001600160a01b0384163b15610ff45760405163f23a6e6160e01b81526001600160a01b0385169063f23a6e61906119349089908990889088908890600401612456565b6020604051808303816000875af192505050801561196f575060408051601f3d908101601f1916820190925261196c9181019061234b565b60015b61197b57611513612368565b6001600160e01b0319811663f23a6e6160e01b146115e35760405162461bcd60e51b81526004016104969061240e565b60008183106119c75760008281526020849052604090206106b4565b60008381526020839052604090206106b4565b6001600160a01b0381168114610dec57600080fd5b60008060408385031215611a0257600080fd5b8235611a0d816119da565b946020939093013593505050565b6001600160e01b031981168114610dec57600080fd5b600060208284031215611a4357600080fd5b81356106b481611a1b565b600060208284031215611a6057600080fd5b5035919050565b60005b83811015611a82578181015183820152602001611a6a565b50506000910152565b60008151808452611aa3816020860160208601611a67565b601f01601f19169290920160200192915050565b6020815260006106b46020830184611a8b565b60008060208385031215611add57600080fd5b823567ffffffffffffffff80821115611af557600080fd5b818501915085601f830112611b0957600080fd5b813581811115611b1857600080fd5b8660208260051b8501011115611b2d57600080fd5b60209290920196919550909350505050565b634e487b7160e01b600052604160045260246000fd5b601f8201601f1916810167ffffffffffffffff81118282101715611b7b57611b7b611b3f565b6040525050565b600067ffffffffffffffff821115611b9c57611b9c611b3f565b5060051b60200190565b600082601f830112611bb757600080fd5b81356020611bc482611b82565b604051611bd18282611b55565b83815260059390931b8501820192828101915086841115611bf157600080fd5b8286015b84811015611c0c5780358352918301918301611bf5565b509695505050505050565b600082601f830112611c2857600080fd5b813567ffffffffffffffff811115611c4257611c42611b3f565b604051611c59601f8301601f191660200182611b55565b818152846020838601011115611c6e57600080fd5b816020850160208301376000918101602001919091529392505050565b600080600080600060a08688031215611ca357600080fd5b8535611cae816119da565b94506020860135611cbe816119da565b9350604086013567ffffffffffffffff80821115611cdb57600080fd5b611ce789838a01611ba6565b94506060880135915080821115611cfd57600080fd5b611d0989838a01611ba6565b93506080880135915080821115611d1f57600080fd5b50611d2c88828901611c17565b9150509295509295909350565b600060208284031215611d4b57600080fd5b81356106b4816119da565b60008060408385031215611d6957600080fd5b823567ffffffffffffffff80821115611d8157600080fd5b818501915085601f830112611d9557600080fd5b81356020611da282611b82565b604051611daf8282611b55565b83815260059390931b8501820192828101915089841115611dcf57600080fd5b948201945b83861015611df6578535611de7816119da565b82529482019490820190611dd4565b96505086013592505080821115611e0c57600080fd5b50611e1985828601611ba6565b9150509250929050565b600081518084526020808501945080840160005b83811015611e5357815187529582019590820190600101611e37565b509495945050505050565b6020815260006106b46020830184611e23565b60006020808385031215611e8457600080fd5b823567ffffffffffffffff811115611e9b57600080fd5b8301601f81018513611eac57600080fd5b8035611eb781611b82565b604051611ec48282611b55565b82815260059290921b8301840191848101915087831115611ee457600080fd5b928401925b82841015611f0257833582529284019290840190611ee9565b979650505050505050565b60008060408385031215611f2057600080fd5b8235611f2b816119da565b915060208301358015158114611f4057600080fd5b809150509250929050565b60008060408385031215611f5e57600080fd5b8235611f69816119da565b91506020830135611f40816119da565b600080600080600060a08688031215611f9157600080fd5b8535611f9c816119da565b94506020860135611fac816119da565b93506040860135925060608601359150608086013567ffffffffffffffff811115611fd657600080fd5b611d2c88828901611c17565b600181811c90821680611ff657607f821691505b60208210810361201657634e487b7160e01b600052602260045260246000fd5b50919050565b6020808252602e908201527f455243313135353a2063616c6c6572206973206e6f7420746f6b656e206f776e60408201526d195c881bdc88185c1c1c9bdd995960921b606082015260800190565b634e487b7160e01b600052603260045260246000fd5b634e487b7160e01b600052601160045260246000fd5b6000600182016120a8576120a8612080565b5060010190565b6000602082840312156120c157600080fd5b5051919050565b6000602082840312156120da57600080fd5b81516106b4816119da565b601f821115610ba657600081815260208120601f850160051c8101602086101561210c5750805b601f850160051c820191505b81811015610ff457828155600101612118565b815167ffffffffffffffff81111561214557612145611b3f565b612159816121538454611fe2565b846120e5565b602080601f83116001811461218e57600084156121765750858301515b600019600386901b1c1916600185901b178555610ff4565b600085815260208120601f198616915b828110156121bd5788860151825594840194600190910190840161219e565b50858210156121db5787850151600019600388901b60f8161c191681555b5050505050600190811b01905550565b60208082526025908201527f455243313135353a207472616e7366657220746f20746865207a65726f206164604082015264647265737360d81b606082015260800190565b6020808252602a908201527f455243313135353a20696e73756666696369656e742062616c616e636520666f60408201526939103a3930b739b332b960b11b606082015260800190565b808201808211156104c2576104c2612080565b6040815260006122a06040830185611e23565b82810360208401526122b28185611e23565b95945050505050565b600083516122cd818460208801611a67565b60609390931b6001600160601b0319169190920190815260140192915050565b6001600160a01b0386811682528516602082015260a06040820181905260009061231990830186611e23565b828103606084015261232b8186611e23565b9050828103608084015261233f8185611a8b565b98975050505050505050565b60006020828403121561235d57600080fd5b81516106b481611a1b565b600060033d11156123815760046000803e5060005160e01c5b90565b600060443d10156123925790565b6040516003193d81016004833e81513d67ffffffffffffffff81602484011181841117156123c257505050505090565b82850191508151818111156123da5750505050505090565b843d87010160208285010111156123f45750505050505090565b61240360208286010187611b55565b509095945050505050565b60208082526028908201527f455243313135353a204552433131353552656365697665722072656a656374656040820152676420746f6b656e7360c01b606082015260800190565b6001600160a01b03868116825285166020820152604081018490526060810183905260a060808201819052600090611f0290830184611a8b56fea264697066735822122029e70c20ba12cb8cef17e502c692f4128cf020f111f0321fc7851eb5954b708d64736f6c63430008110033",
  "linkReferences": {},
  "deployedLinkReferences": {}
}