{
  "_format": "hh-sol-artifact-1",
  "contractName": "Airdrop",
  "sourceName": "contracts/Airdrop.sol",
  "abi": [
    {
      "inputs": [
        {
          "internalType": "bytes32",
          "name": "_root",
          "type": "bytes32"
        },
        {
          "internalType": "string",
          "name": "_nftTokenURIs",
          "type": "string"
        },
        {
          "internalType": "address",
          "name": "_nftAddress",
          "type": "address"
        }
      ],
      "stateMutability": "nonpayable",
      "type": "constructor"
    },
    {
      "inputs": [
        {
          "internalType": "address",
          "name": "caller",
          "type": "address"
        }
      ],
      "name": "Airdrop__AlreadyClaimed",
      "type": "error"
    },
    {
      "inputs": [
        {
          "internalType": "address",
          "name": "caller",
          "type": "address"
        }
      ],
      "name": "Airdrop__NotInAllowList",
      "type": "error"
    },
    {
      "anonymous": false,
      "inputs": [
        {
          "indexed": true,
          "internalType": "address",
          "name": "owner",
          "type": "address"
        },
        {
          "indexed": true,
          "internalType": "uint256",
          "name": "tokenId",
          "type": "uint256"
        }
      ],
      "name": "AirdropClaimed",
      "type": "event"
    },
    {
      "anonymous": false,
      "inputs": [
        {
          "indexed": true,
          "internalType": "address",
          "name": "account",
          "type": "address"
        },
        {
          "indexed": true,
          "internalType": "address",
          "name": "operator",
          "type": "address"
        },
        {
          "indexed": false,
          "internalType": "bool",
          "name": "approved",
          "type": "bool"
        }
      ],
      "name": "ApprovalForAll",
      "type": "event"
    },
    {
      "anonymous": false,
      "inputs": [
        {
          "indexed": true,
          "internalType": "address",
          "name": "previousOwner",
          "type": "address"
        },
        {
          "indexed": true,
          "internalType": "address",
          "name": "newOwner",
          "type": "address"
        }
      ],
      "name": "OwnershipTransferred",
      "type": "event"
    },
    {
      "anonymous": false,
      "inputs": [
        {
          "indexed": true,
          "internalType": "address",
          "name": "owner",
          "type": "address"
        },
        {
          "indexed": true,
          "internalType": "uint256",
          "name": "tokenId",
          "type": "uint256"
        }
      ],
      "name": "TokenBurned",
      "type": "event"
    },
    {
      "anonymous": false,
      "inputs": [
        {
          "indexed": true,
          "internalType": "address",
          "name": "operator",
          "type": "address"
        },
        {
          "indexed": true,
          "internalType": "address",
          "name": "from",
          "type": "address"
        },
        {
          "indexed": true,
          "internalType": "address",
          "name": "to",
          "type": "address"
        },
        {
          "indexed": false,
          "internalType": "uint256[]",
          "name": "ids",
          "type": "uint256[]"
        },
        {
          "indexed": false,
          "internalType": "uint256[]",
          "name": "values",
          "type": "uint256[]"
        }
      ],
      "name": "TransferBatch",
      "type": "event"
    },
    {
      "anonymous": false,
      "inputs": [
        {
          "indexed": true,
          "internalType": "address",
          "name": "operator",
          "type": "address"
        },
        {
          "indexed": true,
          "internalType": "address",
          "name": "from",
          "type": "address"
        },
        {
          "indexed": true,
          "internalType": "address",
          "name": "to",
          "type": "address"
        },
        {
          "indexed": false,
          "internalType": "uint256",
          "name": "id",
          "type": "uint256"
        },
        {
          "indexed": false,
          "internalType": "uint256",
          "name": "value",
          "type": "uint256"
        }
      ],
      "name": "TransferSingle",
      "type": "event"
    },
    {
      "anonymous": false,
      "inputs": [
        {
          "indexed": false,
          "internalType": "string",
          "name": "value",
          "type": "string"
        },
        {
          "indexed": true,
          "internalType": "uint256",
          "name": "id",
          "type": "uint256"
        }
      ],
      "name": "URI",
      "type": "event"
    },
    {
      "inputs": [
        {
          "internalType": "address",
          "name": "account",
          "type": "address"
        },
        {
          "internalType": "uint256",
          "name": "id",
          "type": "uint256"
        }
      ],
      "name": "balanceOf",
      "outputs": [
        {
          "internalType": "uint256",
          "name": "",
          "type": "uint256"
        }
      ],
      "stateMutability": "view",
      "type": "function"
    },
    {
      "inputs": [
        {
          "internalType": "address[]",
          "name": "accounts",
          "type": "address[]"
        },
        {
          "internalType": "uint256[]",
          "name": "ids",
          "type": "uint256[]"
        }
      ],
      "name": "balanceOfBatch",
      "outputs": [
        {
          "internalType": "uint256[]",
          "name": "",
          "type": "uint256[]"
        }
      ],
      "stateMutability": "view",
      "type": "function"
    },
    {
      "inputs": [
        {
          "internalType": "uint256",
          "name": "tokenId",
          "type": "uint256"
        }
      ],
      "name": "burn",
      "outputs": [],
      "stateMutability": "nonpayable",
      "type": "function"
    },
    {
      "inputs": [
        {
          "internalType": "bytes32[]",
          "name": "_proof",
          "type": "bytes32[]"
        }
      ],
      "name": "canClaim",
      "outputs": [
        {
          "internalType": "bool",
          "name": "",
          "type": "bool"
        }
      ],
      "stateMutability": "view",
      "type": "function"
    },
    {
      "inputs": [
        {
          "internalType": "bytes32[]",
          "name": "_proof",
          "type": "bytes32[]"
        }
      ],
      "name": "claimAirdrop",
      "outputs": [],
      "stateMutability": "nonpayable",
      "type": "function"
    },
    {
      "inputs": [
        {
          "internalType": "address",
          "name": "_owner",
          "type": "address"
        }
      ],
      "name": "getNftBalance",
      "outputs": [
        {
          "internalType": "uint256",
          "name": "",
          "type": "uint256"
        }
      ],
      "stateMutability": "view",
      "type": "function"
    },
    {
      "inputs": [
        {
          "internalType": "address",
          "name": "_owner",
          "type": "address"
        }
      ],
      "name": "getTokenId",
      "outputs": [
        {
          "internalType": "uint256",
          "name": "",
          "type": "uint256"
        }
      ],
      "stateMutability": "view",
      "type": "function"
    },
    {
      "inputs": [],
      "name": "i_root",
      "outputs": [
        {
          "internalType": "bytes32",
          "name": "",
          "type": "bytes32"
        }
      ],
      "stateMutability": "view",
      "type": "function"
    },
    {
      "inputs": [
        {
          "internalType": "address",
          "name": "account",
          "type": "address"
        },
        {
          "internalType": "address",
          "name": "operator",
          "type": "address"
        }
      ],
      "name": "isApprovedForAll",
      "outputs": [
        {
          "internalType": "bool",
          "name": "",
          "type": "bool"
        }
      ],
      "stateMutability": "view",
      "type": "function"
    },
    {
      "inputs": [],
      "name": "owner",
      "outputs": [
        {
          "internalType": "address",
          "name": "",
          "type": "address"
        }
      ],
      "stateMutability": "view",
      "type": "function"
    },
    {
      "inputs": [
        {
          "internalType": "uint256",
          "name": "tokenId",
          "type": "uint256"
        }
      ],
      "name": "ownerOf",
      "outputs": [
        {
          "internalType": "bool",
          "name": "",
          "type": "bool"
        }
      ],
      "stateMutability": "view",
      "type": "function"
    },
    {
      "inputs": [],
      "name": "renounceOwnership",
      "outputs": [],
      "stateMutability": "nonpayable",
      "type": "function"
    },
    {
      "inputs": [
        {
          "internalType": "address",
          "name": "_contractAddress",
          "type": "address"
        }
      ],
      "name": "revokeApproval",
      "outputs": [],
      "stateMutability": "nonpayable",
      "type": "function"
    },
    {
      "inputs": [
        {
          "internalType": "address",
          "name": "",
          "type": "address"
        }
      ],
      "name": "s_claimed",
      "outputs": [
        {
          "internalType": "bool",
          "name": "",
          "type": "bool"
        }
      ],
      "stateMutability": "view",
      "type": "function"
    },
    {
      "inputs": [],
      "name": "s_nftTokenURIs",
      "outputs": [
        {
          "internalType": "string",
          "name": "",
          "type": "string"
        }
      ],
      "stateMutability": "view",
      "type": "function"
    },
    {
      "inputs": [
        {
          "internalType": "uint256",
          "name": "",
          "type": "uint256"
        }
      ],
      "name": "s_tokenOwners",
      "outputs": [
        {
          "internalType": "address",
          "name": "",
          "type": "address"
        }
      ],
      "stateMutability": "view",
      "type": "function"
    },
    {
      "inputs": [
        {
          "internalType": "uint256",
          "name": "",
          "type": "uint256"
        }
      ],
      "name": "s_tokenURIs",
      "outputs": [
        {
          "internalType": "string",
          "name": "",
          "type": "string"
        }
      ],
      "stateMutability": "view",
      "type": "function"
    },
    {
      "inputs": [
        {
          "internalType": "address",
          "name": "from",
          "type": "address"
        },
        {
          "internalType": "address",
          "name": "to",
          "type": "address"
        },
        {
          "internalType": "uint256[]",
          "name": "ids",
          "type": "uint256[]"
        },
        {
          "internalType": "uint256[]",
          "name": "amounts",
          "type": "uint256[]"
        },
        {
          "internalType": "bytes",
          "name": "data",
          "type": "bytes"
        }
      ],
      "name": "safeBatchTransferFrom",
      "outputs": [],
      "stateMutability": "nonpayable",
      "type": "function"
    },
    {
      "inputs": [
        {
          "internalType": "address",
          "name": "from",
          "type": "address"
        },
        {
          "internalType": "address",
          "name": "to",
          "type": "address"
        },
        {
          "internalType": "uint256",
          "name": "id",
          "type": "uint256"
        },
        {
          "internalType": "uint256",
          "name": "amount",
          "type": "uint256"
        },
        {
          "internalType": "bytes",
          "name": "data",
          "type": "bytes"
        }
      ],
      "name": "safeTransferFrom",
      "outputs": [],
      "stateMutability": "nonpayable",
      "type": "function"
    },
    {
      "inputs": [
        {
          "internalType": "address",
          "name": "operator",
          "type": "address"
        },
        {
          "internalType": "bool",
          "name": "approved",
          "type": "bool"
        }
      ],
      "name": "setApprovalForAll",
      "outputs": [],
      "stateMutability": "nonpayable",
      "type": "function"
    },
    {
      "inputs": [
        {
          "internalType": "address",
          "name": "_contractAddress",
          "type": "address"
        }
      ],
      "name": "setApprovedContract",
      "outputs": [],
      "stateMutability": "nonpayable",
      "type": "function"
    },
    {
      "inputs": [
        {
          "internalType": "bytes4",
          "name": "interfaceId",
          "type": "bytes4"
        }
      ],
      "name": "supportsInterface",
      "outputs": [
        {
          "internalType": "bool",
          "name": "",
          "type": "bool"
        }
      ],
      "stateMutability": "view",
      "type": "function"
    },
    {
      "inputs": [
        {
          "internalType": "address",
          "name": "newOwner",
          "type": "address"
        }
      ],
      "name": "transferOwnership",
      "outputs": [],
      "stateMutability": "nonpayable",
      "type": "function"
    },
    {
      "inputs": [
        {
          "internalType": "uint256",
          "name": "_tokenId",
          "type": "uint256"
        }
      ],
      "name": "uri",
      "outputs": [
        {
          "internalType": "string",
          "name": "",
          "type": "string"
        }
      ],
      "stateMutability": "view",
      "type": "function"
    }
  ],
  "bytecode": "0x60a06040523480156200001157600080fd5b506040516200276138038062002761833981016040819052620000349162000147565b6040805160208101909152600081526200004e8162000097565b506200005a33620000b0565b608083905260066200006d8382620002c8565b50600580546001600160a01b0319166001600160a01b039290921691909117905550620003949050565b620000ad816200010260201b62000ccf1760201c565b50565b600380546001600160a01b038381166001600160a01b0319831681179093556040519116919082907f8be0079c531659141344cd1fd0a4f28419497f9722a3daafe3b4186f6b6457e090600090a35050565b6002620001108282620002c8565b5050565b634e487b7160e01b600052604160045260246000fd5b80516001600160a01b03811681146200014257600080fd5b919050565b6000806000606084860312156200015d57600080fd5b8351602080860151919450906001600160401b03808211156200017f57600080fd5b818701915087601f8301126200019457600080fd5b815181811115620001a957620001a962000114565b604051601f8201601f19908116603f01168101908382118183101715620001d457620001d462000114565b816040528281528a86848701011115620001ed57600080fd5b600093505b82841015620002115784840186015181850187015292850192620001f2565b600086848301015280975050505050505062000230604085016200012a565b90509250925092565b600181811c908216806200024e57607f821691505b6020821081036200026f57634e487b7160e01b600052602260045260246000fd5b50919050565b601f821115620002c357600081815260208120601f850160051c810160208610156200029e5750805b601f850160051c820191505b81811015620002bf57828155600101620002aa565b5050505b505050565b81516001600160401b03811115620002e457620002e462000114565b620002fc81620002f5845462000239565b8462000275565b602080601f8311600181146200033457600084156200031b5750858301515b600019600386901b1c1916600185901b178555620002bf565b600085815260208120601f198616915b82811015620003655788860151825594840194600190910190840162000344565b5085821015620003845787850151600019600388901b60f8161c191681555b5050505050600190811b01905550565b6080516123a3620003be600039600081816102180152818161064e0152610f9301526123a36000f3fe608060405234801561001057600080fd5b50600436106101575760003560e01c806369242dc6116100c3578063e07ac2431161007c578063e07ac24314610332578063e1e4fec01461033a578063e985e9c514610363578063f15376861461039f578063f242432a146103c8578063f2fde38b146103db57600080fd5b806369242dc614610293578063715018a6146102a657806374b3c7ec146102ae5780638da5cb5b146102d1578063a22cb465146102f6578063c637954b1461030957600080fd5b8063484685b011610115578063484685b0146102005780634d75bbf9146102135780634e1273f41461023a57806353223ab01461025a5780635c0148631461026d5780636352211e1461028057600080fd5b8062fdd58e1461015c57806301ffc9a7146101825780630e89341c146101a55780631e40dff4146101c55780632eb2c2d6146101d857806342966c68146101ed575b600080fd5b61016f61016a3660046118f4565b6103ee565b6040519081526020015b60405180910390f35b610195610190366004611934565b610487565b6040519015158152602001610179565b6101b86101b3366004611951565b6104d7565b60405161017991906119ba565b6101956101d33660046119cd565b6105e7565b6101eb6101e6366004611b8e565b610697565b005b6101eb6101fb366004611951565b6106e3565b6101eb61020e366004611c38565b61079b565b61016f7f000000000000000000000000000000000000000000000000000000000000000081565b61024d610248366004611c53565b6107c4565b6040516101799190611d59565b6101eb610268366004611d6c565b6108ee565b6101b861027b366004611951565b610b07565b61019561028e366004611951565b610ba1565b6101eb6102a1366004611c38565b610bb5565b6101eb610be1565b6101956102bc366004611c38565b60076020526000908152604090205460ff1681565b6003546001600160a01b03165b6040516001600160a01b039091168152602001610179565b6101eb610304366004611e08565b610bf5565b61016f610317366004611c38565b6001600160a01b03166000908152600a602052604090205490565b6101b8610c04565b6102de610348366004611951565b600b602052600090815260409020546001600160a01b031681565b610195610371366004611e44565b6001600160a01b03918216600090815260016020908152604080832093909416825291909152205460ff1690565b61016f6103ad366004611c38565b6001600160a01b031660009081526009602052604090205490565b6101eb6103d6366004611e77565b610c11565b6101eb6103e9366004611c38565b610c56565b60006001600160a01b03831661045e5760405162461bcd60e51b815260206004820152602a60248201527f455243313135353a2061646472657373207a65726f206973206e6f742061207660448201526930b634b21037bbb732b960b11b60648201526084015b60405180910390fd5b506000818152602081815260408083206001600160a01b03861684529091529020545b92915050565b60006001600160e01b03198216636cdb3d1360e11b14806104b857506001600160e01b031982166303a24d0760e21b145b8061048157506301ffc9a760e01b6001600160e01b0319831614610481565b60008181526008602052604090205460609060ff166105495760405162461bcd60e51b815260206004820152602860248201527f41697264726f703a2055524920717565727920666f72206e6f6e657869737465604482015267373a103a37b5b2b760c11b6064820152608401610455565b6000828152600c60205260409020805461056290611edc565b80601f016020809104026020016040519081016040528092919081815260200182805461058e90611edc565b80156105db5780601f106105b0576101008083540402835291602001916105db565b820191906000526020600020905b8154815290600101906020018083116105be57829003601f168201915b50505050509050919050565b3360009081526007602052604081205460ff161580156106905750610690838380806020026020016040519081016040528093929190818152602001838360200280828437600092019190915250506040516001600160601b03193360601b1660208201527f0000000000000000000000000000000000000000000000000000000000000000925060340190505b60405160208183030381529060405280519060200120610cdb565b9392505050565b6001600160a01b0385163314806106b357506106b38533610371565b6106cf5760405162461bcd60e51b815260040161045590611f16565b6106dc8585858585610cf1565b5050505050565b6000818152600b60205260409020546001600160a01b0316331461075f5760405162461bcd60e51b815260206004820152602d60248201527f41697264726f703a2063616c6c6572206973206e6f7420746865206f776e657260448201526c1037b3103a3432903a37b5b2b760991b6064820152608401610455565b61076b33826001610edc565b604051819033907f1af5163f80e79b5e554f61e1d052084d3a3fe1166e42a265798c4e2ddce8ffa290600090a350565b6107a3610f18565b6001600160a01b03166000908152600d60205260409020805460ff19169055565b606081518351146108295760405162461bcd60e51b815260206004820152602960248201527f455243313135353a206163636f756e747320616e6420696473206c656e677468604482015268040dad2e6dac2e8c6d60bb1b6064820152608401610455565b6000835167ffffffffffffffff81111561084557610845611a42565b60405190808252806020026020018201604052801561086e578160200160208202803683370190505b50905060005b84518110156108e6576108b985828151811061089257610892611f64565b60200260200101518583815181106108ac576108ac611f64565b60200260200101516103ee565b8282815181106108cb576108cb611f64565b60209081029190910101526108df81611f90565b9050610874565b509392505050565b3360009081526007602052604090205460ff16156109215760405163e0cd221960e01b8152336004820152602401610455565b61092a81610f72565b6109495760405163ae18156360e01b8152336004820152602401610455565b6005546040516370a0823160e01b81523360048201526000916001600160a01b0316906370a0823190602401602060405180830381865afa158015610992573d6000803e3d6000fd5b505050506040513d601f19601f820116820180604052508101906109b69190611fa9565b905060008111610a135760405162461bcd60e51b815260206004820152602260248201527f41697264726f703a20596f7520646f6e2774206861766520616e7920746f6b656044820152616e7360f01b6064820152608401610455565b60005b81811015610b02576000610a2960045490565b336000818152600960209081526040808320548151928301909152918152929350610a5692600190610fbb565b6000818152600b6020526040902080546001600160a01b03191633908117909155610a8090610ffd565b6000828152600c6020526040902090610a999082612008565b50336000908152600760205260409020805460ff1916600117905580610abe81611f90565b60405190925082915033907f650e45f04ef8a0c267b2f78d983913f69ae3a353b2b32de5429307522be0ab5590600090a35080610afa81611f90565b915050610a16565b505050565b600c6020526000908152604090208054610b2090611edc565b80601f0160208091040260200160405190810160405280929190818152602001828054610b4c90611edc565b8015610b995780601f10610b6e57610100808354040283529160200191610b99565b820191906000526020600020905b815481529060010190602001808311610b7c57829003601f168201915b505050505081565b6000610bad33836103ee565b151592915050565b610bbd610f18565b6001600160a01b03166000908152600d60205260409020805460ff19166001179055565b610be9610f18565b610bf36000611037565b565b610c00338383611089565b5050565b60068054610b2090611edc565b6001600160a01b038516331480610c2d5750610c2d8533610371565b610c495760405162461bcd60e51b815260040161045590611f16565b6106dc8585858585611169565b610c5e610f18565b6001600160a01b038116610cc35760405162461bcd60e51b815260206004820152602660248201527f4f776e61626c653a206e6577206f776e657220697320746865207a65726f206160448201526564647265737360d01b6064820152608401610455565b610ccc81611037565b50565b6002610c008282612008565b600082610ce885846112a1565b14949350505050565b8151835114610d535760405162461bcd60e51b815260206004820152602860248201527f455243313135353a2069647320616e6420616d6f756e7473206c656e677468206044820152670dad2e6dac2e8c6d60c31b6064820152608401610455565b6001600160a01b038416610d795760405162461bcd60e51b8152600401610455906120c8565b33610d888187878787876112e6565b60005b8451811015610e6e576000858281518110610da857610da8611f64565b602002602001015190506000858381518110610dc657610dc6611f64565b602090810291909101810151600084815280835260408082206001600160a01b038e168352909352919091205490915081811015610e165760405162461bcd60e51b81526004016104559061210d565b6000838152602081815260408083206001600160a01b038e8116855292528083208585039055908b16825281208054849290610e53908490612157565b9250508190555050505080610e6790611f90565b9050610d8b565b50846001600160a01b0316866001600160a01b0316826001600160a01b03167f4a39dc06d4c0dbc64b70af90fd698a233a518aa5d07e595d983b8c0526c8f7fb8787604051610ebe92919061216a565b60405180910390a4610ed4818787878787611386565b505050505050565b610ee78383836114ea565b506000908152600860209081526040808320805460ff191690556001600160a01b0390931682526009905290812055565b6003546001600160a01b03163314610bf35760405162461bcd60e51b815260206004820181905260248201527f4f776e61626c653a2063616c6c6572206973206e6f7420746865206f776e65726044820152606401610455565b6040516001600160601b03193360601b1660208201526000906104819083907f000000000000000000000000000000000000000000000000000000000000000090603401610675565b610fc78484848461167a565b50506000818152600860209081526040808320805460ff191660011790556001600160a01b039094168252600990529190912055565b6060600061100b6000611794565b90508083604051602001611020929190612198565b604051602081830303815290604052915050919050565b600380546001600160a01b038381166001600160a01b0319831681179093556040519116919082907f8be0079c531659141344cd1fd0a4f28419497f9722a3daafe3b4186f6b6457e090600090a35050565b816001600160a01b0316836001600160a01b0316036110fc5760405162461bcd60e51b815260206004820152602960248201527f455243313135353a2073657474696e6720617070726f76616c20737461747573604482015268103337b91039b2b63360b91b6064820152608401610455565b6001600160a01b03838116600081815260016020908152604080832094871680845294825291829020805460ff191686151590811790915591519182527f17307eab39ab6107e8899845ad3d59bd9653f200f220920489ca2b5937696c31910160405180910390a3505050565b6001600160a01b03841661118f5760405162461bcd60e51b8152600401610455906120c8565b33600061119b856117a3565b905060006111a8856117a3565b90506111b88389898585896112e6565b6000868152602081815260408083206001600160a01b038c168452909152902054858110156111f95760405162461bcd60e51b81526004016104559061210d565b6000878152602081815260408083206001600160a01b038d8116855292528083208985039055908a16825281208054889290611236908490612157565b909155505060408051888152602081018890526001600160a01b03808b16928c821692918816917fc3d58168c5ae7397731d063d5bbf3d657854427343f4c083240f7aacaa2d0f62910160405180910390a4611296848a8a8a8a8a6117ee565b505050505050505050565b600081815b84518110156108e6576112d2828683815181106112c5576112c5611f64565b60200260200101516118a9565b9150806112de81611f90565b9150506112a6565b6001600160a01b03851615610ed4576001600160a01b0384161580159061132657506001600160a01b0384166000908152600d602052604090205460ff16155b15610ed45760405162461bcd60e51b815260206004820152602a60248201527f41697264726f703a207472616e7366657220746f206e6f6e20617070726f7665604482015269190818dbdb9d1c9858dd60b21b6064820152608401610455565b6001600160a01b0384163b15610ed45760405163bc197c8160e01b81526001600160a01b0385169063bc197c81906113ca90899089908890889088906004016121ca565b6020604051808303816000875af1925050508015611405575060408051601f3d908101601f1916820190925261140291810190612228565b60015b6114b157611411612245565b806308c379a00361144a5750611425612261565b80611430575061144c565b8060405162461bcd60e51b815260040161045591906119ba565b505b60405162461bcd60e51b815260206004820152603460248201527f455243313135353a207472616e7366657220746f206e6f6e2d455243313135356044820152732932b1b2b4bb32b91034b6b83632b6b2b73a32b960611b6064820152608401610455565b6001600160e01b0319811663bc197c8160e01b146114e15760405162461bcd60e51b8152600401610455906122eb565b50505050505050565b6001600160a01b03831661154c5760405162461bcd60e51b815260206004820152602360248201527f455243313135353a206275726e2066726f6d20746865207a65726f206164647260448201526265737360e81b6064820152608401610455565b336000611558846117a3565b90506000611565846117a3565b9050611585838760008585604051806020016040528060008152506112e6565b6000858152602081815260408083206001600160a01b038a168452909152902054848110156116025760405162461bcd60e51b8152602060048201526024808201527f455243313135353a206275726e20616d6f756e7420657863656564732062616c604482015263616e636560e01b6064820152608401610455565b6000868152602081815260408083206001600160a01b038b81168086529184528285208a8703905582518b81529384018a90529092908816917fc3d58168c5ae7397731d063d5bbf3d657854427343f4c083240f7aacaa2d0f62910160405180910390a46040805160208101909152600090526114e1565b6001600160a01b0384166116da5760405162461bcd60e51b815260206004820152602160248201527f455243313135353a206d696e7420746f20746865207a65726f206164647265736044820152607360f81b6064820152608401610455565b3360006116e6856117a3565b905060006116f3856117a3565b9050611704836000898585896112e6565b6000868152602081815260408083206001600160a01b038b16845290915281208054879290611734908490612157565b909155505060408051878152602081018790526001600160a01b03808a1692600092918716917fc3d58168c5ae7397731d063d5bbf3d657854427343f4c083240f7aacaa2d0f62910160405180910390a46114e1836000898989896117ee565b60606002805461056290611edc565b604080516001808252818301909252606091600091906020808301908036833701905050905082816000815181106117dd576117dd611f64565b602090810291909101015292915050565b6001600160a01b0384163b15610ed45760405163f23a6e6160e01b81526001600160a01b0385169063f23a6e61906118329089908990889088908890600401612333565b6020604051808303816000875af192505050801561186d575060408051601f3d908101601f1916820190925261186a91810190612228565b60015b61187957611411612245565b6001600160e01b0319811663f23a6e6160e01b146114e15760405162461bcd60e51b8152600401610455906122eb565b60008183106118c5576000828152602084905260409020610690565b6000838152602083905260409020610690565b80356001600160a01b03811681146118ef57600080fd5b919050565b6000806040838503121561190757600080fd5b611910836118d8565b946020939093013593505050565b6001600160e01b031981168114610ccc57600080fd5b60006020828403121561194657600080fd5b81356106908161191e565b60006020828403121561196357600080fd5b5035919050565b60005b8381101561198557818101518382015260200161196d565b50506000910152565b600081518084526119a681602086016020860161196a565b601f01601f19169290920160200192915050565b602081526000610690602083018461198e565b600080602083850312156119e057600080fd5b823567ffffffffffffffff808211156119f857600080fd5b818501915085601f830112611a0c57600080fd5b813581811115611a1b57600080fd5b8660208260051b8501011115611a3057600080fd5b60209290920196919550909350505050565b634e487b7160e01b600052604160045260246000fd5b601f8201601f1916810167ffffffffffffffff81118282101715611a7e57611a7e611a42565b6040525050565b600067ffffffffffffffff821115611a9f57611a9f611a42565b5060051b60200190565b600082601f830112611aba57600080fd5b81356020611ac782611a85565b604051611ad48282611a58565b83815260059390931b8501820192828101915086841115611af457600080fd5b8286015b84811015611b0f5780358352918301918301611af8565b509695505050505050565b600082601f830112611b2b57600080fd5b813567ffffffffffffffff811115611b4557611b45611a42565b604051611b5c601f8301601f191660200182611a58565b818152846020838601011115611b7157600080fd5b816020850160208301376000918101602001919091529392505050565b600080600080600060a08688031215611ba657600080fd5b611baf866118d8565b9450611bbd602087016118d8565b9350604086013567ffffffffffffffff80821115611bda57600080fd5b611be689838a01611aa9565b94506060880135915080821115611bfc57600080fd5b611c0889838a01611aa9565b93506080880135915080821115611c1e57600080fd5b50611c2b88828901611b1a565b9150509295509295909350565b600060208284031215611c4a57600080fd5b610690826118d8565b60008060408385031215611c6657600080fd5b823567ffffffffffffffff80821115611c7e57600080fd5b818501915085601f830112611c9257600080fd5b81356020611c9f82611a85565b604051611cac8282611a58565b83815260059390931b8501820192828101915089841115611ccc57600080fd5b948201945b83861015611cf157611ce2866118d8565b82529482019490820190611cd1565b96505086013592505080821115611d0757600080fd5b50611d1485828601611aa9565b9150509250929050565b600081518084526020808501945080840160005b83811015611d4e57815187529582019590820190600101611d32565b509495945050505050565b6020815260006106906020830184611d1e565b60006020808385031215611d7f57600080fd5b823567ffffffffffffffff811115611d9657600080fd5b8301601f81018513611da757600080fd5b8035611db281611a85565b604051611dbf8282611a58565b82815260059290921b8301840191848101915087831115611ddf57600080fd5b928401925b82841015611dfd57833582529284019290840190611de4565b979650505050505050565b60008060408385031215611e1b57600080fd5b611e24836118d8565b915060208301358015158114611e3957600080fd5b809150509250929050565b60008060408385031215611e5757600080fd5b611e60836118d8565b9150611e6e602084016118d8565b90509250929050565b600080600080600060a08688031215611e8f57600080fd5b611e98866118d8565b9450611ea6602087016118d8565b93506040860135925060608601359150608086013567ffffffffffffffff811115611ed057600080fd5b611c2b88828901611b1a565b600181811c90821680611ef057607f821691505b602082108103611f1057634e487b7160e01b600052602260045260246000fd5b50919050565b6020808252602e908201527f455243313135353a2063616c6c6572206973206e6f7420746f6b656e206f776e60408201526d195c881bdc88185c1c1c9bdd995960921b606082015260800190565b634e487b7160e01b600052603260045260246000fd5b634e487b7160e01b600052601160045260246000fd5b600060018201611fa257611fa2611f7a565b5060010190565b600060208284031215611fbb57600080fd5b5051919050565b601f821115610b0257600081815260208120601f850160051c81016020861015611fe95750805b601f850160051c820191505b81811015610ed457828155600101611ff5565b815167ffffffffffffffff81111561202257612022611a42565b612036816120308454611edc565b84611fc2565b602080601f83116001811461206b57600084156120535750858301515b600019600386901b1c1916600185901b178555610ed4565b600085815260208120601f198616915b8281101561209a5788860151825594840194600190910190840161207b565b50858210156120b85787850151600019600388901b60f8161c191681555b5050505050600190811b01905550565b60208082526025908201527f455243313135353a207472616e7366657220746f20746865207a65726f206164604082015264647265737360d81b606082015260800190565b6020808252602a908201527f455243313135353a20696e73756666696369656e742062616c616e636520666f60408201526939103a3930b739b332b960b11b606082015260800190565b8082018082111561048157610481611f7a565b60408152600061217d6040830185611d1e565b828103602084015261218f8185611d1e565b95945050505050565b600083516121aa81846020880161196a565b60609390931b6001600160601b0319169190920190815260140192915050565b6001600160a01b0386811682528516602082015260a0604082018190526000906121f690830186611d1e565b82810360608401526122088186611d1e565b9050828103608084015261221c818561198e565b98975050505050505050565b60006020828403121561223a57600080fd5b81516106908161191e565b600060033d111561225e5760046000803e5060005160e01c5b90565b600060443d101561226f5790565b6040516003193d81016004833e81513d67ffffffffffffffff816024840111818411171561229f57505050505090565b82850191508151818111156122b75750505050505090565b843d87010160208285010111156122d15750505050505090565b6122e060208286010187611a58565b509095945050505050565b60208082526028908201527f455243313135353a204552433131353552656365697665722072656a656374656040820152676420746f6b656e7360c01b606082015260800190565b6001600160a01b03868116825285166020820152604081018490526060810183905260a060808201819052600090611dfd9083018461198e56fea2646970667358221220fca15251d1d964d4fbcbfc0856a6abf373893e20b4384e4acebc9ee029ad3f4a64736f6c63430008110033",
  "linkReferences": {},
  "deployedLinkReferences": {}
}