{
  "_format": "hh-sol-artifact-1",
  "contractName": "GeneratedNFT",
  "sourceName": "contracts/GeneratedNFT.sol",
  "abi": [
    {
      "inputs": [
        {
          "internalType": "address",
          "name": "_airdropAddress",
          "type": "address"
        },
        {
          "internalType": "string",
          "name": "_name",
          "type": "string"
        },
        {
          "internalType": "string",
          "name": "_symbol",
          "type": "string"
        },
        {
          "internalType": "uint256",
          "name": "_cost",
          "type": "uint256"
        }
      ],
      "stateMutability": "nonpayable",
      "type": "constructor"
    },
    {
      "anonymous": false,
      "inputs": [
        {
          "indexed": true,
          "internalType": "address",
          "name": "owner",
          "type": "address"
        },
        {
          "indexed": true,
          "internalType": "address",
          "name": "approved",
          "type": "address"
        },
        {
          "indexed": true,
          "internalType": "uint256",
          "name": "tokenId",
          "type": "uint256"
        }
      ],
      "name": "Approval",
      "type": "event"
    },
    {
      "anonymous": false,
      "inputs": [
        {
          "indexed": true,
          "internalType": "address",
          "name": "owner",
          "type": "address"
        },
        {
          "indexed": true,
          "internalType": "address",
          "name": "operator",
          "type": "address"
        },
        {
          "indexed": false,
          "internalType": "bool",
          "name": "approved",
          "type": "bool"
        }
      ],
      "name": "ApprovalForAll",
      "type": "event"
    },
    {
      "anonymous": false,
      "inputs": [
        {
          "indexed": false,
          "internalType": "uint256",
          "name": "_fromTokenId",
          "type": "uint256"
        },
        {
          "indexed": false,
          "internalType": "uint256",
          "name": "_toTokenId",
          "type": "uint256"
        }
      ],
      "name": "BatchMetadataUpdate",
      "type": "event"
    },
    {
      "anonymous": false,
      "inputs": [
        {
          "indexed": false,
          "internalType": "uint256",
          "name": "_tokenId",
          "type": "uint256"
        }
      ],
      "name": "MetadataUpdate",
      "type": "event"
    },
    {
      "anonymous": false,
      "inputs": [
        {
          "indexed": true,
          "internalType": "address",
          "name": "minter",
          "type": "address"
        },
        {
          "indexed": true,
          "internalType": "uint256",
          "name": "tokenId",
          "type": "uint256"
        }
      ],
      "name": "Mint",
      "type": "event"
    },
    {
      "anonymous": false,
      "inputs": [
        {
          "indexed": true,
          "internalType": "address",
          "name": "previousOwner",
          "type": "address"
        },
        {
          "indexed": true,
          "internalType": "address",
          "name": "newOwner",
          "type": "address"
        }
      ],
      "name": "OwnershipTransferred",
      "type": "event"
    },
    {
      "anonymous": false,
      "inputs": [
        {
          "indexed": true,
          "internalType": "address",
          "name": "from",
          "type": "address"
        },
        {
          "indexed": true,
          "internalType": "address",
          "name": "to",
          "type": "address"
        },
        {
          "indexed": true,
          "internalType": "uint256",
          "name": "tokenId",
          "type": "uint256"
        }
      ],
      "name": "Transfer",
      "type": "event"
    },
    {
      "inputs": [
        {
          "internalType": "address",
          "name": "to",
          "type": "address"
        },
        {
          "internalType": "uint256",
          "name": "tokenId",
          "type": "uint256"
        }
      ],
      "name": "approve",
      "outputs": [],
      "stateMutability": "nonpayable",
      "type": "function"
    },
    {
      "inputs": [
        {
          "internalType": "address",
          "name": "owner",
          "type": "address"
        }
      ],
      "name": "balanceOf",
      "outputs": [
        {
          "internalType": "uint256",
          "name": "",
          "type": "uint256"
        }
      ],
      "stateMutability": "view",
      "type": "function"
    },
    {
      "inputs": [],
      "name": "getAirdropAddress",
      "outputs": [
        {
          "internalType": "address",
          "name": "",
          "type": "address"
        }
      ],
      "stateMutability": "view",
      "type": "function"
    },
    {
      "inputs": [
        {
          "internalType": "address",
          "name": "_owner",
          "type": "address"
        }
      ],
      "name": "getAirdropAmount",
      "outputs": [
        {
          "internalType": "uint256",
          "name": "",
          "type": "uint256"
        }
      ],
      "stateMutability": "view",
      "type": "function"
    },
    {
      "inputs": [],
      "name": "getAllWallets",
      "outputs": [
        {
          "internalType": "uint256[]",
          "name": "",
          "type": "uint256[]"
        }
      ],
      "stateMutability": "view",
      "type": "function"
    },
    {
      "inputs": [
        {
          "internalType": "uint256",
          "name": "tokenId",
          "type": "uint256"
        }
      ],
      "name": "getApproved",
      "outputs": [
        {
          "internalType": "address",
          "name": "",
          "type": "address"
        }
      ],
      "stateMutability": "view",
      "type": "function"
    },
    {
      "inputs": [],
      "name": "getOwnerWallet",
      "outputs": [
        {
          "internalType": "uint256",
          "name": "",
          "type": "uint256"
        }
      ],
      "stateMutability": "view",
      "type": "function"
    },
    {
      "inputs": [
        {
          "internalType": "address",
          "name": "owner",
          "type": "address"
        },
        {
          "internalType": "address",
          "name": "operator",
          "type": "address"
        }
      ],
      "name": "isApprovedForAll",
      "outputs": [
        {
          "internalType": "bool",
          "name": "",
          "type": "bool"
        }
      ],
      "stateMutability": "view",
      "type": "function"
    },
    {
      "inputs": [
        {
          "internalType": "address",
          "name": "_owner",
          "type": "address"
        }
      ],
      "name": "isTokenBurned",
      "outputs": [
        {
          "internalType": "bool",
          "name": "",
          "type": "bool"
        }
      ],
      "stateMutability": "view",
      "type": "function"
    },
    {
      "inputs": [
        {
          "internalType": "string",
          "name": "_tokenURI",
          "type": "string"
        }
      ],
      "name": "mint",
      "outputs": [],
      "stateMutability": "payable",
      "type": "function"
    },
    {
      "inputs": [],
      "name": "name",
      "outputs": [
        {
          "internalType": "string",
          "name": "",
          "type": "string"
        }
      ],
      "stateMutability": "view",
      "type": "function"
    },
    {
      "inputs": [
        {
          "internalType": "address",
          "name": "",
          "type": "address"
        },
        {
          "internalType": "address",
          "name": "",
          "type": "address"
        },
        {
          "internalType": "uint256[]",
          "name": "",
          "type": "uint256[]"
        },
        {
          "internalType": "uint256[]",
          "name": "",
          "type": "uint256[]"
        },
        {
          "internalType": "bytes",
          "name": "",
          "type": "bytes"
        }
      ],
      "name": "onERC1155BatchReceived",
      "outputs": [
        {
          "internalType": "bytes4",
          "name": "",
          "type": "bytes4"
        }
      ],
      "stateMutability": "pure",
      "type": "function"
    },
    {
      "inputs": [
        {
          "internalType": "address",
          "name": "",
          "type": "address"
        },
        {
          "internalType": "address",
          "name": "",
          "type": "address"
        },
        {
          "internalType": "uint256",
          "name": "",
          "type": "uint256"
        },
        {
          "internalType": "uint256",
          "name": "",
          "type": "uint256"
        },
        {
          "internalType": "bytes",
          "name": "",
          "type": "bytes"
        }
      ],
      "name": "onERC1155Received",
      "outputs": [
        {
          "internalType": "bytes4",
          "name": "",
          "type": "bytes4"
        }
      ],
      "stateMutability": "pure",
      "type": "function"
    },
    {
      "inputs": [],
      "name": "owner",
      "outputs": [
        {
          "internalType": "address",
          "name": "",
          "type": "address"
        }
      ],
      "stateMutability": "view",
      "type": "function"
    },
    {
      "inputs": [
        {
          "internalType": "uint256",
          "name": "tokenId",
          "type": "uint256"
        }
      ],
      "name": "ownerOf",
      "outputs": [
        {
          "internalType": "address",
          "name": "",
          "type": "address"
        }
      ],
      "stateMutability": "view",
      "type": "function"
    },
    {
      "inputs": [],
      "name": "renounceOwnership",
      "outputs": [],
      "stateMutability": "nonpayable",
      "type": "function"
    },
    {
      "inputs": [],
      "name": "s_tokenIds",
      "outputs": [
        {
          "internalType": "uint256",
          "name": "_value",
          "type": "uint256"
        }
      ],
      "stateMutability": "view",
      "type": "function"
    },
    {
      "inputs": [
        {
          "internalType": "address",
          "name": "from",
          "type": "address"
        },
        {
          "internalType": "address",
          "name": "to",
          "type": "address"
        },
        {
          "internalType": "uint256",
          "name": "tokenId",
          "type": "uint256"
        }
      ],
      "name": "safeTransferFrom",
      "outputs": [],
      "stateMutability": "nonpayable",
      "type": "function"
    },
    {
      "inputs": [
        {
          "internalType": "address",
          "name": "from",
          "type": "address"
        },
        {
          "internalType": "address",
          "name": "to",
          "type": "address"
        },
        {
          "internalType": "uint256",
          "name": "tokenId",
          "type": "uint256"
        },
        {
          "internalType": "bytes",
          "name": "data",
          "type": "bytes"
        }
      ],
      "name": "safeTransferFrom",
      "outputs": [],
      "stateMutability": "nonpayable",
      "type": "function"
    },
    {
      "inputs": [
        {
          "internalType": "address",
          "name": "_airdropAddress",
          "type": "address"
        }
      ],
      "name": "setAirDropAddress",
      "outputs": [],
      "stateMutability": "nonpayable",
      "type": "function"
    },
    {
      "inputs": [
        {
          "internalType": "address",
          "name": "operator",
          "type": "address"
        },
        {
          "internalType": "bool",
          "name": "approved",
          "type": "bool"
        }
      ],
      "name": "setApprovalForAll",
      "outputs": [],
      "stateMutability": "nonpayable",
      "type": "function"
    },
    {
      "inputs": [
        {
          "internalType": "uint256",
          "name": "_cost",
          "type": "uint256"
        }
      ],
      "name": "setCost",
      "outputs": [],
      "stateMutability": "nonpayable",
      "type": "function"
    },
    {
      "inputs": [
        {
          "internalType": "bytes4",
          "name": "interfaceId",
          "type": "bytes4"
        }
      ],
      "name": "supportsInterface",
      "outputs": [
        {
          "internalType": "bool",
          "name": "",
          "type": "bool"
        }
      ],
      "stateMutability": "view",
      "type": "function"
    },
    {
      "inputs": [],
      "name": "symbol",
      "outputs": [
        {
          "internalType": "string",
          "name": "",
          "type": "string"
        }
      ],
      "stateMutability": "view",
      "type": "function"
    },
    {
      "inputs": [
        {
          "internalType": "uint256",
          "name": "tokenId",
          "type": "uint256"
        }
      ],
      "name": "tokenURI",
      "outputs": [
        {
          "internalType": "string",
          "name": "",
          "type": "string"
        }
      ],
      "stateMutability": "view",
      "type": "function"
    },
    {
      "inputs": [],
      "name": "totalSupply",
      "outputs": [
        {
          "internalType": "uint256",
          "name": "",
          "type": "uint256"
        }
      ],
      "stateMutability": "view",
      "type": "function"
    },
    {
      "inputs": [
        {
          "internalType": "address",
          "name": "from",
          "type": "address"
        },
        {
          "internalType": "address",
          "name": "to",
          "type": "address"
        },
        {
          "internalType": "uint256",
          "name": "tokenId",
          "type": "uint256"
        }
      ],
      "name": "transferFrom",
      "outputs": [],
      "stateMutability": "nonpayable",
      "type": "function"
    },
    {
      "inputs": [
        {
          "internalType": "address",
          "name": "newOwner",
          "type": "address"
        }
      ],
      "name": "transferOwnership",
      "outputs": [],
      "stateMutability": "nonpayable",
      "type": "function"
    }
  ],
  "bytecode": "0x60806040523480156200001157600080fd5b5060405162002516380380620025168339810160408190526200003491620001c5565b82826000620000448382620002e6565b506001620000538282620002e6565b505050620000706200006a620000aa60201b60201c565b620000ae565b60098054336001600160a01b031991821617909155600b80549091166001600160a01b0395909516949094179093555050600a55620003b2565b3390565b600780546001600160a01b038381166001600160a01b0319831681179093556040519116919082907f8be0079c531659141344cd1fd0a4f28419497f9722a3daafe3b4186f6b6457e090600090a35050565b634e487b7160e01b600052604160045260246000fd5b600082601f8301126200012857600080fd5b81516001600160401b038082111562000145576200014562000100565b604051601f8301601f19908116603f0116810190828211818310171562000170576200017062000100565b816040528381526020925086838588010111156200018d57600080fd5b600091505b83821015620001b1578582018301518183018401529082019062000192565b600093810190920192909252949350505050565b60008060008060808587031215620001dc57600080fd5b84516001600160a01b0381168114620001f457600080fd5b60208601519094506001600160401b03808211156200021257600080fd5b620002208883890162000116565b945060408701519150808211156200023757600080fd5b50620002468782880162000116565b606096909601519497939650505050565b600181811c908216806200026c57607f821691505b6020821081036200028d57634e487b7160e01b600052602260045260246000fd5b50919050565b601f821115620002e157600081815260208120601f850160051c81016020861015620002bc5750805b601f850160051c820191505b81811015620002dd57828155600101620002c8565b5050505b505050565b81516001600160401b0381111562000302576200030262000100565b6200031a8162000313845462000257565b8462000293565b602080601f831160018114620003525760008415620003395750858301515b600019600386901b1c1916600185901b178555620002dd565b600085815260208120601f198616915b82811015620003835788860151825594840194600190910190840162000362565b5085821015620003a25787850151600019600388901b60f8161c191681555b5050505050600190811b01905550565b61215480620003c26000396000f3fe6080604052600436106101b75760003560e01c8063715018a6116100ec578063bc197c811161008a578063e1c51b3711610064578063e1c51b37146104ec578063e985e9c51461050c578063f23a6e611461052c578063f2fde38b1461055957600080fd5b8063bc197c8114610471578063c87b56dd146104b9578063d85d3d27146104d957600080fd5b806395a23646116100c657806395a23646146103fc57806395d89b411461041c578063a22cb46514610431578063b88d4fde1461045157600080fd5b8063715018a6146103a9578063724bc3de146103be5780638da5cb5b146103de57600080fd5b80633c4966b71161015957806344a0d68a1161013357806344a0d68a14610332578063627f0c28146103525780636352211e1461036957806370a082311461038957600080fd5b80633c4966b7146102d25780633d007e57146102f457806342842e0e1461031257600080fd5b8063095ea7b311610195578063095ea7b31461024b57806318160ddd1461026d5780631bfa86011461029057806323b872dd146102b257600080fd5b806301ffc9a7146101bc57806306fdde03146101f1578063081812fc14610213575b600080fd5b3480156101c857600080fd5b506101dc6101d73660046118ec565b610579565b60405190151581526020015b60405180910390f35b3480156101fd57600080fd5b506102066105a4565b6040516101e89190611959565b34801561021f57600080fd5b5061023361022e36600461196c565b610636565b6040516001600160a01b0390911681526020016101e8565b34801561025757600080fd5b5061026b6102663660046119a1565b61065d565b005b34801561027957600080fd5b50610282610777565b6040519081526020016101e8565b34801561029c57600080fd5b506102a5610787565b6040516101e891906119cb565b3480156102be57600080fd5b5061026b6102cd366004611a0f565b61084c565b3480156102de57600080fd5b50336000908152600d6020526040902054610282565b34801561030057600080fd5b50600b546001600160a01b0316610233565b34801561031e57600080fd5b5061026b61032d366004611a0f565b61087d565b34801561033e57600080fd5b5061026b61034d36600461196c565b610898565b34801561035e57600080fd5b506008546102829081565b34801561037557600080fd5b5061023361038436600461196c565b6108a5565b34801561039557600080fd5b506102826103a4366004611a4b565b610905565b3480156103b557600080fd5b5061026b61098b565b3480156103ca57600080fd5b506102826103d9366004611a4b565b61099f565b3480156103ea57600080fd5b506007546001600160a01b0316610233565b34801561040857600080fd5b506101dc610417366004611a4b565b610a26565b34801561042857600080fd5b50610206610a61565b34801561043d57600080fd5b5061026b61044c366004611a66565b610a70565b34801561045d57600080fd5b5061026b61046c366004611b2e565b610a7f565b34801561047d57600080fd5b506104a061048c366004611c38565b63bc197c8160e01b98975050505050505050565b6040516001600160e01b031990911681526020016101e8565b3480156104c557600080fd5b506102066104d436600461196c565b610ab7565b61026b6104e7366004611cf3565b610bc7565b3480156104f857600080fd5b5061026b610507366004611a4b565b610dd7565b34801561051857600080fd5b506101dc610527366004611d3c565b610e01565b34801561053857600080fd5b506104a0610547366004611d6f565b63f23a6e6160e01b9695505050505050565b34801561056557600080fd5b5061026b610574366004611a4b565b610e2f565b60006001600160e01b03198216632483248360e11b148061059e575061059e82610ea8565b92915050565b6060600080546105b390611de7565b80601f01602080910402602001604051908101604052809291908181526020018280546105df90611de7565b801561062c5780601f106106015761010080835404028352916020019161062c565b820191906000526020600020905b81548152906001019060200180831161060f57829003601f168201915b5050505050905090565b600061064182610ef8565b506000908152600460205260409020546001600160a01b031690565b6000610668826108a5565b9050806001600160a01b0316836001600160a01b0316036106da5760405162461bcd60e51b815260206004820152602160248201527f4552433732313a20617070726f76616c20746f2063757272656e74206f776e656044820152603960f91b60648201526084015b60405180910390fd5b336001600160a01b03821614806106f657506106f68133610e01565b6107685760405162461bcd60e51b815260206004820152603d60248201527f4552433732313a20617070726f76652063616c6c6572206973206e6f7420746f60448201527f6b656e206f776e6572206f7220617070726f76656420666f7220616c6c00000060648201526084016106d1565b6107728383610f57565b505050565b600061078260085490565b905090565b6060600061079460085490565b67ffffffffffffffff8111156107ac576107ac611aa2565b6040519080825280602002602001820160405280156107d5578160200160208202803683370190505b50905060005b815181101561084657600d60006107f6610384846001611e31565b6001600160a01b03166001600160a01b031681526020019081526020016000205482828151811061082957610829611e44565b60209081029190910101528061083e81611e5a565b9150506107db565b50919050565b6108563382610fc5565b6108725760405162461bcd60e51b81526004016106d190611e73565b610772838383611023565b61077283838360405180602001604052806000815250610a7f565b6108a0611187565b600a55565b6000818152600260205260408120546001600160a01b03168061059e5760405162461bcd60e51b8152602060048201526018602482015277115490cdcc8c4e881a5b9d985b1a59081d1bdad95b88125160421b60448201526064016106d1565b60006001600160a01b03821661096f5760405162461bcd60e51b815260206004820152602960248201527f4552433732313a2061646472657373207a65726f206973206e6f7420612076616044820152683634b21037bbb732b960b91b60648201526084016106d1565b506001600160a01b031660009081526003602052604090205490565b610993611187565b61099d60006111e1565b565b6000806109aa611233565b600b54604051627eeac760e11b81526001600160a01b0386811660048301526024820184905292935091169062fdd58e90604401602060405180830381865afa1580156109fb573d6000803e3d6000fd5b505050506040513d601f19601f82011682018060405250810190610a1f9190611ec0565b9392505050565b6001600160a01b0381166000908152600c6020526040812081610a47611233565b815260208101919091526040016000205460ff1692915050565b6060600180546105b390611de7565b610a7b3383836112a0565b5050565b610a893383610fc5565b610aa55760405162461bcd60e51b81526004016106d190611e73565b610ab18484848461136e565b50505050565b6060610ac282610ef8565b60008281526006602052604081208054610adb90611de7565b80601f0160208091040260200160405190810160405280929190818152602001828054610b0790611de7565b8015610b545780601f10610b2957610100808354040283529160200191610b54565b820191906000526020600020905b815481529060010190602001808311610b3757829003601f168201915b505050505090506000610b7260408051602081019091526000815290565b90508051600003610b84575092915050565b815115610bb6578082604051602001610b9e929190611ed9565b60405160208183030381529060405292505050919050565b610bbf846113a1565b949350505050565b6000610bd1611233565b90506000610bde3361099f565b90508015610d1657336000908152600e602090815260408083208584529091529020548111610c4f5760405162461bcd60e51b815260206004820152601d60248201527f47656e6572617465644e46543a20546f6b656e206973206275726e656400000060448201526064016106d1565b600b54604051637a94c56560e11b815233600482015260248101849052600160448201526001600160a01b039091169063f5298aca90606401600060405180830381600087803b158015610ca257600080fd5b505af1158015610cb6573d6000803e3d6000fd5b5050336000818152600c602090815260408083208884528252808320805460ff19166001179055928252600e81528282208783529052908120805493509150610cfe83611e5a565b91905055508080610d0e90611f08565b915050610d68565b600a54341015610d685760405162461bcd60e51b815260206004820152601e60248201527f47656e6572617465644e46543a204e6f7420656e6f756768206574686572000060448201526064016106d1565b610d76600880546001019055565b6000610d8160085490565b9050610d8d3382611414565b610d97818561159f565b336000818152600d6020526040808220849055518392917f0f6798a560793a54c3bcfe86a93cde1e73087d944c0ea20544137d412139688591a350505050565b610ddf611187565b600b80546001600160a01b0319166001600160a01b0392909216919091179055565b6001600160a01b03918216600090815260056020908152604080832093909416825291909152205460ff1690565b610e37611187565b6001600160a01b038116610e9c5760405162461bcd60e51b815260206004820152602660248201527f4f776e61626c653a206e6577206f776e657220697320746865207a65726f206160448201526564647265737360d01b60648201526084016106d1565b610ea5816111e1565b50565b60006001600160e01b031982166380ac58cd60e01b1480610ed957506001600160e01b03198216635b5e139f60e01b145b8061059e57506301ffc9a760e01b6001600160e01b031983161461059e565b6000818152600260205260409020546001600160a01b0316610ea55760405162461bcd60e51b8152602060048201526018602482015277115490cdcc8c4e881a5b9d985b1a59081d1bdad95b88125160421b60448201526064016106d1565b600081815260046020526040902080546001600160a01b0319166001600160a01b0384169081179091558190610f8c826108a5565b6001600160a01b03167f8c5be1e5ebec7d5bd14f71427d1e84f3dd0314c0f7b2291e5b200ac8c7c3b92560405160405180910390a45050565b600080610fd1836108a5565b9050806001600160a01b0316846001600160a01b03161480610ff85750610ff88185610e01565b80610bbf5750836001600160a01b031661101184610636565b6001600160a01b031614949350505050565b826001600160a01b0316611036826108a5565b6001600160a01b03161461105c5760405162461bcd60e51b81526004016106d190611f1f565b6001600160a01b0382166110be5760405162461bcd60e51b8152602060048201526024808201527f4552433732313a207472616e7366657220746f20746865207a65726f206164646044820152637265737360e01b60648201526084016106d1565b826001600160a01b03166110d1826108a5565b6001600160a01b0316146110f75760405162461bcd60e51b81526004016106d190611f1f565b600081815260046020908152604080832080546001600160a01b03199081169091556001600160a01b0387811680865260038552838620805460001901905590871680865283862080546001019055868652600290945282852080549092168417909155905184937fddf252ad1be2c89b69c2b068fc378daa952ba7f163c4a11628f55a4df523b3ef91a4505050565b6007546001600160a01b0316331461099d5760405162461bcd60e51b815260206004820181905260248201527f4f776e61626c653a2063616c6c6572206973206e6f7420746865206f776e657260448201526064016106d1565b600780546001600160a01b038381166001600160a01b0319831681179093556040519116919082907f8be0079c531659141344cd1fd0a4f28419497f9722a3daafe3b4186f6b6457e090600090a35050565b600b546040516378a9bb4360e11b81523360048201526000916001600160a01b03169063f153768690602401602060405180830381865afa15801561127c573d6000803e3d6000fd5b505050506040513d601f19601f820116820180604052508101906107829190611ec0565b816001600160a01b0316836001600160a01b0316036113015760405162461bcd60e51b815260206004820152601960248201527f4552433732313a20617070726f766520746f2063616c6c65720000000000000060448201526064016106d1565b6001600160a01b03838116600081815260056020908152604080832094871680845294825291829020805460ff191686151590811790915591519182527f17307eab39ab6107e8899845ad3d59bd9653f200f220920489ca2b5937696c31910160405180910390a3505050565b611379848484611023565b6113858484848461166a565b610ab15760405162461bcd60e51b81526004016106d190611f64565b60606113ac82610ef8565b60006113c360408051602081019091526000815290565b905060008151116113e35760405180602001604052806000815250610a1f565b806113ed8461176b565b6040516020016113fe929190611ed9565b6040516020818303038152906040529392505050565b6001600160a01b03821661146a5760405162461bcd60e51b815260206004820181905260248201527f4552433732313a206d696e7420746f20746865207a65726f206164647265737360448201526064016106d1565b6000818152600260205260409020546001600160a01b0316156114cf5760405162461bcd60e51b815260206004820152601c60248201527f4552433732313a20746f6b656e20616c7265616479206d696e7465640000000060448201526064016106d1565b6000818152600260205260409020546001600160a01b0316156115345760405162461bcd60e51b815260206004820152601c60248201527f4552433732313a20746f6b656e20616c7265616479206d696e7465640000000060448201526064016106d1565b6001600160a01b038216600081815260036020908152604080832080546001019055848352600290915280822080546001600160a01b0319168417905551839291907fddf252ad1be2c89b69c2b068fc378daa952ba7f163c4a11628f55a4df523b3ef908290a45050565b6000828152600260205260409020546001600160a01b031661161a5760405162461bcd60e51b815260206004820152602e60248201527f45524337323155524953746f726167653a2055524920736574206f66206e6f6e60448201526d32bc34b9ba32b73a103a37b5b2b760911b60648201526084016106d1565b60008281526006602052604090206116328282612004565b506040518281527ff8e1a15aba9398e019f0b49df1a4fde98ee17ae345cb5f6b5e2c27f5033e8ce79060200160405180910390a15050565b60006001600160a01b0384163b1561176057604051630a85bd0160e11b81526001600160a01b0385169063150b7a02906116ae9033908990889088906004016120c4565b6020604051808303816000875af19250505080156116e9575060408051601f3d908101601f191682019092526116e691810190612101565b60015b611746573d808015611717576040519150601f19603f3d011682016040523d82523d6000602084013e61171c565b606091505b50805160000361173e5760405162461bcd60e51b81526004016106d190611f64565b805181602001fd5b6001600160e01b031916630a85bd0160e11b149050610bbf565b506001949350505050565b60606000611778836117fe565b600101905060008167ffffffffffffffff81111561179857611798611aa2565b6040519080825280601f01601f1916602001820160405280156117c2576020820181803683370190505b5090508181016020015b600019016f181899199a1a9b1b9c1cb0b131b232b360811b600a86061a8153600a85049450846117cc57509392505050565b60008072184f03e93ff9f4daa797ed6e38ed64bf6a1f0160401b831061183d5772184f03e93ff9f4daa797ed6e38ed64bf6a1f0160401b830492506040015b6d04ee2d6d415b85acef81000000008310611869576d04ee2d6d415b85acef8100000000830492506020015b662386f26fc10000831061188757662386f26fc10000830492506010015b6305f5e100831061189f576305f5e100830492506008015b61271083106118b357612710830492506004015b606483106118c5576064830492506002015b600a831061059e5760010192915050565b6001600160e01b031981168114610ea557600080fd5b6000602082840312156118fe57600080fd5b8135610a1f816118d6565b60005b8381101561192457818101518382015260200161190c565b50506000910152565b60008151808452611945816020860160208601611909565b601f01601f19169290920160200192915050565b602081526000610a1f602083018461192d565b60006020828403121561197e57600080fd5b5035919050565b80356001600160a01b038116811461199c57600080fd5b919050565b600080604083850312156119b457600080fd5b6119bd83611985565b946020939093013593505050565b6020808252825182820181905260009190848201906040850190845b81811015611a03578351835292840192918401916001016119e7565b50909695505050505050565b600080600060608486031215611a2457600080fd5b611a2d84611985565b9250611a3b60208501611985565b9150604084013590509250925092565b600060208284031215611a5d57600080fd5b610a1f82611985565b60008060408385031215611a7957600080fd5b611a8283611985565b915060208301358015158114611a9757600080fd5b809150509250929050565b634e487b7160e01b600052604160045260246000fd5b600067ffffffffffffffff80841115611ad357611ad3611aa2565b604051601f8501601f19908116603f01168101908282118183101715611afb57611afb611aa2565b81604052809350858152868686011115611b1457600080fd5b858560208301376000602087830101525050509392505050565b60008060008060808587031215611b4457600080fd5b611b4d85611985565b9350611b5b60208601611985565b925060408501359150606085013567ffffffffffffffff811115611b7e57600080fd5b8501601f81018713611b8f57600080fd5b611b9e87823560208401611ab8565b91505092959194509250565b60008083601f840112611bbc57600080fd5b50813567ffffffffffffffff811115611bd457600080fd5b6020830191508360208260051b8501011115611bef57600080fd5b9250929050565b60008083601f840112611c0857600080fd5b50813567ffffffffffffffff811115611c2057600080fd5b602083019150836020828501011115611bef57600080fd5b60008060008060008060008060a0898b031215611c5457600080fd5b611c5d89611985565b9750611c6b60208a01611985565b9650604089013567ffffffffffffffff80821115611c8857600080fd5b611c948c838d01611baa565b909850965060608b0135915080821115611cad57600080fd5b611cb98c838d01611baa565b909650945060808b0135915080821115611cd257600080fd5b50611cdf8b828c01611bf6565b999c989b5096995094979396929594505050565b600060208284031215611d0557600080fd5b813567ffffffffffffffff811115611d1c57600080fd5b8201601f81018413611d2d57600080fd5b610bbf84823560208401611ab8565b60008060408385031215611d4f57600080fd5b611d5883611985565b9150611d6660208401611985565b90509250929050565b60008060008060008060a08789031215611d8857600080fd5b611d9187611985565b9550611d9f60208801611985565b94506040870135935060608701359250608087013567ffffffffffffffff811115611dc957600080fd5b611dd589828a01611bf6565b979a9699509497509295939492505050565b600181811c90821680611dfb57607f821691505b60208210810361084657634e487b7160e01b600052602260045260246000fd5b634e487b7160e01b600052601160045260246000fd5b8082018082111561059e5761059e611e1b565b634e487b7160e01b600052603260045260246000fd5b600060018201611e6c57611e6c611e1b565b5060010190565b6020808252602d908201527f4552433732313a2063616c6c6572206973206e6f7420746f6b656e206f776e6560408201526c1c881bdc88185c1c1c9bdd9959609a1b606082015260800190565b600060208284031215611ed257600080fd5b5051919050565b60008351611eeb818460208801611909565b835190830190611eff818360208801611909565b01949350505050565b600081611f1757611f17611e1b565b506000190190565b60208082526025908201527f4552433732313a207472616e736665722066726f6d20696e636f72726563742060408201526437bbb732b960d91b606082015260800190565b60208082526032908201527f4552433732313a207472616e7366657220746f206e6f6e20455243373231526560408201527131b2b4bb32b91034b6b83632b6b2b73a32b960711b606082015260800190565b601f82111561077257600081815260208120601f850160051c81016020861015611fdd5750805b601f850160051c820191505b81811015611ffc57828155600101611fe9565b505050505050565b815167ffffffffffffffff81111561201e5761201e611aa2565b6120328161202c8454611de7565b84611fb6565b602080601f831160018114612067576000841561204f5750858301515b600019600386901b1c1916600185901b178555611ffc565b600085815260208120601f198616915b8281101561209657888601518255948401946001909101908401612077565b50858210156120b45787850151600019600388901b60f8161c191681555b5050505050600190811b01905550565b6001600160a01b03858116825284166020820152604081018390526080606082018190526000906120f79083018461192d565b9695505050505050565b60006020828403121561211357600080fd5b8151610a1f816118d656fea2646970667358221220d8d5dd4ea53b4aacb51e8ed12ffe901d06cd626077575b1de55b5fb53cf1ca5464736f6c63430008110033",
  "linkReferences": {},
  "deployedLinkReferences": {}
}