{
  "_format": "hh-sol-artifact-1",
  "contractName": "GeneratedNFT",
  "sourceName": "contracts/GeneratedNFT.sol",
  "abi": [
    {
      "inputs": [
        {
          "internalType": "address",
          "name": "_airdropAddress",
          "type": "address"
        },
        {
          "internalType": "string",
          "name": "_name",
          "type": "string"
        },
        {
          "internalType": "string",
          "name": "_symbol",
          "type": "string"
        }
      ],
      "stateMutability": "nonpayable",
      "type": "constructor"
    },
    {
      "anonymous": false,
      "inputs": [
        {
          "indexed": true,
          "internalType": "address",
          "name": "owner",
          "type": "address"
        },
        {
          "indexed": true,
          "internalType": "address",
          "name": "approved",
          "type": "address"
        },
        {
          "indexed": true,
          "internalType": "uint256",
          "name": "tokenId",
          "type": "uint256"
        }
      ],
      "name": "Approval",
      "type": "event"
    },
    {
      "anonymous": false,
      "inputs": [
        {
          "indexed": true,
          "internalType": "address",
          "name": "owner",
          "type": "address"
        },
        {
          "indexed": true,
          "internalType": "address",
          "name": "operator",
          "type": "address"
        },
        {
          "indexed": false,
          "internalType": "bool",
          "name": "approved",
          "type": "bool"
        }
      ],
      "name": "ApprovalForAll",
      "type": "event"
    },
    {
      "anonymous": false,
      "inputs": [
        {
          "indexed": false,
          "internalType": "uint256",
          "name": "_fromTokenId",
          "type": "uint256"
        },
        {
          "indexed": false,
          "internalType": "uint256",
          "name": "_toTokenId",
          "type": "uint256"
        }
      ],
      "name": "BatchMetadataUpdate",
      "type": "event"
    },
    {
      "anonymous": false,
      "inputs": [
        {
          "indexed": false,
          "internalType": "uint256",
          "name": "_tokenId",
          "type": "uint256"
        }
      ],
      "name": "MetadataUpdate",
      "type": "event"
    },
    {
      "anonymous": false,
      "inputs": [
        {
          "indexed": true,
          "internalType": "address",
          "name": "minter",
          "type": "address"
        },
        {
          "indexed": true,
          "internalType": "uint256",
          "name": "tokenId",
          "type": "uint256"
        }
      ],
      "name": "Mint",
      "type": "event"
    },
    {
      "anonymous": false,
      "inputs": [
        {
          "indexed": true,
          "internalType": "address",
          "name": "previousOwner",
          "type": "address"
        },
        {
          "indexed": true,
          "internalType": "address",
          "name": "newOwner",
          "type": "address"
        }
      ],
      "name": "OwnershipTransferred",
      "type": "event"
    },
    {
      "anonymous": false,
      "inputs": [
        {
          "indexed": true,
          "internalType": "address",
          "name": "from",
          "type": "address"
        },
        {
          "indexed": true,
          "internalType": "address",
          "name": "to",
          "type": "address"
        },
        {
          "indexed": true,
          "internalType": "uint256",
          "name": "tokenId",
          "type": "uint256"
        }
      ],
      "name": "Transfer",
      "type": "event"
    },
    {
      "inputs": [
        {
          "internalType": "address",
          "name": "to",
          "type": "address"
        },
        {
          "internalType": "uint256",
          "name": "tokenId",
          "type": "uint256"
        }
      ],
      "name": "approve",
      "outputs": [],
      "stateMutability": "nonpayable",
      "type": "function"
    },
    {
      "inputs": [
        {
          "internalType": "address",
          "name": "owner",
          "type": "address"
        }
      ],
      "name": "balanceOf",
      "outputs": [
        {
          "internalType": "uint256",
          "name": "",
          "type": "uint256"
        }
      ],
      "stateMutability": "view",
      "type": "function"
    },
    {
      "inputs": [],
      "name": "getAirdropAddress",
      "outputs": [
        {
          "internalType": "address",
          "name": "",
          "type": "address"
        }
      ],
      "stateMutability": "view",
      "type": "function"
    },
    {
      "inputs": [],
      "name": "getAllWallets",
      "outputs": [
        {
          "internalType": "uint256[]",
          "name": "",
          "type": "uint256[]"
        }
      ],
      "stateMutability": "view",
      "type": "function"
    },
    {
      "inputs": [
        {
          "internalType": "uint256",
          "name": "tokenId",
          "type": "uint256"
        }
      ],
      "name": "getApproved",
      "outputs": [
        {
          "internalType": "address",
          "name": "",
          "type": "address"
        }
      ],
      "stateMutability": "view",
      "type": "function"
    },
    {
      "inputs": [],
      "name": "getOwnerWallet",
      "outputs": [
        {
          "internalType": "uint256",
          "name": "",
          "type": "uint256"
        }
      ],
      "stateMutability": "view",
      "type": "function"
    },
    {
      "inputs": [
        {
          "internalType": "address",
          "name": "owner",
          "type": "address"
        },
        {
          "internalType": "address",
          "name": "operator",
          "type": "address"
        }
      ],
      "name": "isApprovedForAll",
      "outputs": [
        {
          "internalType": "bool",
          "name": "",
          "type": "bool"
        }
      ],
      "stateMutability": "view",
      "type": "function"
    },
    {
      "inputs": [
        {
          "internalType": "address",
          "name": "_owner",
          "type": "address"
        }
      ],
      "name": "isTokenBurned",
      "outputs": [
        {
          "internalType": "bool",
          "name": "",
          "type": "bool"
        }
      ],
      "stateMutability": "view",
      "type": "function"
    },
    {
      "inputs": [
        {
          "internalType": "string",
          "name": "_tokenURI",
          "type": "string"
        }
      ],
      "name": "mint",
      "outputs": [],
      "stateMutability": "nonpayable",
      "type": "function"
    },
    {
      "inputs": [],
      "name": "name",
      "outputs": [
        {
          "internalType": "string",
          "name": "",
          "type": "string"
        }
      ],
      "stateMutability": "view",
      "type": "function"
    },
    {
      "inputs": [
        {
          "internalType": "address",
          "name": "",
          "type": "address"
        },
        {
          "internalType": "address",
          "name": "",
          "type": "address"
        },
        {
          "internalType": "uint256[]",
          "name": "",
          "type": "uint256[]"
        },
        {
          "internalType": "uint256[]",
          "name": "",
          "type": "uint256[]"
        },
        {
          "internalType": "bytes",
          "name": "",
          "type": "bytes"
        }
      ],
      "name": "onERC1155BatchReceived",
      "outputs": [
        {
          "internalType": "bytes4",
          "name": "",
          "type": "bytes4"
        }
      ],
      "stateMutability": "pure",
      "type": "function"
    },
    {
      "inputs": [
        {
          "internalType": "address",
          "name": "",
          "type": "address"
        },
        {
          "internalType": "address",
          "name": "",
          "type": "address"
        },
        {
          "internalType": "uint256",
          "name": "",
          "type": "uint256"
        },
        {
          "internalType": "uint256",
          "name": "",
          "type": "uint256"
        },
        {
          "internalType": "bytes",
          "name": "",
          "type": "bytes"
        }
      ],
      "name": "onERC1155Received",
      "outputs": [
        {
          "internalType": "bytes4",
          "name": "",
          "type": "bytes4"
        }
      ],
      "stateMutability": "pure",
      "type": "function"
    },
    {
      "inputs": [],
      "name": "owner",
      "outputs": [
        {
          "internalType": "address",
          "name": "",
          "type": "address"
        }
      ],
      "stateMutability": "view",
      "type": "function"
    },
    {
      "inputs": [
        {
          "internalType": "uint256",
          "name": "tokenId",
          "type": "uint256"
        }
      ],
      "name": "ownerOf",
      "outputs": [
        {
          "internalType": "address",
          "name": "",
          "type": "address"
        }
      ],
      "stateMutability": "view",
      "type": "function"
    },
    {
      "inputs": [],
      "name": "renounceOwnership",
      "outputs": [],
      "stateMutability": "nonpayable",
      "type": "function"
    },
    {
      "inputs": [],
      "name": "s_tokenIds",
      "outputs": [
        {
          "internalType": "uint256",
          "name": "_value",
          "type": "uint256"
        }
      ],
      "stateMutability": "view",
      "type": "function"
    },
    {
      "inputs": [
        {
          "internalType": "address",
          "name": "from",
          "type": "address"
        },
        {
          "internalType": "address",
          "name": "to",
          "type": "address"
        },
        {
          "internalType": "uint256",
          "name": "tokenId",
          "type": "uint256"
        }
      ],
      "name": "safeTransferFrom",
      "outputs": [],
      "stateMutability": "nonpayable",
      "type": "function"
    },
    {
      "inputs": [
        {
          "internalType": "address",
          "name": "from",
          "type": "address"
        },
        {
          "internalType": "address",
          "name": "to",
          "type": "address"
        },
        {
          "internalType": "uint256",
          "name": "tokenId",
          "type": "uint256"
        },
        {
          "internalType": "bytes",
          "name": "data",
          "type": "bytes"
        }
      ],
      "name": "safeTransferFrom",
      "outputs": [],
      "stateMutability": "nonpayable",
      "type": "function"
    },
    {
      "inputs": [
        {
          "internalType": "address",
          "name": "_airdropAddress",
          "type": "address"
        }
      ],
      "name": "setAirDropAddress",
      "outputs": [],
      "stateMutability": "nonpayable",
      "type": "function"
    },
    {
      "inputs": [
        {
          "internalType": "address",
          "name": "operator",
          "type": "address"
        },
        {
          "internalType": "bool",
          "name": "approved",
          "type": "bool"
        }
      ],
      "name": "setApprovalForAll",
      "outputs": [],
      "stateMutability": "nonpayable",
      "type": "function"
    },
    {
      "inputs": [
        {
          "internalType": "bytes4",
          "name": "interfaceId",
          "type": "bytes4"
        }
      ],
      "name": "supportsInterface",
      "outputs": [
        {
          "internalType": "bool",
          "name": "",
          "type": "bool"
        }
      ],
      "stateMutability": "view",
      "type": "function"
    },
    {
      "inputs": [],
      "name": "symbol",
      "outputs": [
        {
          "internalType": "string",
          "name": "",
          "type": "string"
        }
      ],
      "stateMutability": "view",
      "type": "function"
    },
    {
      "inputs": [
        {
          "internalType": "uint256",
          "name": "tokenId",
          "type": "uint256"
        }
      ],
      "name": "tokenURI",
      "outputs": [
        {
          "internalType": "string",
          "name": "",
          "type": "string"
        }
      ],
      "stateMutability": "view",
      "type": "function"
    },
    {
      "inputs": [],
      "name": "totalSupply",
      "outputs": [
        {
          "internalType": "uint256",
          "name": "",
          "type": "uint256"
        }
      ],
      "stateMutability": "view",
      "type": "function"
    },
    {
      "inputs": [
        {
          "internalType": "address",
          "name": "from",
          "type": "address"
        },
        {
          "internalType": "address",
          "name": "to",
          "type": "address"
        },
        {
          "internalType": "uint256",
          "name": "tokenId",
          "type": "uint256"
        }
      ],
      "name": "transferFrom",
      "outputs": [],
      "stateMutability": "nonpayable",
      "type": "function"
    },
    {
      "inputs": [
        {
          "internalType": "address",
          "name": "newOwner",
          "type": "address"
        }
      ],
      "name": "transferOwnership",
      "outputs": [],
      "stateMutability": "nonpayable",
      "type": "function"
    }
  ],
  "bytecode": "0x60806040523480156200001157600080fd5b50604051620023d4380380620023d48339810160408190526200003491620001c1565b81816000620000448382620002da565b506001620000538282620002da565b505050620000706200006a620000a660201b60201c565b620000aa565b505060098054336001600160a01b031991821617909155600a80549091166001600160a01b0392909216919091179055620003a6565b3390565b600780546001600160a01b038381166001600160a01b0319831681179093556040519116919082907f8be0079c531659141344cd1fd0a4f28419497f9722a3daafe3b4186f6b6457e090600090a35050565b634e487b7160e01b600052604160045260246000fd5b600082601f8301126200012457600080fd5b81516001600160401b0380821115620001415762000141620000fc565b604051601f8301601f19908116603f011681019082821181831017156200016c576200016c620000fc565b816040528381526020925086838588010111156200018957600080fd5b600091505b83821015620001ad57858201830151818301840152908201906200018e565b600093810190920192909252949350505050565b600080600060608486031215620001d757600080fd5b83516001600160a01b0381168114620001ef57600080fd5b60208501519093506001600160401b03808211156200020d57600080fd5b6200021b8783880162000112565b935060408601519150808211156200023257600080fd5b50620002418682870162000112565b9150509250925092565b600181811c908216806200026057607f821691505b6020821081036200028157634e487b7160e01b600052602260045260246000fd5b50919050565b601f821115620002d557600081815260208120601f850160051c81016020861015620002b05750805b601f850160051c820191505b81811015620002d157828155600101620002bc565b5050505b505050565b81516001600160401b03811115620002f657620002f6620000fc565b6200030e816200030784546200024b565b8462000287565b602080601f8311600181146200034657600084156200032d5750858301515b600019600386901b1c1916600185901b178555620002d1565b600085815260208120601f198616915b82811015620003775788860151825594840194600190910190840162000356565b5085821015620003965787850151600019600388901b60f8161c191681555b5050505050600190811b01905550565b61201e80620003b66000396000f3fe608060405234801561001057600080fd5b506004361061018e5760003560e01c8063715018a6116100de578063bc197c8111610097578063e1c51b3711610071578063e1c51b3714610372578063e985e9c514610385578063f23a6e6114610398578063f2fde38b146103b857600080fd5b8063bc197c8114610311578063c87b56dd1461034c578063d85d3d271461035f57600080fd5b8063715018a6146102b75780638da5cb5b146102bf57806395a23646146102d057806395d89b41146102e3578063a22cb465146102eb578063b88d4fde146102fe57600080fd5b806323b872dd1161014b57806342842e0e1161012557806342842e0e14610274578063627f0c28146102875780636352211e1461029157806370a08231146102a457600080fd5b806323b872dd1461023b5780633c4966b71461024e5780633d007e571461026357600080fd5b806301ffc9a71461019357806306fdde03146101bb578063081812fc146101d0578063095ea7b3146101fb57806318160ddd146102105780631bfa860114610226575b600080fd5b6101a66101a1366004611794565b6103cb565b60405190151581526020015b60405180910390f35b6101c36103f6565b6040516101b29190611801565b6101e36101de366004611814565b610488565b6040516001600160a01b0390911681526020016101b2565b61020e610209366004611849565b6104af565b005b6102186105c9565b6040519081526020016101b2565b61022e6105d9565b6040516101b29190611873565b61020e6102493660046118b7565b61069e565b336000908152600c6020526040902054610218565b600a546001600160a01b03166101e3565b61020e6102823660046118b7565b6106cf565b6008546102189081565b6101e361029f366004611814565b6106ea565b6102186102b23660046118f3565b61074a565b61020e6107d0565b6007546001600160a01b03166101e3565b6101a66102de3660046118f3565b6107e4565b6101c361081f565b61020e6102f936600461190e565b61082e565b61020e61030c3660046119d6565b61083d565b61033361031f366004611ae0565b63bc197c8160e01b98975050505050505050565b6040516001600160e01b031990911681526020016101b2565b6101c361035a366004611814565b610875565b61020e61036d366004611b9b565b610985565b61020e6103803660046118f3565b610b98565b6101a6610393366004611be4565b610bc2565b6103336103a6366004611c17565b63f23a6e6160e01b9695505050505050565b61020e6103c63660046118f3565b610bf0565b60006001600160e01b03198216632483248360e11b14806103f057506103f082610c69565b92915050565b60606000805461040590611c8f565b80601f016020809104026020016040519081016040528092919081815260200182805461043190611c8f565b801561047e5780601f106104535761010080835404028352916020019161047e565b820191906000526020600020905b81548152906001019060200180831161046157829003601f168201915b5050505050905090565b600061049382610cb9565b506000908152600460205260409020546001600160a01b031690565b60006104ba826106ea565b9050806001600160a01b0316836001600160a01b03160361052c5760405162461bcd60e51b815260206004820152602160248201527f4552433732313a20617070726f76616c20746f2063757272656e74206f776e656044820152603960f91b60648201526084015b60405180910390fd5b336001600160a01b038216148061054857506105488133610bc2565b6105ba5760405162461bcd60e51b815260206004820152603d60248201527f4552433732313a20617070726f76652063616c6c6572206973206e6f7420746f60448201527f6b656e206f776e6572206f7220617070726f76656420666f7220616c6c0000006064820152608401610523565b6105c48383610d18565b505050565b60006105d460085490565b905090565b606060006105e660085490565b67ffffffffffffffff8111156105fe576105fe61194a565b604051908082528060200260200182016040528015610627578160200160208202803683370190505b50905060005b815181101561069857600c600061064861029f846001611cd9565b6001600160a01b03166001600160a01b031681526020019081526020016000205482828151811061067b5761067b611cec565b60209081029190910101528061069081611d02565b91505061062d565b50919050565b6106a83382610d86565b6106c45760405162461bcd60e51b815260040161052390611d1b565b6105c4838383610de4565b6105c48383836040518060200160405280600081525061083d565b6000818152600260205260408120546001600160a01b0316806103f05760405162461bcd60e51b8152602060048201526018602482015277115490cdcc8c4e881a5b9d985b1a59081d1bdad95b88125160421b6044820152606401610523565b60006001600160a01b0382166107b45760405162461bcd60e51b815260206004820152602960248201527f4552433732313a2061646472657373207a65726f206973206e6f7420612076616044820152683634b21037bbb732b960b91b6064820152608401610523565b506001600160a01b031660009081526003602052604090205490565b6107d8610f48565b6107e26000610fa2565b565b6001600160a01b0381166000908152600b6020526040812081610805610ff4565b815260208101919091526040016000205460ff1692915050565b60606001805461040590611c8f565b610839338383611061565b5050565b6108473383610d86565b6108635760405162461bcd60e51b815260040161052390611d1b565b61086f8484848461112f565b50505050565b606061088082610cb9565b6000828152600660205260408120805461089990611c8f565b80601f01602080910402602001604051908101604052809291908181526020018280546108c590611c8f565b80156109125780601f106108e757610100808354040283529160200191610912565b820191906000526020600020905b8154815290600101906020018083116108f557829003601f168201915b50505050509050600061093060408051602081019091526000815290565b90508051600003610942575092915050565b81511561097457808260405160200161095c929190611d68565b60405160208183030381529060405292505050919050565b61097d84611162565b949350505050565b600061098f610ff4565b9050600061099c336111d6565b9050600081116109ee5760405162461bcd60e51b815260206004820152601f60248201527f47656e6572617465644e46543a204e6f7420656e6f75676820746f6b656e73006044820152606401610523565b336000908152600d602090815260408083208584529091529020548111610a575760405162461bcd60e51b815260206004820152601d60248201527f47656e6572617465644e46543a20546f6b656e206973206275726e65640000006044820152606401610523565b8015610afc57600a54604051637a94c56560e11b815233600482015260248101849052600160448201526001600160a01b039091169063f5298aca90606401600060405180830381600087803b158015610ab057600080fd5b505af1158015610ac4573d6000803e3d6000fd5b5050336000908152600b602090815260408083208784529091529020805460ff1916600117905550819050610af881611d97565b9150505b610b296040518060400160405280600b81526020016a62616c616e63653a20257360a81b81525082611256565b610b37600880546001019055565b6000610b4260085490565b9050610b4e338261129b565b610b588185611426565b336000818152600c6020526040808220849055518392917f0f6798a560793a54c3bcfe86a93cde1e73087d944c0ea20544137d412139688591a350505050565b610ba0610f48565b600a80546001600160a01b0319166001600160a01b0392909216919091179055565b6001600160a01b03918216600090815260056020908152604080832093909416825291909152205460ff1690565b610bf8610f48565b6001600160a01b038116610c5d5760405162461bcd60e51b815260206004820152602660248201527f4f776e61626c653a206e6577206f776e657220697320746865207a65726f206160448201526564647265737360d01b6064820152608401610523565b610c6681610fa2565b50565b60006001600160e01b031982166380ac58cd60e01b1480610c9a57506001600160e01b03198216635b5e139f60e01b145b806103f057506301ffc9a760e01b6001600160e01b03198316146103f0565b6000818152600260205260409020546001600160a01b0316610c665760405162461bcd60e51b8152602060048201526018602482015277115490cdcc8c4e881a5b9d985b1a59081d1bdad95b88125160421b6044820152606401610523565b600081815260046020526040902080546001600160a01b0319166001600160a01b0384169081179091558190610d4d826106ea565b6001600160a01b03167f8c5be1e5ebec7d5bd14f71427d1e84f3dd0314c0f7b2291e5b200ac8c7c3b92560405160405180910390a45050565b600080610d92836106ea565b9050806001600160a01b0316846001600160a01b03161480610db95750610db98185610bc2565b8061097d5750836001600160a01b0316610dd284610488565b6001600160a01b031614949350505050565b826001600160a01b0316610df7826106ea565b6001600160a01b031614610e1d5760405162461bcd60e51b815260040161052390611dae565b6001600160a01b038216610e7f5760405162461bcd60e51b8152602060048201526024808201527f4552433732313a207472616e7366657220746f20746865207a65726f206164646044820152637265737360e01b6064820152608401610523565b826001600160a01b0316610e92826106ea565b6001600160a01b031614610eb85760405162461bcd60e51b815260040161052390611dae565b600081815260046020908152604080832080546001600160a01b03199081169091556001600160a01b0387811680865260038552838620805460001901905590871680865283862080546001019055868652600290945282852080549092168417909155905184937fddf252ad1be2c89b69c2b068fc378daa952ba7f163c4a11628f55a4df523b3ef91a4505050565b6007546001600160a01b031633146107e25760405162461bcd60e51b815260206004820181905260248201527f4f776e61626c653a2063616c6c6572206973206e6f7420746865206f776e65726044820152606401610523565b600780546001600160a01b038381166001600160a01b0319831681179093556040519116919082907f8be0079c531659141344cd1fd0a4f28419497f9722a3daafe3b4186f6b6457e090600090a35050565b600a546040516378a9bb4360e11b81523360048201526000916001600160a01b03169063f153768690602401602060405180830381865afa15801561103d573d6000803e3d6000fd5b505050506040513d601f19601f820116820180604052508101906105d49190611df3565b816001600160a01b0316836001600160a01b0316036110c25760405162461bcd60e51b815260206004820152601960248201527f4552433732313a20617070726f766520746f2063616c6c6572000000000000006044820152606401610523565b6001600160a01b03838116600081815260056020908152604080832094871680845294825291829020805460ff191686151590811790915591519182527f17307eab39ab6107e8899845ad3d59bd9653f200f220920489ca2b5937696c31910160405180910390a3505050565b61113a848484610de4565b611146848484846114f1565b61086f5760405162461bcd60e51b815260040161052390611e0c565b606061116d82610cb9565b600061118460408051602081019091526000815290565b905060008151116111a457604051806020016040528060008152506111cf565b806111ae846115f2565b6040516020016111bf929190611d68565b6040516020818303038152906040525b9392505050565b6000806111e1610ff4565b600a54604051627eeac760e11b81526001600160a01b0386811660048301526024820184905292935091169062fdd58e90604401602060405180830381865afa158015611232573d6000803e3d6000fd5b505050506040513d601f19601f820116820180604052508101906111cf9190611df3565b610839828260405160240161126c929190611e5e565b60408051601f198184030181529190526020810180516001600160e01b0316632d839cb360e21b179052611685565b6001600160a01b0382166112f15760405162461bcd60e51b815260206004820181905260248201527f4552433732313a206d696e7420746f20746865207a65726f20616464726573736044820152606401610523565b6000818152600260205260409020546001600160a01b0316156113565760405162461bcd60e51b815260206004820152601c60248201527f4552433732313a20746f6b656e20616c7265616479206d696e746564000000006044820152606401610523565b6000818152600260205260409020546001600160a01b0316156113bb5760405162461bcd60e51b815260206004820152601c60248201527f4552433732313a20746f6b656e20616c7265616479206d696e746564000000006044820152606401610523565b6001600160a01b038216600081815260036020908152604080832080546001019055848352600290915280822080546001600160a01b0319168417905551839291907fddf252ad1be2c89b69c2b068fc378daa952ba7f163c4a11628f55a4df523b3ef908290a45050565b6000828152600260205260409020546001600160a01b03166114a15760405162461bcd60e51b815260206004820152602e60248201527f45524337323155524953746f726167653a2055524920736574206f66206e6f6e60448201526d32bc34b9ba32b73a103a37b5b2b760911b6064820152608401610523565b60008281526006602052604090206114b98282611ece565b506040518281527ff8e1a15aba9398e019f0b49df1a4fde98ee17ae345cb5f6b5e2c27f5033e8ce79060200160405180910390a15050565b60006001600160a01b0384163b156115e757604051630a85bd0160e11b81526001600160a01b0385169063150b7a0290611535903390899088908890600401611f8e565b6020604051808303816000875af1925050508015611570575060408051601f3d908101601f1916820190925261156d91810190611fcb565b60015b6115cd573d80801561159e576040519150601f19603f3d011682016040523d82523d6000602084013e6115a3565b606091505b5080516000036115c55760405162461bcd60e51b815260040161052390611e0c565b805181602001fd5b6001600160e01b031916630a85bd0160e11b14905061097d565b506001949350505050565b606060006115ff836116a6565b600101905060008167ffffffffffffffff81111561161f5761161f61194a565b6040519080825280601f01601f191660200182016040528015611649576020820181803683370190505b5090508181016020015b600019016f181899199a1a9b1b9c1cb0b131b232b360811b600a86061a8153600a850494508461165357509392505050565b60006a636f6e736f6c652e6c6f679050600080835160208501845afa505050565b60008072184f03e93ff9f4daa797ed6e38ed64bf6a1f0160401b83106116e55772184f03e93ff9f4daa797ed6e38ed64bf6a1f0160401b830492506040015b6d04ee2d6d415b85acef81000000008310611711576d04ee2d6d415b85acef8100000000830492506020015b662386f26fc10000831061172f57662386f26fc10000830492506010015b6305f5e1008310611747576305f5e100830492506008015b612710831061175b57612710830492506004015b6064831061176d576064830492506002015b600a83106103f05760010192915050565b6001600160e01b031981168114610c6657600080fd5b6000602082840312156117a657600080fd5b81356111cf8161177e565b60005b838110156117cc5781810151838201526020016117b4565b50506000910152565b600081518084526117ed8160208601602086016117b1565b601f01601f19169290920160200192915050565b6020815260006111cf60208301846117d5565b60006020828403121561182657600080fd5b5035919050565b80356001600160a01b038116811461184457600080fd5b919050565b6000806040838503121561185c57600080fd5b6118658361182d565b946020939093013593505050565b6020808252825182820181905260009190848201906040850190845b818110156118ab5783518352928401929184019160010161188f565b50909695505050505050565b6000806000606084860312156118cc57600080fd5b6118d58461182d565b92506118e36020850161182d565b9150604084013590509250925092565b60006020828403121561190557600080fd5b6111cf8261182d565b6000806040838503121561192157600080fd5b61192a8361182d565b91506020830135801515811461193f57600080fd5b809150509250929050565b634e487b7160e01b600052604160045260246000fd5b600067ffffffffffffffff8084111561197b5761197b61194a565b604051601f8501601f19908116603f011681019082821181831017156119a3576119a361194a565b816040528093508581528686860111156119bc57600080fd5b858560208301376000602087830101525050509392505050565b600080600080608085870312156119ec57600080fd5b6119f58561182d565b9350611a036020860161182d565b925060408501359150606085013567ffffffffffffffff811115611a2657600080fd5b8501601f81018713611a3757600080fd5b611a4687823560208401611960565b91505092959194509250565b60008083601f840112611a6457600080fd5b50813567ffffffffffffffff811115611a7c57600080fd5b6020830191508360208260051b8501011115611a9757600080fd5b9250929050565b60008083601f840112611ab057600080fd5b50813567ffffffffffffffff811115611ac857600080fd5b602083019150836020828501011115611a9757600080fd5b60008060008060008060008060a0898b031215611afc57600080fd5b611b058961182d565b9750611b1360208a0161182d565b9650604089013567ffffffffffffffff80821115611b3057600080fd5b611b3c8c838d01611a52565b909850965060608b0135915080821115611b5557600080fd5b611b618c838d01611a52565b909650945060808b0135915080821115611b7a57600080fd5b50611b878b828c01611a9e565b999c989b5096995094979396929594505050565b600060208284031215611bad57600080fd5b813567ffffffffffffffff811115611bc457600080fd5b8201601f81018413611bd557600080fd5b61097d84823560208401611960565b60008060408385031215611bf757600080fd5b611c008361182d565b9150611c0e6020840161182d565b90509250929050565b60008060008060008060a08789031215611c3057600080fd5b611c398761182d565b9550611c476020880161182d565b94506040870135935060608701359250608087013567ffffffffffffffff811115611c7157600080fd5b611c7d89828a01611a9e565b979a9699509497509295939492505050565b600181811c90821680611ca357607f821691505b60208210810361069857634e487b7160e01b600052602260045260246000fd5b634e487b7160e01b600052601160045260246000fd5b808201808211156103f0576103f0611cc3565b634e487b7160e01b600052603260045260246000fd5b600060018201611d1457611d14611cc3565b5060010190565b6020808252602d908201527f4552433732313a2063616c6c6572206973206e6f7420746f6b656e206f776e6560408201526c1c881bdc88185c1c1c9bdd9959609a1b606082015260800190565b60008351611d7a8184602088016117b1565b835190830190611d8e8183602088016117b1565b01949350505050565b600081611da657611da6611cc3565b506000190190565b60208082526025908201527f4552433732313a207472616e736665722066726f6d20696e636f72726563742060408201526437bbb732b960d91b606082015260800190565b600060208284031215611e0557600080fd5b5051919050565b60208082526032908201527f4552433732313a207472616e7366657220746f206e6f6e20455243373231526560408201527131b2b4bb32b91034b6b83632b6b2b73a32b960711b606082015260800190565b604081526000611e7160408301856117d5565b90508260208301529392505050565b601f8211156105c457600081815260208120601f850160051c81016020861015611ea75750805b601f850160051c820191505b81811015611ec657828155600101611eb3565b505050505050565b815167ffffffffffffffff811115611ee857611ee861194a565b611efc81611ef68454611c8f565b84611e80565b602080601f831160018114611f315760008415611f195750858301515b600019600386901b1c1916600185901b178555611ec6565b600085815260208120601f198616915b82811015611f6057888601518255948401946001909101908401611f41565b5085821015611f7e5787850151600019600388901b60f8161c191681555b5050505050600190811b01905550565b6001600160a01b0385811682528416602082015260408101839052608060608201819052600090611fc1908301846117d5565b9695505050505050565b600060208284031215611fdd57600080fd5b81516111cf8161177e56fea26469706673582212204a61fec6de1cf77b451d35afb0be3750dc45e5a8777e7615bb8c4d427e8a7c0d64736f6c63430008110033",
  "linkReferences": {},
  "deployedLinkReferences": {}
}