{
  "_format": "hh-sol-artifact-1",
  "contractName": "GeneratedNFT",
  "sourceName": "contracts/GeneratedNFT.sol",
  "abi": [
    {
      "inputs": [
        {
          "internalType": "address",
          "name": "_airdropAddress",
          "type": "address"
        },
        {
          "internalType": "string",
          "name": "_name",
          "type": "string"
        },
        {
          "internalType": "string",
          "name": "_symbol",
          "type": "string"
        },
        {
          "internalType": "uint256",
          "name": "_cost",
          "type": "uint256"
        }
      ],
      "stateMutability": "nonpayable",
      "type": "constructor"
    },
    {
      "anonymous": false,
      "inputs": [
        {
          "indexed": true,
          "internalType": "address",
          "name": "owner",
          "type": "address"
        },
        {
          "indexed": true,
          "internalType": "address",
          "name": "approved",
          "type": "address"
        },
        {
          "indexed": true,
          "internalType": "uint256",
          "name": "tokenId",
          "type": "uint256"
        }
      ],
      "name": "Approval",
      "type": "event"
    },
    {
      "anonymous": false,
      "inputs": [
        {
          "indexed": true,
          "internalType": "address",
          "name": "owner",
          "type": "address"
        },
        {
          "indexed": true,
          "internalType": "address",
          "name": "operator",
          "type": "address"
        },
        {
          "indexed": false,
          "internalType": "bool",
          "name": "approved",
          "type": "bool"
        }
      ],
      "name": "ApprovalForAll",
      "type": "event"
    },
    {
      "anonymous": false,
      "inputs": [
        {
          "indexed": false,
          "internalType": "uint256",
          "name": "_fromTokenId",
          "type": "uint256"
        },
        {
          "indexed": false,
          "internalType": "uint256",
          "name": "_toTokenId",
          "type": "uint256"
        }
      ],
      "name": "BatchMetadataUpdate",
      "type": "event"
    },
    {
      "anonymous": false,
      "inputs": [
        {
          "indexed": false,
          "internalType": "uint256",
          "name": "_tokenId",
          "type": "uint256"
        }
      ],
      "name": "MetadataUpdate",
      "type": "event"
    },
    {
      "anonymous": false,
      "inputs": [
        {
          "indexed": true,
          "internalType": "address",
          "name": "minter",
          "type": "address"
        },
        {
          "indexed": true,
          "internalType": "uint256",
          "name": "tokenId",
          "type": "uint256"
        }
      ],
      "name": "Mint",
      "type": "event"
    },
    {
      "anonymous": false,
      "inputs": [
        {
          "indexed": true,
          "internalType": "address",
          "name": "previousOwner",
          "type": "address"
        },
        {
          "indexed": true,
          "internalType": "address",
          "name": "newOwner",
          "type": "address"
        }
      ],
      "name": "OwnershipTransferred",
      "type": "event"
    },
    {
      "anonymous": false,
      "inputs": [
        {
          "indexed": true,
          "internalType": "address",
          "name": "from",
          "type": "address"
        },
        {
          "indexed": true,
          "internalType": "address",
          "name": "to",
          "type": "address"
        },
        {
          "indexed": true,
          "internalType": "uint256",
          "name": "tokenId",
          "type": "uint256"
        }
      ],
      "name": "Transfer",
      "type": "event"
    },
    {
      "inputs": [
        {
          "internalType": "address",
          "name": "to",
          "type": "address"
        },
        {
          "internalType": "uint256",
          "name": "tokenId",
          "type": "uint256"
        }
      ],
      "name": "approve",
      "outputs": [],
      "stateMutability": "nonpayable",
      "type": "function"
    },
    {
      "inputs": [
        {
          "internalType": "address",
          "name": "owner",
          "type": "address"
        }
      ],
      "name": "balanceOf",
      "outputs": [
        {
          "internalType": "uint256",
          "name": "",
          "type": "uint256"
        }
      ],
      "stateMutability": "view",
      "type": "function"
    },
    {
      "inputs": [],
      "name": "getAirdropAddress",
      "outputs": [
        {
          "internalType": "address",
          "name": "",
          "type": "address"
        }
      ],
      "stateMutability": "view",
      "type": "function"
    },
    {
      "inputs": [
        {
          "internalType": "address",
          "name": "_owner",
          "type": "address"
        }
      ],
      "name": "getAirdropBalance",
      "outputs": [
        {
          "internalType": "uint256",
          "name": "",
          "type": "uint256"
        }
      ],
      "stateMutability": "view",
      "type": "function"
    },
    {
      "inputs": [],
      "name": "getAllWallets",
      "outputs": [
        {
          "internalType": "uint256[]",
          "name": "",
          "type": "uint256[]"
        }
      ],
      "stateMutability": "view",
      "type": "function"
    },
    {
      "inputs": [
        {
          "internalType": "uint256",
          "name": "tokenId",
          "type": "uint256"
        }
      ],
      "name": "getApproved",
      "outputs": [
        {
          "internalType": "address",
          "name": "",
          "type": "address"
        }
      ],
      "stateMutability": "view",
      "type": "function"
    },
    {
      "inputs": [],
      "name": "getCost",
      "outputs": [
        {
          "internalType": "uint256",
          "name": "",
          "type": "uint256"
        }
      ],
      "stateMutability": "view",
      "type": "function"
    },
    {
      "inputs": [],
      "name": "getOwnerWallet",
      "outputs": [
        {
          "internalType": "uint256",
          "name": "",
          "type": "uint256"
        }
      ],
      "stateMutability": "view",
      "type": "function"
    },
    {
      "inputs": [
        {
          "internalType": "address",
          "name": "_owner",
          "type": "address"
        }
      ],
      "name": "getTokenURIsByAddress",
      "outputs": [
        {
          "internalType": "uint256[]",
          "name": "",
          "type": "uint256[]"
        },
        {
          "internalType": "string[]",
          "name": "",
          "type": "string[]"
        }
      ],
      "stateMutability": "view",
      "type": "function"
    },
    {
      "inputs": [
        {
          "internalType": "address",
          "name": "owner",
          "type": "address"
        },
        {
          "internalType": "address",
          "name": "operator",
          "type": "address"
        }
      ],
      "name": "isApprovedForAll",
      "outputs": [
        {
          "internalType": "bool",
          "name": "",
          "type": "bool"
        }
      ],
      "stateMutability": "view",
      "type": "function"
    },
    {
      "inputs": [
        {
          "internalType": "address",
          "name": "_owner",
          "type": "address"
        },
        {
          "internalType": "uint256",
          "name": "_tokenId",
          "type": "uint256"
        }
      ],
      "name": "isTokenBurned",
      "outputs": [
        {
          "internalType": "bool",
          "name": "",
          "type": "bool"
        }
      ],
      "stateMutability": "view",
      "type": "function"
    },
    {
      "inputs": [
        {
          "internalType": "string",
          "name": "_tokenURI",
          "type": "string"
        }
      ],
      "name": "mint",
      "outputs": [],
      "stateMutability": "payable",
      "type": "function"
    },
    {
      "inputs": [],
      "name": "name",
      "outputs": [
        {
          "internalType": "string",
          "name": "",
          "type": "string"
        }
      ],
      "stateMutability": "view",
      "type": "function"
    },
    {
      "inputs": [
        {
          "internalType": "address",
          "name": "",
          "type": "address"
        },
        {
          "internalType": "address",
          "name": "",
          "type": "address"
        },
        {
          "internalType": "uint256[]",
          "name": "",
          "type": "uint256[]"
        },
        {
          "internalType": "uint256[]",
          "name": "",
          "type": "uint256[]"
        },
        {
          "internalType": "bytes",
          "name": "",
          "type": "bytes"
        }
      ],
      "name": "onERC1155BatchReceived",
      "outputs": [
        {
          "internalType": "bytes4",
          "name": "",
          "type": "bytes4"
        }
      ],
      "stateMutability": "pure",
      "type": "function"
    },
    {
      "inputs": [
        {
          "internalType": "address",
          "name": "",
          "type": "address"
        },
        {
          "internalType": "address",
          "name": "",
          "type": "address"
        },
        {
          "internalType": "uint256",
          "name": "",
          "type": "uint256"
        },
        {
          "internalType": "uint256",
          "name": "",
          "type": "uint256"
        },
        {
          "internalType": "bytes",
          "name": "",
          "type": "bytes"
        }
      ],
      "name": "onERC1155Received",
      "outputs": [
        {
          "internalType": "bytes4",
          "name": "",
          "type": "bytes4"
        }
      ],
      "stateMutability": "pure",
      "type": "function"
    },
    {
      "inputs": [],
      "name": "owner",
      "outputs": [
        {
          "internalType": "address",
          "name": "",
          "type": "address"
        }
      ],
      "stateMutability": "view",
      "type": "function"
    },
    {
      "inputs": [
        {
          "internalType": "uint256",
          "name": "tokenId",
          "type": "uint256"
        }
      ],
      "name": "ownerOf",
      "outputs": [
        {
          "internalType": "address",
          "name": "",
          "type": "address"
        }
      ],
      "stateMutability": "view",
      "type": "function"
    },
    {
      "inputs": [],
      "name": "renounceOwnership",
      "outputs": [],
      "stateMutability": "nonpayable",
      "type": "function"
    },
    {
      "inputs": [
        {
          "internalType": "address",
          "name": "from",
          "type": "address"
        },
        {
          "internalType": "address",
          "name": "to",
          "type": "address"
        },
        {
          "internalType": "uint256",
          "name": "tokenId",
          "type": "uint256"
        }
      ],
      "name": "safeTransferFrom",
      "outputs": [],
      "stateMutability": "nonpayable",
      "type": "function"
    },
    {
      "inputs": [
        {
          "internalType": "address",
          "name": "from",
          "type": "address"
        },
        {
          "internalType": "address",
          "name": "to",
          "type": "address"
        },
        {
          "internalType": "uint256",
          "name": "tokenId",
          "type": "uint256"
        },
        {
          "internalType": "bytes",
          "name": "data",
          "type": "bytes"
        }
      ],
      "name": "safeTransferFrom",
      "outputs": [],
      "stateMutability": "nonpayable",
      "type": "function"
    },
    {
      "inputs": [
        {
          "internalType": "address",
          "name": "_airdropAddress",
          "type": "address"
        }
      ],
      "name": "setAirDropAddress",
      "outputs": [],
      "stateMutability": "nonpayable",
      "type": "function"
    },
    {
      "inputs": [
        {
          "internalType": "address",
          "name": "operator",
          "type": "address"
        },
        {
          "internalType": "bool",
          "name": "approved",
          "type": "bool"
        }
      ],
      "name": "setApprovalForAll",
      "outputs": [],
      "stateMutability": "nonpayable",
      "type": "function"
    },
    {
      "inputs": [
        {
          "internalType": "uint256",
          "name": "_cost",
          "type": "uint256"
        }
      ],
      "name": "setCost",
      "outputs": [],
      "stateMutability": "nonpayable",
      "type": "function"
    },
    {
      "inputs": [
        {
          "internalType": "bytes4",
          "name": "interfaceId",
          "type": "bytes4"
        }
      ],
      "name": "supportsInterface",
      "outputs": [
        {
          "internalType": "bool",
          "name": "",
          "type": "bool"
        }
      ],
      "stateMutability": "view",
      "type": "function"
    },
    {
      "inputs": [],
      "name": "symbol",
      "outputs": [
        {
          "internalType": "string",
          "name": "",
          "type": "string"
        }
      ],
      "stateMutability": "view",
      "type": "function"
    },
    {
      "inputs": [
        {
          "internalType": "uint256",
          "name": "tokenId",
          "type": "uint256"
        }
      ],
      "name": "tokenURI",
      "outputs": [
        {
          "internalType": "string",
          "name": "",
          "type": "string"
        }
      ],
      "stateMutability": "view",
      "type": "function"
    },
    {
      "inputs": [],
      "name": "totalSupply",
      "outputs": [
        {
          "internalType": "uint256",
          "name": "",
          "type": "uint256"
        }
      ],
      "stateMutability": "view",
      "type": "function"
    },
    {
      "inputs": [
        {
          "internalType": "address",
          "name": "from",
          "type": "address"
        },
        {
          "internalType": "address",
          "name": "to",
          "type": "address"
        },
        {
          "internalType": "uint256",
          "name": "tokenId",
          "type": "uint256"
        }
      ],
      "name": "transferFrom",
      "outputs": [],
      "stateMutability": "nonpayable",
      "type": "function"
    },
    {
      "inputs": [
        {
          "internalType": "address",
          "name": "newOwner",
          "type": "address"
        }
      ],
      "name": "transferOwnership",
      "outputs": [],
      "stateMutability": "nonpayable",
      "type": "function"
    }
  ],
  "bytecode": "0x60806040523480156200001157600080fd5b5060405162002aff38038062002aff8339810160408190526200003491620001c5565b82826000620000448382620002e6565b506001620000538282620002e6565b505050620000706200006a620000aa60201b60201c565b620000ae565b60098054336001600160a01b031991821617909155600b80549091166001600160a01b0395909516949094179093555050600a55620003b2565b3390565b600780546001600160a01b038381166001600160a01b0319831681179093556040519116919082907f8be0079c531659141344cd1fd0a4f28419497f9722a3daafe3b4186f6b6457e090600090a35050565b634e487b7160e01b600052604160045260246000fd5b600082601f8301126200012857600080fd5b81516001600160401b038082111562000145576200014562000100565b604051601f8301601f19908116603f0116810190828211818310171562000170576200017062000100565b816040528381526020925086838588010111156200018d57600080fd5b600091505b83821015620001b1578582018301518183018401529082019062000192565b600093810190920192909252949350505050565b60008060008060808587031215620001dc57600080fd5b84516001600160a01b0381168114620001f457600080fd5b60208601519094506001600160401b03808211156200021257600080fd5b620002208883890162000116565b945060408701519150808211156200023757600080fd5b50620002468782880162000116565b606096909601519497939650505050565b600181811c908216806200026c57607f821691505b6020821081036200028d57634e487b7160e01b600052602260045260246000fd5b50919050565b601f821115620002e157600081815260208120601f850160051c81016020861015620002bc5750805b601f850160051c820191505b81811015620002dd57828155600101620002c8565b5050505b505050565b81516001600160401b0381111562000302576200030262000100565b6200031a8162000313845462000257565b8462000293565b602080601f831160018114620003525760008415620003395750858301515b600019600386901b1c1916600185901b178555620002dd565b600085815260208120601f198616915b82811015620003835788860151825594840194600190910190840162000362565b5085821015620003a25787850151600019600388901b60f8161c191681555b5050505050600190811b01905550565b61273d80620003c26000396000f3fe6080604052600436106101c25760003560e01c806370a08231116100f7578063bd3e19d411610095578063e985e9c511610064578063e985e9c514610523578063efa94d491461056c578063f23a6e611461058c578063f2fde38b146105b957600080fd5b8063bd3e19d4146104bb578063c87b56dd146104d0578063d85d3d27146104f0578063e1c51b371461050357600080fd5b806395d89b41116100d157806395d89b411461041e578063a22cb46514610433578063b88d4fde14610453578063bc197c811461047357600080fd5b806370a08231146103cb578063715018a6146103eb5780638da5cb5b1461040057600080fd5b80631bfa8601116101645780633d007e571161013e5780633d007e571461034d57806342842e0e1461036b57806344a0d68a1461038b5780636352211e146103ab57600080fd5b80631bfa8601146102e957806323b872dd1461030b5780633c4966b71461032b57600080fd5b8063095ea7b3116101a0578063095ea7b314610256578063129077a61461027857806318160ddd146102985780631b964a9b146102bb57600080fd5b806301ffc9a7146101c757806306fdde03146101fc578063081812fc1461021e575b600080fd5b3480156101d357600080fd5b506101e76101e2366004611e0b565b6105d9565b60405190151581526020015b60405180910390f35b34801561020857600080fd5b50610211610604565b6040516101f39190611e78565b34801561022a57600080fd5b5061023e610239366004611e8b565b610696565b6040516001600160a01b0390911681526020016101f3565b34801561026257600080fd5b50610276610271366004611eb9565b6106bd565b005b34801561028457600080fd5b506101e7610293366004611eb9565b6107d7565b3480156102a457600080fd5b506102ad6107ea565b6040519081526020016101f3565b3480156102c757600080fd5b506102db6102d6366004611ee5565b6107fa565b6040516101f3929190611f3d565b3480156102f557600080fd5b506102fe6109b1565b6040516101f39190611faf565b34801561031757600080fd5b50610276610326366004611fc2565b610a76565b34801561033757600080fd5b50336000908152600e60205260409020546102ad565b34801561035957600080fd5b50600b546001600160a01b031661023e565b34801561037757600080fd5b50610276610386366004611fc2565b610aa7565b34801561039757600080fd5b506102766103a6366004611e8b565b610ac2565b3480156103b757600080fd5b5061023e6103c6366004611e8b565b610acf565b3480156103d757600080fd5b506102ad6103e6366004611ee5565b610b2f565b3480156103f757600080fd5b50610276610bb5565b34801561040c57600080fd5b506007546001600160a01b031661023e565b34801561042a57600080fd5b50610211610bc9565b34801561043f57600080fd5b5061027661044e366004612011565b610bd8565b34801561045f57600080fd5b5061027661046e3660046120d6565b610be7565b34801561047f57600080fd5b506104a261048e3660046121e4565b63bc197c8160e01b98975050505050505050565b6040516001600160e01b031990911681526020016101f3565b3480156104c757600080fd5b50600a546102ad565b3480156104dc57600080fd5b506102116104eb366004611e8b565b610c1f565b6102766104fe3660046122a3565b610d2f565b34801561050f57600080fd5b5061027661051e366004611ee5565b611100565b34801561052f57600080fd5b506101e761053e3660046122ec565b6001600160a01b03918216600090815260056020908152604080832093909416825291909152205460ff1690565b34801561057857600080fd5b506102ad610587366004611ee5565b61112a565b34801561059857600080fd5b506104a26105a736600461231a565b63f23a6e6160e01b9695505050505050565b3480156105c557600080fd5b506102766105d4366004611ee5565b6111b5565b60006001600160e01b03198216630271189760e51b14806105fe57506105fe8261122e565b92915050565b60606000805461061390612396565b80601f016020809104026020016040519081016040528092919081815260200182805461063f90612396565b801561068c5780601f106106615761010080835404028352916020019161068c565b820191906000526020600020905b81548152906001019060200180831161066f57829003601f168201915b5050505050905090565b60006106a182611253565b506000908152600460205260409020546001600160a01b031690565b60006106c882610acf565b9050806001600160a01b0316836001600160a01b03160361073a5760405162461bcd60e51b815260206004820152602160248201527f4552433732313a20617070726f76616c20746f2063757272656e74206f776e656044820152603960f91b60648201526084015b60405180910390fd5b336001600160a01b03821614806107565750610756813361053e565b6107c85760405162461bcd60e51b815260206004820152603d60248201527f4552433732313a20617070726f76652063616c6c6572206973206e6f7420746f60448201527f6b656e206f776e6572206f7220617070726f76656420666f7220616c6c0000006064820152608401610731565b6107d283836112b2565b505050565b60006107e38383611320565b9392505050565b60006107f560085490565b905090565b606080600061080860085490565b90506000805b828110156108675760006108238260016123e0565b9050866001600160a01b031661083882610acf565b6001600160a01b0316036108545782610850816123f3565b9350505b508061085f816123f3565b91505061080e565b5060008167ffffffffffffffff8111156108835761088361204a565b6040519080825280602002602001820160405280156108ac578160200160208202803683370190505b50905060008267ffffffffffffffff8111156108ca576108ca61204a565b6040519080825280602002602001820160405280156108fd57816020015b60608152602001906001900390816108e85790505b5090506000805b858110156109a35760006109198260016123e0565b9050896001600160a01b031661092e82610acf565b6001600160a01b031603610990578085848151811061094f5761094f61240c565b60200260200101818152505061096481610c1f565b8484815181106109765761097661240c565b6020026020010181905250828061098c906123f3565b9350505b508061099b816123f3565b915050610904565b509197909650945050505050565b606060006109be60085490565b67ffffffffffffffff8111156109d6576109d661204a565b6040519080825280602002602001820160405280156109ff578160200160208202803683370190505b50905060005b8151811015610a7057600e6000610a206103c68460016123e0565b6001600160a01b03166001600160a01b0316815260200190815260200160002054828281518110610a5357610a5361240c565b602090810291909101015280610a68816123f3565b915050610a05565b50919050565b610a80338261139c565b610a9c5760405162461bcd60e51b815260040161073190612422565b6107d283838361141a565b6107d283838360405180602001604052806000815250610be7565b610aca61157e565b600a55565b6000818152600260205260408120546001600160a01b0316806105fe5760405162461bcd60e51b8152602060048201526018602482015277115490cdcc8c4e881a5b9d985b1a59081d1bdad95b88125160421b6044820152606401610731565b60006001600160a01b038216610b995760405162461bcd60e51b815260206004820152602960248201527f4552433732313a2061646472657373207a65726f206973206e6f7420612076616044820152683634b21037bbb732b960b91b6064820152608401610731565b506001600160a01b031660009081526003602052604090205490565b610bbd61157e565b610bc760006115d8565b565b60606001805461061390612396565b610be333838361162a565b5050565b610bf1338361139c565b610c0d5760405162461bcd60e51b815260040161073190612422565b610c19848484846116f8565b50505050565b6060610c2a82611253565b60008281526006602052604081208054610c4390612396565b80601f0160208091040260200160405190810160405280929190818152602001828054610c6f90612396565b8015610cbc5780601f10610c9157610100808354040283529160200191610cbc565b820191906000526020600020905b815481529060010190602001808311610c9f57829003601f168201915b505050505090506000610cda60408051602081019091526000815290565b90508051600003610cec575092915050565b815115610d1e578082604051602001610d0692919061246f565b60405160208183030381529060405292505050919050565b610d278461172b565b949350505050565b6000610d3a3361179e565b905060008082118015610db45750600b54604051634f6a7d2d60e11b81523360048201526001600160a01b0390911690639ed4fa5a90602401602060405180830381865afa158015610d90573d6000803e3d6000fd5b505050506040513d601f19601f82011682018060405250810190610db4919061249e565b9050801561102e57600b546040516378a9bb4360e11b81523360048201526000916001600160a01b03169063f153768690602401602060405180830381865afa158015610e05573d6000803e3d6000fd5b505050506040513d601f19601f82011682018060405250810190610e2991906124bb565b600b5460405163e985e9c560e01b81523360048201523060248201529192506001600160a01b03169063e985e9c590604401602060405180830381865afa158015610e78573d6000803e3d6000fd5b505050506040513d601f19601f82011682018060405250810190610e9c919061249e565b80610f1a5750600b546040516331a9108f60e11b81526004810183905233916001600160a01b031690636352211e90602401602060405180830381865afa158015610eeb573d6000803e3d6000fd5b505050506040513d601f19601f82011682018060405250810190610f0f91906124d4565b6001600160a01b0316145b610f7d5760405162461bcd60e51b815260206004820152602e60248201527f47656e6572617465644e46543a2043616c6c6572206973206e6f74206f776e6560448201526d1c881b9bdc88185c1c1c9bdd995960921b6064820152608401610731565b600b54604051637921219560e11b8152336004820152306024820152604481018390526001606482015260a06084820152600060a48201526001600160a01b039091169063f242432a9060c401600060405180830381600087803b158015610fe457600080fd5b505af1158015610ff8573d6000803e3d6000fd5b505050508280611007906124f1565b336000908152600d6020908152604080832095835294905292909220829055509150611091565b600a543410156110915760405162461bcd60e51b815260206004820152602860248201527f47656e6572617465644e46543a20496e73756666696369656e742066756e6473604482015267081d1bc81b5a5b9d60c21b6064820152608401610731565b61109f600880546001019055565b60006110aa60085490565b90506110b633826118b0565b6110c08185611a3b565b336000818152600e6020526040808220849055518392917f0f6798a560793a54c3bcfe86a93cde1e73087d944c0ea20544137d412139688591a350505050565b61110861157e565b600b80546001600160a01b0319166001600160a01b0392909216919091179055565b600b546000906001600160a01b031662fdd58e8361114781611b06565b6040516001600160e01b031960e085901b1681526001600160a01b03909216600483015260248201526044015b602060405180830381865afa158015611191573d6000803e3d6000fd5b505050506040513d601f19601f820116820180604052508101906105fe91906124bb565b6111bd61157e565b6001600160a01b0381166112225760405162461bcd60e51b815260206004820152602660248201527f4f776e61626c653a206e6577206f776e657220697320746865207a65726f206160448201526564647265737360d01b6064820152608401610731565b61122b816115d8565b50565b60006001600160e01b03198216632483248360e11b14806105fe57506105fe82611b39565b6000818152600260205260409020546001600160a01b031661122b5760405162461bcd60e51b8152602060048201526018602482015277115490cdcc8c4e881a5b9d985b1a59081d1bdad95b88125160421b6044820152606401610731565b600081815260046020526040902080546001600160a01b0319166001600160a01b03841690811790915581906112e782610acf565b6001600160a01b03167f8c5be1e5ebec7d5bd14f71427d1e84f3dd0314c0f7b2291e5b200ac8c7c3b92560405160405180910390a45050565b600b54604051627eeac760e11b81526001600160a01b03848116600483015260248201849052600092169062fdd58e90604401602060405180830381865afa158015611370573d6000803e3d6000fd5b505050506040513d601f19601f8201168201806040525081019061139491906124bb565b159392505050565b6000806113a883610acf565b9050806001600160a01b0316846001600160a01b031614806113ef57506001600160a01b0380821660009081526005602090815260408083209388168352929052205460ff165b80610d275750836001600160a01b031661140884610696565b6001600160a01b031614949350505050565b826001600160a01b031661142d82610acf565b6001600160a01b0316146114535760405162461bcd60e51b815260040161073190612508565b6001600160a01b0382166114b55760405162461bcd60e51b8152602060048201526024808201527f4552433732313a207472616e7366657220746f20746865207a65726f206164646044820152637265737360e01b6064820152608401610731565b826001600160a01b03166114c882610acf565b6001600160a01b0316146114ee5760405162461bcd60e51b815260040161073190612508565b600081815260046020908152604080832080546001600160a01b03199081169091556001600160a01b0387811680865260038552838620805460001901905590871680865283862080546001019055868652600290945282852080549092168417909155905184937fddf252ad1be2c89b69c2b068fc378daa952ba7f163c4a11628f55a4df523b3ef91a4505050565b6007546001600160a01b03163314610bc75760405162461bcd60e51b815260206004820181905260248201527f4f776e61626c653a2063616c6c6572206973206e6f7420746865206f776e65726044820152606401610731565b600780546001600160a01b038381166001600160a01b0319831681179093556040519116919082907f8be0079c531659141344cd1fd0a4f28419497f9722a3daafe3b4186f6b6457e090600090a35050565b816001600160a01b0316836001600160a01b03160361168b5760405162461bcd60e51b815260206004820152601960248201527f4552433732313a20617070726f766520746f2063616c6c6572000000000000006044820152606401610731565b6001600160a01b03838116600081815260056020908152604080832094871680845294825291829020805460ff191686151590811790915591519182527f17307eab39ab6107e8899845ad3d59bd9653f200f220920489ca2b5937696c31910160405180910390a3505050565b61170384848461141a565b61170f84848484611b89565b610c195760405162461bcd60e51b81526004016107319061254d565b606061173682611253565b600061174d60408051602081019091526000815290565b9050600081511161176d57604051806020016040528060008152506107e3565b8061177784611c8a565b60405160200161178892919061246f565b6040516020818303038152906040529392505050565b600b546040516378a9bb4360e11b81526001600160a01b038381166004830152600092839291169063f153768690602401602060405180830381865afa1580156117ec573d6000803e3d6000fd5b505050506040513d601f19601f8201168201806040525081019061181091906124bb565b600b54604051627eeac760e11b81526001600160a01b0386811660048301526024820184905292935091169062fdd58e90604401602060405180830381865afa158015611861573d6000803e3d6000fd5b505050506040513d601f19601f8201168201806040525081019061188591906124bb565b6001600160a01b03939093166000908152600d60209081526040808320938352929052208290555090565b6001600160a01b0382166119065760405162461bcd60e51b815260206004820181905260248201527f4552433732313a206d696e7420746f20746865207a65726f20616464726573736044820152606401610731565b6000818152600260205260409020546001600160a01b03161561196b5760405162461bcd60e51b815260206004820152601c60248201527f4552433732313a20746f6b656e20616c7265616479206d696e746564000000006044820152606401610731565b6000818152600260205260409020546001600160a01b0316156119d05760405162461bcd60e51b815260206004820152601c60248201527f4552433732313a20746f6b656e20616c7265616479206d696e746564000000006044820152606401610731565b6001600160a01b038216600081815260036020908152604080832080546001019055848352600290915280822080546001600160a01b0319168417905551839291907fddf252ad1be2c89b69c2b068fc378daa952ba7f163c4a11628f55a4df523b3ef908290a45050565b6000828152600260205260409020546001600160a01b0316611ab65760405162461bcd60e51b815260206004820152602e60248201527f45524337323155524953746f726167653a2055524920736574206f66206e6f6e60448201526d32bc34b9ba32b73a103a37b5b2b760911b6064820152608401610731565b6000828152600660205260409020611ace82826125ed565b506040518281527ff8e1a15aba9398e019f0b49df1a4fde98ee17ae345cb5f6b5e2c27f5033e8ce79060200160405180910390a15050565b600b546040516378a9bb4360e11b81526001600160a01b038381166004830152600092169063f153768690602401611174565b60006001600160e01b031982166380ac58cd60e01b1480611b6a57506001600160e01b03198216635b5e139f60e01b145b806105fe57506301ffc9a760e01b6001600160e01b03198316146105fe565b60006001600160a01b0384163b15611c7f57604051630a85bd0160e11b81526001600160a01b0385169063150b7a0290611bcd9033908990889088906004016126ad565b6020604051808303816000875af1925050508015611c08575060408051601f3d908101601f19168201909252611c05918101906126ea565b60015b611c65573d808015611c36576040519150601f19603f3d011682016040523d82523d6000602084013e611c3b565b606091505b508051600003611c5d5760405162461bcd60e51b81526004016107319061254d565b805181602001fd5b6001600160e01b031916630a85bd0160e11b149050610d27565b506001949350505050565b60606000611c9783611d1d565b600101905060008167ffffffffffffffff811115611cb757611cb761204a565b6040519080825280601f01601f191660200182016040528015611ce1576020820181803683370190505b5090508181016020015b600019016f181899199a1a9b1b9c1cb0b131b232b360811b600a86061a8153600a8504945084611ceb57509392505050565b60008072184f03e93ff9f4daa797ed6e38ed64bf6a1f0160401b8310611d5c5772184f03e93ff9f4daa797ed6e38ed64bf6a1f0160401b830492506040015b6d04ee2d6d415b85acef81000000008310611d88576d04ee2d6d415b85acef8100000000830492506020015b662386f26fc100008310611da657662386f26fc10000830492506010015b6305f5e1008310611dbe576305f5e100830492506008015b6127108310611dd257612710830492506004015b60648310611de4576064830492506002015b600a83106105fe5760010192915050565b6001600160e01b03198116811461122b57600080fd5b600060208284031215611e1d57600080fd5b81356107e381611df5565b60005b83811015611e43578181015183820152602001611e2b565b50506000910152565b60008151808452611e64816020860160208601611e28565b601f01601f19169290920160200192915050565b6020815260006107e36020830184611e4c565b600060208284031215611e9d57600080fd5b5035919050565b6001600160a01b038116811461122b57600080fd5b60008060408385031215611ecc57600080fd5b8235611ed781611ea4565b946020939093013593505050565b600060208284031215611ef757600080fd5b81356107e381611ea4565b600081518084526020808501945080840160005b83811015611f3257815187529582019590820190600101611f16565b509495945050505050565b604081526000611f506040830185611f02565b6020838203818501528185518084528284019150828160051b85010183880160005b83811015611fa057601f19878403018552611f8e838351611e4c565b94860194925090850190600101611f72565b50909998505050505050505050565b6020815260006107e36020830184611f02565b600080600060608486031215611fd757600080fd5b8335611fe281611ea4565b92506020840135611ff281611ea4565b929592945050506040919091013590565b801515811461122b57600080fd5b6000806040838503121561202457600080fd5b823561202f81611ea4565b9150602083013561203f81612003565b809150509250929050565b634e487b7160e01b600052604160045260246000fd5b600067ffffffffffffffff8084111561207b5761207b61204a565b604051601f8501601f19908116603f011681019082821181831017156120a3576120a361204a565b816040528093508581528686860111156120bc57600080fd5b858560208301376000602087830101525050509392505050565b600080600080608085870312156120ec57600080fd5b84356120f781611ea4565b9350602085013561210781611ea4565b925060408501359150606085013567ffffffffffffffff81111561212a57600080fd5b8501601f8101871361213b57600080fd5b61214a87823560208401612060565b91505092959194509250565b60008083601f84011261216857600080fd5b50813567ffffffffffffffff81111561218057600080fd5b6020830191508360208260051b850101111561219b57600080fd5b9250929050565b60008083601f8401126121b457600080fd5b50813567ffffffffffffffff8111156121cc57600080fd5b60208301915083602082850101111561219b57600080fd5b60008060008060008060008060a0898b03121561220057600080fd5b883561220b81611ea4565b9750602089013561221b81611ea4565b9650604089013567ffffffffffffffff8082111561223857600080fd5b6122448c838d01612156565b909850965060608b013591508082111561225d57600080fd5b6122698c838d01612156565b909650945060808b013591508082111561228257600080fd5b5061228f8b828c016121a2565b999c989b5096995094979396929594505050565b6000602082840312156122b557600080fd5b813567ffffffffffffffff8111156122cc57600080fd5b8201601f810184136122dd57600080fd5b610d2784823560208401612060565b600080604083850312156122ff57600080fd5b823561230a81611ea4565b9150602083013561203f81611ea4565b60008060008060008060a0878903121561233357600080fd5b863561233e81611ea4565b9550602087013561234e81611ea4565b94506040870135935060608701359250608087013567ffffffffffffffff81111561237857600080fd5b61238489828a016121a2565b979a9699509497509295939492505050565b600181811c908216806123aa57607f821691505b602082108103610a7057634e487b7160e01b600052602260045260246000fd5b634e487b7160e01b600052601160045260246000fd5b808201808211156105fe576105fe6123ca565b600060018201612405576124056123ca565b5060010190565b634e487b7160e01b600052603260045260246000fd5b6020808252602d908201527f4552433732313a2063616c6c6572206973206e6f7420746f6b656e206f776e6560408201526c1c881bdc88185c1c1c9bdd9959609a1b606082015260800190565b60008351612481818460208801611e28565b835190830190612495818360208801611e28565b01949350505050565b6000602082840312156124b057600080fd5b81516107e381612003565b6000602082840312156124cd57600080fd5b5051919050565b6000602082840312156124e657600080fd5b81516107e381611ea4565b600081612500576125006123ca565b506000190190565b60208082526025908201527f4552433732313a207472616e736665722066726f6d20696e636f72726563742060408201526437bbb732b960d91b606082015260800190565b60208082526032908201527f4552433732313a207472616e7366657220746f206e6f6e20455243373231526560408201527131b2b4bb32b91034b6b83632b6b2b73a32b960711b606082015260800190565b601f8211156107d257600081815260208120601f850160051c810160208610156125c65750805b601f850160051c820191505b818110156125e5578281556001016125d2565b505050505050565b815167ffffffffffffffff8111156126075761260761204a565b61261b816126158454612396565b8461259f565b602080601f83116001811461265057600084156126385750858301515b600019600386901b1c1916600185901b1785556125e5565b600085815260208120601f198616915b8281101561267f57888601518255948401946001909101908401612660565b508582101561269d5787850151600019600388901b60f8161c191681555b5050505050600190811b01905550565b6001600160a01b03858116825284166020820152604081018390526080606082018190526000906126e090830184611e4c565b9695505050505050565b6000602082840312156126fc57600080fd5b81516107e381611df556fea264697066735822122045f296619543add859599cf0bad1dd9f4c3ea506e7eb9437a6bf6d4a0bd6d39764736f6c63430008110033",
  "linkReferences": {},
  "deployedLinkReferences": {}
}