{
  "_format": "hh-sol-artifact-1",
  "contractName": "GeneratedNFT",
  "sourceName": "contracts/GeneratedNFT.sol",
  "abi": [
    {
      "inputs": [
        {
          "internalType": "address",
          "name": "_airdropAddress",
          "type": "address"
        },
        {
          "internalType": "string",
          "name": "_name",
          "type": "string"
        },
        {
          "internalType": "string",
          "name": "_symbol",
          "type": "string"
        },
        {
          "internalType": "uint256",
          "name": "_cost",
          "type": "uint256"
        }
      ],
      "stateMutability": "nonpayable",
      "type": "constructor"
    },
    {
      "anonymous": false,
      "inputs": [
        {
          "indexed": true,
          "internalType": "address",
          "name": "owner",
          "type": "address"
        },
        {
          "indexed": true,
          "internalType": "address",
          "name": "approved",
          "type": "address"
        },
        {
          "indexed": true,
          "internalType": "uint256",
          "name": "tokenId",
          "type": "uint256"
        }
      ],
      "name": "Approval",
      "type": "event"
    },
    {
      "anonymous": false,
      "inputs": [
        {
          "indexed": true,
          "internalType": "address",
          "name": "owner",
          "type": "address"
        },
        {
          "indexed": true,
          "internalType": "address",
          "name": "operator",
          "type": "address"
        },
        {
          "indexed": false,
          "internalType": "bool",
          "name": "approved",
          "type": "bool"
        }
      ],
      "name": "ApprovalForAll",
      "type": "event"
    },
    {
      "anonymous": false,
      "inputs": [
        {
          "indexed": false,
          "internalType": "uint256",
          "name": "_fromTokenId",
          "type": "uint256"
        },
        {
          "indexed": false,
          "internalType": "uint256",
          "name": "_toTokenId",
          "type": "uint256"
        }
      ],
      "name": "BatchMetadataUpdate",
      "type": "event"
    },
    {
      "anonymous": false,
      "inputs": [
        {
          "indexed": false,
          "internalType": "uint256",
          "name": "_tokenId",
          "type": "uint256"
        }
      ],
      "name": "MetadataUpdate",
      "type": "event"
    },
    {
      "anonymous": false,
      "inputs": [
        {
          "indexed": true,
          "internalType": "address",
          "name": "minter",
          "type": "address"
        },
        {
          "indexed": true,
          "internalType": "uint256",
          "name": "tokenId",
          "type": "uint256"
        }
      ],
      "name": "Mint",
      "type": "event"
    },
    {
      "anonymous": false,
      "inputs": [
        {
          "indexed": true,
          "internalType": "address",
          "name": "previousOwner",
          "type": "address"
        },
        {
          "indexed": true,
          "internalType": "address",
          "name": "newOwner",
          "type": "address"
        }
      ],
      "name": "OwnershipTransferred",
      "type": "event"
    },
    {
      "anonymous": false,
      "inputs": [
        {
          "indexed": true,
          "internalType": "address",
          "name": "from",
          "type": "address"
        },
        {
          "indexed": true,
          "internalType": "address",
          "name": "to",
          "type": "address"
        },
        {
          "indexed": true,
          "internalType": "uint256",
          "name": "tokenId",
          "type": "uint256"
        }
      ],
      "name": "Transfer",
      "type": "event"
    },
    {
      "inputs": [
        {
          "internalType": "address",
          "name": "to",
          "type": "address"
        },
        {
          "internalType": "uint256",
          "name": "tokenId",
          "type": "uint256"
        }
      ],
      "name": "approve",
      "outputs": [],
      "stateMutability": "nonpayable",
      "type": "function"
    },
    {
      "inputs": [
        {
          "internalType": "address",
          "name": "owner",
          "type": "address"
        }
      ],
      "name": "balanceOf",
      "outputs": [
        {
          "internalType": "uint256",
          "name": "",
          "type": "uint256"
        }
      ],
      "stateMutability": "view",
      "type": "function"
    },
    {
      "inputs": [],
      "name": "getAirdropAddress",
      "outputs": [
        {
          "internalType": "address",
          "name": "",
          "type": "address"
        }
      ],
      "stateMutability": "view",
      "type": "function"
    },
    {
      "inputs": [
        {
          "internalType": "address",
          "name": "_owner",
          "type": "address"
        }
      ],
      "name": "getAirdropBalance",
      "outputs": [
        {
          "internalType": "uint256",
          "name": "",
          "type": "uint256"
        }
      ],
      "stateMutability": "nonpayable",
      "type": "function"
    },
    {
      "inputs": [],
      "name": "getAllWallets",
      "outputs": [
        {
          "internalType": "uint256[]",
          "name": "",
          "type": "uint256[]"
        }
      ],
      "stateMutability": "view",
      "type": "function"
    },
    {
      "inputs": [
        {
          "internalType": "uint256",
          "name": "tokenId",
          "type": "uint256"
        }
      ],
      "name": "getApproved",
      "outputs": [
        {
          "internalType": "address",
          "name": "",
          "type": "address"
        }
      ],
      "stateMutability": "view",
      "type": "function"
    },
    {
      "inputs": [],
      "name": "getCost",
      "outputs": [
        {
          "internalType": "uint256",
          "name": "",
          "type": "uint256"
        }
      ],
      "stateMutability": "view",
      "type": "function"
    },
    {
      "inputs": [],
      "name": "getOwnerWallet",
      "outputs": [
        {
          "internalType": "uint256",
          "name": "",
          "type": "uint256"
        }
      ],
      "stateMutability": "view",
      "type": "function"
    },
    {
      "inputs": [
        {
          "internalType": "address",
          "name": "owner",
          "type": "address"
        },
        {
          "internalType": "address",
          "name": "operator",
          "type": "address"
        }
      ],
      "name": "isApprovedForAll",
      "outputs": [
        {
          "internalType": "bool",
          "name": "",
          "type": "bool"
        }
      ],
      "stateMutability": "view",
      "type": "function"
    },
    {
      "inputs": [
        {
          "internalType": "address",
          "name": "_owner",
          "type": "address"
        },
        {
          "internalType": "uint256",
          "name": "_tokenId",
          "type": "uint256"
        }
      ],
      "name": "isTokenBurned",
      "outputs": [
        {
          "internalType": "bool",
          "name": "",
          "type": "bool"
        }
      ],
      "stateMutability": "view",
      "type": "function"
    },
    {
      "inputs": [
        {
          "internalType": "string",
          "name": "_tokenURI",
          "type": "string"
        }
      ],
      "name": "mint",
      "outputs": [],
      "stateMutability": "payable",
      "type": "function"
    },
    {
      "inputs": [],
      "name": "name",
      "outputs": [
        {
          "internalType": "string",
          "name": "",
          "type": "string"
        }
      ],
      "stateMutability": "view",
      "type": "function"
    },
    {
      "inputs": [
        {
          "internalType": "address",
          "name": "",
          "type": "address"
        },
        {
          "internalType": "address",
          "name": "",
          "type": "address"
        },
        {
          "internalType": "uint256[]",
          "name": "",
          "type": "uint256[]"
        },
        {
          "internalType": "uint256[]",
          "name": "",
          "type": "uint256[]"
        },
        {
          "internalType": "bytes",
          "name": "",
          "type": "bytes"
        }
      ],
      "name": "onERC1155BatchReceived",
      "outputs": [
        {
          "internalType": "bytes4",
          "name": "",
          "type": "bytes4"
        }
      ],
      "stateMutability": "pure",
      "type": "function"
    },
    {
      "inputs": [
        {
          "internalType": "address",
          "name": "",
          "type": "address"
        },
        {
          "internalType": "address",
          "name": "",
          "type": "address"
        },
        {
          "internalType": "uint256",
          "name": "",
          "type": "uint256"
        },
        {
          "internalType": "uint256",
          "name": "",
          "type": "uint256"
        },
        {
          "internalType": "bytes",
          "name": "",
          "type": "bytes"
        }
      ],
      "name": "onERC1155Received",
      "outputs": [
        {
          "internalType": "bytes4",
          "name": "",
          "type": "bytes4"
        }
      ],
      "stateMutability": "pure",
      "type": "function"
    },
    {
      "inputs": [],
      "name": "owner",
      "outputs": [
        {
          "internalType": "address",
          "name": "",
          "type": "address"
        }
      ],
      "stateMutability": "view",
      "type": "function"
    },
    {
      "inputs": [
        {
          "internalType": "uint256",
          "name": "tokenId",
          "type": "uint256"
        }
      ],
      "name": "ownerOf",
      "outputs": [
        {
          "internalType": "address",
          "name": "",
          "type": "address"
        }
      ],
      "stateMutability": "view",
      "type": "function"
    },
    {
      "inputs": [],
      "name": "renounceOwnership",
      "outputs": [],
      "stateMutability": "nonpayable",
      "type": "function"
    },
    {
      "inputs": [
        {
          "internalType": "address",
          "name": "from",
          "type": "address"
        },
        {
          "internalType": "address",
          "name": "to",
          "type": "address"
        },
        {
          "internalType": "uint256",
          "name": "tokenId",
          "type": "uint256"
        }
      ],
      "name": "safeTransferFrom",
      "outputs": [],
      "stateMutability": "nonpayable",
      "type": "function"
    },
    {
      "inputs": [
        {
          "internalType": "address",
          "name": "from",
          "type": "address"
        },
        {
          "internalType": "address",
          "name": "to",
          "type": "address"
        },
        {
          "internalType": "uint256",
          "name": "tokenId",
          "type": "uint256"
        },
        {
          "internalType": "bytes",
          "name": "data",
          "type": "bytes"
        }
      ],
      "name": "safeTransferFrom",
      "outputs": [],
      "stateMutability": "nonpayable",
      "type": "function"
    },
    {
      "inputs": [
        {
          "internalType": "address",
          "name": "_airdropAddress",
          "type": "address"
        }
      ],
      "name": "setAirDropAddress",
      "outputs": [],
      "stateMutability": "nonpayable",
      "type": "function"
    },
    {
      "inputs": [
        {
          "internalType": "address",
          "name": "operator",
          "type": "address"
        },
        {
          "internalType": "bool",
          "name": "approved",
          "type": "bool"
        }
      ],
      "name": "setApprovalForAll",
      "outputs": [],
      "stateMutability": "nonpayable",
      "type": "function"
    },
    {
      "inputs": [
        {
          "internalType": "uint256",
          "name": "_cost",
          "type": "uint256"
        }
      ],
      "name": "setCost",
      "outputs": [],
      "stateMutability": "nonpayable",
      "type": "function"
    },
    {
      "inputs": [
        {
          "internalType": "bytes4",
          "name": "interfaceId",
          "type": "bytes4"
        }
      ],
      "name": "supportsInterface",
      "outputs": [
        {
          "internalType": "bool",
          "name": "",
          "type": "bool"
        }
      ],
      "stateMutability": "view",
      "type": "function"
    },
    {
      "inputs": [],
      "name": "symbol",
      "outputs": [
        {
          "internalType": "string",
          "name": "",
          "type": "string"
        }
      ],
      "stateMutability": "view",
      "type": "function"
    },
    {
      "inputs": [
        {
          "internalType": "uint256",
          "name": "tokenId",
          "type": "uint256"
        }
      ],
      "name": "tokenURI",
      "outputs": [
        {
          "internalType": "string",
          "name": "",
          "type": "string"
        }
      ],
      "stateMutability": "view",
      "type": "function"
    },
    {
      "inputs": [],
      "name": "totalSupply",
      "outputs": [
        {
          "internalType": "uint256",
          "name": "",
          "type": "uint256"
        }
      ],
      "stateMutability": "view",
      "type": "function"
    },
    {
      "inputs": [
        {
          "internalType": "address",
          "name": "from",
          "type": "address"
        },
        {
          "internalType": "address",
          "name": "to",
          "type": "address"
        },
        {
          "internalType": "uint256",
          "name": "tokenId",
          "type": "uint256"
        }
      ],
      "name": "transferFrom",
      "outputs": [],
      "stateMutability": "nonpayable",
      "type": "function"
    },
    {
      "inputs": [
        {
          "internalType": "address",
          "name": "newOwner",
          "type": "address"
        }
      ],
      "name": "transferOwnership",
      "outputs": [],
      "stateMutability": "nonpayable",
      "type": "function"
    }
  ],
  "bytecode": "0x60806040523480156200001157600080fd5b506040516200263b3803806200263b8339810160408190526200003491620001c5565b82826000620000448382620002e6565b506001620000538282620002e6565b505050620000706200006a620000aa60201b60201c565b620000ae565b60098054336001600160a01b031991821617909155600b80549091166001600160a01b0395909516949094179093555050600a55620003b2565b3390565b600780546001600160a01b038381166001600160a01b0319831681179093556040519116919082907f8be0079c531659141344cd1fd0a4f28419497f9722a3daafe3b4186f6b6457e090600090a35050565b634e487b7160e01b600052604160045260246000fd5b600082601f8301126200012857600080fd5b81516001600160401b038082111562000145576200014562000100565b604051601f8301601f19908116603f0116810190828211818310171562000170576200017062000100565b816040528381526020925086838588010111156200018d57600080fd5b600091505b83821015620001b1578582018301518183018401529082019062000192565b600093810190920192909252949350505050565b60008060008060808587031215620001dc57600080fd5b84516001600160a01b0381168114620001f457600080fd5b60208601519094506001600160401b03808211156200021257600080fd5b620002208883890162000116565b945060408701519150808211156200023757600080fd5b50620002468782880162000116565b606096909601519497939650505050565b600181811c908216806200026c57607f821691505b6020821081036200028d57634e487b7160e01b600052602260045260246000fd5b50919050565b601f821115620002e157600081815260208120601f850160051c81016020861015620002bc5750805b601f850160051c820191505b81811015620002dd57828155600101620002c8565b5050505b505050565b81516001600160401b0381111562000302576200030262000100565b6200031a8162000313845462000257565b8462000293565b602080601f831160018114620003525760008415620003395750858301515b600019600386901b1c1916600185901b178555620002dd565b600085815260208120601f198616915b82811015620003835788860151825594840194600190910190840162000362565b5085821015620003a25787850151600019600388901b60f8161c191681555b5050505050600190811b01905550565b61227980620003c26000396000f3fe6080604052600436106101b75760003560e01c8063715018a6116100ec578063c87b56dd1161008a578063e985e9c511610064578063e985e9c5146104ea578063efa94d4914610533578063f23a6e6114610553578063f2fde38b1461058057600080fd5b8063c87b56dd14610497578063d85d3d27146104b7578063e1c51b37146104ca57600080fd5b8063a22cb465116100c6578063a22cb465146103fa578063b88d4fde1461041a578063bc197c811461043a578063bd3e19d41461048257600080fd5b8063715018a6146103b25780638da5cb5b146103c757806395d89b41146103e557600080fd5b806323b872dd1161015957806342842e0e1161013357806342842e0e1461033257806344a0d68a146103525780636352211e1461037257806370a082311461039257600080fd5b806323b872dd146102d25780633c4966b7146102f25780633d007e571461031457600080fd5b8063095ea7b311610195578063095ea7b31461024b578063129077a61461026d57806318160ddd1461028d5780631bfa8601146102b057600080fd5b806301ffc9a7146101bc57806306fdde03146101f1578063081812fc14610213575b600080fd5b3480156101c857600080fd5b506101dc6101d73660046119eb565b6105a0565b60405190151581526020015b60405180910390f35b3480156101fd57600080fd5b506102066105cb565b6040516101e89190611a58565b34801561021f57600080fd5b5061023361022e366004611a6b565b61065d565b6040516001600160a01b0390911681526020016101e8565b34801561025757600080fd5b5061026b610266366004611aa0565b610684565b005b34801561027957600080fd5b506101dc610288366004611aa0565b61079e565b34801561029957600080fd5b506102a26107b1565b6040519081526020016101e8565b3480156102bc57600080fd5b506102c56107c1565b6040516101e89190611aca565b3480156102de57600080fd5b5061026b6102ed366004611b0e565b610886565b3480156102fe57600080fd5b50336000908152600e60205260409020546102a2565b34801561032057600080fd5b50600b546001600160a01b0316610233565b34801561033e57600080fd5b5061026b61034d366004611b0e565b6108b7565b34801561035e57600080fd5b5061026b61036d366004611a6b565b6108d2565b34801561037e57600080fd5b5061023361038d366004611a6b565b6108df565b34801561039e57600080fd5b506102a26103ad366004611b4a565b61093f565b3480156103be57600080fd5b5061026b6109c5565b3480156103d357600080fd5b506007546001600160a01b0316610233565b3480156103f157600080fd5b506102066109d9565b34801561040657600080fd5b5061026b610415366004611b73565b6109e8565b34801561042657600080fd5b5061026b610435366004611c36565b6109f7565b34801561044657600080fd5b50610469610455366004611d40565b63bc197c8160e01b98975050505050505050565b6040516001600160e01b031990911681526020016101e8565b34801561048e57600080fd5b50600a546102a2565b3480156104a357600080fd5b506102066104b2366004611a6b565b610a2f565b61026b6104c5366004611dfb565b610b3f565b3480156104d657600080fd5b5061026b6104e5366004611b4a565b610db8565b3480156104f657600080fd5b506101dc610505366004611e44565b6001600160a01b03918216600090815260056020908152604080832093909416825291909152205460ff1690565b34801561053f57600080fd5b506102a261054e366004611b4a565b610de2565b34801561055f57600080fd5b5061046961056e366004611e77565b63f23a6e6160e01b9695505050505050565b34801561058c57600080fd5b5061026b61059b366004611b4a565b610ded565b60006001600160e01b03198216632483248360e11b14806105c557506105c582610e66565b92915050565b6060600080546105da90611eef565b80601f016020809104026020016040519081016040528092919081815260200182805461060690611eef565b80156106535780601f1061062857610100808354040283529160200191610653565b820191906000526020600020905b81548152906001019060200180831161063657829003601f168201915b5050505050905090565b600061066882610eb6565b506000908152600460205260409020546001600160a01b031690565b600061068f826108df565b9050806001600160a01b0316836001600160a01b0316036107015760405162461bcd60e51b815260206004820152602160248201527f4552433732313a20617070726f76616c20746f2063757272656e74206f776e656044820152603960f91b60648201526084015b60405180910390fd5b336001600160a01b038216148061071d575061071d8133610505565b61078f5760405162461bcd60e51b815260206004820152603d60248201527f4552433732313a20617070726f76652063616c6c6572206973206e6f7420746f60448201527f6b656e206f776e6572206f7220617070726f76656420666f7220616c6c00000060648201526084016106f8565b6107998383610f15565b505050565b60006107aa8383610f83565b9392505050565b60006107bc60085490565b905090565b606060006107ce60085490565b67ffffffffffffffff8111156107e6576107e6611baa565b60405190808252806020026020018201604052801561080f578160200160208202803683370190505b50905060005b815181101561088057600e600061083061038d846001611f39565b6001600160a01b03166001600160a01b031681526020019081526020016000205482828151811061086357610863611f4c565b60209081029190910101528061087881611f62565b915050610815565b50919050565b6108903382610fff565b6108ac5760405162461bcd60e51b81526004016106f890611f7b565b61079983838361107d565b610799838383604051806020016040528060008152506109f7565b6108da6111e1565b600a55565b6000818152600260205260408120546001600160a01b0316806105c55760405162461bcd60e51b8152602060048201526018602482015277115490cdcc8c4e881a5b9d985b1a59081d1bdad95b88125160421b60448201526064016106f8565b60006001600160a01b0382166109a95760405162461bcd60e51b815260206004820152602960248201527f4552433732313a2061646472657373207a65726f206973206e6f7420612076616044820152683634b21037bbb732b960b91b60648201526084016106f8565b506001600160a01b031660009081526003602052604090205490565b6109cd6111e1565b6109d7600061123b565b565b6060600180546105da90611eef565b6109f333838361128d565b5050565b610a013383610fff565b610a1d5760405162461bcd60e51b81526004016106f890611f7b565b610a298484848461135b565b50505050565b6060610a3a82610eb6565b60008281526006602052604081208054610a5390611eef565b80601f0160208091040260200160405190810160405280929190818152602001828054610a7f90611eef565b8015610acc5780601f10610aa157610100808354040283529160200191610acc565b820191906000526020600020905b815481529060010190602001808311610aaf57829003601f168201915b505050505090506000610aea60408051602081019091526000815290565b90508051600003610afc575092915050565b815115610b2e578082604051602001610b16929190611fc8565b60405160208183030381529060405292505050919050565b610b378461138e565b949350505050565b6000610b4a33611401565b9050600081118015610bc35750600b54604051634f6a7d2d60e11b81523360048201526001600160a01b0390911690639ed4fa5a90602401602060405180830381865afa158015610b9f573d6000803e3d6000fd5b505050506040513d601f19601f82011682018060405250810190610bc39190611ff7565b15610ce757600b546040516378a9bb4360e11b81523360048201526000916001600160a01b03169063f153768690602401602060405180830381865afa158015610c11573d6000803e3d6000fd5b505050506040513d601f19601f82011682018060405250810190610c359190612014565b600b54604051637921219560e11b8152336004820152306024820152604481018390526001606482015260a06084820152600060a48201529192506001600160a01b03169063f242432a9060c401600060405180830381600087803b158015610c9d57600080fd5b505af1158015610cb1573d6000803e3d6000fd5b505050508180610cc09061202d565b336000908152600d6020908152604080832095835294905292909220829055509050610d4a565b600a54341015610d4a5760405162461bcd60e51b815260206004820152602860248201527f47656e6572617465644e46543a20496e73756666696369656e742066756e6473604482015267081d1bc81b5a5b9d60c21b60648201526084016106f8565b610d58600880546001019055565b6000610d6360085490565b9050610d6f3382611513565b610d79818461169e565b336000818152600e6020526040808220849055518392917f0f6798a560793a54c3bcfe86a93cde1e73087d944c0ea20544137d412139688591a3505050565b610dc06111e1565b600b80546001600160a01b0319166001600160a01b0392909216919091179055565b60006105c582611401565b610df56111e1565b6001600160a01b038116610e5a5760405162461bcd60e51b815260206004820152602660248201527f4f776e61626c653a206e6577206f776e657220697320746865207a65726f206160448201526564647265737360d01b60648201526084016106f8565b610e638161123b565b50565b60006001600160e01b031982166380ac58cd60e01b1480610e9757506001600160e01b03198216635b5e139f60e01b145b806105c557506301ffc9a760e01b6001600160e01b03198316146105c5565b6000818152600260205260409020546001600160a01b0316610e635760405162461bcd60e51b8152602060048201526018602482015277115490cdcc8c4e881a5b9d985b1a59081d1bdad95b88125160421b60448201526064016106f8565b600081815260046020526040902080546001600160a01b0319166001600160a01b0384169081179091558190610f4a826108df565b6001600160a01b03167f8c5be1e5ebec7d5bd14f71427d1e84f3dd0314c0f7b2291e5b200ac8c7c3b92560405160405180910390a45050565b600b54604051627eeac760e11b81526001600160a01b03848116600483015260248201849052600092169062fdd58e90604401602060405180830381865afa158015610fd3573d6000803e3d6000fd5b505050506040513d601f19601f82011682018060405250810190610ff79190612014565b159392505050565b60008061100b836108df565b9050806001600160a01b0316846001600160a01b0316148061105257506001600160a01b0380821660009081526005602090815260408083209388168352929052205460ff165b80610b375750836001600160a01b031661106b8461065d565b6001600160a01b031614949350505050565b826001600160a01b0316611090826108df565b6001600160a01b0316146110b65760405162461bcd60e51b81526004016106f890612044565b6001600160a01b0382166111185760405162461bcd60e51b8152602060048201526024808201527f4552433732313a207472616e7366657220746f20746865207a65726f206164646044820152637265737360e01b60648201526084016106f8565b826001600160a01b031661112b826108df565b6001600160a01b0316146111515760405162461bcd60e51b81526004016106f890612044565b600081815260046020908152604080832080546001600160a01b03199081169091556001600160a01b0387811680865260038552838620805460001901905590871680865283862080546001019055868652600290945282852080549092168417909155905184937fddf252ad1be2c89b69c2b068fc378daa952ba7f163c4a11628f55a4df523b3ef91a4505050565b6007546001600160a01b031633146109d75760405162461bcd60e51b815260206004820181905260248201527f4f776e61626c653a2063616c6c6572206973206e6f7420746865206f776e657260448201526064016106f8565b600780546001600160a01b038381166001600160a01b0319831681179093556040519116919082907f8be0079c531659141344cd1fd0a4f28419497f9722a3daafe3b4186f6b6457e090600090a35050565b816001600160a01b0316836001600160a01b0316036112ee5760405162461bcd60e51b815260206004820152601960248201527f4552433732313a20617070726f766520746f2063616c6c65720000000000000060448201526064016106f8565b6001600160a01b03838116600081815260056020908152604080832094871680845294825291829020805460ff191686151590811790915591519182527f17307eab39ab6107e8899845ad3d59bd9653f200f220920489ca2b5937696c31910160405180910390a3505050565b61136684848461107d565b61137284848484611769565b610a295760405162461bcd60e51b81526004016106f890612089565b606061139982610eb6565b60006113b060408051602081019091526000815290565b905060008151116113d057604051806020016040528060008152506107aa565b806113da8461186a565b6040516020016113eb929190611fc8565b6040516020818303038152906040529392505050565b600b546040516378a9bb4360e11b81526001600160a01b038381166004830152600092839291169063f153768690602401602060405180830381865afa15801561144f573d6000803e3d6000fd5b505050506040513d601f19601f820116820180604052508101906114739190612014565b600b54604051627eeac760e11b81526001600160a01b0386811660048301526024820184905292935091169062fdd58e90604401602060405180830381865afa1580156114c4573d6000803e3d6000fd5b505050506040513d601f19601f820116820180604052508101906114e89190612014565b6001600160a01b03939093166000908152600d60209081526040808320938352929052208290555090565b6001600160a01b0382166115695760405162461bcd60e51b815260206004820181905260248201527f4552433732313a206d696e7420746f20746865207a65726f206164647265737360448201526064016106f8565b6000818152600260205260409020546001600160a01b0316156115ce5760405162461bcd60e51b815260206004820152601c60248201527f4552433732313a20746f6b656e20616c7265616479206d696e7465640000000060448201526064016106f8565b6000818152600260205260409020546001600160a01b0316156116335760405162461bcd60e51b815260206004820152601c60248201527f4552433732313a20746f6b656e20616c7265616479206d696e7465640000000060448201526064016106f8565b6001600160a01b038216600081815260036020908152604080832080546001019055848352600290915280822080546001600160a01b0319168417905551839291907fddf252ad1be2c89b69c2b068fc378daa952ba7f163c4a11628f55a4df523b3ef908290a45050565b6000828152600260205260409020546001600160a01b03166117195760405162461bcd60e51b815260206004820152602e60248201527f45524337323155524953746f726167653a2055524920736574206f66206e6f6e60448201526d32bc34b9ba32b73a103a37b5b2b760911b60648201526084016106f8565b60008281526006602052604090206117318282612129565b506040518281527ff8e1a15aba9398e019f0b49df1a4fde98ee17ae345cb5f6b5e2c27f5033e8ce79060200160405180910390a15050565b60006001600160a01b0384163b1561185f57604051630a85bd0160e11b81526001600160a01b0385169063150b7a02906117ad9033908990889088906004016121e9565b6020604051808303816000875af19250505080156117e8575060408051601f3d908101601f191682019092526117e591810190612226565b60015b611845573d808015611816576040519150601f19603f3d011682016040523d82523d6000602084013e61181b565b606091505b50805160000361183d5760405162461bcd60e51b81526004016106f890612089565b805181602001fd5b6001600160e01b031916630a85bd0160e11b149050610b37565b506001949350505050565b60606000611877836118fd565b600101905060008167ffffffffffffffff81111561189757611897611baa565b6040519080825280601f01601f1916602001820160405280156118c1576020820181803683370190505b5090508181016020015b600019016f181899199a1a9b1b9c1cb0b131b232b360811b600a86061a8153600a85049450846118cb57509392505050565b60008072184f03e93ff9f4daa797ed6e38ed64bf6a1f0160401b831061193c5772184f03e93ff9f4daa797ed6e38ed64bf6a1f0160401b830492506040015b6d04ee2d6d415b85acef81000000008310611968576d04ee2d6d415b85acef8100000000830492506020015b662386f26fc10000831061198657662386f26fc10000830492506010015b6305f5e100831061199e576305f5e100830492506008015b61271083106119b257612710830492506004015b606483106119c4576064830492506002015b600a83106105c55760010192915050565b6001600160e01b031981168114610e6357600080fd5b6000602082840312156119fd57600080fd5b81356107aa816119d5565b60005b83811015611a23578181015183820152602001611a0b565b50506000910152565b60008151808452611a44816020860160208601611a08565b601f01601f19169290920160200192915050565b6020815260006107aa6020830184611a2c565b600060208284031215611a7d57600080fd5b5035919050565b80356001600160a01b0381168114611a9b57600080fd5b919050565b60008060408385031215611ab357600080fd5b611abc83611a84565b946020939093013593505050565b6020808252825182820181905260009190848201906040850190845b81811015611b0257835183529284019291840191600101611ae6565b50909695505050505050565b600080600060608486031215611b2357600080fd5b611b2c84611a84565b9250611b3a60208501611a84565b9150604084013590509250925092565b600060208284031215611b5c57600080fd5b6107aa82611a84565b8015158114610e6357600080fd5b60008060408385031215611b8657600080fd5b611b8f83611a84565b91506020830135611b9f81611b65565b809150509250929050565b634e487b7160e01b600052604160045260246000fd5b600067ffffffffffffffff80841115611bdb57611bdb611baa565b604051601f8501601f19908116603f01168101908282118183101715611c0357611c03611baa565b81604052809350858152868686011115611c1c57600080fd5b858560208301376000602087830101525050509392505050565b60008060008060808587031215611c4c57600080fd5b611c5585611a84565b9350611c6360208601611a84565b925060408501359150606085013567ffffffffffffffff811115611c8657600080fd5b8501601f81018713611c9757600080fd5b611ca687823560208401611bc0565b91505092959194509250565b60008083601f840112611cc457600080fd5b50813567ffffffffffffffff811115611cdc57600080fd5b6020830191508360208260051b8501011115611cf757600080fd5b9250929050565b60008083601f840112611d1057600080fd5b50813567ffffffffffffffff811115611d2857600080fd5b602083019150836020828501011115611cf757600080fd5b60008060008060008060008060a0898b031215611d5c57600080fd5b611d6589611a84565b9750611d7360208a01611a84565b9650604089013567ffffffffffffffff80821115611d9057600080fd5b611d9c8c838d01611cb2565b909850965060608b0135915080821115611db557600080fd5b611dc18c838d01611cb2565b909650945060808b0135915080821115611dda57600080fd5b50611de78b828c01611cfe565b999c989b5096995094979396929594505050565b600060208284031215611e0d57600080fd5b813567ffffffffffffffff811115611e2457600080fd5b8201601f81018413611e3557600080fd5b610b3784823560208401611bc0565b60008060408385031215611e5757600080fd5b611e6083611a84565b9150611e6e60208401611a84565b90509250929050565b60008060008060008060a08789031215611e9057600080fd5b611e9987611a84565b9550611ea760208801611a84565b94506040870135935060608701359250608087013567ffffffffffffffff811115611ed157600080fd5b611edd89828a01611cfe565b979a9699509497509295939492505050565b600181811c90821680611f0357607f821691505b60208210810361088057634e487b7160e01b600052602260045260246000fd5b634e487b7160e01b600052601160045260246000fd5b808201808211156105c5576105c5611f23565b634e487b7160e01b600052603260045260246000fd5b600060018201611f7457611f74611f23565b5060010190565b6020808252602d908201527f4552433732313a2063616c6c6572206973206e6f7420746f6b656e206f776e6560408201526c1c881bdc88185c1c1c9bdd9959609a1b606082015260800190565b60008351611fda818460208801611a08565b835190830190611fee818360208801611a08565b01949350505050565b60006020828403121561200957600080fd5b81516107aa81611b65565b60006020828403121561202657600080fd5b5051919050565b60008161203c5761203c611f23565b506000190190565b60208082526025908201527f4552433732313a207472616e736665722066726f6d20696e636f72726563742060408201526437bbb732b960d91b606082015260800190565b60208082526032908201527f4552433732313a207472616e7366657220746f206e6f6e20455243373231526560408201527131b2b4bb32b91034b6b83632b6b2b73a32b960711b606082015260800190565b601f82111561079957600081815260208120601f850160051c810160208610156121025750805b601f850160051c820191505b818110156121215782815560010161210e565b505050505050565b815167ffffffffffffffff81111561214357612143611baa565b612157816121518454611eef565b846120db565b602080601f83116001811461218c57600084156121745750858301515b600019600386901b1c1916600185901b178555612121565b600085815260208120601f198616915b828110156121bb5788860151825594840194600190910190840161219c565b50858210156121d95787850151600019600388901b60f8161c191681555b5050505050600190811b01905550565b6001600160a01b038581168252841660208201526040810183905260806060820181905260009061221c90830184611a2c565b9695505050505050565b60006020828403121561223857600080fd5b81516107aa816119d556fea2646970667358221220e066010ce4b8376aab6b982fcdb20eb02f0ea57f485f004d713cc7ff3c020a8a64736f6c63430008110033",
  "linkReferences": {},
  "deployedLinkReferences": {}
}