{
  "_format": "hh-sol-artifact-1",
  "contractName": "GeneratedNFT",
  "sourceName": "contracts/GeneratedNFT.sol",
  "abi": [
    {
      "inputs": [
        {
          "internalType": "address",
          "name": "_airdropAddress",
          "type": "address"
        },
        {
          "internalType": "string",
          "name": "_name",
          "type": "string"
        },
        {
          "internalType": "string",
          "name": "_symbol",
          "type": "string"
        },
        {
          "internalType": "uint256",
          "name": "_cost",
          "type": "uint256"
        }
      ],
      "stateMutability": "nonpayable",
      "type": "constructor"
    },
    {
      "anonymous": false,
      "inputs": [
        {
          "indexed": true,
          "internalType": "address",
          "name": "owner",
          "type": "address"
        },
        {
          "indexed": true,
          "internalType": "address",
          "name": "approved",
          "type": "address"
        },
        {
          "indexed": true,
          "internalType": "uint256",
          "name": "tokenId",
          "type": "uint256"
        }
      ],
      "name": "Approval",
      "type": "event"
    },
    {
      "anonymous": false,
      "inputs": [
        {
          "indexed": true,
          "internalType": "address",
          "name": "owner",
          "type": "address"
        },
        {
          "indexed": true,
          "internalType": "address",
          "name": "operator",
          "type": "address"
        },
        {
          "indexed": false,
          "internalType": "bool",
          "name": "approved",
          "type": "bool"
        }
      ],
      "name": "ApprovalForAll",
      "type": "event"
    },
    {
      "anonymous": false,
      "inputs": [
        {
          "indexed": false,
          "internalType": "uint256",
          "name": "_fromTokenId",
          "type": "uint256"
        },
        {
          "indexed": false,
          "internalType": "uint256",
          "name": "_toTokenId",
          "type": "uint256"
        }
      ],
      "name": "BatchMetadataUpdate",
      "type": "event"
    },
    {
      "anonymous": false,
      "inputs": [
        {
          "indexed": false,
          "internalType": "uint256",
          "name": "_tokenId",
          "type": "uint256"
        }
      ],
      "name": "MetadataUpdate",
      "type": "event"
    },
    {
      "anonymous": false,
      "inputs": [
        {
          "indexed": true,
          "internalType": "address",
          "name": "minter",
          "type": "address"
        },
        {
          "indexed": true,
          "internalType": "uint256",
          "name": "tokenId",
          "type": "uint256"
        }
      ],
      "name": "Mint",
      "type": "event"
    },
    {
      "anonymous": false,
      "inputs": [
        {
          "indexed": true,
          "internalType": "address",
          "name": "previousOwner",
          "type": "address"
        },
        {
          "indexed": true,
          "internalType": "address",
          "name": "newOwner",
          "type": "address"
        }
      ],
      "name": "OwnershipTransferred",
      "type": "event"
    },
    {
      "anonymous": false,
      "inputs": [
        {
          "indexed": true,
          "internalType": "address",
          "name": "from",
          "type": "address"
        },
        {
          "indexed": true,
          "internalType": "address",
          "name": "to",
          "type": "address"
        },
        {
          "indexed": true,
          "internalType": "uint256",
          "name": "tokenId",
          "type": "uint256"
        }
      ],
      "name": "Transfer",
      "type": "event"
    },
    {
      "inputs": [
        {
          "internalType": "address",
          "name": "to",
          "type": "address"
        },
        {
          "internalType": "uint256",
          "name": "tokenId",
          "type": "uint256"
        }
      ],
      "name": "approve",
      "outputs": [],
      "stateMutability": "nonpayable",
      "type": "function"
    },
    {
      "inputs": [
        {
          "internalType": "address",
          "name": "owner",
          "type": "address"
        }
      ],
      "name": "balanceOf",
      "outputs": [
        {
          "internalType": "uint256",
          "name": "",
          "type": "uint256"
        }
      ],
      "stateMutability": "view",
      "type": "function"
    },
    {
      "inputs": [],
      "name": "getAirdropAddress",
      "outputs": [
        {
          "internalType": "address",
          "name": "",
          "type": "address"
        }
      ],
      "stateMutability": "view",
      "type": "function"
    },
    {
      "inputs": [
        {
          "internalType": "address",
          "name": "_owner",
          "type": "address"
        }
      ],
      "name": "getAirdropAmount",
      "outputs": [
        {
          "internalType": "uint256",
          "name": "",
          "type": "uint256"
        }
      ],
      "stateMutability": "view",
      "type": "function"
    },
    {
      "inputs": [
        {
          "internalType": "address",
          "name": "_owner",
          "type": "address"
        }
      ],
      "name": "getAirdropTokens",
      "outputs": [
        {
          "internalType": "uint256[]",
          "name": "",
          "type": "uint256[]"
        }
      ],
      "stateMutability": "view",
      "type": "function"
    },
    {
      "inputs": [],
      "name": "getAllWallets",
      "outputs": [
        {
          "internalType": "uint256[]",
          "name": "",
          "type": "uint256[]"
        }
      ],
      "stateMutability": "view",
      "type": "function"
    },
    {
      "inputs": [
        {
          "internalType": "uint256",
          "name": "tokenId",
          "type": "uint256"
        }
      ],
      "name": "getApproved",
      "outputs": [
        {
          "internalType": "address",
          "name": "",
          "type": "address"
        }
      ],
      "stateMutability": "view",
      "type": "function"
    },
    {
      "inputs": [],
      "name": "getOwnerWallet",
      "outputs": [
        {
          "internalType": "uint256",
          "name": "",
          "type": "uint256"
        }
      ],
      "stateMutability": "view",
      "type": "function"
    },
    {
      "inputs": [
        {
          "internalType": "address",
          "name": "owner",
          "type": "address"
        },
        {
          "internalType": "address",
          "name": "operator",
          "type": "address"
        }
      ],
      "name": "isApprovedForAll",
      "outputs": [
        {
          "internalType": "bool",
          "name": "",
          "type": "bool"
        }
      ],
      "stateMutability": "view",
      "type": "function"
    },
    {
      "inputs": [
        {
          "internalType": "address",
          "name": "_owner",
          "type": "address"
        },
        {
          "internalType": "uint256",
          "name": "_tokenId",
          "type": "uint256"
        }
      ],
      "name": "isTokenBurned",
      "outputs": [
        {
          "internalType": "bool",
          "name": "",
          "type": "bool"
        }
      ],
      "stateMutability": "view",
      "type": "function"
    },
    {
      "inputs": [
        {
          "internalType": "string",
          "name": "_tokenURI",
          "type": "string"
        }
      ],
      "name": "mint",
      "outputs": [],
      "stateMutability": "payable",
      "type": "function"
    },
    {
      "inputs": [],
      "name": "name",
      "outputs": [
        {
          "internalType": "string",
          "name": "",
          "type": "string"
        }
      ],
      "stateMutability": "view",
      "type": "function"
    },
    {
      "inputs": [
        {
          "internalType": "address",
          "name": "",
          "type": "address"
        },
        {
          "internalType": "address",
          "name": "",
          "type": "address"
        },
        {
          "internalType": "uint256[]",
          "name": "",
          "type": "uint256[]"
        },
        {
          "internalType": "uint256[]",
          "name": "",
          "type": "uint256[]"
        },
        {
          "internalType": "bytes",
          "name": "",
          "type": "bytes"
        }
      ],
      "name": "onERC1155BatchReceived",
      "outputs": [
        {
          "internalType": "bytes4",
          "name": "",
          "type": "bytes4"
        }
      ],
      "stateMutability": "pure",
      "type": "function"
    },
    {
      "inputs": [
        {
          "internalType": "address",
          "name": "",
          "type": "address"
        },
        {
          "internalType": "address",
          "name": "",
          "type": "address"
        },
        {
          "internalType": "uint256",
          "name": "",
          "type": "uint256"
        },
        {
          "internalType": "uint256",
          "name": "",
          "type": "uint256"
        },
        {
          "internalType": "bytes",
          "name": "",
          "type": "bytes"
        }
      ],
      "name": "onERC1155Received",
      "outputs": [
        {
          "internalType": "bytes4",
          "name": "",
          "type": "bytes4"
        }
      ],
      "stateMutability": "pure",
      "type": "function"
    },
    {
      "inputs": [],
      "name": "owner",
      "outputs": [
        {
          "internalType": "address",
          "name": "",
          "type": "address"
        }
      ],
      "stateMutability": "view",
      "type": "function"
    },
    {
      "inputs": [
        {
          "internalType": "uint256",
          "name": "tokenId",
          "type": "uint256"
        }
      ],
      "name": "ownerOf",
      "outputs": [
        {
          "internalType": "address",
          "name": "",
          "type": "address"
        }
      ],
      "stateMutability": "view",
      "type": "function"
    },
    {
      "inputs": [],
      "name": "renounceOwnership",
      "outputs": [],
      "stateMutability": "nonpayable",
      "type": "function"
    },
    {
      "inputs": [],
      "name": "s_tokenIds",
      "outputs": [
        {
          "internalType": "uint256",
          "name": "_value",
          "type": "uint256"
        }
      ],
      "stateMutability": "view",
      "type": "function"
    },
    {
      "inputs": [
        {
          "internalType": "address",
          "name": "from",
          "type": "address"
        },
        {
          "internalType": "address",
          "name": "to",
          "type": "address"
        },
        {
          "internalType": "uint256",
          "name": "tokenId",
          "type": "uint256"
        }
      ],
      "name": "safeTransferFrom",
      "outputs": [],
      "stateMutability": "nonpayable",
      "type": "function"
    },
    {
      "inputs": [
        {
          "internalType": "address",
          "name": "from",
          "type": "address"
        },
        {
          "internalType": "address",
          "name": "to",
          "type": "address"
        },
        {
          "internalType": "uint256",
          "name": "tokenId",
          "type": "uint256"
        },
        {
          "internalType": "bytes",
          "name": "data",
          "type": "bytes"
        }
      ],
      "name": "safeTransferFrom",
      "outputs": [],
      "stateMutability": "nonpayable",
      "type": "function"
    },
    {
      "inputs": [
        {
          "internalType": "address",
          "name": "_airdropAddress",
          "type": "address"
        }
      ],
      "name": "setAirDropAddress",
      "outputs": [],
      "stateMutability": "nonpayable",
      "type": "function"
    },
    {
      "inputs": [
        {
          "internalType": "address",
          "name": "operator",
          "type": "address"
        },
        {
          "internalType": "bool",
          "name": "approved",
          "type": "bool"
        }
      ],
      "name": "setApprovalForAll",
      "outputs": [],
      "stateMutability": "nonpayable",
      "type": "function"
    },
    {
      "inputs": [
        {
          "internalType": "uint256",
          "name": "_cost",
          "type": "uint256"
        }
      ],
      "name": "setCost",
      "outputs": [],
      "stateMutability": "nonpayable",
      "type": "function"
    },
    {
      "inputs": [
        {
          "internalType": "bytes4",
          "name": "interfaceId",
          "type": "bytes4"
        }
      ],
      "name": "supportsInterface",
      "outputs": [
        {
          "internalType": "bool",
          "name": "",
          "type": "bool"
        }
      ],
      "stateMutability": "view",
      "type": "function"
    },
    {
      "inputs": [],
      "name": "symbol",
      "outputs": [
        {
          "internalType": "string",
          "name": "",
          "type": "string"
        }
      ],
      "stateMutability": "view",
      "type": "function"
    },
    {
      "inputs": [
        {
          "internalType": "uint256",
          "name": "tokenId",
          "type": "uint256"
        }
      ],
      "name": "tokenURI",
      "outputs": [
        {
          "internalType": "string",
          "name": "",
          "type": "string"
        }
      ],
      "stateMutability": "view",
      "type": "function"
    },
    {
      "inputs": [],
      "name": "totalSupply",
      "outputs": [
        {
          "internalType": "uint256",
          "name": "",
          "type": "uint256"
        }
      ],
      "stateMutability": "view",
      "type": "function"
    },
    {
      "inputs": [
        {
          "internalType": "address",
          "name": "from",
          "type": "address"
        },
        {
          "internalType": "address",
          "name": "to",
          "type": "address"
        },
        {
          "internalType": "uint256",
          "name": "tokenId",
          "type": "uint256"
        }
      ],
      "name": "transferFrom",
      "outputs": [],
      "stateMutability": "nonpayable",
      "type": "function"
    },
    {
      "inputs": [
        {
          "internalType": "address",
          "name": "newOwner",
          "type": "address"
        }
      ],
      "name": "transferOwnership",
      "outputs": [],
      "stateMutability": "nonpayable",
      "type": "function"
    }
  ],
  "bytecode": "0x60806040523480156200001157600080fd5b50604051620028b2380380620028b28339810160408190526200003491620001c5565b82826000620000448382620002e6565b506001620000538282620002e6565b505050620000706200006a620000aa60201b60201c565b620000ae565b60098054336001600160a01b031991821617909155600b80549091166001600160a01b0395909516949094179093555050600a55620003b2565b3390565b600780546001600160a01b038381166001600160a01b0319831681179093556040519116919082907f8be0079c531659141344cd1fd0a4f28419497f9722a3daafe3b4186f6b6457e090600090a35050565b634e487b7160e01b600052604160045260246000fd5b600082601f8301126200012857600080fd5b81516001600160401b038082111562000145576200014562000100565b604051601f8301601f19908116603f0116810190828211818310171562000170576200017062000100565b816040528381526020925086838588010111156200018d57600080fd5b600091505b83821015620001b1578582018301518183018401529082019062000192565b600093810190920192909252949350505050565b60008060008060808587031215620001dc57600080fd5b84516001600160a01b0381168114620001f457600080fd5b60208601519094506001600160401b03808211156200021257600080fd5b620002208883890162000116565b945060408701519150808211156200023757600080fd5b50620002468782880162000116565b606096909601519497939650505050565b600181811c908216806200026c57607f821691505b6020821081036200028d57634e487b7160e01b600052602260045260246000fd5b50919050565b601f821115620002e157600081815260208120601f850160051c81016020861015620002bc5750805b601f850160051c820191505b81811015620002dd57828155600101620002c8565b5050505b505050565b81516001600160401b0381111562000302576200030262000100565b6200031a8162000313845462000257565b8462000293565b602080601f831160018114620003525760008415620003395750858301515b600019600386901b1c1916600185901b178555620002dd565b600085815260208120601f198616915b82811015620003835788860151825594840194600190910190840162000362565b5085821015620003a25787850151600019600388901b60f8161c191681555b5050505050600190811b01905550565b6124f080620003c26000396000f3fe6080604052600436106101c25760003560e01c806370a08231116100f7578063b88d4fde11610095578063e1c51b3711610064578063e1c51b3714610517578063e985e9c514610537578063f23a6e6114610580578063f2fde38b146105ad57600080fd5b8063b88d4fde1461047c578063bc197c811461049c578063c87b56dd146104e4578063d85d3d271461050457600080fd5b80638da5cb5b116100d15780638da5cb5b1461040957806395d89b4114610427578063a22cb4651461043c578063b06c87391461045c57600080fd5b806370a08231146103b4578063715018a6146103d4578063724bc3de146103e957600080fd5b806323b872dd1161016457806342842e0e1161013e57806342842e0e1461033d57806344a0d68a1461035d578063627f0c281461037d5780636352211e1461039457600080fd5b806323b872dd146102dd5780633c4966b7146102fd5780633d007e571461031f57600080fd5b8063095ea7b3116101a0578063095ea7b314610256578063129077a61461027857806318160ddd146102985780631bfa8601146102bb57600080fd5b806301ffc9a7146101c757806306fdde03146101fc578063081812fc1461021e575b600080fd5b3480156101d357600080fd5b506101e76101e2366004611ba7565b6105cd565b60405190151581526020015b60405180910390f35b34801561020857600080fd5b506102116105f8565b6040516101f39190611c14565b34801561022a57600080fd5b5061023e610239366004611c27565b61068a565b6040516001600160a01b0390911681526020016101f3565b34801561026257600080fd5b50610276610271366004611c55565b6106b1565b005b34801561028457600080fd5b506101e7610293366004611c55565b6107cb565b3480156102a457600080fd5b506102ad6107de565b6040519081526020016101f3565b3480156102c757600080fd5b506102d06107ee565b6040516101f39190611c81565b3480156102e957600080fd5b506102766102f8366004611cc5565b6108b3565b34801561030957600080fd5b50336000908152600e60205260409020546102ad565b34801561032b57600080fd5b50600b546001600160a01b031661023e565b34801561034957600080fd5b50610276610358366004611cc5565b6108e4565b34801561036957600080fd5b50610276610378366004611c27565b6108ff565b34801561038957600080fd5b506008546102ad9081565b3480156103a057600080fd5b5061023e6103af366004611c27565b61090c565b3480156103c057600080fd5b506102ad6103cf366004611d06565b61096c565b3480156103e057600080fd5b506102766109f2565b3480156103f557600080fd5b506102ad610404366004611d06565b610a06565b34801561041557600080fd5b506007546001600160a01b031661023e565b34801561043357600080fd5b50610211610a1a565b34801561044857600080fd5b50610276610457366004611d23565b610a29565b34801561046857600080fd5b506102d0610477366004611d06565b610a38565b34801561048857600080fd5b50610276610497366004611e00565b610aa4565b3480156104a857600080fd5b506104cb6104b7366004611f0e565b63bc197c8160e01b98975050505050505050565b6040516001600160e01b031990911681526020016101f3565b3480156104f057600080fd5b506102116104ff366004611c27565b610adc565b610276610512366004611fcd565b610bec565b34801561052357600080fd5b50610276610532366004611d06565b610e74565b34801561054357600080fd5b506101e7610552366004612016565b6001600160a01b03918216600090815260056020908152604080832093909416825291909152205460ff1690565b34801561058c57600080fd5b506104cb61059b366004612044565b63f23a6e6160e01b9695505050505050565b3480156105b957600080fd5b506102766105c8366004611d06565b610e9e565b60006001600160e01b03198216632483248360e11b14806105f257506105f282610f17565b92915050565b606060008054610607906120c0565b80601f0160208091040260200160405190810160405280929190818152602001828054610633906120c0565b80156106805780601f1061065557610100808354040283529160200191610680565b820191906000526020600020905b81548152906001019060200180831161066357829003601f168201915b5050505050905090565b600061069582610f67565b506000908152600460205260409020546001600160a01b031690565b60006106bc8261090c565b9050806001600160a01b0316836001600160a01b03160361072e5760405162461bcd60e51b815260206004820152602160248201527f4552433732313a20617070726f76616c20746f2063757272656e74206f776e656044820152603960f91b60648201526084015b60405180910390fd5b336001600160a01b038216148061074a575061074a8133610552565b6107bc5760405162461bcd60e51b815260206004820152603d60248201527f4552433732313a20617070726f76652063616c6c6572206973206e6f7420746f60448201527f6b656e206f776e6572206f7220617070726f76656420666f7220616c6c0000006064820152608401610725565b6107c68383610fc6565b505050565b60006107d78383611034565b9392505050565b60006107e960085490565b905090565b606060006107fb60085490565b67ffffffffffffffff81111561081357610813611d61565b60405190808252806020026020018201604052801561083c578160200160208202803683370190505b50905060005b81518110156108ad57600e600061085d6103af84600161210a565b6001600160a01b03166001600160a01b03168152602001908152602001600020548282815181106108905761089061211d565b6020908102919091010152806108a581612133565b915050610842565b50919050565b6108bd33826110b0565b6108d95760405162461bcd60e51b81526004016107259061214c565b6107c683838361112e565b6107c683838360405180602001604052806000815250610aa4565b610907611292565b600a55565b6000818152600260205260408120546001600160a01b0316806105f25760405162461bcd60e51b8152602060048201526018602482015277115490cdcc8c4e881a5b9d985b1a59081d1bdad95b88125160421b6044820152606401610725565b60006001600160a01b0382166109d65760405162461bcd60e51b815260206004820152602960248201527f4552433732313a2061646472657373207a65726f206973206e6f7420612076616044820152683634b21037bbb732b960b91b6064820152608401610725565b506001600160a01b031660009081526003602052604090205490565b6109fa611292565b610a0460006112ec565b565b6000806107d783610a1561133e565b611487565b606060018054610607906120c0565b610a3433838361150e565b5050565b6001600160a01b0381166000908152600d60209081526040808320805482518185028101850190935280835260609493830182828015610a9757602002820191906000526020600020905b815481526020019060010190808311610a83575b5093979650505050505050565b610aae33836110b0565b610aca5760405162461bcd60e51b81526004016107259061214c565b610ad6848484846115dc565b50505050565b6060610ae782610f67565b60008281526006602052604081208054610b00906120c0565b80601f0160208091040260200160405190810160405280929190818152602001828054610b2c906120c0565b8015610b795780601f10610b4e57610100808354040283529160200191610b79565b820191906000526020600020905b815481529060010190602001808311610b5c57829003601f168201915b505050505090506000610b9760408051602081019091526000815290565b90508051600003610ba9575092915050565b815115610bdb578082604051602001610bc3929190612199565b60405160208183030381529060405292505050919050565b610be48461160f565b949350505050565b6000610bf661133e565b90506000610c043383611487565b9050600082600081518110610c1b57610c1b61211d565b60200260200101519050600082118015610c36575060008351115b8015610cb55750600b546040516331a9108f60e11b81526004810183905233916001600160a01b031690636352211e90602401602060405180830381865afa158015610c86573d6000803e3d6000fd5b505050506040513d601f19601f82011682018060405250810190610caa91906121c8565b6001600160a01b0316145b15610d9a57336000908152600c6020908152604080832084845290915290205460ff1615610d1c5760405162461bcd60e51b8152602060048201526014602482015273151bdad95b88185b1c9958591e48189d5c9b995960621b6044820152606401610725565b600b54604051637a94c56560e11b815233600482015260248101839052600160448201526001600160a01b039091169063f5298aca90606401600060405180830381600087803b158015610d6f57600080fd5b505af1158015610d83573d6000803e3d6000fd5b505050508180610d92906121e5565b925050610e04565b600a54341015610e045760405162461bcd60e51b815260206004820152602f60248201527f45746865722076616c75652073656e74206973206e6f7420636f72726563742060448201526e199bdc881b5a5b9d08185b5bdd5b9d608a1b6064820152608401610725565b610e12600880546001019055565b6000610e1d60085490565b9050610e293382611682565b610e33818661169c565b336000818152600e6020526040808220849055518392917f0f6798a560793a54c3bcfe86a93cde1e73087d944c0ea20544137d412139688591a35050505050565b610e7c611292565b600b80546001600160a01b0319166001600160a01b0392909216919091179055565b610ea6611292565b6001600160a01b038116610f0b5760405162461bcd60e51b815260206004820152602660248201527f4f776e61626c653a206e6577206f776e657220697320746865207a65726f206160448201526564647265737360d01b6064820152608401610725565b610f14816112ec565b50565b60006001600160e01b031982166380ac58cd60e01b1480610f4857506001600160e01b03198216635b5e139f60e01b145b806105f257506301ffc9a760e01b6001600160e01b03198316146105f2565b6000818152600260205260409020546001600160a01b0316610f145760405162461bcd60e51b8152602060048201526018602482015277115490cdcc8c4e881a5b9d985b1a59081d1bdad95b88125160421b6044820152606401610725565b600081815260046020526040902080546001600160a01b0319166001600160a01b0384169081179091558190610ffb8261090c565b6001600160a01b03167f8c5be1e5ebec7d5bd14f71427d1e84f3dd0314c0f7b2291e5b200ac8c7c3b92560405160405180910390a45050565b600b54604051627eeac760e11b81526001600160a01b03848116600483015260248201849052600092169062fdd58e90604401602060405180830381865afa158015611084573d6000803e3d6000fd5b505050506040513d601f19601f820116820180604052508101906110a891906121fc565b159392505050565b6000806110bc8361090c565b9050806001600160a01b0316846001600160a01b0316148061110357506001600160a01b0380821660009081526005602090815260408083209388168352929052205460ff165b80610be45750836001600160a01b031661111c8461068a565b6001600160a01b031614949350505050565b826001600160a01b03166111418261090c565b6001600160a01b0316146111675760405162461bcd60e51b815260040161072590612215565b6001600160a01b0382166111c95760405162461bcd60e51b8152602060048201526024808201527f4552433732313a207472616e7366657220746f20746865207a65726f206164646044820152637265737360e01b6064820152608401610725565b826001600160a01b03166111dc8261090c565b6001600160a01b0316146112025760405162461bcd60e51b815260040161072590612215565b600081815260046020908152604080832080546001600160a01b03199081169091556001600160a01b0387811680865260038552838620805460001901905590871680865283862080546001019055868652600290945282852080549092168417909155905184937fddf252ad1be2c89b69c2b068fc378daa952ba7f163c4a11628f55a4df523b3ef91a4505050565b6007546001600160a01b03163314610a045760405162461bcd60e51b815260206004820181905260248201527f4f776e61626c653a2063616c6c6572206973206e6f7420746865206f776e65726044820152606401610725565b600780546001600160a01b038381166001600160a01b0319831681179093556040519116919082907f8be0079c531659141344cd1fd0a4f28419497f9722a3daafe3b4186f6b6457e090600090a35050565b600b546040516378a9bb4360e11b81523360048201526060916000916001600160a01b039091169063f153768690602401600060405180830381865afa15801561138c573d6000803e3d6000fd5b505050506040513d6000823e601f3d908101601f191682016040526113b4919081019061225a565b90506000805b825181101561143e57336000908152600c6020526040812084519091908590849081106113e9576113e961211d565b60209081029190910181015182528101919091526040016000205460ff1661142c5782818151811061141d5761141d61211d565b6020026020010151915061143e565b8061143681612133565b9150506113ba565b506040805160018082528183019092526000916020808301908036833701905050905081816000815181106114755761147561211d565b60209081029190910101529392505050565b600080805b8351811015611506576001600160a01b0385166000908152600c6020526040812085519091908690849081106114c4576114c461211d565b60209081029190910181015182528101919091526040016000205460ff166114f457816114f081612133565b9250505b806114fe81612133565b91505061148c565b509392505050565b816001600160a01b0316836001600160a01b03160361156f5760405162461bcd60e51b815260206004820152601960248201527f4552433732313a20617070726f766520746f2063616c6c6572000000000000006044820152606401610725565b6001600160a01b03838116600081815260056020908152604080832094871680845294825291829020805460ff191686151590811790915591519182527f17307eab39ab6107e8899845ad3d59bd9653f200f220920489ca2b5937696c31910160405180910390a3505050565b6115e784848461112e565b6115f384848484611767565b610ad65760405162461bcd60e51b815260040161072590612300565b606061161a82610f67565b600061163160408051602081019091526000815290565b9050600081511161165157604051806020016040528060008152506107d7565b8061165b84611868565b60405160200161166c929190612199565b6040516020818303038152906040529392505050565b610a348282604051806020016040528060008152506118fb565b6000828152600260205260409020546001600160a01b03166117175760405162461bcd60e51b815260206004820152602e60248201527f45524337323155524953746f726167653a2055524920736574206f66206e6f6e60448201526d32bc34b9ba32b73a103a37b5b2b760911b6064820152608401610725565b600082815260066020526040902061172f82826123a0565b506040518281527ff8e1a15aba9398e019f0b49df1a4fde98ee17ae345cb5f6b5e2c27f5033e8ce79060200160405180910390a15050565b60006001600160a01b0384163b1561185d57604051630a85bd0160e11b81526001600160a01b0385169063150b7a02906117ab903390899088908890600401612460565b6020604051808303816000875af19250505080156117e6575060408051601f3d908101601f191682019092526117e39181019061249d565b60015b611843573d808015611814576040519150601f19603f3d011682016040523d82523d6000602084013e611819565b606091505b50805160000361183b5760405162461bcd60e51b815260040161072590612300565b805181602001fd5b6001600160e01b031916630a85bd0160e11b149050610be4565b506001949350505050565b606060006118758361192e565b600101905060008167ffffffffffffffff81111561189557611895611d61565b6040519080825280601f01601f1916602001820160405280156118bf576020820181803683370190505b5090508181016020015b600019016f181899199a1a9b1b9c1cb0b131b232b360811b600a86061a8153600a85049450846118c957509392505050565b6119058383611a06565b6119126000848484611767565b6107c65760405162461bcd60e51b815260040161072590612300565b60008072184f03e93ff9f4daa797ed6e38ed64bf6a1f0160401b831061196d5772184f03e93ff9f4daa797ed6e38ed64bf6a1f0160401b830492506040015b6d04ee2d6d415b85acef81000000008310611999576d04ee2d6d415b85acef8100000000830492506020015b662386f26fc1000083106119b757662386f26fc10000830492506010015b6305f5e10083106119cf576305f5e100830492506008015b61271083106119e357612710830492506004015b606483106119f5576064830492506002015b600a83106105f25760010192915050565b6001600160a01b038216611a5c5760405162461bcd60e51b815260206004820181905260248201527f4552433732313a206d696e7420746f20746865207a65726f20616464726573736044820152606401610725565b6000818152600260205260409020546001600160a01b031615611ac15760405162461bcd60e51b815260206004820152601c60248201527f4552433732313a20746f6b656e20616c7265616479206d696e746564000000006044820152606401610725565b6000818152600260205260409020546001600160a01b031615611b265760405162461bcd60e51b815260206004820152601c60248201527f4552433732313a20746f6b656e20616c7265616479206d696e746564000000006044820152606401610725565b6001600160a01b038216600081815260036020908152604080832080546001019055848352600290915280822080546001600160a01b0319168417905551839291907fddf252ad1be2c89b69c2b068fc378daa952ba7f163c4a11628f55a4df523b3ef908290a45050565b6001600160e01b031981168114610f1457600080fd5b600060208284031215611bb957600080fd5b81356107d781611b91565b60005b83811015611bdf578181015183820152602001611bc7565b50506000910152565b60008151808452611c00816020860160208601611bc4565b601f01601f19169290920160200192915050565b6020815260006107d76020830184611be8565b600060208284031215611c3957600080fd5b5035919050565b6001600160a01b0381168114610f1457600080fd5b60008060408385031215611c6857600080fd5b8235611c7381611c40565b946020939093013593505050565b6020808252825182820181905260009190848201906040850190845b81811015611cb957835183529284019291840191600101611c9d565b50909695505050505050565b600080600060608486031215611cda57600080fd5b8335611ce581611c40565b92506020840135611cf581611c40565b929592945050506040919091013590565b600060208284031215611d1857600080fd5b81356107d781611c40565b60008060408385031215611d3657600080fd5b8235611d4181611c40565b915060208301358015158114611d5657600080fd5b809150509250929050565b634e487b7160e01b600052604160045260246000fd5b604051601f8201601f1916810167ffffffffffffffff81118282101715611da057611da0611d61565b604052919050565b600067ffffffffffffffff831115611dc257611dc2611d61565b611dd5601f8401601f1916602001611d77565b9050828152838383011115611de957600080fd5b828260208301376000602084830101529392505050565b60008060008060808587031215611e1657600080fd5b8435611e2181611c40565b93506020850135611e3181611c40565b925060408501359150606085013567ffffffffffffffff811115611e5457600080fd5b8501601f81018713611e6557600080fd5b611e7487823560208401611da8565b91505092959194509250565b60008083601f840112611e9257600080fd5b50813567ffffffffffffffff811115611eaa57600080fd5b6020830191508360208260051b8501011115611ec557600080fd5b9250929050565b60008083601f840112611ede57600080fd5b50813567ffffffffffffffff811115611ef657600080fd5b602083019150836020828501011115611ec557600080fd5b60008060008060008060008060a0898b031215611f2a57600080fd5b8835611f3581611c40565b97506020890135611f4581611c40565b9650604089013567ffffffffffffffff80821115611f6257600080fd5b611f6e8c838d01611e80565b909850965060608b0135915080821115611f8757600080fd5b611f938c838d01611e80565b909650945060808b0135915080821115611fac57600080fd5b50611fb98b828c01611ecc565b999c989b5096995094979396929594505050565b600060208284031215611fdf57600080fd5b813567ffffffffffffffff811115611ff657600080fd5b8201601f8101841361200757600080fd5b610be484823560208401611da8565b6000806040838503121561202957600080fd5b823561203481611c40565b91506020830135611d5681611c40565b60008060008060008060a0878903121561205d57600080fd5b863561206881611c40565b9550602087013561207881611c40565b94506040870135935060608701359250608087013567ffffffffffffffff8111156120a257600080fd5b6120ae89828a01611ecc565b979a9699509497509295939492505050565b600181811c908216806120d457607f821691505b6020821081036108ad57634e487b7160e01b600052602260045260246000fd5b634e487b7160e01b600052601160045260246000fd5b808201808211156105f2576105f26120f4565b634e487b7160e01b600052603260045260246000fd5b600060018201612145576121456120f4565b5060010190565b6020808252602d908201527f4552433732313a2063616c6c6572206973206e6f7420746f6b656e206f776e6560408201526c1c881bdc88185c1c1c9bdd9959609a1b606082015260800190565b600083516121ab818460208801611bc4565b8351908301906121bf818360208801611bc4565b01949350505050565b6000602082840312156121da57600080fd5b81516107d781611c40565b6000816121f4576121f46120f4565b506000190190565b60006020828403121561220e57600080fd5b5051919050565b60208082526025908201527f4552433732313a207472616e736665722066726f6d20696e636f72726563742060408201526437bbb732b960d91b606082015260800190565b6000602080838503121561226d57600080fd5b825167ffffffffffffffff8082111561228557600080fd5b818501915085601f83011261229957600080fd5b8151818111156122ab576122ab611d61565b8060051b91506122bc848301611d77565b81815291830184019184810190888411156122d657600080fd5b938501935b838510156122f4578451825293850193908501906122db565b98975050505050505050565b60208082526032908201527f4552433732313a207472616e7366657220746f206e6f6e20455243373231526560408201527131b2b4bb32b91034b6b83632b6b2b73a32b960711b606082015260800190565b601f8211156107c657600081815260208120601f850160051c810160208610156123795750805b601f850160051c820191505b8181101561239857828155600101612385565b505050505050565b815167ffffffffffffffff8111156123ba576123ba611d61565b6123ce816123c884546120c0565b84612352565b602080601f83116001811461240357600084156123eb5750858301515b600019600386901b1c1916600185901b178555612398565b600085815260208120601f198616915b8281101561243257888601518255948401946001909101908401612413565b50858210156124505787850151600019600388901b60f8161c191681555b5050505050600190811b01905550565b6001600160a01b038581168252841660208201526040810183905260806060820181905260009061249390830184611be8565b9695505050505050565b6000602082840312156124af57600080fd5b81516107d781611b9156fea2646970667358221220724a2479c64bc431fd53b0b7de5f83d5b640d599dafb76427fb830642d47aeca64736f6c63430008110033",
  "linkReferences": {},
  "deployedLinkReferences": {}
}