{
  "_format": "hh-sol-artifact-1",
  "contractName": "NFT",
  "sourceName": "contracts/NFT.sol",
  "abi": [
    {
      "inputs": [
        {
          "internalType": "string",
          "name": "_name",
          "type": "string"
        },
        {
          "internalType": "string",
          "name": "_symbol",
          "type": "string"
        },
        {
          "internalType": "uint256",
          "name": "_cost",
          "type": "uint256"
        },
        {
          "internalType": "uint256",
          "name": "_maxSupply",
          "type": "uint256"
        },
        {
          "internalType": "uint256",
          "name": "_maxMintAmount",
          "type": "uint256"
        },
        {
          "internalType": "string",
          "name": "_baseURI",
          "type": "string"
        }
      ],
      "stateMutability": "nonpayable",
      "type": "constructor"
    },
    {
      "anonymous": false,
      "inputs": [
        {
          "indexed": true,
          "internalType": "address",
          "name": "owner",
          "type": "address"
        },
        {
          "indexed": true,
          "internalType": "address",
          "name": "approved",
          "type": "address"
        },
        {
          "indexed": true,
          "internalType": "uint256",
          "name": "tokenId",
          "type": "uint256"
        }
      ],
      "name": "Approval",
      "type": "event"
    },
    {
      "anonymous": false,
      "inputs": [
        {
          "indexed": true,
          "internalType": "address",
          "name": "owner",
          "type": "address"
        },
        {
          "indexed": true,
          "internalType": "address",
          "name": "operator",
          "type": "address"
        },
        {
          "indexed": false,
          "internalType": "bool",
          "name": "approved",
          "type": "bool"
        }
      ],
      "name": "ApprovalForAll",
      "type": "event"
    },
    {
      "anonymous": false,
      "inputs": [
        {
          "indexed": false,
          "internalType": "uint256",
          "name": "amount",
          "type": "uint256"
        },
        {
          "indexed": true,
          "internalType": "address",
          "name": "minter",
          "type": "address"
        },
        {
          "indexed": true,
          "internalType": "uint256",
          "name": "tokenId",
          "type": "uint256"
        }
      ],
      "name": "Mint",
      "type": "event"
    },
    {
      "anonymous": false,
      "inputs": [
        {
          "indexed": true,
          "internalType": "address",
          "name": "previousOwner",
          "type": "address"
        },
        {
          "indexed": true,
          "internalType": "address",
          "name": "newOwner",
          "type": "address"
        }
      ],
      "name": "OwnershipTransferred",
      "type": "event"
    },
    {
      "anonymous": false,
      "inputs": [
        {
          "indexed": true,
          "internalType": "address",
          "name": "from",
          "type": "address"
        },
        {
          "indexed": true,
          "internalType": "address",
          "name": "to",
          "type": "address"
        },
        {
          "indexed": true,
          "internalType": "uint256",
          "name": "tokenId",
          "type": "uint256"
        }
      ],
      "name": "Transfer",
      "type": "event"
    },
    {
      "anonymous": false,
      "inputs": [
        {
          "indexed": false,
          "internalType": "uint256",
          "name": "amount",
          "type": "uint256"
        },
        {
          "indexed": true,
          "internalType": "address",
          "name": "withdrawer",
          "type": "address"
        }
      ],
      "name": "Withdraw",
      "type": "event"
    },
    {
      "inputs": [
        {
          "internalType": "address",
          "name": "to",
          "type": "address"
        },
        {
          "internalType": "uint256",
          "name": "tokenId",
          "type": "uint256"
        }
      ],
      "name": "approve",
      "outputs": [],
      "stateMutability": "nonpayable",
      "type": "function"
    },
    {
      "inputs": [
        {
          "internalType": "address",
          "name": "owner",
          "type": "address"
        }
      ],
      "name": "balanceOf",
      "outputs": [
        {
          "internalType": "uint256",
          "name": "",
          "type": "uint256"
        }
      ],
      "stateMutability": "view",
      "type": "function"
    },
    {
      "inputs": [
        {
          "internalType": "uint256",
          "name": "tokenId",
          "type": "uint256"
        }
      ],
      "name": "getApproved",
      "outputs": [
        {
          "internalType": "address",
          "name": "",
          "type": "address"
        }
      ],
      "stateMutability": "view",
      "type": "function"
    },
    {
      "inputs": [],
      "name": "getBaseURI",
      "outputs": [
        {
          "internalType": "string",
          "name": "",
          "type": "string"
        }
      ],
      "stateMutability": "view",
      "type": "function"
    },
    {
      "inputs": [],
      "name": "getCost",
      "outputs": [
        {
          "internalType": "uint256",
          "name": "",
          "type": "uint256"
        }
      ],
      "stateMutability": "view",
      "type": "function"
    },
    {
      "inputs": [],
      "name": "getMaxMintAmount",
      "outputs": [
        {
          "internalType": "uint256",
          "name": "",
          "type": "uint256"
        }
      ],
      "stateMutability": "view",
      "type": "function"
    },
    {
      "inputs": [],
      "name": "getMaxSupply",
      "outputs": [
        {
          "internalType": "uint256",
          "name": "",
          "type": "uint256"
        }
      ],
      "stateMutability": "view",
      "type": "function"
    },
    {
      "inputs": [],
      "name": "getTotalSupply",
      "outputs": [
        {
          "internalType": "uint256",
          "name": "",
          "type": "uint256"
        }
      ],
      "stateMutability": "view",
      "type": "function"
    },
    {
      "inputs": [
        {
          "internalType": "address",
          "name": "_owner",
          "type": "address"
        }
      ],
      "name": "getWalletOwner",
      "outputs": [
        {
          "internalType": "uint256[]",
          "name": "",
          "type": "uint256[]"
        },
        {
          "internalType": "string[]",
          "name": "",
          "type": "string[]"
        }
      ],
      "stateMutability": "view",
      "type": "function"
    },
    {
      "inputs": [
        {
          "internalType": "address",
          "name": "owner",
          "type": "address"
        },
        {
          "internalType": "address",
          "name": "operator",
          "type": "address"
        }
      ],
      "name": "isApprovedForAll",
      "outputs": [
        {
          "internalType": "bool",
          "name": "",
          "type": "bool"
        }
      ],
      "stateMutability": "view",
      "type": "function"
    },
    {
      "inputs": [
        {
          "internalType": "uint256",
          "name": "_mintAmount",
          "type": "uint256"
        }
      ],
      "name": "mint",
      "outputs": [],
      "stateMutability": "payable",
      "type": "function"
    },
    {
      "inputs": [],
      "name": "name",
      "outputs": [
        {
          "internalType": "string",
          "name": "",
          "type": "string"
        }
      ],
      "stateMutability": "view",
      "type": "function"
    },
    {
      "inputs": [],
      "name": "owner",
      "outputs": [
        {
          "internalType": "address",
          "name": "",
          "type": "address"
        }
      ],
      "stateMutability": "view",
      "type": "function"
    },
    {
      "inputs": [
        {
          "internalType": "uint256",
          "name": "tokenId",
          "type": "uint256"
        }
      ],
      "name": "ownerOf",
      "outputs": [
        {
          "internalType": "address",
          "name": "",
          "type": "address"
        }
      ],
      "stateMutability": "view",
      "type": "function"
    },
    {
      "inputs": [],
      "name": "renounceOwnership",
      "outputs": [],
      "stateMutability": "nonpayable",
      "type": "function"
    },
    {
      "inputs": [
        {
          "internalType": "address",
          "name": "from",
          "type": "address"
        },
        {
          "internalType": "address",
          "name": "to",
          "type": "address"
        },
        {
          "internalType": "uint256",
          "name": "tokenId",
          "type": "uint256"
        }
      ],
      "name": "safeTransferFrom",
      "outputs": [],
      "stateMutability": "nonpayable",
      "type": "function"
    },
    {
      "inputs": [
        {
          "internalType": "address",
          "name": "from",
          "type": "address"
        },
        {
          "internalType": "address",
          "name": "to",
          "type": "address"
        },
        {
          "internalType": "uint256",
          "name": "tokenId",
          "type": "uint256"
        },
        {
          "internalType": "bytes",
          "name": "data",
          "type": "bytes"
        }
      ],
      "name": "safeTransferFrom",
      "outputs": [],
      "stateMutability": "nonpayable",
      "type": "function"
    },
    {
      "inputs": [
        {
          "internalType": "address",
          "name": "operator",
          "type": "address"
        },
        {
          "internalType": "bool",
          "name": "approved",
          "type": "bool"
        }
      ],
      "name": "setApprovalForAll",
      "outputs": [],
      "stateMutability": "nonpayable",
      "type": "function"
    },
    {
      "inputs": [
        {
          "internalType": "uint256",
          "name": "_newCost",
          "type": "uint256"
        }
      ],
      "name": "setCost",
      "outputs": [],
      "stateMutability": "nonpayable",
      "type": "function"
    },
    {
      "inputs": [
        {
          "internalType": "uint256",
          "name": "_amount",
          "type": "uint256"
        }
      ],
      "name": "setMaxMintAmount",
      "outputs": [],
      "stateMutability": "nonpayable",
      "type": "function"
    },
    {
      "inputs": [
        {
          "internalType": "bytes4",
          "name": "interfaceId",
          "type": "bytes4"
        }
      ],
      "name": "supportsInterface",
      "outputs": [
        {
          "internalType": "bool",
          "name": "",
          "type": "bool"
        }
      ],
      "stateMutability": "view",
      "type": "function"
    },
    {
      "inputs": [],
      "name": "symbol",
      "outputs": [
        {
          "internalType": "string",
          "name": "",
          "type": "string"
        }
      ],
      "stateMutability": "view",
      "type": "function"
    },
    {
      "inputs": [
        {
          "internalType": "uint256",
          "name": "index",
          "type": "uint256"
        }
      ],
      "name": "tokenByIndex",
      "outputs": [
        {
          "internalType": "uint256",
          "name": "",
          "type": "uint256"
        }
      ],
      "stateMutability": "view",
      "type": "function"
    },
    {
      "inputs": [
        {
          "internalType": "address",
          "name": "owner",
          "type": "address"
        },
        {
          "internalType": "uint256",
          "name": "index",
          "type": "uint256"
        }
      ],
      "name": "tokenOfOwnerByIndex",
      "outputs": [
        {
          "internalType": "uint256",
          "name": "",
          "type": "uint256"
        }
      ],
      "stateMutability": "view",
      "type": "function"
    },
    {
      "inputs": [
        {
          "internalType": "uint256",
          "name": "_tokenId",
          "type": "uint256"
        }
      ],
      "name": "tokenURI",
      "outputs": [
        {
          "internalType": "string",
          "name": "",
          "type": "string"
        }
      ],
      "stateMutability": "view",
      "type": "function"
    },
    {
      "inputs": [],
      "name": "totalSupply",
      "outputs": [
        {
          "internalType": "uint256",
          "name": "",
          "type": "uint256"
        }
      ],
      "stateMutability": "view",
      "type": "function"
    },
    {
      "inputs": [
        {
          "internalType": "address",
          "name": "from",
          "type": "address"
        },
        {
          "internalType": "address",
          "name": "to",
          "type": "address"
        },
        {
          "internalType": "uint256",
          "name": "tokenId",
          "type": "uint256"
        }
      ],
      "name": "transferFrom",
      "outputs": [],
      "stateMutability": "nonpayable",
      "type": "function"
    },
    {
      "inputs": [
        {
          "internalType": "address",
          "name": "newOwner",
          "type": "address"
        }
      ],
      "name": "transferOwnership",
      "outputs": [],
      "stateMutability": "nonpayable",
      "type": "function"
    },
    {
      "inputs": [],
      "name": "withdraw",
      "outputs": [],
      "stateMutability": "nonpayable",
      "type": "function"
    }
  ],
  "bytecode": "0x60c06040526005608090815264173539b7b760d91b60a052600c90620000269082620001be565b503480156200003457600080fd5b506040516200254e3803806200254e833981016040819052620000579162000339565b85856000620000678382620001be565b506001620000768282620001be565b505050620000936200008d620000c360201b60201c565b620000c7565b600d849055600e839055600f8290556010620000b08282620001be565b5050600060115550620003e69350505050565b3390565b600a80546001600160a01b038381166001600160a01b0319831681179093556040519116919082907f8be0079c531659141344cd1fd0a4f28419497f9722a3daafe3b4186f6b6457e090600090a35050565b634e487b7160e01b600052604160045260246000fd5b600181811c908216806200014457607f821691505b6020821081036200016557634e487b7160e01b600052602260045260246000fd5b50919050565b601f821115620001b957600081815260208120601f850160051c81016020861015620001945750805b601f850160051c820191505b81811015620001b557828155600101620001a0565b5050505b505050565b81516001600160401b03811115620001da57620001da62000119565b620001f281620001eb84546200012f565b846200016b565b602080601f8311600181146200022a5760008415620002115750858301515b600019600386901b1c1916600185901b178555620001b5565b600085815260208120601f198616915b828110156200025b578886015182559484019460019091019084016200023a565b50858210156200027a5787850151600019600388901b60f8161c191681555b5050505050600190811b01905550565b600082601f8301126200029c57600080fd5b81516001600160401b0380821115620002b957620002b962000119565b604051601f8301601f19908116603f01168101908282118183101715620002e457620002e462000119565b816040528381526020925086838588010111156200030157600080fd5b600091505b8382101562000325578582018301518183018401529082019062000306565b600093810190920192909252949350505050565b60008060008060008060c087890312156200035357600080fd5b86516001600160401b03808211156200036b57600080fd5b620003798a838b016200028a565b975060208901519150808211156200039057600080fd5b6200039e8a838b016200028a565b965060408901519550606089015194506080890151935060a0890151915080821115620003ca57600080fd5b50620003d989828a016200028a565b9150509295509295509295565b61215880620003f66000396000f3fe6080604052600436106101c25760003560e01c806370a08231116100f7578063a22cb46511610095578063c87b56dd11610064578063c87b56dd146104c9578063d6e7b8e4146104e9578063e985e9c5146104fe578063f2fde38b1461054757600080fd5b8063a22cb4651461045f578063b88d4fde1461047f578063bd3e19d41461049f578063c4e41b22146104b457600080fd5b80638da5cb5b116100d15780638da5cb5b146103eb57806395d89b4114610409578063966708a51461041e578063a0712d681461044c57600080fd5b806370a08231146103a1578063714c5398146103c1578063715018a6146103d657600080fd5b80632f745c591161016457806344a0d68a1161013e57806344a0d68a1461032c5780634c0f38c21461034c5780634f6ccce7146103615780636352211e1461038157600080fd5b80632f745c59146102d75780633ccfd60b146102f757806342842e0e1461030c57600080fd5b8063088a4ed0116101a0578063088a4ed014610256578063095ea7b31461027857806318160ddd1461029857806323b872dd146102b757600080fd5b806301ffc9a7146101c757806306fdde03146101fc578063081812fc1461021e575b600080fd5b3480156101d357600080fd5b506101e76101e2366004611b0c565b610567565b60405190151581526020015b60405180910390f35b34801561020857600080fd5b50610211610592565b6040516101f39190611b80565b34801561022a57600080fd5b5061023e610239366004611b93565b610624565b6040516001600160a01b0390911681526020016101f3565b34801561026257600080fd5b50610276610271366004611b93565b61064b565b005b34801561028457600080fd5b50610276610293366004611bc8565b610658565b3480156102a457600080fd5b506008545b6040519081526020016101f3565b3480156102c357600080fd5b506102766102d2366004611bf2565b610772565b3480156102e357600080fd5b506102a96102f2366004611bc8565b6107a3565b34801561030357600080fd5b50610276610839565b34801561031857600080fd5b50610276610327366004611bf2565b610907565b34801561033857600080fd5b50610276610347366004611b93565b610922565b34801561035857600080fd5b50600e546102a9565b34801561036d57600080fd5b506102a961037c366004611b93565b61092f565b34801561038d57600080fd5b5061023e61039c366004611b93565b6109c2565b3480156103ad57600080fd5b506102a96103bc366004611c2e565b610a22565b3480156103cd57600080fd5b50610211610aa8565b3480156103e257600080fd5b50610276610ab7565b3480156103f757600080fd5b50600a546001600160a01b031661023e565b34801561041557600080fd5b50610211610acb565b34801561042a57600080fd5b5061043e610439366004611c2e565b610ada565b6040516101f3929190611c49565b61027661045a366004611b93565b610c13565b34801561046b57600080fd5b5061027661047a366004611ce1565b610dff565b34801561048b57600080fd5b5061027661049a366004611d33565b610e0e565b3480156104ab57600080fd5b50600d546102a9565b3480156104c057600080fd5b506011546102a9565b3480156104d557600080fd5b506102116104e4366004611b93565b610e46565b3480156104f557600080fd5b50600f546102a9565b34801561050a57600080fd5b506101e7610519366004611e0f565b6001600160a01b03918216600090815260056020908152604080832093909416825291909152205460ff1690565b34801561055357600080fd5b50610276610562366004611c2e565b610efa565b60006001600160e01b0319821663780e9d6360e01b148061058c575061058c82610f73565b92915050565b6060600080546105a190611e42565b80601f01602080910402602001604051908101604052809291908181526020018280546105cd90611e42565b801561061a5780601f106105ef5761010080835404028352916020019161061a565b820191906000526020600020905b8154815290600101906020018083116105fd57829003601f168201915b5050505050905090565b600061062f82610fc3565b506000908152600460205260409020546001600160a01b031690565b610653611022565b600f55565b6000610663826109c2565b9050806001600160a01b0316836001600160a01b0316036106d55760405162461bcd60e51b815260206004820152602160248201527f4552433732313a20617070726f76616c20746f2063757272656e74206f776e656044820152603960f91b60648201526084015b60405180910390fd5b336001600160a01b03821614806106f157506106f18133610519565b6107635760405162461bcd60e51b815260206004820152603d60248201527f4552433732313a20617070726f76652063616c6c6572206973206e6f7420746f60448201527f6b656e206f776e6572206f7220617070726f76656420666f7220616c6c00000060648201526084016106cc565b61076d838361107c565b505050565b61077c33826110ea565b6107985760405162461bcd60e51b81526004016106cc90611e7c565b61076d838383611169565b60006107ae83610a22565b82106108105760405162461bcd60e51b815260206004820152602b60248201527f455243373231456e756d657261626c653a206f776e657220696e646578206f7560448201526a74206f6620626f756e647360a81b60648201526084016106cc565b506001600160a01b03919091166000908152600660209081526040808320938352929052205490565b610841611022565b6040514790600090339083908381818185875af1925050503d8060008114610885576040519150601f19603f3d011682016040523d82523d6000602084013e61088a565b606091505b50509050806108ce5760405162461bcd60e51b815260206004820152601060248201526f2a3930b739b332b9103330b4b632b21760811b60448201526064016106cc565b60405182815233907f8353ffcac0876ad14e226d9783c04540bfebf13871e868157d2a391cad98e9189060200160405180910390a25050565b61076d83838360405180602001604052806000815250610e0e565b61092a611022565b600d55565b600061093a60085490565b821061099d5760405162461bcd60e51b815260206004820152602c60248201527f455243373231456e756d657261626c653a20676c6f62616c20696e646578206f60448201526b7574206f6620626f756e647360a01b60648201526084016106cc565b600882815481106109b0576109b0611ec9565b90600052602060002001549050919050565b6000818152600260205260408120546001600160a01b03168061058c5760405162461bcd60e51b8152602060048201526018602482015277115490cdcc8c4e881a5b9d985b1a59081d1bdad95b88125160421b60448201526064016106cc565b60006001600160a01b038216610a8c5760405162461bcd60e51b815260206004820152602960248201527f4552433732313a2061646472657373207a65726f206973206e6f7420612076616044820152683634b21037bbb732b960b91b60648201526084016106cc565b506001600160a01b031660009081526003602052604090205490565b6060601080546105a190611e42565b610abf611022565b610ac960006112da565b565b6060600180546105a190611e42565b6060806000610ae884610a22565b905060008167ffffffffffffffff811115610b0557610b05611d1d565b604051908082528060200260200182016040528015610b2e578160200160208202803683370190505b50905060008267ffffffffffffffff811115610b4c57610b4c611d1d565b604051908082528060200260200182016040528015610b7f57816020015b6060815260200190600190039081610b6a5790505b50905060005b83811015610c0757610b9787826107a3565b838281518110610ba957610ba9611ec9565b602002602001018181525050610bd7838281518110610bca57610bca611ec9565b6020026020010151610e46565b828281518110610be957610be9611ec9565b60200260200101819052508080610bff90611ef5565b915050610b85565b50909590945092505050565b600f54811115610c655760405162461bcd60e51b815260206004820152601e60248201527f4d696e7420616d6f756e742065786365656473206d617820616d6f756e74000060448201526064016106cc565b60008111610cc05760405162461bcd60e51b815260206004820152602260248201527f4d696e7420616d6f756e74206d7573742062652067726561746572207468616e604482015261020360f41b60648201526084016106cc565b6000600d5482610cd09190611f0e565b905080341015610d3a5760405162461bcd60e51b815260206004820152602f60248201527f45746865722076616c75652073656e74206973206e6f7420636f72726563742060448201526e199bdc881b5a5b9d08185b5bdd5b9d608a1b60648201526084016106cc565b6000610d45600b5490565b90506000805b84811015610dc157610d5d8184611f25565b91505b6000828152600260205260409020546001600160a01b031615610d8f5781610d8781611ef5565b925050610d60565b610d99338361132c565b60118054906000610da983611ef5565b91905055508080610db990611ef5565b915050610d4b565b50604051848152819033907f4e3883c75cc9c752bb1db2e406a822e4a75067ae77ad9a0a4d179f2709b9e1f69060200160405180910390a350505050565b610e0a3383836114c5565b5050565b610e1833836110ea565b610e345760405162461bcd60e51b81526004016106cc90611e7c565b610e4084848484611593565b50505050565b6000818152600260205260409020546060906001600160a01b0316610ec55760405162461bcd60e51b815260206004820152602f60248201527f4552433732314d657461646174613a2055524920717565727920666f72206e6f60448201526e3732bc34b9ba32b73a103a37b5b2b760891b60648201526084016106cc565b6010610ed0836115c6565b600c604051602001610ee493929190611fd5565b6040516020818303038152906040529050919050565b610f02611022565b6001600160a01b038116610f675760405162461bcd60e51b815260206004820152602660248201527f4f776e61626c653a206e6577206f776e657220697320746865207a65726f206160448201526564647265737360d01b60648201526084016106cc565b610f70816112da565b50565b60006001600160e01b031982166380ac58cd60e01b1480610fa457506001600160e01b03198216635b5e139f60e01b145b8061058c57506301ffc9a760e01b6001600160e01b031983161461058c565b6000818152600260205260409020546001600160a01b0316610f705760405162461bcd60e51b8152602060048201526018602482015277115490cdcc8c4e881a5b9d985b1a59081d1bdad95b88125160421b60448201526064016106cc565b600a546001600160a01b03163314610ac95760405162461bcd60e51b815260206004820181905260248201527f4f776e61626c653a2063616c6c6572206973206e6f7420746865206f776e657260448201526064016106cc565b600081815260046020526040902080546001600160a01b0319166001600160a01b03841690811790915581906110b1826109c2565b6001600160a01b03167f8c5be1e5ebec7d5bd14f71427d1e84f3dd0314c0f7b2291e5b200ac8c7c3b92560405160405180910390a45050565b6000806110f6836109c2565b9050806001600160a01b0316846001600160a01b0316148061113d57506001600160a01b0380821660009081526005602090815260408083209388168352929052205460ff165b806111615750836001600160a01b031661115684610624565b6001600160a01b0316145b949350505050565b826001600160a01b031661117c826109c2565b6001600160a01b0316146111a25760405162461bcd60e51b81526004016106cc90612008565b6001600160a01b0382166112045760405162461bcd60e51b8152602060048201526024808201527f4552433732313a207472616e7366657220746f20746865207a65726f206164646044820152637265737360e01b60648201526084016106cc565b6112118383836001611659565b826001600160a01b0316611224826109c2565b6001600160a01b03161461124a5760405162461bcd60e51b81526004016106cc90612008565b600081815260046020908152604080832080546001600160a01b03199081169091556001600160a01b0387811680865260038552838620805460001901905590871680865283862080546001019055868652600290945282852080549092168417909155905184937fddf252ad1be2c89b69c2b068fc378daa952ba7f163c4a11628f55a4df523b3ef91a4505050565b600a80546001600160a01b038381166001600160a01b0319831681179093556040519116919082907f8be0079c531659141344cd1fd0a4f28419497f9722a3daafe3b4186f6b6457e090600090a35050565b6001600160a01b0382166113825760405162461bcd60e51b815260206004820181905260248201527f4552433732313a206d696e7420746f20746865207a65726f206164647265737360448201526064016106cc565b6000818152600260205260409020546001600160a01b0316156113e75760405162461bcd60e51b815260206004820152601c60248201527f4552433732313a20746f6b656e20616c7265616479206d696e7465640000000060448201526064016106cc565b6113f5600083836001611659565b6000818152600260205260409020546001600160a01b03161561145a5760405162461bcd60e51b815260206004820152601c60248201527f4552433732313a20746f6b656e20616c7265616479206d696e7465640000000060448201526064016106cc565b6001600160a01b038216600081815260036020908152604080832080546001019055848352600290915280822080546001600160a01b0319168417905551839291907fddf252ad1be2c89b69c2b068fc378daa952ba7f163c4a11628f55a4df523b3ef908290a45050565b816001600160a01b0316836001600160a01b0316036115265760405162461bcd60e51b815260206004820152601960248201527f4552433732313a20617070726f766520746f2063616c6c65720000000000000060448201526064016106cc565b6001600160a01b03838116600081815260056020908152604080832094871680845294825291829020805460ff191686151590811790915591519182527f17307eab39ab6107e8899845ad3d59bd9653f200f220920489ca2b5937696c31910160405180910390a3505050565b61159e848484611169565b6115aa8484848461178d565b610e405760405162461bcd60e51b81526004016106cc9061204d565b606060006115d38361188e565b600101905060008167ffffffffffffffff8111156115f3576115f3611d1d565b6040519080825280601f01601f19166020018201604052801561161d576020820181803683370190505b5090508181016020015b600019016f181899199a1a9b1b9c1cb0b131b232b360811b600a86061a8153600a850494508461162757509392505050565b60018111156116c85760405162461bcd60e51b815260206004820152603560248201527f455243373231456e756d657261626c653a20636f6e7365637574697665207472604482015274185b9cd9995c9cc81b9bdd081cdd5c1c1bdc9d1959605a1b60648201526084016106cc565b816001600160a01b0385166117245761171f81600880546000838152600960205260408120829055600182018355919091527ff3f7a9fe364faab93b216da50a3214154f22a0a2b415b23a84c8169e8b636ee30155565b611747565b836001600160a01b0316856001600160a01b031614611747576117478582611966565b6001600160a01b0384166117635761175e81611a03565b611786565b846001600160a01b0316846001600160a01b031614611786576117868482611ab2565b5050505050565b60006001600160a01b0384163b1561188357604051630a85bd0160e11b81526001600160a01b0385169063150b7a02906117d190339089908890889060040161209f565b6020604051808303816000875af192505050801561180c575060408051601f3d908101601f19168201909252611809918101906120dc565b60015b611869573d80801561183a576040519150601f19603f3d011682016040523d82523d6000602084013e61183f565b606091505b5080516000036118615760405162461bcd60e51b81526004016106cc9061204d565b805181602001fd5b6001600160e01b031916630a85bd0160e11b149050611161565b506001949350505050565b60008072184f03e93ff9f4daa797ed6e38ed64bf6a1f0160401b83106118cd5772184f03e93ff9f4daa797ed6e38ed64bf6a1f0160401b830492506040015b6d04ee2d6d415b85acef810000000083106118f9576d04ee2d6d415b85acef8100000000830492506020015b662386f26fc10000831061191757662386f26fc10000830492506010015b6305f5e100831061192f576305f5e100830492506008015b612710831061194357612710830492506004015b60648310611955576064830492506002015b600a831061058c5760010192915050565b6000600161197384610a22565b61197d91906120f9565b6000838152600760205260409020549091508082146119d0576001600160a01b03841660009081526006602090815260408083208584528252808320548484528184208190558352600790915290208190555b5060009182526007602090815260408084208490556001600160a01b039094168352600681528383209183525290812055565b600854600090611a15906001906120f9565b60008381526009602052604081205460088054939450909284908110611a3d57611a3d611ec9565b906000526020600020015490508060088381548110611a5e57611a5e611ec9565b6000918252602080832090910192909255828152600990915260408082208490558582528120556008805480611a9657611a9661210c565b6001900381819060005260206000200160009055905550505050565b6000611abd83610a22565b6001600160a01b039093166000908152600660209081526040808320868452825280832085905593825260079052919091209190915550565b6001600160e01b031981168114610f7057600080fd5b600060208284031215611b1e57600080fd5b8135611b2981611af6565b9392505050565b60005b83811015611b4b578181015183820152602001611b33565b50506000910152565b60008151808452611b6c816020860160208601611b30565b601f01601f19169290920160200192915050565b602081526000611b296020830184611b54565b600060208284031215611ba557600080fd5b5035919050565b80356001600160a01b0381168114611bc357600080fd5b919050565b60008060408385031215611bdb57600080fd5b611be483611bac565b946020939093013593505050565b600080600060608486031215611c0757600080fd5b611c1084611bac565b9250611c1e60208501611bac565b9150604084013590509250925092565b600060208284031215611c4057600080fd5b611b2982611bac565b604080825283519082018190526000906020906060840190828701845b82811015611c8257815184529284019290840190600101611c66565b50505083810382850152845180825282820190600581901b8301840187850160005b83811015611cd257601f19868403018552611cc0838351611b54565b94870194925090860190600101611ca4565b50909998505050505050505050565b60008060408385031215611cf457600080fd5b611cfd83611bac565b915060208301358015158114611d1257600080fd5b809150509250929050565b634e487b7160e01b600052604160045260246000fd5b60008060008060808587031215611d4957600080fd5b611d5285611bac565b9350611d6060208601611bac565b925060408501359150606085013567ffffffffffffffff80821115611d8457600080fd5b818701915087601f830112611d9857600080fd5b813581811115611daa57611daa611d1d565b604051601f8201601f19908116603f01168101908382118183101715611dd257611dd2611d1d565b816040528281528a6020848701011115611deb57600080fd5b82602086016020830137600060208483010152809550505050505092959194509250565b60008060408385031215611e2257600080fd5b611e2b83611bac565b9150611e3960208401611bac565b90509250929050565b600181811c90821680611e5657607f821691505b602082108103611e7657634e487b7160e01b600052602260045260246000fd5b50919050565b6020808252602d908201527f4552433732313a2063616c6c6572206973206e6f7420746f6b656e206f776e6560408201526c1c881bdc88185c1c1c9bdd9959609a1b606082015260800190565b634e487b7160e01b600052603260045260246000fd5b634e487b7160e01b600052601160045260246000fd5b600060018201611f0757611f07611edf565b5060010190565b808202811582820484141761058c5761058c611edf565b8082018082111561058c5761058c611edf565b8054600090600181811c9080831680611f5257607f831692505b60208084108203611f7357634e487b7160e01b600052602260045260246000fd5b818015611f875760018114611f9c57611fc9565b60ff1986168952841515850289019650611fc9565b60008881526020902060005b86811015611fc15781548b820152908501908301611fa8565b505084890196505b50505050505092915050565b6000611fe18286611f38565b8451611ff1818360208901611b30565b611ffd81830186611f38565b979650505050505050565b60208082526025908201527f4552433732313a207472616e736665722066726f6d20696e636f72726563742060408201526437bbb732b960d91b606082015260800190565b60208082526032908201527f4552433732313a207472616e7366657220746f206e6f6e20455243373231526560408201527131b2b4bb32b91034b6b83632b6b2b73a32b960711b606082015260800190565b6001600160a01b03858116825284166020820152604081018390526080606082018190526000906120d290830184611b54565b9695505050505050565b6000602082840312156120ee57600080fd5b8151611b2981611af6565b8181038181111561058c5761058c611edf565b634e487b7160e01b600052603160045260246000fdfea2646970667358221220b808f125eecc48c4d77758067ad31fd6f8b6e71fa12295aab8f84791e5ec870964736f6c63430008110033",
  "linkReferences": {},
  "deployedLinkReferences": {}
}