{
  "_format": "hh-sol-artifact-1",
  "contractName": "NFT",
  "sourceName": "contracts/NFT.sol",
  "abi": [
    {
      "inputs": [
        {
          "internalType": "string",
          "name": "_name",
          "type": "string"
        },
        {
          "internalType": "string",
          "name": "_symbol",
          "type": "string"
        },
        {
          "internalType": "uint256",
          "name": "_cost",
          "type": "uint256"
        },
        {
          "internalType": "uint256",
          "name": "_maxSupply",
          "type": "uint256"
        },
        {
          "internalType": "uint256",
          "name": "_maxMintAmount",
          "type": "uint256"
        },
        {
          "internalType": "string",
          "name": "_baseURI",
          "type": "string"
        }
      ],
      "stateMutability": "nonpayable",
      "type": "constructor"
    },
    {
      "anonymous": false,
      "inputs": [
        {
          "indexed": true,
          "internalType": "address",
          "name": "owner",
          "type": "address"
        },
        {
          "indexed": true,
          "internalType": "address",
          "name": "approved",
          "type": "address"
        },
        {
          "indexed": true,
          "internalType": "uint256",
          "name": "tokenId",
          "type": "uint256"
        }
      ],
      "name": "Approval",
      "type": "event"
    },
    {
      "anonymous": false,
      "inputs": [
        {
          "indexed": true,
          "internalType": "address",
          "name": "owner",
          "type": "address"
        },
        {
          "indexed": true,
          "internalType": "address",
          "name": "operator",
          "type": "address"
        },
        {
          "indexed": false,
          "internalType": "bool",
          "name": "approved",
          "type": "bool"
        }
      ],
      "name": "ApprovalForAll",
      "type": "event"
    },
    {
      "anonymous": false,
      "inputs": [
        {
          "indexed": false,
          "internalType": "uint256",
          "name": "amount",
          "type": "uint256"
        },
        {
          "indexed": true,
          "internalType": "address",
          "name": "minter",
          "type": "address"
        },
        {
          "indexed": true,
          "internalType": "uint256",
          "name": "tokenId",
          "type": "uint256"
        }
      ],
      "name": "Mint",
      "type": "event"
    },
    {
      "anonymous": false,
      "inputs": [
        {
          "indexed": true,
          "internalType": "address",
          "name": "previousOwner",
          "type": "address"
        },
        {
          "indexed": true,
          "internalType": "address",
          "name": "newOwner",
          "type": "address"
        }
      ],
      "name": "OwnershipTransferred",
      "type": "event"
    },
    {
      "anonymous": false,
      "inputs": [
        {
          "indexed": true,
          "internalType": "address",
          "name": "from",
          "type": "address"
        },
        {
          "indexed": true,
          "internalType": "address",
          "name": "to",
          "type": "address"
        },
        {
          "indexed": true,
          "internalType": "uint256",
          "name": "tokenId",
          "type": "uint256"
        }
      ],
      "name": "Transfer",
      "type": "event"
    },
    {
      "anonymous": false,
      "inputs": [
        {
          "indexed": false,
          "internalType": "uint256",
          "name": "amount",
          "type": "uint256"
        },
        {
          "indexed": true,
          "internalType": "address",
          "name": "withdrawer",
          "type": "address"
        }
      ],
      "name": "Withdraw",
      "type": "event"
    },
    {
      "inputs": [
        {
          "internalType": "address",
          "name": "to",
          "type": "address"
        },
        {
          "internalType": "uint256",
          "name": "tokenId",
          "type": "uint256"
        }
      ],
      "name": "approve",
      "outputs": [],
      "stateMutability": "nonpayable",
      "type": "function"
    },
    {
      "inputs": [
        {
          "internalType": "address",
          "name": "owner",
          "type": "address"
        }
      ],
      "name": "balanceOf",
      "outputs": [
        {
          "internalType": "uint256",
          "name": "",
          "type": "uint256"
        }
      ],
      "stateMutability": "view",
      "type": "function"
    },
    {
      "inputs": [
        {
          "internalType": "uint256",
          "name": "tokenId",
          "type": "uint256"
        }
      ],
      "name": "getApproved",
      "outputs": [
        {
          "internalType": "address",
          "name": "",
          "type": "address"
        }
      ],
      "stateMutability": "view",
      "type": "function"
    },
    {
      "inputs": [],
      "name": "getBaseURI",
      "outputs": [
        {
          "internalType": "string",
          "name": "",
          "type": "string"
        }
      ],
      "stateMutability": "view",
      "type": "function"
    },
    {
      "inputs": [],
      "name": "getCost",
      "outputs": [
        {
          "internalType": "uint256",
          "name": "",
          "type": "uint256"
        }
      ],
      "stateMutability": "view",
      "type": "function"
    },
    {
      "inputs": [],
      "name": "getMaxMintAmount",
      "outputs": [
        {
          "internalType": "uint256",
          "name": "",
          "type": "uint256"
        }
      ],
      "stateMutability": "view",
      "type": "function"
    },
    {
      "inputs": [],
      "name": "getMaxSupply",
      "outputs": [
        {
          "internalType": "uint256",
          "name": "",
          "type": "uint256"
        }
      ],
      "stateMutability": "view",
      "type": "function"
    },
    {
      "inputs": [
        {
          "internalType": "address",
          "name": "_owner",
          "type": "address"
        }
      ],
      "name": "getWalletOwner",
      "outputs": [
        {
          "internalType": "uint256[]",
          "name": "",
          "type": "uint256[]"
        }
      ],
      "stateMutability": "view",
      "type": "function"
    },
    {
      "inputs": [
        {
          "internalType": "address",
          "name": "owner",
          "type": "address"
        },
        {
          "internalType": "address",
          "name": "operator",
          "type": "address"
        }
      ],
      "name": "isApprovedForAll",
      "outputs": [
        {
          "internalType": "bool",
          "name": "",
          "type": "bool"
        }
      ],
      "stateMutability": "view",
      "type": "function"
    },
    {
      "inputs": [
        {
          "internalType": "uint256",
          "name": "_mintAmount",
          "type": "uint256"
        }
      ],
      "name": "mint",
      "outputs": [],
      "stateMutability": "payable",
      "type": "function"
    },
    {
      "inputs": [],
      "name": "name",
      "outputs": [
        {
          "internalType": "string",
          "name": "",
          "type": "string"
        }
      ],
      "stateMutability": "view",
      "type": "function"
    },
    {
      "inputs": [],
      "name": "owner",
      "outputs": [
        {
          "internalType": "address",
          "name": "",
          "type": "address"
        }
      ],
      "stateMutability": "view",
      "type": "function"
    },
    {
      "inputs": [
        {
          "internalType": "uint256",
          "name": "tokenId",
          "type": "uint256"
        }
      ],
      "name": "ownerOf",
      "outputs": [
        {
          "internalType": "address",
          "name": "",
          "type": "address"
        }
      ],
      "stateMutability": "view",
      "type": "function"
    },
    {
      "inputs": [],
      "name": "renounceOwnership",
      "outputs": [],
      "stateMutability": "nonpayable",
      "type": "function"
    },
    {
      "inputs": [
        {
          "internalType": "address",
          "name": "from",
          "type": "address"
        },
        {
          "internalType": "address",
          "name": "to",
          "type": "address"
        },
        {
          "internalType": "uint256",
          "name": "tokenId",
          "type": "uint256"
        }
      ],
      "name": "safeTransferFrom",
      "outputs": [],
      "stateMutability": "nonpayable",
      "type": "function"
    },
    {
      "inputs": [
        {
          "internalType": "address",
          "name": "from",
          "type": "address"
        },
        {
          "internalType": "address",
          "name": "to",
          "type": "address"
        },
        {
          "internalType": "uint256",
          "name": "tokenId",
          "type": "uint256"
        },
        {
          "internalType": "bytes",
          "name": "data",
          "type": "bytes"
        }
      ],
      "name": "safeTransferFrom",
      "outputs": [],
      "stateMutability": "nonpayable",
      "type": "function"
    },
    {
      "inputs": [
        {
          "internalType": "address",
          "name": "operator",
          "type": "address"
        },
        {
          "internalType": "bool",
          "name": "approved",
          "type": "bool"
        }
      ],
      "name": "setApprovalForAll",
      "outputs": [],
      "stateMutability": "nonpayable",
      "type": "function"
    },
    {
      "inputs": [
        {
          "internalType": "uint256",
          "name": "_newCost",
          "type": "uint256"
        }
      ],
      "name": "setCost",
      "outputs": [],
      "stateMutability": "nonpayable",
      "type": "function"
    },
    {
      "inputs": [
        {
          "internalType": "uint256",
          "name": "_amount",
          "type": "uint256"
        }
      ],
      "name": "setMaxMintAmount",
      "outputs": [],
      "stateMutability": "nonpayable",
      "type": "function"
    },
    {
      "inputs": [
        {
          "internalType": "bytes4",
          "name": "interfaceId",
          "type": "bytes4"
        }
      ],
      "name": "supportsInterface",
      "outputs": [
        {
          "internalType": "bool",
          "name": "",
          "type": "bool"
        }
      ],
      "stateMutability": "view",
      "type": "function"
    },
    {
      "inputs": [],
      "name": "symbol",
      "outputs": [
        {
          "internalType": "string",
          "name": "",
          "type": "string"
        }
      ],
      "stateMutability": "view",
      "type": "function"
    },
    {
      "inputs": [
        {
          "internalType": "uint256",
          "name": "index",
          "type": "uint256"
        }
      ],
      "name": "tokenByIndex",
      "outputs": [
        {
          "internalType": "uint256",
          "name": "",
          "type": "uint256"
        }
      ],
      "stateMutability": "view",
      "type": "function"
    },
    {
      "inputs": [
        {
          "internalType": "address",
          "name": "owner",
          "type": "address"
        },
        {
          "internalType": "uint256",
          "name": "index",
          "type": "uint256"
        }
      ],
      "name": "tokenOfOwnerByIndex",
      "outputs": [
        {
          "internalType": "uint256",
          "name": "",
          "type": "uint256"
        }
      ],
      "stateMutability": "view",
      "type": "function"
    },
    {
      "inputs": [
        {
          "internalType": "uint256",
          "name": "_tokenId",
          "type": "uint256"
        }
      ],
      "name": "tokenURI",
      "outputs": [
        {
          "internalType": "string",
          "name": "",
          "type": "string"
        }
      ],
      "stateMutability": "view",
      "type": "function"
    },
    {
      "inputs": [],
      "name": "totalSupply",
      "outputs": [
        {
          "internalType": "uint256",
          "name": "",
          "type": "uint256"
        }
      ],
      "stateMutability": "view",
      "type": "function"
    },
    {
      "inputs": [
        {
          "internalType": "address",
          "name": "from",
          "type": "address"
        },
        {
          "internalType": "address",
          "name": "to",
          "type": "address"
        },
        {
          "internalType": "uint256",
          "name": "tokenId",
          "type": "uint256"
        }
      ],
      "name": "transferFrom",
      "outputs": [],
      "stateMutability": "nonpayable",
      "type": "function"
    },
    {
      "inputs": [
        {
          "internalType": "address",
          "name": "newOwner",
          "type": "address"
        }
      ],
      "name": "transferOwnership",
      "outputs": [],
      "stateMutability": "nonpayable",
      "type": "function"
    },
    {
      "inputs": [],
      "name": "withdraw",
      "outputs": [],
      "stateMutability": "nonpayable",
      "type": "function"
    }
  ],
  "bytecode": "0x60c06040526005608090815264173539b7b760d91b60a052600b90620000269082620001b8565b503480156200003457600080fd5b506040516200238438038062002384833981016040819052620000579162000333565b85856000620000678382620001b8565b506001620000768282620001b8565b505050620000936200008d620000bd60201b60201c565b620000c1565b600c849055600d839055600e829055600f620000b08282620001b8565b50505050505050620003e0565b3390565b600a80546001600160a01b038381166001600160a01b0319831681179093556040519116919082907f8be0079c531659141344cd1fd0a4f28419497f9722a3daafe3b4186f6b6457e090600090a35050565b634e487b7160e01b600052604160045260246000fd5b600181811c908216806200013e57607f821691505b6020821081036200015f57634e487b7160e01b600052602260045260246000fd5b50919050565b601f821115620001b357600081815260208120601f850160051c810160208610156200018e5750805b601f850160051c820191505b81811015620001af578281556001016200019a565b5050505b505050565b81516001600160401b03811115620001d457620001d462000113565b620001ec81620001e5845462000129565b8462000165565b602080601f8311600181146200022457600084156200020b5750858301515b600019600386901b1c1916600185901b178555620001af565b600085815260208120601f198616915b82811015620002555788860151825594840194600190910190840162000234565b5085821015620002745787850151600019600388901b60f8161c191681555b5050505050600190811b01905550565b600082601f8301126200029657600080fd5b81516001600160401b0380821115620002b357620002b362000113565b604051601f8301601f19908116603f01168101908282118183101715620002de57620002de62000113565b81604052838152602092508683858801011115620002fb57600080fd5b600091505b838210156200031f578582018301518183018401529082019062000300565b600093810190920192909252949350505050565b60008060008060008060c087890312156200034d57600080fd5b86516001600160401b03808211156200036557600080fd5b620003738a838b0162000284565b975060208901519150808211156200038a57600080fd5b620003988a838b0162000284565b965060408901519550606089015194506080890151935060a0890151915080821115620003c457600080fd5b50620003d389828a0162000284565b9150509295509295509295565b611f9480620003f06000396000f3fe6080604052600436106101b75760003560e01c806370a08231116100ec578063a22cb4651161008a578063c87b56dd11610064578063c87b56dd146104a8578063d6e7b8e4146104c8578063e985e9c5146104dd578063f2fde38b1461052657600080fd5b8063a22cb46514610453578063b88d4fde14610473578063bd3e19d41461049357600080fd5b80638da5cb5b116100c65780638da5cb5b146103e057806395d89b41146103fe578063966708a514610413578063a0712d681461044057600080fd5b806370a0823114610396578063714c5398146103b6578063715018a6146103cb57600080fd5b80632f745c591161015957806344a0d68a1161013357806344a0d68a146103215780634c0f38c2146103415780634f6ccce7146103565780636352211e1461037657600080fd5b80632f745c59146102cc5780633ccfd60b146102ec57806342842e0e1461030157600080fd5b8063088a4ed011610195578063088a4ed01461024b578063095ea7b31461026d57806318160ddd1461028d57806323b872dd146102ac57600080fd5b806301ffc9a7146101bc57806306fdde03146101f1578063081812fc14610213575b600080fd5b3480156101c857600080fd5b506101dc6101d736600461199c565b610546565b60405190151581526020015b60405180910390f35b3480156101fd57600080fd5b50610206610571565b6040516101e89190611a10565b34801561021f57600080fd5b5061023361022e366004611a23565b610603565b6040516001600160a01b0390911681526020016101e8565b34801561025757600080fd5b5061026b610266366004611a23565b61062a565b005b34801561027957600080fd5b5061026b610288366004611a58565b610637565b34801561029957600080fd5b506008545b6040519081526020016101e8565b3480156102b857600080fd5b5061026b6102c7366004611a82565b610751565b3480156102d857600080fd5b5061029e6102e7366004611a58565b610782565b3480156102f857600080fd5b5061026b610818565b34801561030d57600080fd5b5061026b61031c366004611a82565b6108e6565b34801561032d57600080fd5b5061026b61033c366004611a23565b610901565b34801561034d57600080fd5b50600d5461029e565b34801561036257600080fd5b5061029e610371366004611a23565b61090e565b34801561038257600080fd5b50610233610391366004611a23565b6109a1565b3480156103a257600080fd5b5061029e6103b1366004611abe565b610a01565b3480156103c257600080fd5b50610206610a87565b3480156103d757600080fd5b5061026b610a96565b3480156103ec57600080fd5b50600a546001600160a01b0316610233565b34801561040a57600080fd5b50610206610aaa565b34801561041f57600080fd5b5061043361042e366004611abe565b610ab9565b6040516101e89190611ad9565b61026b61044e366004611a23565b610b5b565b34801561045f57600080fd5b5061026b61046e366004611b1d565b610c4a565b34801561047f57600080fd5b5061026b61048e366004611b6f565b610c59565b34801561049f57600080fd5b50600c5461029e565b3480156104b457600080fd5b506102066104c3366004611a23565b610c91565b3480156104d457600080fd5b50600e5461029e565b3480156104e957600080fd5b506101dc6104f8366004611c4b565b6001600160a01b03918216600090815260056020908152604080832093909416825291909152205460ff1690565b34801561053257600080fd5b5061026b610541366004611abe565b610d45565b60006001600160e01b0319821663780e9d6360e01b148061056b575061056b82610dbe565b92915050565b60606000805461058090611c7e565b80601f01602080910402602001604051908101604052809291908181526020018280546105ac90611c7e565b80156105f95780601f106105ce576101008083540402835291602001916105f9565b820191906000526020600020905b8154815290600101906020018083116105dc57829003601f168201915b5050505050905090565b600061060e82610e0e565b506000908152600460205260409020546001600160a01b031690565b610632610e6d565b600e55565b6000610642826109a1565b9050806001600160a01b0316836001600160a01b0316036106b45760405162461bcd60e51b815260206004820152602160248201527f4552433732313a20617070726f76616c20746f2063757272656e74206f776e656044820152603960f91b60648201526084015b60405180910390fd5b336001600160a01b03821614806106d057506106d081336104f8565b6107425760405162461bcd60e51b815260206004820152603d60248201527f4552433732313a20617070726f76652063616c6c6572206973206e6f7420746f60448201527f6b656e206f776e6572206f7220617070726f76656420666f7220616c6c00000060648201526084016106ab565b61074c8383610ec7565b505050565b61075b3382610f35565b6107775760405162461bcd60e51b81526004016106ab90611cb8565b61074c838383610fb4565b600061078d83610a01565b82106107ef5760405162461bcd60e51b815260206004820152602b60248201527f455243373231456e756d657261626c653a206f776e657220696e646578206f7560448201526a74206f6620626f756e647360a81b60648201526084016106ab565b506001600160a01b03919091166000908152600660209081526040808320938352929052205490565b610820610e6d565b6040514790600090339083908381818185875af1925050503d8060008114610864576040519150601f19603f3d011682016040523d82523d6000602084013e610869565b606091505b50509050806108ad5760405162461bcd60e51b815260206004820152601060248201526f2a3930b739b332b9103330b4b632b21760811b60448201526064016106ab565b60405182815233907f8353ffcac0876ad14e226d9783c04540bfebf13871e868157d2a391cad98e9189060200160405180910390a25050565b61074c83838360405180602001604052806000815250610c59565b610909610e6d565b600c55565b600061091960085490565b821061097c5760405162461bcd60e51b815260206004820152602c60248201527f455243373231456e756d657261626c653a20676c6f62616c20696e646578206f60448201526b7574206f6620626f756e647360a01b60648201526084016106ab565b6008828154811061098f5761098f611d05565b90600052602060002001549050919050565b6000818152600260205260408120546001600160a01b03168061056b5760405162461bcd60e51b8152602060048201526018602482015277115490cdcc8c4e881a5b9d985b1a59081d1bdad95b88125160421b60448201526064016106ab565b60006001600160a01b038216610a6b5760405162461bcd60e51b815260206004820152602960248201527f4552433732313a2061646472657373207a65726f206973206e6f7420612076616044820152683634b21037bbb732b960b91b60648201526084016106ab565b506001600160a01b031660009081526003602052604090205490565b6060600f805461058090611c7e565b610a9e610e6d565b610aa86000611125565b565b60606001805461058090611c7e565b60606000610ac683610a01565b905060008167ffffffffffffffff811115610ae357610ae3611b59565b604051908082528060200260200182016040528015610b0c578160200160208202803683370190505b50905060005b82811015610b5357610b248582610782565b828281518110610b3657610b36611d05565b602090810291909101015280610b4b81611d31565b915050610b12565b509392505050565b600e548111158015610b6d5750600081115b610b7657600080fd5b80600c54610b849190611d4a565b341015610b9057600080fd5b6000610b9b60085490565b90506000805b83811015610c0c57610bb38184611d61565b610bbe906001611d61565b91505b6000828152600260205260409020546001600160a01b031615610bf05781610be881611d31565b925050610bc1565b610bfa3383611177565b80610c0481611d31565b915050610ba1565b50604051838152819033907f4e3883c75cc9c752bb1db2e406a822e4a75067ae77ad9a0a4d179f2709b9e1f6906020015b60405180910390a3505050565b610c55338383611191565b5050565b610c633383610f35565b610c7f5760405162461bcd60e51b81526004016106ab90611cb8565b610c8b84848484611257565b50505050565b6000818152600260205260409020546060906001600160a01b0316610d105760405162461bcd60e51b815260206004820152602f60248201527f4552433732314d657461646174613a2055524920717565727920666f72206e6f60448201526e3732bc34b9ba32b73a103a37b5b2b760891b60648201526084016106ab565b600f610d1b8361128a565b600b604051602001610d2f93929190611e11565b6040516020818303038152906040529050919050565b610d4d610e6d565b6001600160a01b038116610db25760405162461bcd60e51b815260206004820152602660248201527f4f776e61626c653a206e6577206f776e657220697320746865207a65726f206160448201526564647265737360d01b60648201526084016106ab565b610dbb81611125565b50565b60006001600160e01b031982166380ac58cd60e01b1480610def57506001600160e01b03198216635b5e139f60e01b145b8061056b57506301ffc9a760e01b6001600160e01b031983161461056b565b6000818152600260205260409020546001600160a01b0316610dbb5760405162461bcd60e51b8152602060048201526018602482015277115490cdcc8c4e881a5b9d985b1a59081d1bdad95b88125160421b60448201526064016106ab565b600a546001600160a01b03163314610aa85760405162461bcd60e51b815260206004820181905260248201527f4f776e61626c653a2063616c6c6572206973206e6f7420746865206f776e657260448201526064016106ab565b600081815260046020526040902080546001600160a01b0319166001600160a01b0384169081179091558190610efc826109a1565b6001600160a01b03167f8c5be1e5ebec7d5bd14f71427d1e84f3dd0314c0f7b2291e5b200ac8c7c3b92560405160405180910390a45050565b600080610f41836109a1565b9050806001600160a01b0316846001600160a01b03161480610f8857506001600160a01b0380821660009081526005602090815260408083209388168352929052205460ff165b80610fac5750836001600160a01b0316610fa184610603565b6001600160a01b0316145b949350505050565b826001600160a01b0316610fc7826109a1565b6001600160a01b031614610fed5760405162461bcd60e51b81526004016106ab90611e44565b6001600160a01b03821661104f5760405162461bcd60e51b8152602060048201526024808201527f4552433732313a207472616e7366657220746f20746865207a65726f206164646044820152637265737360e01b60648201526084016106ab565b61105c838383600161131d565b826001600160a01b031661106f826109a1565b6001600160a01b0316146110955760405162461bcd60e51b81526004016106ab90611e44565b600081815260046020908152604080832080546001600160a01b03199081169091556001600160a01b0387811680865260038552838620805460001901905590871680865283862080546001019055868652600290945282852080549092168417909155905184937fddf252ad1be2c89b69c2b068fc378daa952ba7f163c4a11628f55a4df523b3ef91a4505050565b600a80546001600160a01b038381166001600160a01b0319831681179093556040519116919082907f8be0079c531659141344cd1fd0a4f28419497f9722a3daafe3b4186f6b6457e090600090a35050565b610c55828260405180602001604052806000815250611451565b816001600160a01b0316836001600160a01b0316036111f25760405162461bcd60e51b815260206004820152601960248201527f4552433732313a20617070726f766520746f2063616c6c65720000000000000060448201526064016106ab565b6001600160a01b03838116600081815260056020908152604080832094871680845294825291829020805460ff191686151590811790915591519182527f17307eab39ab6107e8899845ad3d59bd9653f200f220920489ca2b5937696c319101610c3d565b611262848484610fb4565b61126e84848484611484565b610c8b5760405162461bcd60e51b81526004016106ab90611e89565b6060600061129783611585565b600101905060008167ffffffffffffffff8111156112b7576112b7611b59565b6040519080825280601f01601f1916602001820160405280156112e1576020820181803683370190505b5090508181016020015b600019016f181899199a1a9b1b9c1cb0b131b232b360811b600a86061a8153600a85049450846112eb57509392505050565b600181111561138c5760405162461bcd60e51b815260206004820152603560248201527f455243373231456e756d657261626c653a20636f6e7365637574697665207472604482015274185b9cd9995c9cc81b9bdd081cdd5c1c1bdc9d1959605a1b60648201526084016106ab565b816001600160a01b0385166113e8576113e381600880546000838152600960205260408120829055600182018355919091527ff3f7a9fe364faab93b216da50a3214154f22a0a2b415b23a84c8169e8b636ee30155565b61140b565b836001600160a01b0316856001600160a01b03161461140b5761140b858261165d565b6001600160a01b03841661142757611422816116fa565b61144a565b846001600160a01b0316846001600160a01b03161461144a5761144a84826117a9565b5050505050565b61145b83836117ed565b6114686000848484611484565b61074c5760405162461bcd60e51b81526004016106ab90611e89565b60006001600160a01b0384163b1561157a57604051630a85bd0160e11b81526001600160a01b0385169063150b7a02906114c8903390899088908890600401611edb565b6020604051808303816000875af1925050508015611503575060408051601f3d908101601f1916820190925261150091810190611f18565b60015b611560573d808015611531576040519150601f19603f3d011682016040523d82523d6000602084013e611536565b606091505b5080516000036115585760405162461bcd60e51b81526004016106ab90611e89565b805181602001fd5b6001600160e01b031916630a85bd0160e11b149050610fac565b506001949350505050565b60008072184f03e93ff9f4daa797ed6e38ed64bf6a1f0160401b83106115c45772184f03e93ff9f4daa797ed6e38ed64bf6a1f0160401b830492506040015b6d04ee2d6d415b85acef810000000083106115f0576d04ee2d6d415b85acef8100000000830492506020015b662386f26fc10000831061160e57662386f26fc10000830492506010015b6305f5e1008310611626576305f5e100830492506008015b612710831061163a57612710830492506004015b6064831061164c576064830492506002015b600a831061056b5760010192915050565b6000600161166a84610a01565b6116749190611f35565b6000838152600760205260409020549091508082146116c7576001600160a01b03841660009081526006602090815260408083208584528252808320548484528184208190558352600790915290208190555b5060009182526007602090815260408084208490556001600160a01b039094168352600681528383209183525290812055565b60085460009061170c90600190611f35565b6000838152600960205260408120546008805493945090928490811061173457611734611d05565b90600052602060002001549050806008838154811061175557611755611d05565b600091825260208083209091019290925582815260099091526040808220849055858252812055600880548061178d5761178d611f48565b6001900381819060005260206000200160009055905550505050565b60006117b483610a01565b6001600160a01b039093166000908152600660209081526040808320868452825280832085905593825260079052919091209190915550565b6001600160a01b0382166118435760405162461bcd60e51b815260206004820181905260248201527f4552433732313a206d696e7420746f20746865207a65726f206164647265737360448201526064016106ab565b6000818152600260205260409020546001600160a01b0316156118a85760405162461bcd60e51b815260206004820152601c60248201527f4552433732313a20746f6b656e20616c7265616479206d696e7465640000000060448201526064016106ab565b6118b660008383600161131d565b6000818152600260205260409020546001600160a01b03161561191b5760405162461bcd60e51b815260206004820152601c60248201527f4552433732313a20746f6b656e20616c7265616479206d696e7465640000000060448201526064016106ab565b6001600160a01b038216600081815260036020908152604080832080546001019055848352600290915280822080546001600160a01b0319168417905551839291907fddf252ad1be2c89b69c2b068fc378daa952ba7f163c4a11628f55a4df523b3ef908290a45050565b6001600160e01b031981168114610dbb57600080fd5b6000602082840312156119ae57600080fd5b81356119b981611986565b9392505050565b60005b838110156119db5781810151838201526020016119c3565b50506000910152565b600081518084526119fc8160208601602086016119c0565b601f01601f19169290920160200192915050565b6020815260006119b960208301846119e4565b600060208284031215611a3557600080fd5b5035919050565b80356001600160a01b0381168114611a5357600080fd5b919050565b60008060408385031215611a6b57600080fd5b611a7483611a3c565b946020939093013593505050565b600080600060608486031215611a9757600080fd5b611aa084611a3c565b9250611aae60208501611a3c565b9150604084013590509250925092565b600060208284031215611ad057600080fd5b6119b982611a3c565b6020808252825182820181905260009190848201906040850190845b81811015611b1157835183529284019291840191600101611af5565b50909695505050505050565b60008060408385031215611b3057600080fd5b611b3983611a3c565b915060208301358015158114611b4e57600080fd5b809150509250929050565b634e487b7160e01b600052604160045260246000fd5b60008060008060808587031215611b8557600080fd5b611b8e85611a3c565b9350611b9c60208601611a3c565b925060408501359150606085013567ffffffffffffffff80821115611bc057600080fd5b818701915087601f830112611bd457600080fd5b813581811115611be657611be6611b59565b604051601f8201601f19908116603f01168101908382118183101715611c0e57611c0e611b59565b816040528281528a6020848701011115611c2757600080fd5b82602086016020830137600060208483010152809550505050505092959194509250565b60008060408385031215611c5e57600080fd5b611c6783611a3c565b9150611c7560208401611a3c565b90509250929050565b600181811c90821680611c9257607f821691505b602082108103611cb257634e487b7160e01b600052602260045260246000fd5b50919050565b6020808252602d908201527f4552433732313a2063616c6c6572206973206e6f7420746f6b656e206f776e6560408201526c1c881bdc88185c1c1c9bdd9959609a1b606082015260800190565b634e487b7160e01b600052603260045260246000fd5b634e487b7160e01b600052601160045260246000fd5b600060018201611d4357611d43611d1b565b5060010190565b808202811582820484141761056b5761056b611d1b565b8082018082111561056b5761056b611d1b565b8054600090600181811c9080831680611d8e57607f831692505b60208084108203611daf57634e487b7160e01b600052602260045260246000fd5b818015611dc35760018114611dd857611e05565b60ff1986168952841515850289019650611e05565b60008881526020902060005b86811015611dfd5781548b820152908501908301611de4565b505084890196505b50505050505092915050565b6000611e1d8286611d74565b8451611e2d8183602089016119c0565b611e3981830186611d74565b979650505050505050565b60208082526025908201527f4552433732313a207472616e736665722066726f6d20696e636f72726563742060408201526437bbb732b960d91b606082015260800190565b60208082526032908201527f4552433732313a207472616e7366657220746f206e6f6e20455243373231526560408201527131b2b4bb32b91034b6b83632b6b2b73a32b960711b606082015260800190565b6001600160a01b0385811682528416602082015260408101839052608060608201819052600090611f0e908301846119e4565b9695505050505050565b600060208284031215611f2a57600080fd5b81516119b981611986565b8181038181111561056b5761056b611d1b565b634e487b7160e01b600052603160045260246000fdfea2646970667358221220b1411a4e7a11ef931bc5cd77f4922da2273598c8a3d160a73074f29fc082652664736f6c63430008110033",
  "linkReferences": {},
  "deployedLinkReferences": {}
}