{
  "address": "0xe7f1725E7734CE288F8367e1Bb143E90bb3F0512",
  "abi": [
    {
      "inputs": [
        {
          "internalType": "bytes32",
          "name": "_root",
          "type": "bytes32"
        },
        {
          "internalType": "string",
          "name": "_nftTokenURIs",
          "type": "string"
        },
        {
          "internalType": "address",
          "name": "_nftAddress",
          "type": "address"
        }
      ],
      "stateMutability": "nonpayable",
      "type": "constructor"
    },
    {
      "inputs": [
        {
          "internalType": "address",
          "name": "caller",
          "type": "address"
        }
      ],
      "name": "Airdrop__AlreadyClaimed",
      "type": "error"
    },
    {
      "inputs": [
        {
          "internalType": "address",
          "name": "caller",
          "type": "address"
        }
      ],
      "name": "Airdrop__NotInAllowList",
      "type": "error"
    },
    {
      "anonymous": false,
      "inputs": [
        {
          "indexed": true,
          "internalType": "address",
          "name": "owner",
          "type": "address"
        },
        {
          "indexed": true,
          "internalType": "uint256",
          "name": "tokenId",
          "type": "uint256"
        }
      ],
      "name": "AirdropClaimed",
      "type": "event"
    },
    {
      "anonymous": false,
      "inputs": [
        {
          "indexed": true,
          "internalType": "address",
          "name": "account",
          "type": "address"
        },
        {
          "indexed": true,
          "internalType": "address",
          "name": "operator",
          "type": "address"
        },
        {
          "indexed": false,
          "internalType": "bool",
          "name": "approved",
          "type": "bool"
        }
      ],
      "name": "ApprovalForAll",
      "type": "event"
    },
    {
      "anonymous": false,
      "inputs": [
        {
          "indexed": true,
          "internalType": "address",
          "name": "previousOwner",
          "type": "address"
        },
        {
          "indexed": true,
          "internalType": "address",
          "name": "newOwner",
          "type": "address"
        }
      ],
      "name": "OwnershipTransferred",
      "type": "event"
    },
    {
      "anonymous": false,
      "inputs": [
        {
          "indexed": true,
          "internalType": "address",
          "name": "owner",
          "type": "address"
        },
        {
          "indexed": true,
          "internalType": "uint256",
          "name": "tokenId",
          "type": "uint256"
        }
      ],
      "name": "TokenBurned",
      "type": "event"
    },
    {
      "anonymous": false,
      "inputs": [
        {
          "indexed": true,
          "internalType": "address",
          "name": "operator",
          "type": "address"
        },
        {
          "indexed": true,
          "internalType": "address",
          "name": "from",
          "type": "address"
        },
        {
          "indexed": true,
          "internalType": "address",
          "name": "to",
          "type": "address"
        },
        {
          "indexed": false,
          "internalType": "uint256[]",
          "name": "ids",
          "type": "uint256[]"
        },
        {
          "indexed": false,
          "internalType": "uint256[]",
          "name": "values",
          "type": "uint256[]"
        }
      ],
      "name": "TransferBatch",
      "type": "event"
    },
    {
      "anonymous": false,
      "inputs": [
        {
          "indexed": true,
          "internalType": "address",
          "name": "operator",
          "type": "address"
        },
        {
          "indexed": true,
          "internalType": "address",
          "name": "from",
          "type": "address"
        },
        {
          "indexed": true,
          "internalType": "address",
          "name": "to",
          "type": "address"
        },
        {
          "indexed": false,
          "internalType": "uint256",
          "name": "id",
          "type": "uint256"
        },
        {
          "indexed": false,
          "internalType": "uint256",
          "name": "value",
          "type": "uint256"
        }
      ],
      "name": "TransferSingle",
      "type": "event"
    },
    {
      "anonymous": false,
      "inputs": [
        {
          "indexed": false,
          "internalType": "string",
          "name": "value",
          "type": "string"
        },
        {
          "indexed": true,
          "internalType": "uint256",
          "name": "id",
          "type": "uint256"
        }
      ],
      "name": "URI",
      "type": "event"
    },
    {
      "inputs": [
        {
          "internalType": "address",
          "name": "account",
          "type": "address"
        },
        {
          "internalType": "uint256",
          "name": "id",
          "type": "uint256"
        }
      ],
      "name": "balanceOf",
      "outputs": [
        {
          "internalType": "uint256",
          "name": "",
          "type": "uint256"
        }
      ],
      "stateMutability": "view",
      "type": "function"
    },
    {
      "inputs": [
        {
          "internalType": "address[]",
          "name": "accounts",
          "type": "address[]"
        },
        {
          "internalType": "uint256[]",
          "name": "ids",
          "type": "uint256[]"
        }
      ],
      "name": "balanceOfBatch",
      "outputs": [
        {
          "internalType": "uint256[]",
          "name": "",
          "type": "uint256[]"
        }
      ],
      "stateMutability": "view",
      "type": "function"
    },
    {
      "inputs": [
        {
          "internalType": "address",
          "name": "_account",
          "type": "address"
        },
        {
          "internalType": "uint256",
          "name": "_id",
          "type": "uint256"
        },
        {
          "internalType": "uint256",
          "name": "_amount",
          "type": "uint256"
        }
      ],
      "name": "burn",
      "outputs": [],
      "stateMutability": "nonpayable",
      "type": "function"
    },
    {
      "inputs": [
        {
          "internalType": "address",
          "name": "account",
          "type": "address"
        },
        {
          "internalType": "uint256[]",
          "name": "ids",
          "type": "uint256[]"
        },
        {
          "internalType": "uint256[]",
          "name": "values",
          "type": "uint256[]"
        }
      ],
      "name": "burnBatch",
      "outputs": [],
      "stateMutability": "nonpayable",
      "type": "function"
    },
    {
      "inputs": [
        {
          "internalType": "bytes32[]",
          "name": "_proof",
          "type": "bytes32[]"
        }
      ],
      "name": "canClaim",
      "outputs": [
        {
          "internalType": "bool",
          "name": "",
          "type": "bool"
        }
      ],
      "stateMutability": "view",
      "type": "function"
    },
    {
      "inputs": [
        {
          "internalType": "bytes32[]",
          "name": "_proof",
          "type": "bytes32[]"
        }
      ],
      "name": "claimAirdrop",
      "outputs": [],
      "stateMutability": "nonpayable",
      "type": "function"
    },
    {
      "inputs": [
        {
          "internalType": "address",
          "name": "_address",
          "type": "address"
        }
      ],
      "name": "getClaimStatus",
      "outputs": [
        {
          "internalType": "bool",
          "name": "",
          "type": "bool"
        }
      ],
      "stateMutability": "view",
      "type": "function"
    },
    {
      "inputs": [
        {
          "internalType": "address",
          "name": "_address",
          "type": "address"
        }
      ],
      "name": "getNftBalance",
      "outputs": [
        {
          "internalType": "uint256",
          "name": "",
          "type": "uint256"
        }
      ],
      "stateMutability": "view",
      "type": "function"
    },
    {
      "inputs": [
        {
          "internalType": "address",
          "name": "_owner",
          "type": "address"
        }
      ],
      "name": "getTokenId",
      "outputs": [
        {
          "internalType": "uint256",
          "name": "",
          "type": "uint256"
        }
      ],
      "stateMutability": "view",
      "type": "function"
    },
    {
      "inputs": [],
      "name": "i_root",
      "outputs": [
        {
          "internalType": "bytes32",
          "name": "",
          "type": "bytes32"
        }
      ],
      "stateMutability": "view",
      "type": "function"
    },
    {
      "inputs": [
        {
          "internalType": "address",
          "name": "account",
          "type": "address"
        },
        {
          "internalType": "address",
          "name": "operator",
          "type": "address"
        }
      ],
      "name": "isApprovedForAll",
      "outputs": [
        {
          "internalType": "bool",
          "name": "",
          "type": "bool"
        }
      ],
      "stateMutability": "view",
      "type": "function"
    },
    {
      "inputs": [],
      "name": "owner",
      "outputs": [
        {
          "internalType": "address",
          "name": "",
          "type": "address"
        }
      ],
      "stateMutability": "view",
      "type": "function"
    },
    {
      "inputs": [
        {
          "internalType": "uint256",
          "name": "tokenId",
          "type": "uint256"
        }
      ],
      "name": "ownerOf",
      "outputs": [
        {
          "internalType": "bool",
          "name": "",
          "type": "bool"
        }
      ],
      "stateMutability": "view",
      "type": "function"
    },
    {
      "inputs": [],
      "name": "renounceOwnership",
      "outputs": [],
      "stateMutability": "nonpayable",
      "type": "function"
    },
    {
      "inputs": [
        {
          "internalType": "address",
          "name": "_contractAddress",
          "type": "address"
        }
      ],
      "name": "revokeApproval",
      "outputs": [],
      "stateMutability": "nonpayable",
      "type": "function"
    },
    {
      "inputs": [
        {
          "internalType": "address",
          "name": "",
          "type": "address"
        }
      ],
      "name": "s_claimed",
      "outputs": [
        {
          "internalType": "bool",
          "name": "",
          "type": "bool"
        }
      ],
      "stateMutability": "view",
      "type": "function"
    },
    {
      "inputs": [],
      "name": "s_nftTokenURIs",
      "outputs": [
        {
          "internalType": "string",
          "name": "",
          "type": "string"
        }
      ],
      "stateMutability": "view",
      "type": "function"
    },
    {
      "inputs": [
        {
          "internalType": "uint256",
          "name": "",
          "type": "uint256"
        }
      ],
      "name": "s_tokenOwners",
      "outputs": [
        {
          "internalType": "address",
          "name": "",
          "type": "address"
        }
      ],
      "stateMutability": "view",
      "type": "function"
    },
    {
      "inputs": [
        {
          "internalType": "uint256",
          "name": "",
          "type": "uint256"
        }
      ],
      "name": "s_tokenURIs",
      "outputs": [
        {
          "internalType": "string",
          "name": "",
          "type": "string"
        }
      ],
      "stateMutability": "view",
      "type": "function"
    },
    {
      "inputs": [
        {
          "internalType": "address",
          "name": "from",
          "type": "address"
        },
        {
          "internalType": "address",
          "name": "to",
          "type": "address"
        },
        {
          "internalType": "uint256[]",
          "name": "ids",
          "type": "uint256[]"
        },
        {
          "internalType": "uint256[]",
          "name": "amounts",
          "type": "uint256[]"
        },
        {
          "internalType": "bytes",
          "name": "data",
          "type": "bytes"
        }
      ],
      "name": "safeBatchTransferFrom",
      "outputs": [],
      "stateMutability": "nonpayable",
      "type": "function"
    },
    {
      "inputs": [
        {
          "internalType": "address",
          "name": "from",
          "type": "address"
        },
        {
          "internalType": "address",
          "name": "to",
          "type": "address"
        },
        {
          "internalType": "uint256",
          "name": "id",
          "type": "uint256"
        },
        {
          "internalType": "uint256",
          "name": "amount",
          "type": "uint256"
        },
        {
          "internalType": "bytes",
          "name": "data",
          "type": "bytes"
        }
      ],
      "name": "safeTransferFrom",
      "outputs": [],
      "stateMutability": "nonpayable",
      "type": "function"
    },
    {
      "inputs": [
        {
          "internalType": "address",
          "name": "operator",
          "type": "address"
        },
        {
          "internalType": "bool",
          "name": "approved",
          "type": "bool"
        }
      ],
      "name": "setApprovalForAll",
      "outputs": [],
      "stateMutability": "nonpayable",
      "type": "function"
    },
    {
      "inputs": [
        {
          "internalType": "address",
          "name": "_contractAddress",
          "type": "address"
        }
      ],
      "name": "setApprovedContract",
      "outputs": [],
      "stateMutability": "nonpayable",
      "type": "function"
    },
    {
      "inputs": [
        {
          "internalType": "bytes32",
          "name": "_root",
          "type": "bytes32"
        }
      ],
      "name": "setMerkleRoot",
      "outputs": [],
      "stateMutability": "nonpayable",
      "type": "function"
    },
    {
      "inputs": [
        {
          "internalType": "bytes4",
          "name": "interfaceId",
          "type": "bytes4"
        }
      ],
      "name": "supportsInterface",
      "outputs": [
        {
          "internalType": "bool",
          "name": "",
          "type": "bool"
        }
      ],
      "stateMutability": "view",
      "type": "function"
    },
    {
      "inputs": [
        {
          "internalType": "address",
          "name": "newOwner",
          "type": "address"
        }
      ],
      "name": "transferOwnership",
      "outputs": [],
      "stateMutability": "nonpayable",
      "type": "function"
    },
    {
      "inputs": [
        {
          "internalType": "uint256",
          "name": "",
          "type": "uint256"
        }
      ],
      "name": "uri",
      "outputs": [
        {
          "internalType": "string",
          "name": "",
          "type": "string"
        }
      ],
      "stateMutability": "view",
      "type": "function"
    }
  ],
  "transactionHash": "0xdf9e0b8fe0f742be084804ca16f3edd8468fac17e385145d57ac94ff7820e82d",
  "args": [
    "0x94f9ae854e1f087e27e62c1a89d526f10f4c8b814bf7584bf338b76e88461d96",
    "ipfs://QmT9JJuUya27XKThLvnsB7r1BxTHAyAwRaZc56Ji54h3Fx/",
    "0x5FbDB2315678afecb367f032d93F642f64180aa3"
  ],
  "numDeployments": 1,
  "solcInputHash": "e502874fddf37297622553cb50858e42",
  "bytecode": "0x60806040523480156200001157600080fd5b5060405162002b6138038062002b61833981016040819052620000349162000147565b6040805160208101909152600081526200004e8162000097565b506200005a33620000b0565b600683905560076200006d8382620002c8565b50600580546001600160a01b0319166001600160a01b039290921691909117905550620003949050565b620000ad816200010260201b62000d921760201c565b50565b600380546001600160a01b038381166001600160a01b0319831681179093556040519116919082907f8be0079c531659141344cd1fd0a4f28419497f9722a3daafe3b4186f6b6457e090600090a35050565b6002620001108282620002c8565b5050565b634e487b7160e01b600052604160045260246000fd5b80516001600160a01b03811681146200014257600080fd5b919050565b6000806000606084860312156200015d57600080fd5b8351602080860151919450906001600160401b03808211156200017f57600080fd5b818701915087601f8301126200019457600080fd5b815181811115620001a957620001a962000114565b604051601f8201601f19908116603f01168101908382118183101715620001d457620001d462000114565b816040528281528a86848701011115620001ed57600080fd5b600093505b82841015620002115784840186015181850187015292850192620001f2565b600086848301015280975050505050505062000230604085016200012a565b90509250925092565b600181811c908216806200024e57607f821691505b6020821081036200026f57634e487b7160e01b600052602260045260246000fd5b50919050565b601f821115620002c357600081815260208120601f850160051c810160208610156200029e5750805b601f850160051c820191505b81811015620002bf57828155600101620002aa565b5050505b505050565b81516001600160401b03811115620002e457620002e462000114565b620002fc81620002f5845462000239565b8462000275565b602080601f8311600181146200033457600084156200031b5750858301515b600019600386901b1c1916600185901b178555620002bf565b600085815260208120601f198616915b82811015620003655788860151825594840194600190910190840162000344565b5085821015620003845787850151600019600388901b60f8161c191681555b5050505050600190811b01905550565b6127bd80620003a46000396000f3fe608060405234801561001057600080fd5b50600436106101a85760003560e01c8063715018a6116100f9578063e07ac24311610097578063f153768611610071578063f1537686146103fb578063f242432a14610424578063f2fde38b14610437578063f5298aca1461044a57600080fd5b8063e07ac2431461038e578063e1e4fec014610396578063e985e9c5146103bf57600080fd5b80638da5cb5b116100d35780638da5cb5b14610317578063a22cb4651461033c578063c637954b1461034f578063c9760f711461036257600080fd5b8063715018a6146102d957806374b3c7ec146102e15780637cb647591461030457600080fd5b80634d75bbf9116101665780635c014863116101405780635c0148631461028d5780636352211e146102a057806369242dc6146102b35780636b20c454146102c657600080fd5b80634d75bbf9146102515780634e1273f41461025a57806353223ab01461027a57600080fd5b8062fdd58e146101ad57806301ffc9a7146101d35780630e89341c146101f65780631e40dff4146102165780632eb2c2d614610229578063484685b01461023e575b600080fd5b6101c06101bb366004611b78565b61045d565b6040519081526020015b60405180910390f35b6101e66101e1366004611bb8565b6104f6565b60405190151581526020016101ca565b610209610204366004611bd5565b610546565b6040516101ca9190611c3e565b6101e6610224366004611c51565b6105da565b61023c610237366004611e12565b61066d565b005b61023c61024c366004611ebc565b6106b9565b6101c060065481565b61026d610268366004611ed7565b6106e2565b6040516101ca9190611fdd565b61023c610288366004611ff0565b61080c565b61020961029b366004611bd5565b610a0a565b6101e66102ae366004611bd5565b610aa4565b61023c6102c1366004611ebc565b610ab8565b61023c6102d436600461208c565b610ae4565b61023c610b2c565b6101e66102ef366004611ebc565b60086020526000908152604090205460ff1681565b61023c610312366004611bd5565b610b40565b6003546001600160a01b03165b6040516001600160a01b0390911681526020016101ca565b61023c61034a366004612100565b610b4d565b6101c061035d366004611ebc565b610b5c565b6101e6610370366004611ebc565b6001600160a01b031660009081526008602052604090205460ff1690565b610209610bcb565b6103246103a4366004611bd5565b600c602052600090815260409020546001600160a01b031681565b6101e66103cd36600461213c565b6001600160a01b03918216600090815260016020908152604080832093909416825291909152205460ff1690565b6101c0610409366004611ebc565b6001600160a01b03166000908152600a602052604090205490565b61023c61043236600461216f565b610bd8565b61023c610445366004611ebc565b610c1d565b61023c6104583660046121d4565b610c96565b60006001600160a01b0383166104cd5760405162461bcd60e51b815260206004820152602a60248201527f455243313135353a2061646472657373207a65726f206973206e6f742061207660448201526930b634b21037bbb732b960b11b60648201526084015b60405180910390fd5b506000818152602081815260408083206001600160a01b03861684529091529020545b92915050565b60006001600160e01b03198216636cdb3d1360e11b148061052757506001600160e01b031982166303a24d0760e21b145b806104f057506301ffc9a760e01b6001600160e01b03198316146104f0565b60606002805461055590612207565b80601f016020809104026020016040519081016040528092919081815260200182805461058190612207565b80156105ce5780601f106105a3576101008083540402835291602001916105ce565b820191906000526020600020905b8154815290600101906020018083116105b157829003601f168201915b50505050509050919050565b3360009081526008602052604081205460ff161580156106665750610666838380806020026020016040519081016040528093929190818152602001838360200280828437600092019190915250506006546040516001600160601b03193360601b16602082015290925060340190505b60405160208183030381529060405280519060200120610d9e565b9392505050565b6001600160a01b038516331480610689575061068985336103cd565b6106a55760405162461bcd60e51b81526004016104c490612241565b6106b28585858585610db4565b5050505050565b6106c1610f5e565b6001600160a01b03166000908152600e60205260409020805460ff19169055565b606081518351146107475760405162461bcd60e51b815260206004820152602960248201527f455243313135353a206163636f756e747320616e6420696473206c656e677468604482015268040dad2e6dac2e8c6d60bb1b60648201526084016104c4565b6000835167ffffffffffffffff81111561076357610763611cc6565b60405190808252806020026020018201604052801561078c578160200160208202803683370190505b50905060005b8451811015610804576107d78582815181106107b0576107b061228f565b60200260200101518583815181106107ca576107ca61228f565b602002602001015161045d565b8282815181106107e9576107e961228f565b60209081029190910101526107fd816122bb565b9050610792565b509392505050565b3360009081526008602052604090205460ff161561083f5760405163e0cd221960e01b81523360048201526024016104c4565b61084881610fb8565b6108675760405163ae18156360e01b81523360048201526024016104c4565b6005546040516370a0823160e01b81523360048201526000916001600160a01b0316906370a0823190602401602060405180830381865afa1580156108b0573d6000803e3d6000fd5b505050506040513d601f19601f820116820180604052508101906108d491906122d4565b9050600081116109265760405162461bcd60e51b815260206004820152601b60248201527f41697264726f703a204e6f20746f6b656e7320746f20636c61696d000000000060448201526064016104c4565b60005b818110156109eb57600061093d3383610fe3565b905061095a33828560405180602001604052806000815250611123565b6000818152600c6020526040902080546001600160a01b0319163390811790915561098490611165565b6000828152600d602052604090209061099d9082612333565b50336000818152600a6020526040808220849055518392917f650e45f04ef8a0c267b2f78d983913f69ae3a353b2b32de5429307522be0ab5591a350806109e3816122bb565b915050610929565b5050336000908152600860205260409020805460ff1916600117905550565b600d6020526000908152604090208054610a2390612207565b80601f0160208091040260200160405190810160405280929190818152602001828054610a4f90612207565b8015610a9c5780601f10610a7157610100808354040283529160200191610a9c565b820191906000526020600020905b815481529060010190602001808311610a7f57829003601f168201915b505050505081565b6000610ab0338361045d565b151592915050565b610ac0610f5e565b6001600160a01b03166000908152600e60205260409020805460ff19166001179055565b6001600160a01b038316331480610b005750610b0083336103cd565b610b1c5760405162461bcd60e51b81526004016104c490612241565b610b2783838361119f565b505050565b610b34610f5e565b610b3e600061133c565b565b610b48610f5e565b600655565b610b5833838361138e565b5050565b6005546040516370a0823160e01b81526001600160a01b03838116600483015260009216906370a0823190602401602060405180830381865afa158015610ba7573d6000803e3d6000fd5b505050506040513d601f19601f820116820180604052508101906104f091906122d4565b60078054610a2390612207565b6001600160a01b038516331480610bf45750610bf485336103cd565b610c105760405162461bcd60e51b81526004016104c490612241565b6106b2858585858561146e565b610c25610f5e565b6001600160a01b038116610c8a5760405162461bcd60e51b815260206004820152602660248201527f4f776e61626c653a206e6577206f776e657220697320746865207a65726f206160448201526564647265737360d01b60648201526084016104c4565b610c938161133c565b50565b6000828152600c60205260409020546001600160a01b03848116911614610d155760405162461bcd60e51b815260206004820152602d60248201527f41697264726f703a2063616c6c6572206973206e6f7420746865206f776e657260448201526c1037b3103a3432903a37b5b2b760991b60648201526084016104c4565b610d20838383611594565b60408051838152602081018390526000916001600160a01b038616913391600080516020612768833981519152910160405180910390a460405182906001600160a01b038516907f1af5163f80e79b5e554f61e1d052084d3a3fe1166e42a265798c4e2ddce8ffa290600090a3505050565b6002610b588282612333565b600082610dab85846115d0565b14949350505050565b8151835114610dd55760405162461bcd60e51b81526004016104c4906123f3565b6001600160a01b038416610dfb5760405162461bcd60e51b81526004016104c49061243b565b33610e0a818787878787611615565b60005b8451811015610ef0576000858281518110610e2a57610e2a61228f565b602002602001015190506000858381518110610e4857610e4861228f565b602090810291909101810151600084815280835260408082206001600160a01b038e168352909352919091205490915081811015610e985760405162461bcd60e51b81526004016104c490612480565b6000838152602081815260408083206001600160a01b038e8116855292528083208585039055908b16825281208054849290610ed59084906124ca565b9250508190555050505080610ee9906122bb565b9050610e0d565b50846001600160a01b0316866001600160a01b0316826001600160a01b03167f4a39dc06d4c0dbc64b70af90fd698a233a518aa5d07e595d983b8c0526c8f7fb8787604051610f409291906124dd565b60405180910390a4610f568187878787876116b5565b505050505050565b6003546001600160a01b03163314610b3e5760405162461bcd60e51b815260206004820181905260248201527f4f776e61626c653a2063616c6c6572206973206e6f7420746865206f776e657260448201526064016104c4565b6006546040516001600160601b03193360601b1660208201526000916104f09184919060340161064b565b6005546040516370a0823160e01b81526001600160a01b03848116600483015260009283929116906370a0823190602401602060405180830381865afa158015611031573d6000803e3d6000fd5b505050506040513d601f19601f8201168201806040525081019061105591906122d4565b90508083106110a65760405162461bcd60e51b815260206004820152601c60248201527f41697264726f703a20696e646578206f7574206f6620626f756e64730000000060448201526064016104c4565b600554604051632f745c5960e01b81526001600160a01b0386811660048301526024820186905290911690632f745c5990604401602060405180830381865afa1580156110f7573d6000803e3d6000fd5b505050506040513d601f19601f8201168201806040525081019061111b91906122d4565b949350505050565b61112f84848484611819565b50506000818152600960209081526040808320805460ff191660011790556001600160a01b039094168252600a90529190912055565b606060006111736000610546565b9050808360405160200161118892919061250b565b604051602081830303815290604052915050919050565b6001600160a01b0383166111c55760405162461bcd60e51b81526004016104c49061253d565b80518251146111e65760405162461bcd60e51b81526004016104c4906123f3565b600033905061120981856000868660405180602001604052806000815250611615565b60005b83518110156112ce5760008482815181106112295761122961228f565b6020026020010151905060008483815181106112475761124761228f565b602090810291909101810151600084815280835260408082206001600160a01b038c1683529093529190912054909150818110156112975760405162461bcd60e51b81526004016104c490612580565b6000928352602083815260408085206001600160a01b038b16865290915290922091039055806112c6816122bb565b91505061120c565b5060006001600160a01b0316846001600160a01b0316826001600160a01b03167f4a39dc06d4c0dbc64b70af90fd698a233a518aa5d07e595d983b8c0526c8f7fb868660405161131f9291906124dd565b60405180910390a460408051602081019091526000905250505050565b600380546001600160a01b038381166001600160a01b0319831681179093556040519116919082907f8be0079c531659141344cd1fd0a4f28419497f9722a3daafe3b4186f6b6457e090600090a35050565b816001600160a01b0316836001600160a01b0316036114015760405162461bcd60e51b815260206004820152602960248201527f455243313135353a2073657474696e6720617070726f76616c20737461747573604482015268103337b91039b2b63360b91b60648201526084016104c4565b6001600160a01b03838116600081815260016020908152604080832094871680845294825291829020805460ff191686151590811790915591519182527f17307eab39ab6107e8899845ad3d59bd9653f200f220920489ca2b5937696c31910160405180910390a3505050565b6001600160a01b0384166114945760405162461bcd60e51b81526004016104c49061243b565b3360006114a085611921565b905060006114ad85611921565b90506114bd838989858589611615565b6000868152602081815260408083206001600160a01b038c168452909152902054858110156114fe5760405162461bcd60e51b81526004016104c490612480565b6000878152602081815260408083206001600160a01b038d8116855292528083208985039055908a1682528120805488929061153b9084906124ca565b909155505060408051888152602081018890526001600160a01b03808b16928c82169291881691600080516020612768833981519152910160405180910390a4611589848a8a8a8a8a61196c565b505050505050505050565b61159f838383611a27565b506000908152600960209081526040808320805460ff191690556001600160a01b039093168252600a905290812055565b600081815b845181101561080457611601828683815181106115f4576115f461228f565b6020026020010151611b2d565b91508061160d816122bb565b9150506115d5565b6001600160a01b03851615610f56576001600160a01b0384161580159061165557506001600160a01b0384166000908152600e602052604090205460ff16155b15610f565760405162461bcd60e51b815260206004820152602a60248201527f41697264726f703a207472616e7366657220746f206e6f6e20617070726f7665604482015269190818dbdb9d1c9858dd60b21b60648201526084016104c4565b6001600160a01b0384163b15610f565760405163bc197c8160e01b81526001600160a01b0385169063bc197c81906116f990899089908890889088906004016125c4565b6020604051808303816000875af1925050508015611734575060408051601f3d908101601f1916820190925261173191810190612622565b60015b6117e05761174061263f565b806308c379a003611779575061175461265b565b8061175f575061177b565b8060405162461bcd60e51b81526004016104c49190611c3e565b505b60405162461bcd60e51b815260206004820152603460248201527f455243313135353a207472616e7366657220746f206e6f6e2d455243313135356044820152732932b1b2b4bb32b91034b6b83632b6b2b73a32b960611b60648201526084016104c4565b6001600160e01b0319811663bc197c8160e01b146118105760405162461bcd60e51b81526004016104c4906126e5565b50505050505050565b6001600160a01b0384166118795760405162461bcd60e51b815260206004820152602160248201527f455243313135353a206d696e7420746f20746865207a65726f206164647265736044820152607360f81b60648201526084016104c4565b33600061188585611921565b9050600061189285611921565b90506118a383600089858589611615565b6000868152602081815260408083206001600160a01b038b168452909152812080548792906118d39084906124ca565b909155505060408051878152602081018790526001600160a01b03808a169260009291871691600080516020612768833981519152910160405180910390a46118108360008989898961196c565b6040805160018082528183019092526060916000919060208083019080368337019050509050828160008151811061195b5761195b61228f565b602090810291909101015292915050565b6001600160a01b0384163b15610f565760405163f23a6e6160e01b81526001600160a01b0385169063f23a6e61906119b0908990899088908890889060040161272d565b6020604051808303816000875af19250505080156119eb575060408051601f3d908101601f191682019092526119e891810190612622565b60015b6119f75761174061263f565b6001600160e01b0319811663f23a6e6160e01b146118105760405162461bcd60e51b81526004016104c4906126e5565b6001600160a01b038316611a4d5760405162461bcd60e51b81526004016104c49061253d565b336000611a5984611921565b90506000611a6684611921565b9050611a8683876000858560405180602001604052806000815250611615565b6000858152602081815260408083206001600160a01b038a16845290915290205484811015611ac75760405162461bcd60e51b81526004016104c490612580565b6000868152602081815260408083206001600160a01b038b81168086529184528285208a8703905582518b81529384018a9052909290881691600080516020612768833981519152910160405180910390a4604080516020810190915260009052611810565b6000818310611b49576000828152602084905260409020610666565b6000838152602083905260409020610666565b80356001600160a01b0381168114611b7357600080fd5b919050565b60008060408385031215611b8b57600080fd5b611b9483611b5c565b946020939093013593505050565b6001600160e01b031981168114610c9357600080fd5b600060208284031215611bca57600080fd5b813561066681611ba2565b600060208284031215611be757600080fd5b5035919050565b60005b83811015611c09578181015183820152602001611bf1565b50506000910152565b60008151808452611c2a816020860160208601611bee565b601f01601f19169290920160200192915050565b6020815260006106666020830184611c12565b60008060208385031215611c6457600080fd5b823567ffffffffffffffff80821115611c7c57600080fd5b818501915085601f830112611c9057600080fd5b813581811115611c9f57600080fd5b8660208260051b8501011115611cb457600080fd5b60209290920196919550909350505050565b634e487b7160e01b600052604160045260246000fd5b601f8201601f1916810167ffffffffffffffff81118282101715611d0257611d02611cc6565b6040525050565b600067ffffffffffffffff821115611d2357611d23611cc6565b5060051b60200190565b600082601f830112611d3e57600080fd5b81356020611d4b82611d09565b604051611d588282611cdc565b83815260059390931b8501820192828101915086841115611d7857600080fd5b8286015b84811015611d935780358352918301918301611d7c565b509695505050505050565b600082601f830112611daf57600080fd5b813567ffffffffffffffff811115611dc957611dc9611cc6565b604051611de0601f8301601f191660200182611cdc565b818152846020838601011115611df557600080fd5b816020850160208301376000918101602001919091529392505050565b600080600080600060a08688031215611e2a57600080fd5b611e3386611b5c565b9450611e4160208701611b5c565b9350604086013567ffffffffffffffff80821115611e5e57600080fd5b611e6a89838a01611d2d565b94506060880135915080821115611e8057600080fd5b611e8c89838a01611d2d565b93506080880135915080821115611ea257600080fd5b50611eaf88828901611d9e565b9150509295509295909350565b600060208284031215611ece57600080fd5b61066682611b5c565b60008060408385031215611eea57600080fd5b823567ffffffffffffffff80821115611f0257600080fd5b818501915085601f830112611f1657600080fd5b81356020611f2382611d09565b604051611f308282611cdc565b83815260059390931b8501820192828101915089841115611f5057600080fd5b948201945b83861015611f7557611f6686611b5c565b82529482019490820190611f55565b96505086013592505080821115611f8b57600080fd5b50611f9885828601611d2d565b9150509250929050565b600081518084526020808501945080840160005b83811015611fd257815187529582019590820190600101611fb6565b509495945050505050565b6020815260006106666020830184611fa2565b6000602080838503121561200357600080fd5b823567ffffffffffffffff81111561201a57600080fd5b8301601f8101851361202b57600080fd5b803561203681611d09565b6040516120438282611cdc565b82815260059290921b830184019184810191508783111561206357600080fd5b928401925b8284101561208157833582529284019290840190612068565b979650505050505050565b6000806000606084860312156120a157600080fd5b6120aa84611b5c565b9250602084013567ffffffffffffffff808211156120c757600080fd5b6120d387838801611d2d565b935060408601359150808211156120e957600080fd5b506120f686828701611d2d565b9150509250925092565b6000806040838503121561211357600080fd5b61211c83611b5c565b91506020830135801515811461213157600080fd5b809150509250929050565b6000806040838503121561214f57600080fd5b61215883611b5c565b915061216660208401611b5c565b90509250929050565b600080600080600060a0868803121561218757600080fd5b61219086611b5c565b945061219e60208701611b5c565b93506040860135925060608601359150608086013567ffffffffffffffff8111156121c857600080fd5b611eaf88828901611d9e565b6000806000606084860312156121e957600080fd5b6121f284611b5c565b95602085013595506040909401359392505050565b600181811c9082168061221b57607f821691505b60208210810361223b57634e487b7160e01b600052602260045260246000fd5b50919050565b6020808252602e908201527f455243313135353a2063616c6c6572206973206e6f7420746f6b656e206f776e60408201526d195c881bdc88185c1c1c9bdd995960921b606082015260800190565b634e487b7160e01b600052603260045260246000fd5b634e487b7160e01b600052601160045260246000fd5b6000600182016122cd576122cd6122a5565b5060010190565b6000602082840312156122e657600080fd5b5051919050565b601f821115610b2757600081815260208120601f850160051c810160208610156123145750805b601f850160051c820191505b81811015610f5657828155600101612320565b815167ffffffffffffffff81111561234d5761234d611cc6565b6123618161235b8454612207565b846122ed565b602080601f831160018114612396576000841561237e5750858301515b600019600386901b1c1916600185901b178555610f56565b600085815260208120601f198616915b828110156123c5578886015182559484019460019091019084016123a6565b50858210156123e35787850151600019600388901b60f8161c191681555b5050505050600190811b01905550565b60208082526028908201527f455243313135353a2069647320616e6420616d6f756e7473206c656e677468206040820152670dad2e6dac2e8c6d60c31b606082015260800190565b60208082526025908201527f455243313135353a207472616e7366657220746f20746865207a65726f206164604082015264647265737360d81b606082015260800190565b6020808252602a908201527f455243313135353a20696e73756666696369656e742062616c616e636520666f60408201526939103a3930b739b332b960b11b606082015260800190565b808201808211156104f0576104f06122a5565b6040815260006124f06040830185611fa2565b82810360208401526125028185611fa2565b95945050505050565b6000835161251d818460208801611bee565b60609390931b6001600160601b0319169190920190815260140192915050565b60208082526023908201527f455243313135353a206275726e2066726f6d20746865207a65726f206164647260408201526265737360e81b606082015260800190565b60208082526024908201527f455243313135353a206275726e20616d6f756e7420657863656564732062616c604082015263616e636560e01b606082015260800190565b6001600160a01b0386811682528516602082015260a0604082018190526000906125f090830186611fa2565b82810360608401526126028186611fa2565b905082810360808401526126168185611c12565b98975050505050505050565b60006020828403121561263457600080fd5b815161066681611ba2565b600060033d11156126585760046000803e5060005160e01c5b90565b600060443d10156126695790565b6040516003193d81016004833e81513d67ffffffffffffffff816024840111818411171561269957505050505090565b82850191508151818111156126b15750505050505090565b843d87010160208285010111156126cb5750505050505090565b6126da60208286010187611cdc565b509095945050505050565b60208082526028908201527f455243313135353a204552433131353552656365697665722072656a656374656040820152676420746f6b656e7360c01b606082015260800190565b6001600160a01b03868116825285166020820152604081018490526060810183905260a06080820181905260009061208190830184611c1256fec3d58168c5ae7397731d063d5bbf3d657854427343f4c083240f7aacaa2d0f62a2646970667358221220cea57193fa976652491887490b0abc7e84877430b400637076fa470b2f591f0e64736f6c63430008110033",
  "devdoc": {
    "events": {
      "AirdropClaimed(address,uint256)": {
        "details": "This event will be emitted inside mintNFT function",
        "params": {
          "owner": "Address of the owner of the NFT",
          "tokenId": "ID of the minted NFT"
        }
      }
    },
    "kind": "dev",
    "methods": {
      "balanceOf(address,uint256)": {
        "details": "See {IERC1155-balanceOf}. Requirements: - `account` cannot be the zero address."
      },
      "balanceOfBatch(address[],uint256[])": {
        "details": "See {IERC1155-balanceOfBatch}. Requirements: - `accounts` and `ids` must have the same length."
      },
      "claimAirdrop(bytes32[])": {
        "details": "This function will mint NFTs to the caller",
        "params": {
          "_proof": "will be the hex value of the proof with the give caller address generated from the merkle tree"
        }
      },
      "constructor": {
        "params": {
          "_nftAddress": "Address of the NFT contract",
          "_nftTokenURIs": "NFT token URIs",
          "_root": "Merkle root of the airdrop"
        }
      },
      "isApprovedForAll(address,address)": {
        "details": "See {IERC1155-isApprovedForAll}."
      },
      "owner()": {
        "details": "Returns the address of the current owner."
      },
      "renounceOwnership()": {
        "details": "Leaves the contract without owner. It will not be possible to call `onlyOwner` functions. Can only be called by the current owner. NOTE: Renouncing ownership will leave the contract without an owner, thereby disabling any functionality that is only available to the owner."
      },
      "safeBatchTransferFrom(address,address,uint256[],uint256[],bytes)": {
        "details": "See {IERC1155-safeBatchTransferFrom}."
      },
      "safeTransferFrom(address,address,uint256,uint256,bytes)": {
        "details": "See {IERC1155-safeTransferFrom}."
      },
      "setApprovalForAll(address,bool)": {
        "details": "See {IERC1155-setApprovalForAll}."
      },
      "supportsInterface(bytes4)": {
        "details": "See {IERC165-supportsInterface}."
      },
      "transferOwnership(address)": {
        "details": "Transfers ownership of the contract to a new account (`newOwner`). Can only be called by the current owner."
      },
      "uri(uint256)": {
        "details": "See {IERC1155MetadataURI-uri}. This implementation returns the same URI for *all* token types. It relies on the token type ID substitution mechanism https://eips.ethereum.org/EIPS/eip-1155#metadata[defined in the EIP]. Clients calling this function must replace the `\\{id\\}` substring with the actual token type ID."
      }
    },
    "version": 1
  },
  "userdoc": {
    "kind": "user",
    "methods": {},
    "version": 1
  },
  "storageLayout": {
    "storage": [
      {
        "astId": 166,
        "contract": "contracts/Airdrop.sol:Airdrop",
        "label": "_balances",
        "offset": 0,
        "slot": "0",
        "type": "t_mapping(t_uint256,t_mapping(t_address,t_uint256))"
      },
      {
        "astId": 172,
        "contract": "contracts/Airdrop.sol:Airdrop",
        "label": "_operatorApprovals",
        "offset": 0,
        "slot": "1",
        "type": "t_mapping(t_address,t_mapping(t_address,t_bool))"
      },
      {
        "astId": 174,
        "contract": "contracts/Airdrop.sol:Airdrop",
        "label": "_uri",
        "offset": 0,
        "slot": "2",
        "type": "t_string_storage"
      },
      {
        "astId": 7,
        "contract": "contracts/Airdrop.sol:Airdrop",
        "label": "_owner",
        "offset": 0,
        "slot": "3",
        "type": "t_address"
      },
      {
        "astId": 5112,
        "contract": "contracts/Airdrop.sol:Airdrop",
        "label": "s_tokenCounter",
        "offset": 0,
        "slot": "4",
        "type": "t_struct(Counter)3243_storage"
      },
      {
        "astId": 5115,
        "contract": "contracts/Airdrop.sol:Airdrop",
        "label": "s_nftContract",
        "offset": 0,
        "slot": "5",
        "type": "t_contract(IERC721Enumerable)2858"
      },
      {
        "astId": 5117,
        "contract": "contracts/Airdrop.sol:Airdrop",
        "label": "i_root",
        "offset": 0,
        "slot": "6",
        "type": "t_bytes32"
      },
      {
        "astId": 5119,
        "contract": "contracts/Airdrop.sol:Airdrop",
        "label": "s_nftTokenURIs",
        "offset": 0,
        "slot": "7",
        "type": "t_string_storage"
      },
      {
        "astId": 5123,
        "contract": "contracts/Airdrop.sol:Airdrop",
        "label": "s_claimed",
        "offset": 0,
        "slot": "8",
        "type": "t_mapping(t_address,t_bool)"
      },
      {
        "astId": 5127,
        "contract": "contracts/Airdrop.sol:Airdrop",
        "label": "s_exists",
        "offset": 0,
        "slot": "9",
        "type": "t_mapping(t_uint256,t_bool)"
      },
      {
        "astId": 5131,
        "contract": "contracts/Airdrop.sol:Airdrop",
        "label": "s_tokenIds",
        "offset": 0,
        "slot": "10",
        "type": "t_mapping(t_address,t_uint256)"
      },
      {
        "astId": 5137,
        "contract": "contracts/Airdrop.sol:Airdrop",
        "label": "s_nftTokenAmount",
        "offset": 0,
        "slot": "11",
        "type": "t_mapping(t_address,t_mapping(t_uint256,t_uint256))"
      },
      {
        "astId": 5141,
        "contract": "contracts/Airdrop.sol:Airdrop",
        "label": "s_tokenOwners",
        "offset": 0,
        "slot": "12",
        "type": "t_mapping(t_uint256,t_address)"
      },
      {
        "astId": 5145,
        "contract": "contracts/Airdrop.sol:Airdrop",
        "label": "s_tokenURIs",
        "offset": 0,
        "slot": "13",
        "type": "t_mapping(t_uint256,t_string_storage)"
      },
      {
        "astId": 5149,
        "contract": "contracts/Airdrop.sol:Airdrop",
        "label": "s_approvedContracts",
        "offset": 0,
        "slot": "14",
        "type": "t_mapping(t_address,t_bool)"
      }
    ],
    "types": {
      "t_address": {
        "encoding": "inplace",
        "label": "address",
        "numberOfBytes": "20"
      },
      "t_bool": {
        "encoding": "inplace",
        "label": "bool",
        "numberOfBytes": "1"
      },
      "t_bytes32": {
        "encoding": "inplace",
        "label": "bytes32",
        "numberOfBytes": "32"
      },
      "t_contract(IERC721Enumerable)2858": {
        "encoding": "inplace",
        "label": "contract IERC721Enumerable",
        "numberOfBytes": "20"
      },
      "t_mapping(t_address,t_bool)": {
        "encoding": "mapping",
        "key": "t_address",
        "label": "mapping(address => bool)",
        "numberOfBytes": "32",
        "value": "t_bool"
      },
      "t_mapping(t_address,t_mapping(t_address,t_bool))": {
        "encoding": "mapping",
        "key": "t_address",
        "label": "mapping(address => mapping(address => bool))",
        "numberOfBytes": "32",
        "value": "t_mapping(t_address,t_bool)"
      },
      "t_mapping(t_address,t_mapping(t_uint256,t_uint256))": {
        "encoding": "mapping",
        "key": "t_address",
        "label": "mapping(address => mapping(uint256 => uint256))",
        "numberOfBytes": "32",
        "value": "t_mapping(t_uint256,t_uint256)"
      },
      "t_mapping(t_address,t_uint256)": {
        "encoding": "mapping",
        "key": "t_address",
        "label": "mapping(address => uint256)",
        "numberOfBytes": "32",
        "value": "t_uint256"
      },
      "t_mapping(t_uint256,t_address)": {
        "encoding": "mapping",
        "key": "t_uint256",
        "label": "mapping(uint256 => address)",
        "numberOfBytes": "32",
        "value": "t_address"
      },
      "t_mapping(t_uint256,t_bool)": {
        "encoding": "mapping",
        "key": "t_uint256",
        "label": "mapping(uint256 => bool)",
        "numberOfBytes": "32",
        "value": "t_bool"
      },
      "t_mapping(t_uint256,t_mapping(t_address,t_uint256))": {
        "encoding": "mapping",
        "key": "t_uint256",
        "label": "mapping(uint256 => mapping(address => uint256))",
        "numberOfBytes": "32",
        "value": "t_mapping(t_address,t_uint256)"
      },
      "t_mapping(t_uint256,t_string_storage)": {
        "encoding": "mapping",
        "key": "t_uint256",
        "label": "mapping(uint256 => string)",
        "numberOfBytes": "32",
        "value": "t_string_storage"
      },
      "t_mapping(t_uint256,t_uint256)": {
        "encoding": "mapping",
        "key": "t_uint256",
        "label": "mapping(uint256 => uint256)",
        "numberOfBytes": "32",
        "value": "t_uint256"
      },
      "t_string_storage": {
        "encoding": "bytes",
        "label": "string",
        "numberOfBytes": "32"
      },
      "t_struct(Counter)3243_storage": {
        "encoding": "inplace",
        "label": "struct Counters.Counter",
        "members": [
          {
            "astId": 3242,
            "contract": "contracts/Airdrop.sol:Airdrop",
            "label": "_value",
            "offset": 0,
            "slot": "0",
            "type": "t_uint256"
          }
        ],
        "numberOfBytes": "32"
      },
      "t_uint256": {
        "encoding": "inplace",
        "label": "uint256",
        "numberOfBytes": "32"
      }
    }
  }
}