{
  "address": "0xe7f1725E7734CE288F8367e1Bb143E90bb3F0512",
  "abi": [
    {
      "inputs": [
        {
          "internalType": "bytes32",
          "name": "_root",
          "type": "bytes32"
        },
        {
          "internalType": "string",
          "name": "_nftTokenURIs",
          "type": "string"
        },
        {
          "internalType": "address",
          "name": "_nftAddress",
          "type": "address"
        }
      ],
      "stateMutability": "nonpayable",
      "type": "constructor"
    },
    {
      "inputs": [
        {
          "internalType": "address",
          "name": "caller",
          "type": "address"
        }
      ],
      "name": "Airdrop__AlreadyClaimed",
      "type": "error"
    },
    {
      "inputs": [
        {
          "internalType": "address",
          "name": "caller",
          "type": "address"
        }
      ],
      "name": "Airdrop__NotInAllowList",
      "type": "error"
    },
    {
      "anonymous": false,
      "inputs": [
        {
          "indexed": true,
          "internalType": "address",
          "name": "owner",
          "type": "address"
        },
        {
          "indexed": true,
          "internalType": "uint256",
          "name": "tokenId",
          "type": "uint256"
        }
      ],
      "name": "AirdropClaimed",
      "type": "event"
    },
    {
      "anonymous": false,
      "inputs": [
        {
          "indexed": true,
          "internalType": "address",
          "name": "account",
          "type": "address"
        },
        {
          "indexed": true,
          "internalType": "address",
          "name": "operator",
          "type": "address"
        },
        {
          "indexed": false,
          "internalType": "bool",
          "name": "approved",
          "type": "bool"
        }
      ],
      "name": "ApprovalForAll",
      "type": "event"
    },
    {
      "anonymous": false,
      "inputs": [
        {
          "indexed": true,
          "internalType": "address",
          "name": "previousOwner",
          "type": "address"
        },
        {
          "indexed": true,
          "internalType": "address",
          "name": "newOwner",
          "type": "address"
        }
      ],
      "name": "OwnershipTransferred",
      "type": "event"
    },
    {
      "anonymous": false,
      "inputs": [
        {
          "indexed": true,
          "internalType": "address",
          "name": "owner",
          "type": "address"
        },
        {
          "indexed": true,
          "internalType": "uint256",
          "name": "tokenId",
          "type": "uint256"
        }
      ],
      "name": "TokenBurned",
      "type": "event"
    },
    {
      "anonymous": false,
      "inputs": [
        {
          "indexed": true,
          "internalType": "address",
          "name": "operator",
          "type": "address"
        },
        {
          "indexed": true,
          "internalType": "address",
          "name": "from",
          "type": "address"
        },
        {
          "indexed": true,
          "internalType": "address",
          "name": "to",
          "type": "address"
        },
        {
          "indexed": false,
          "internalType": "uint256[]",
          "name": "ids",
          "type": "uint256[]"
        },
        {
          "indexed": false,
          "internalType": "uint256[]",
          "name": "values",
          "type": "uint256[]"
        }
      ],
      "name": "TransferBatch",
      "type": "event"
    },
    {
      "anonymous": false,
      "inputs": [
        {
          "indexed": true,
          "internalType": "address",
          "name": "operator",
          "type": "address"
        },
        {
          "indexed": true,
          "internalType": "address",
          "name": "from",
          "type": "address"
        },
        {
          "indexed": true,
          "internalType": "address",
          "name": "to",
          "type": "address"
        },
        {
          "indexed": false,
          "internalType": "uint256",
          "name": "id",
          "type": "uint256"
        },
        {
          "indexed": false,
          "internalType": "uint256",
          "name": "value",
          "type": "uint256"
        }
      ],
      "name": "TransferSingle",
      "type": "event"
    },
    {
      "anonymous": false,
      "inputs": [
        {
          "indexed": false,
          "internalType": "string",
          "name": "value",
          "type": "string"
        },
        {
          "indexed": true,
          "internalType": "uint256",
          "name": "id",
          "type": "uint256"
        }
      ],
      "name": "URI",
      "type": "event"
    },
    {
      "inputs": [
        {
          "internalType": "address",
          "name": "account",
          "type": "address"
        },
        {
          "internalType": "uint256",
          "name": "id",
          "type": "uint256"
        }
      ],
      "name": "balanceOf",
      "outputs": [
        {
          "internalType": "uint256",
          "name": "",
          "type": "uint256"
        }
      ],
      "stateMutability": "view",
      "type": "function"
    },
    {
      "inputs": [
        {
          "internalType": "address[]",
          "name": "accounts",
          "type": "address[]"
        },
        {
          "internalType": "uint256[]",
          "name": "ids",
          "type": "uint256[]"
        }
      ],
      "name": "balanceOfBatch",
      "outputs": [
        {
          "internalType": "uint256[]",
          "name": "",
          "type": "uint256[]"
        }
      ],
      "stateMutability": "view",
      "type": "function"
    },
    {
      "inputs": [
        {
          "internalType": "uint256",
          "name": "tokenId",
          "type": "uint256"
        }
      ],
      "name": "burn",
      "outputs": [],
      "stateMutability": "nonpayable",
      "type": "function"
    },
    {
      "inputs": [
        {
          "internalType": "address",
          "name": "_owner",
          "type": "address"
        },
        {
          "internalType": "bytes32[]",
          "name": "_proof",
          "type": "bytes32[]"
        }
      ],
      "name": "canClaim",
      "outputs": [
        {
          "internalType": "bool",
          "name": "",
          "type": "bool"
        }
      ],
      "stateMutability": "view",
      "type": "function"
    },
    {
      "inputs": [
        {
          "internalType": "bytes32[]",
          "name": "_proof",
          "type": "bytes32[]"
        }
      ],
      "name": "claimAirdrop",
      "outputs": [],
      "stateMutability": "nonpayable",
      "type": "function"
    },
    {
      "inputs": [
        {
          "internalType": "address",
          "name": "_owner",
          "type": "address"
        }
      ],
      "name": "getNftBalance",
      "outputs": [
        {
          "internalType": "uint256",
          "name": "",
          "type": "uint256"
        }
      ],
      "stateMutability": "view",
      "type": "function"
    },
    {
      "inputs": [
        {
          "internalType": "address",
          "name": "_owner",
          "type": "address"
        }
      ],
      "name": "getTokenId",
      "outputs": [
        {
          "internalType": "uint256",
          "name": "",
          "type": "uint256"
        }
      ],
      "stateMutability": "view",
      "type": "function"
    },
    {
      "inputs": [],
      "name": "i_root",
      "outputs": [
        {
          "internalType": "bytes32",
          "name": "",
          "type": "bytes32"
        }
      ],
      "stateMutability": "view",
      "type": "function"
    },
    {
      "inputs": [
        {
          "internalType": "address",
          "name": "account",
          "type": "address"
        },
        {
          "internalType": "address",
          "name": "operator",
          "type": "address"
        }
      ],
      "name": "isApprovedForAll",
      "outputs": [
        {
          "internalType": "bool",
          "name": "",
          "type": "bool"
        }
      ],
      "stateMutability": "view",
      "type": "function"
    },
    {
      "inputs": [],
      "name": "owner",
      "outputs": [
        {
          "internalType": "address",
          "name": "",
          "type": "address"
        }
      ],
      "stateMutability": "view",
      "type": "function"
    },
    {
      "inputs": [
        {
          "internalType": "uint256",
          "name": "tokenId",
          "type": "uint256"
        }
      ],
      "name": "ownerOf",
      "outputs": [
        {
          "internalType": "bool",
          "name": "",
          "type": "bool"
        }
      ],
      "stateMutability": "view",
      "type": "function"
    },
    {
      "inputs": [],
      "name": "renounceOwnership",
      "outputs": [],
      "stateMutability": "nonpayable",
      "type": "function"
    },
    {
      "inputs": [
        {
          "internalType": "address",
          "name": "_contractAddress",
          "type": "address"
        }
      ],
      "name": "revokeApproval",
      "outputs": [],
      "stateMutability": "nonpayable",
      "type": "function"
    },
    {
      "inputs": [
        {
          "internalType": "address",
          "name": "",
          "type": "address"
        }
      ],
      "name": "s_claimed",
      "outputs": [
        {
          "internalType": "bool",
          "name": "",
          "type": "bool"
        }
      ],
      "stateMutability": "view",
      "type": "function"
    },
    {
      "inputs": [],
      "name": "s_nftTokenURIs",
      "outputs": [
        {
          "internalType": "string",
          "name": "",
          "type": "string"
        }
      ],
      "stateMutability": "view",
      "type": "function"
    },
    {
      "inputs": [
        {
          "internalType": "uint256",
          "name": "",
          "type": "uint256"
        }
      ],
      "name": "s_tokenOwners",
      "outputs": [
        {
          "internalType": "address",
          "name": "",
          "type": "address"
        }
      ],
      "stateMutability": "view",
      "type": "function"
    },
    {
      "inputs": [
        {
          "internalType": "uint256",
          "name": "",
          "type": "uint256"
        }
      ],
      "name": "s_tokenURIs",
      "outputs": [
        {
          "internalType": "string",
          "name": "",
          "type": "string"
        }
      ],
      "stateMutability": "view",
      "type": "function"
    },
    {
      "inputs": [
        {
          "internalType": "address",
          "name": "from",
          "type": "address"
        },
        {
          "internalType": "address",
          "name": "to",
          "type": "address"
        },
        {
          "internalType": "uint256[]",
          "name": "ids",
          "type": "uint256[]"
        },
        {
          "internalType": "uint256[]",
          "name": "amounts",
          "type": "uint256[]"
        },
        {
          "internalType": "bytes",
          "name": "data",
          "type": "bytes"
        }
      ],
      "name": "safeBatchTransferFrom",
      "outputs": [],
      "stateMutability": "nonpayable",
      "type": "function"
    },
    {
      "inputs": [
        {
          "internalType": "address",
          "name": "from",
          "type": "address"
        },
        {
          "internalType": "address",
          "name": "to",
          "type": "address"
        },
        {
          "internalType": "uint256",
          "name": "id",
          "type": "uint256"
        },
        {
          "internalType": "uint256",
          "name": "amount",
          "type": "uint256"
        },
        {
          "internalType": "bytes",
          "name": "data",
          "type": "bytes"
        }
      ],
      "name": "safeTransferFrom",
      "outputs": [],
      "stateMutability": "nonpayable",
      "type": "function"
    },
    {
      "inputs": [
        {
          "internalType": "address",
          "name": "operator",
          "type": "address"
        },
        {
          "internalType": "bool",
          "name": "approved",
          "type": "bool"
        }
      ],
      "name": "setApprovalForAll",
      "outputs": [],
      "stateMutability": "nonpayable",
      "type": "function"
    },
    {
      "inputs": [
        {
          "internalType": "address",
          "name": "_contractAddress",
          "type": "address"
        }
      ],
      "name": "setApprovedContract",
      "outputs": [],
      "stateMutability": "nonpayable",
      "type": "function"
    },
    {
      "inputs": [
        {
          "internalType": "bytes4",
          "name": "interfaceId",
          "type": "bytes4"
        }
      ],
      "name": "supportsInterface",
      "outputs": [
        {
          "internalType": "bool",
          "name": "",
          "type": "bool"
        }
      ],
      "stateMutability": "view",
      "type": "function"
    },
    {
      "inputs": [
        {
          "internalType": "address",
          "name": "newOwner",
          "type": "address"
        }
      ],
      "name": "transferOwnership",
      "outputs": [],
      "stateMutability": "nonpayable",
      "type": "function"
    },
    {
      "inputs": [
        {
          "internalType": "uint256",
          "name": "_tokenId",
          "type": "uint256"
        }
      ],
      "name": "uri",
      "outputs": [
        {
          "internalType": "string",
          "name": "",
          "type": "string"
        }
      ],
      "stateMutability": "view",
      "type": "function"
    }
  ],
  "transactionHash": "0x4716138a92aeb99001d600f297479f19221a979295b0fcdf87fc6f2fb06fc39d",
  "args": [
    "0x99754cefd021c036abab5b3610791ede544baa906a4bcd7ed6cc35f9296f2c27",
    "ipfs://QmT9JJuUya27XKThLvnsB7r1BxTHAyAwRaZc56Ji54h3Fx/",
    "0x5FbDB2315678afecb367f032d93F642f64180aa3"
  ],
  "numDeployments": 1,
  "solcInputHash": "2fa812f9003813b81b3274dce54f99f1",
  "bytecode": "0x60a06040523480156200001157600080fd5b506040516200278038038062002780833981016040819052620000349162000147565b6040805160208101909152600081526200004e8162000097565b506200005a33620000b0565b608083905260066200006d8382620002c8565b50600580546001600160a01b0319166001600160a01b039290921691909117905550620003949050565b620000ad816200010260201b62000cda1760201c565b50565b600380546001600160a01b038381166001600160a01b0319831681179093556040519116919082907f8be0079c531659141344cd1fd0a4f28419497f9722a3daafe3b4186f6b6457e090600090a35050565b6002620001108282620002c8565b5050565b634e487b7160e01b600052604160045260246000fd5b80516001600160a01b03811681146200014257600080fd5b919050565b6000806000606084860312156200015d57600080fd5b8351602080860151919450906001600160401b03808211156200017f57600080fd5b818701915087601f8301126200019457600080fd5b815181811115620001a957620001a962000114565b604051601f8201601f19908116603f01168101908382118183101715620001d457620001d462000114565b816040528281528a86848701011115620001ed57600080fd5b600093505b82841015620002115784840186015181850187015292850192620001f2565b600086848301015280975050505050505062000230604085016200012a565b90509250925092565b600181811c908216806200024e57607f821691505b6020821081036200026f57634e487b7160e01b600052602260045260246000fd5b50919050565b601f821115620002c357600081815260208120601f850160051c810160208610156200029e5750805b601f850160051c820191505b81811015620002bf57828155600101620002aa565b5050505b505050565b81516001600160401b03811115620002e457620002e462000114565b620002fc81620002f5845462000239565b8462000275565b602080601f8311600181146200033457600084156200031b5750858301515b600019600386901b1c1916600185901b178555620002bf565b600085815260208120601f198616915b82811015620003655788860151825594840194600190910190840162000344565b5085821015620003845787850151600019600388901b60f8161c191681555b5050505050600190811b01905550565b6080516123c2620003be60003960008181610218015281816106580152610f9e01526123c26000f3fe608060405234801561001057600080fd5b50600436106101575760003560e01c806369242dc6116100c3578063e07ac2431161007c578063e07ac24314610332578063e1e4fec01461033a578063e985e9c514610363578063f15376861461039f578063f242432a146103c8578063f2fde38b146103db57600080fd5b806369242dc614610293578063715018a6146102a657806374b3c7ec146102ae5780638da5cb5b146102d1578063a22cb465146102f6578063c637954b1461030957600080fd5b8063484685b011610115578063484685b0146102005780634d75bbf9146102135780634e1273f41461023a57806353223ab01461025a5780635c0148631461026d5780636352211e1461028057600080fd5b8062fdd58e1461015c57806301ffc9a7146101825780630e89341c146101a557806318894daf146101c55780632eb2c2d6146101d857806342966c68146101ed575b600080fd5b61016f61016a366004611902565b6103ee565b6040519081526020015b60405180910390f35b610195610190366004611942565b610487565b6040519015158152602001610179565b6101b86101b336600461195f565b6104d7565b60405161017991906119c8565b6101956101d33660046119db565b6105e7565b6101eb6101e6366004611bad565b6106a2565b005b6101eb6101fb36600461195f565b6106ee565b6101eb61020e366004611c57565b6107a6565b61016f7f000000000000000000000000000000000000000000000000000000000000000081565b61024d610248366004611c72565b6107cf565b6040516101799190611d78565b6101eb610268366004611d8b565b6108f9565b6101b861027b36600461195f565b610b12565b61019561028e36600461195f565b610bac565b6101eb6102a1366004611c57565b610bc0565b6101eb610bec565b6101956102bc366004611c57565b60076020526000908152604090205460ff1681565b6003546001600160a01b03165b6040516001600160a01b039091168152602001610179565b6101eb610304366004611e27565b610c00565b61016f610317366004611c57565b6001600160a01b03166000908152600a602052604090205490565b6101b8610c0f565b6102de61034836600461195f565b600b602052600090815260409020546001600160a01b031681565b610195610371366004611e63565b6001600160a01b03918216600090815260016020908152604080832093909416825291909152205460ff1690565b61016f6103ad366004611c57565b6001600160a01b031660009081526009602052604090205490565b6101eb6103d6366004611e96565b610c1c565b6101eb6103e9366004611c57565b610c61565b60006001600160a01b03831661045e5760405162461bcd60e51b815260206004820152602a60248201527f455243313135353a2061646472657373207a65726f206973206e6f742061207660448201526930b634b21037bbb732b960b11b60648201526084015b60405180910390fd5b506000818152602081815260408083206001600160a01b03861684529091529020545b92915050565b60006001600160e01b03198216636cdb3d1360e11b14806104b857506001600160e01b031982166303a24d0760e21b145b8061048157506301ffc9a760e01b6001600160e01b0319831614610481565b60008181526008602052604090205460609060ff166105495760405162461bcd60e51b815260206004820152602860248201527f41697264726f703a2055524920717565727920666f72206e6f6e657869737465604482015267373a103a37b5b2b760c11b6064820152608401610455565b6000828152600c60205260409020805461056290611efb565b80601f016020809104026020016040519081016040528092919081815260200182805461058e90611efb565b80156105db5780601f106105b0576101008083540402835291602001916105db565b820191906000526020600020905b8154815290600101906020018083116105be57829003601f168201915b50505050509050919050565b6001600160a01b03831660009081526007602052604081205460ff1615801561069a575061069a838380806020026020016040519081016040528093929190818152602001838360200280828437600092019190915250506040516001600160601b031960608a901b1660208201527f0000000000000000000000000000000000000000000000000000000000000000925060340190505b60405160208183030381529060405280519060200120610ce6565b949350505050565b6001600160a01b0385163314806106be57506106be8533610371565b6106da5760405162461bcd60e51b815260040161045590611f35565b6106e78585858585610cfc565b5050505050565b6000818152600b60205260409020546001600160a01b0316331461076a5760405162461bcd60e51b815260206004820152602d60248201527f41697264726f703a2063616c6c6572206973206e6f7420746865206f776e657260448201526c1037b3103a3432903a37b5b2b760991b6064820152608401610455565b61077633826001610ee7565b604051819033907f1af5163f80e79b5e554f61e1d052084d3a3fe1166e42a265798c4e2ddce8ffa290600090a350565b6107ae610f23565b6001600160a01b03166000908152600d60205260409020805460ff19169055565b606081518351146108345760405162461bcd60e51b815260206004820152602960248201527f455243313135353a206163636f756e747320616e6420696473206c656e677468604482015268040dad2e6dac2e8c6d60bb1b6064820152608401610455565b6000835167ffffffffffffffff81111561085057610850611a61565b604051908082528060200260200182016040528015610879578160200160208202803683370190505b50905060005b84518110156108f1576108c485828151811061089d5761089d611f83565b60200260200101518583815181106108b7576108b7611f83565b60200260200101516103ee565b8282815181106108d6576108d6611f83565b60209081029190910101526108ea81611faf565b905061087f565b509392505050565b3360009081526007602052604090205460ff161561092c5760405163e0cd221960e01b8152336004820152602401610455565b61093581610f7d565b6109545760405163ae18156360e01b8152336004820152602401610455565b6005546040516370a0823160e01b81523360048201526000916001600160a01b0316906370a0823190602401602060405180830381865afa15801561099d573d6000803e3d6000fd5b505050506040513d601f19601f820116820180604052508101906109c19190611fc8565b905060008111610a1e5760405162461bcd60e51b815260206004820152602260248201527f41697264726f703a20596f7520646f6e2774206861766520616e7920746f6b656044820152616e7360f01b6064820152608401610455565b60005b81811015610b0d576000610a3460045490565b336000818152600960209081526040808320548151928301909152918152929350610a6192600190610fc6565b6000818152600b6020526040902080546001600160a01b03191633908117909155610a8b90611008565b6000828152600c6020526040902090610aa49082612027565b50336000908152600760205260409020805460ff1916600117905580610ac981611faf565b60405190925082915033907f650e45f04ef8a0c267b2f78d983913f69ae3a353b2b32de5429307522be0ab5590600090a35080610b0581611faf565b915050610a21565b505050565b600c6020526000908152604090208054610b2b90611efb565b80601f0160208091040260200160405190810160405280929190818152602001828054610b5790611efb565b8015610ba45780601f10610b7957610100808354040283529160200191610ba4565b820191906000526020600020905b815481529060010190602001808311610b8757829003601f168201915b505050505081565b6000610bb833836103ee565b151592915050565b610bc8610f23565b6001600160a01b03166000908152600d60205260409020805460ff19166001179055565b610bf4610f23565b610bfe6000611042565b565b610c0b338383611094565b5050565b60068054610b2b90611efb565b6001600160a01b038516331480610c385750610c388533610371565b610c545760405162461bcd60e51b815260040161045590611f35565b6106e78585858585611174565b610c69610f23565b6001600160a01b038116610cce5760405162461bcd60e51b815260206004820152602660248201527f4f776e61626c653a206e6577206f776e657220697320746865207a65726f206160448201526564647265737360d01b6064820152608401610455565b610cd781611042565b50565b6002610c0b8282612027565b600082610cf385846112ac565b14949350505050565b8151835114610d5e5760405162461bcd60e51b815260206004820152602860248201527f455243313135353a2069647320616e6420616d6f756e7473206c656e677468206044820152670dad2e6dac2e8c6d60c31b6064820152608401610455565b6001600160a01b038416610d845760405162461bcd60e51b8152600401610455906120e7565b33610d938187878787876112f1565b60005b8451811015610e79576000858281518110610db357610db3611f83565b602002602001015190506000858381518110610dd157610dd1611f83565b602090810291909101810151600084815280835260408082206001600160a01b038e168352909352919091205490915081811015610e215760405162461bcd60e51b81526004016104559061212c565b6000838152602081815260408083206001600160a01b038e8116855292528083208585039055908b16825281208054849290610e5e908490612176565b9250508190555050505080610e7290611faf565b9050610d96565b50846001600160a01b0316866001600160a01b0316826001600160a01b03167f4a39dc06d4c0dbc64b70af90fd698a233a518aa5d07e595d983b8c0526c8f7fb8787604051610ec9929190612189565b60405180910390a4610edf818787878787611391565b505050505050565b610ef28383836114f5565b506000908152600860209081526040808320805460ff191690556001600160a01b0390931682526009905290812055565b6003546001600160a01b03163314610bfe5760405162461bcd60e51b815260206004820181905260248201527f4f776e61626c653a2063616c6c6572206973206e6f7420746865206f776e65726044820152606401610455565b6040516001600160601b03193360601b1660208201526000906104819083907f00000000000000000000000000000000000000000000000000000000000000009060340161067f565b610fd284848484611685565b50506000818152600860209081526040808320805460ff191660011790556001600160a01b039094168252600990529190912055565b60606000611016600061179f565b9050808360405160200161102b9291906121b7565b604051602081830303815290604052915050919050565b600380546001600160a01b038381166001600160a01b0319831681179093556040519116919082907f8be0079c531659141344cd1fd0a4f28419497f9722a3daafe3b4186f6b6457e090600090a35050565b816001600160a01b0316836001600160a01b0316036111075760405162461bcd60e51b815260206004820152602960248201527f455243313135353a2073657474696e6720617070726f76616c20737461747573604482015268103337b91039b2b63360b91b6064820152608401610455565b6001600160a01b03838116600081815260016020908152604080832094871680845294825291829020805460ff191686151590811790915591519182527f17307eab39ab6107e8899845ad3d59bd9653f200f220920489ca2b5937696c31910160405180910390a3505050565b6001600160a01b03841661119a5760405162461bcd60e51b8152600401610455906120e7565b3360006111a6856117ae565b905060006111b3856117ae565b90506111c38389898585896112f1565b6000868152602081815260408083206001600160a01b038c168452909152902054858110156112045760405162461bcd60e51b81526004016104559061212c565b6000878152602081815260408083206001600160a01b038d8116855292528083208985039055908a16825281208054889290611241908490612176565b909155505060408051888152602081018890526001600160a01b03808b16928c821692918816917fc3d58168c5ae7397731d063d5bbf3d657854427343f4c083240f7aacaa2d0f62910160405180910390a46112a1848a8a8a8a8a6117f9565b505050505050505050565b600081815b84518110156108f1576112dd828683815181106112d0576112d0611f83565b60200260200101516118b4565b9150806112e981611faf565b9150506112b1565b6001600160a01b03851615610edf576001600160a01b0384161580159061133157506001600160a01b0384166000908152600d602052604090205460ff16155b15610edf5760405162461bcd60e51b815260206004820152602a60248201527f41697264726f703a207472616e7366657220746f206e6f6e20617070726f7665604482015269190818dbdb9d1c9858dd60b21b6064820152608401610455565b6001600160a01b0384163b15610edf5760405163bc197c8160e01b81526001600160a01b0385169063bc197c81906113d590899089908890889088906004016121e9565b6020604051808303816000875af1925050508015611410575060408051601f3d908101601f1916820190925261140d91810190612247565b60015b6114bc5761141c612264565b806308c379a0036114555750611430612280565b8061143b5750611457565b8060405162461bcd60e51b815260040161045591906119c8565b505b60405162461bcd60e51b815260206004820152603460248201527f455243313135353a207472616e7366657220746f206e6f6e2d455243313135356044820152732932b1b2b4bb32b91034b6b83632b6b2b73a32b960611b6064820152608401610455565b6001600160e01b0319811663bc197c8160e01b146114ec5760405162461bcd60e51b81526004016104559061230a565b50505050505050565b6001600160a01b0383166115575760405162461bcd60e51b815260206004820152602360248201527f455243313135353a206275726e2066726f6d20746865207a65726f206164647260448201526265737360e81b6064820152608401610455565b336000611563846117ae565b90506000611570846117ae565b9050611590838760008585604051806020016040528060008152506112f1565b6000858152602081815260408083206001600160a01b038a1684529091529020548481101561160d5760405162461bcd60e51b8152602060048201526024808201527f455243313135353a206275726e20616d6f756e7420657863656564732062616c604482015263616e636560e01b6064820152608401610455565b6000868152602081815260408083206001600160a01b038b81168086529184528285208a8703905582518b81529384018a90529092908816917fc3d58168c5ae7397731d063d5bbf3d657854427343f4c083240f7aacaa2d0f62910160405180910390a46040805160208101909152600090526114ec565b6001600160a01b0384166116e55760405162461bcd60e51b815260206004820152602160248201527f455243313135353a206d696e7420746f20746865207a65726f206164647265736044820152607360f81b6064820152608401610455565b3360006116f1856117ae565b905060006116fe856117ae565b905061170f836000898585896112f1565b6000868152602081815260408083206001600160a01b038b1684529091528120805487929061173f908490612176565b909155505060408051878152602081018790526001600160a01b03808a1692600092918716917fc3d58168c5ae7397731d063d5bbf3d657854427343f4c083240f7aacaa2d0f62910160405180910390a46114ec836000898989896117f9565b60606002805461056290611efb565b604080516001808252818301909252606091600091906020808301908036833701905050905082816000815181106117e8576117e8611f83565b602090810291909101015292915050565b6001600160a01b0384163b15610edf5760405163f23a6e6160e01b81526001600160a01b0385169063f23a6e619061183d9089908990889088908890600401612352565b6020604051808303816000875af1925050508015611878575060408051601f3d908101601f1916820190925261187591810190612247565b60015b6118845761141c612264565b6001600160e01b0319811663f23a6e6160e01b146114ec5760405162461bcd60e51b81526004016104559061230a565b60008183106118d05760008281526020849052604090206118df565b60008381526020839052604090205b9392505050565b80356001600160a01b03811681146118fd57600080fd5b919050565b6000806040838503121561191557600080fd5b61191e836118e6565b946020939093013593505050565b6001600160e01b031981168114610cd757600080fd5b60006020828403121561195457600080fd5b81356118df8161192c565b60006020828403121561197157600080fd5b5035919050565b60005b8381101561199357818101518382015260200161197b565b50506000910152565b600081518084526119b4816020860160208601611978565b601f01601f19169290920160200192915050565b6020815260006118df602083018461199c565b6000806000604084860312156119f057600080fd5b6119f9846118e6565b9250602084013567ffffffffffffffff80821115611a1657600080fd5b818601915086601f830112611a2a57600080fd5b813581811115611a3957600080fd5b8760208260051b8501011115611a4e57600080fd5b6020830194508093505050509250925092565b634e487b7160e01b600052604160045260246000fd5b601f8201601f1916810167ffffffffffffffff81118282101715611a9d57611a9d611a61565b6040525050565b600067ffffffffffffffff821115611abe57611abe611a61565b5060051b60200190565b600082601f830112611ad957600080fd5b81356020611ae682611aa4565b604051611af38282611a77565b83815260059390931b8501820192828101915086841115611b1357600080fd5b8286015b84811015611b2e5780358352918301918301611b17565b509695505050505050565b600082601f830112611b4a57600080fd5b813567ffffffffffffffff811115611b6457611b64611a61565b604051611b7b601f8301601f191660200182611a77565b818152846020838601011115611b9057600080fd5b816020850160208301376000918101602001919091529392505050565b600080600080600060a08688031215611bc557600080fd5b611bce866118e6565b9450611bdc602087016118e6565b9350604086013567ffffffffffffffff80821115611bf957600080fd5b611c0589838a01611ac8565b94506060880135915080821115611c1b57600080fd5b611c2789838a01611ac8565b93506080880135915080821115611c3d57600080fd5b50611c4a88828901611b39565b9150509295509295909350565b600060208284031215611c6957600080fd5b6118df826118e6565b60008060408385031215611c8557600080fd5b823567ffffffffffffffff80821115611c9d57600080fd5b818501915085601f830112611cb157600080fd5b81356020611cbe82611aa4565b604051611ccb8282611a77565b83815260059390931b8501820192828101915089841115611ceb57600080fd5b948201945b83861015611d1057611d01866118e6565b82529482019490820190611cf0565b96505086013592505080821115611d2657600080fd5b50611d3385828601611ac8565b9150509250929050565b600081518084526020808501945080840160005b83811015611d6d57815187529582019590820190600101611d51565b509495945050505050565b6020815260006118df6020830184611d3d565b60006020808385031215611d9e57600080fd5b823567ffffffffffffffff811115611db557600080fd5b8301601f81018513611dc657600080fd5b8035611dd181611aa4565b604051611dde8282611a77565b82815260059290921b8301840191848101915087831115611dfe57600080fd5b928401925b82841015611e1c57833582529284019290840190611e03565b979650505050505050565b60008060408385031215611e3a57600080fd5b611e43836118e6565b915060208301358015158114611e5857600080fd5b809150509250929050565b60008060408385031215611e7657600080fd5b611e7f836118e6565b9150611e8d602084016118e6565b90509250929050565b600080600080600060a08688031215611eae57600080fd5b611eb7866118e6565b9450611ec5602087016118e6565b93506040860135925060608601359150608086013567ffffffffffffffff811115611eef57600080fd5b611c4a88828901611b39565b600181811c90821680611f0f57607f821691505b602082108103611f2f57634e487b7160e01b600052602260045260246000fd5b50919050565b6020808252602e908201527f455243313135353a2063616c6c6572206973206e6f7420746f6b656e206f776e60408201526d195c881bdc88185c1c1c9bdd995960921b606082015260800190565b634e487b7160e01b600052603260045260246000fd5b634e487b7160e01b600052601160045260246000fd5b600060018201611fc157611fc1611f99565b5060010190565b600060208284031215611fda57600080fd5b5051919050565b601f821115610b0d57600081815260208120601f850160051c810160208610156120085750805b601f850160051c820191505b81811015610edf57828155600101612014565b815167ffffffffffffffff81111561204157612041611a61565b6120558161204f8454611efb565b84611fe1565b602080601f83116001811461208a57600084156120725750858301515b600019600386901b1c1916600185901b178555610edf565b600085815260208120601f198616915b828110156120b95788860151825594840194600190910190840161209a565b50858210156120d75787850151600019600388901b60f8161c191681555b5050505050600190811b01905550565b60208082526025908201527f455243313135353a207472616e7366657220746f20746865207a65726f206164604082015264647265737360d81b606082015260800190565b6020808252602a908201527f455243313135353a20696e73756666696369656e742062616c616e636520666f60408201526939103a3930b739b332b960b11b606082015260800190565b8082018082111561048157610481611f99565b60408152600061219c6040830185611d3d565b82810360208401526121ae8185611d3d565b95945050505050565b600083516121c9818460208801611978565b60609390931b6001600160601b0319169190920190815260140192915050565b6001600160a01b0386811682528516602082015260a06040820181905260009061221590830186611d3d565b82810360608401526122278186611d3d565b9050828103608084015261223b818561199c565b98975050505050505050565b60006020828403121561225957600080fd5b81516118df8161192c565b600060033d111561227d5760046000803e5060005160e01c5b90565b600060443d101561228e5790565b6040516003193d81016004833e81513d67ffffffffffffffff81602484011181841117156122be57505050505090565b82850191508151818111156122d65750505050505090565b843d87010160208285010111156122f05750505050505090565b6122ff60208286010187611a77565b509095945050505050565b60208082526028908201527f455243313135353a204552433131353552656365697665722072656a656374656040820152676420746f6b656e7360c01b606082015260800190565b6001600160a01b03868116825285166020820152604081018490526060810183905260a060808201819052600090611e1c9083018461199c56fea2646970667358221220511491c3632f3bbc8f92204e7a1e411d4f01d206055af68ea1a49233ffb571d264736f6c63430008110033",
  "devdoc": {
    "events": {
      "AirdropClaimed(address,uint256)": {
        "details": "This event will be emitted inside mintNFT function",
        "params": {
          "owner": "Address of the owner of the NFT",
          "tokenId": "ID of the minted NFT"
        }
      }
    },
    "kind": "dev",
    "methods": {
      "balanceOf(address,uint256)": {
        "details": "See {IERC1155-balanceOf}. Requirements: - `account` cannot be the zero address."
      },
      "balanceOfBatch(address[],uint256[])": {
        "details": "See {IERC1155-balanceOfBatch}. Requirements: - `accounts` and `ids` must have the same length."
      },
      "claimAirdrop(bytes32[])": {
        "details": "This function will mint NFTs to the caller",
        "params": {
          "_proof": "will be the hex value of the proof with the give caller address generated from the merkle tree"
        }
      },
      "constructor": {
        "params": {
          "_nftAddress": "Address of the NFT contract",
          "_nftTokenURIs": "NFT token URIs",
          "_root": "Merkle root of the airdrop"
        }
      },
      "isApprovedForAll(address,address)": {
        "details": "See {IERC1155-isApprovedForAll}."
      },
      "owner()": {
        "details": "Returns the address of the current owner."
      },
      "renounceOwnership()": {
        "details": "Leaves the contract without owner. It will not be possible to call `onlyOwner` functions. Can only be called by the current owner. NOTE: Renouncing ownership will leave the contract without an owner, thereby disabling any functionality that is only available to the owner."
      },
      "safeBatchTransferFrom(address,address,uint256[],uint256[],bytes)": {
        "details": "See {IERC1155-safeBatchTransferFrom}."
      },
      "safeTransferFrom(address,address,uint256,uint256,bytes)": {
        "details": "See {IERC1155-safeTransferFrom}."
      },
      "setApprovalForAll(address,bool)": {
        "details": "See {IERC1155-setApprovalForAll}."
      },
      "supportsInterface(bytes4)": {
        "details": "See {IERC165-supportsInterface}."
      },
      "transferOwnership(address)": {
        "details": "Transfers ownership of the contract to a new account (`newOwner`). Can only be called by the current owner."
      }
    },
    "version": 1
  },
  "userdoc": {
    "kind": "user",
    "methods": {},
    "version": 1
  },
  "storageLayout": {
    "storage": [
      {
        "astId": 166,
        "contract": "contracts/Airdrop.sol:Airdrop",
        "label": "_balances",
        "offset": 0,
        "slot": "0",
        "type": "t_mapping(t_uint256,t_mapping(t_address,t_uint256))"
      },
      {
        "astId": 172,
        "contract": "contracts/Airdrop.sol:Airdrop",
        "label": "_operatorApprovals",
        "offset": 0,
        "slot": "1",
        "type": "t_mapping(t_address,t_mapping(t_address,t_bool))"
      },
      {
        "astId": 174,
        "contract": "contracts/Airdrop.sol:Airdrop",
        "label": "_uri",
        "offset": 0,
        "slot": "2",
        "type": "t_string_storage"
      },
      {
        "astId": 7,
        "contract": "contracts/Airdrop.sol:Airdrop",
        "label": "_owner",
        "offset": 0,
        "slot": "3",
        "type": "t_address"
      },
      {
        "astId": 5005,
        "contract": "contracts/Airdrop.sol:Airdrop",
        "label": "s_tokenCounter",
        "offset": 0,
        "slot": "4",
        "type": "t_struct(Counter)3143_storage"
      },
      {
        "astId": 5008,
        "contract": "contracts/Airdrop.sol:Airdrop",
        "label": "s_nftContract",
        "offset": 0,
        "slot": "5",
        "type": "t_contract(IERC721)2584"
      },
      {
        "astId": 5012,
        "contract": "contracts/Airdrop.sol:Airdrop",
        "label": "s_nftTokenURIs",
        "offset": 0,
        "slot": "6",
        "type": "t_string_storage"
      },
      {
        "astId": 5016,
        "contract": "contracts/Airdrop.sol:Airdrop",
        "label": "s_claimed",
        "offset": 0,
        "slot": "7",
        "type": "t_mapping(t_address,t_bool)"
      },
      {
        "astId": 5020,
        "contract": "contracts/Airdrop.sol:Airdrop",
        "label": "s_exists",
        "offset": 0,
        "slot": "8",
        "type": "t_mapping(t_uint256,t_bool)"
      },
      {
        "astId": 5024,
        "contract": "contracts/Airdrop.sol:Airdrop",
        "label": "s_tokenIds",
        "offset": 0,
        "slot": "9",
        "type": "t_mapping(t_address,t_uint256)"
      },
      {
        "astId": 5028,
        "contract": "contracts/Airdrop.sol:Airdrop",
        "label": "s_nftTokenAmount",
        "offset": 0,
        "slot": "10",
        "type": "t_mapping(t_address,t_uint256)"
      },
      {
        "astId": 5032,
        "contract": "contracts/Airdrop.sol:Airdrop",
        "label": "s_tokenOwners",
        "offset": 0,
        "slot": "11",
        "type": "t_mapping(t_uint256,t_address)"
      },
      {
        "astId": 5036,
        "contract": "contracts/Airdrop.sol:Airdrop",
        "label": "s_tokenURIs",
        "offset": 0,
        "slot": "12",
        "type": "t_mapping(t_uint256,t_string_storage)"
      },
      {
        "astId": 5040,
        "contract": "contracts/Airdrop.sol:Airdrop",
        "label": "s_approvedContracts",
        "offset": 0,
        "slot": "13",
        "type": "t_mapping(t_address,t_bool)"
      }
    ],
    "types": {
      "t_address": {
        "encoding": "inplace",
        "label": "address",
        "numberOfBytes": "20"
      },
      "t_bool": {
        "encoding": "inplace",
        "label": "bool",
        "numberOfBytes": "1"
      },
      "t_contract(IERC721)2584": {
        "encoding": "inplace",
        "label": "contract IERC721",
        "numberOfBytes": "20"
      },
      "t_mapping(t_address,t_bool)": {
        "encoding": "mapping",
        "key": "t_address",
        "label": "mapping(address => bool)",
        "numberOfBytes": "32",
        "value": "t_bool"
      },
      "t_mapping(t_address,t_mapping(t_address,t_bool))": {
        "encoding": "mapping",
        "key": "t_address",
        "label": "mapping(address => mapping(address => bool))",
        "numberOfBytes": "32",
        "value": "t_mapping(t_address,t_bool)"
      },
      "t_mapping(t_address,t_uint256)": {
        "encoding": "mapping",
        "key": "t_address",
        "label": "mapping(address => uint256)",
        "numberOfBytes": "32",
        "value": "t_uint256"
      },
      "t_mapping(t_uint256,t_address)": {
        "encoding": "mapping",
        "key": "t_uint256",
        "label": "mapping(uint256 => address)",
        "numberOfBytes": "32",
        "value": "t_address"
      },
      "t_mapping(t_uint256,t_bool)": {
        "encoding": "mapping",
        "key": "t_uint256",
        "label": "mapping(uint256 => bool)",
        "numberOfBytes": "32",
        "value": "t_bool"
      },
      "t_mapping(t_uint256,t_mapping(t_address,t_uint256))": {
        "encoding": "mapping",
        "key": "t_uint256",
        "label": "mapping(uint256 => mapping(address => uint256))",
        "numberOfBytes": "32",
        "value": "t_mapping(t_address,t_uint256)"
      },
      "t_mapping(t_uint256,t_string_storage)": {
        "encoding": "mapping",
        "key": "t_uint256",
        "label": "mapping(uint256 => string)",
        "numberOfBytes": "32",
        "value": "t_string_storage"
      },
      "t_string_storage": {
        "encoding": "bytes",
        "label": "string",
        "numberOfBytes": "32"
      },
      "t_struct(Counter)3143_storage": {
        "encoding": "inplace",
        "label": "struct Counters.Counter",
        "members": [
          {
            "astId": 3142,
            "contract": "contracts/Airdrop.sol:Airdrop",
            "label": "_value",
            "offset": 0,
            "slot": "0",
            "type": "t_uint256"
          }
        ],
        "numberOfBytes": "32"
      },
      "t_uint256": {
        "encoding": "inplace",
        "label": "uint256",
        "numberOfBytes": "32"
      }
    }
  }
}