{
  "address": "0x5FbDB2315678afecb367f032d93F642f64180aa3",
  "abi": [
    {
      "inputs": [
        {
          "internalType": "bytes32",
          "name": "_root",
          "type": "bytes32"
        },
        {
          "internalType": "string",
          "name": "_nftTokenURIs",
          "type": "string"
        }
      ],
      "stateMutability": "nonpayable",
      "type": "constructor"
    },
    {
      "inputs": [
        {
          "internalType": "address",
          "name": "caller",
          "type": "address"
        }
      ],
      "name": "Airdrop__AlreadyClaimed",
      "type": "error"
    },
    {
      "inputs": [
        {
          "internalType": "address",
          "name": "caller",
          "type": "address"
        }
      ],
      "name": "Airdrop__NotInAllowList",
      "type": "error"
    },
    {
      "anonymous": false,
      "inputs": [
        {
          "indexed": true,
          "internalType": "address",
          "name": "account",
          "type": "address"
        },
        {
          "indexed": true,
          "internalType": "address",
          "name": "operator",
          "type": "address"
        },
        {
          "indexed": false,
          "internalType": "bool",
          "name": "approved",
          "type": "bool"
        }
      ],
      "name": "ApprovalForAll",
      "type": "event"
    },
    {
      "anonymous": false,
      "inputs": [
        {
          "indexed": true,
          "internalType": "address",
          "name": "owner",
          "type": "address"
        },
        {
          "indexed": true,
          "internalType": "uint256",
          "name": "tokenId",
          "type": "uint256"
        }
      ],
      "name": "NFTMinted",
      "type": "event"
    },
    {
      "anonymous": false,
      "inputs": [
        {
          "indexed": true,
          "internalType": "address",
          "name": "previousOwner",
          "type": "address"
        },
        {
          "indexed": true,
          "internalType": "address",
          "name": "newOwner",
          "type": "address"
        }
      ],
      "name": "OwnershipTransferred",
      "type": "event"
    },
    {
      "anonymous": false,
      "inputs": [
        {
          "indexed": true,
          "internalType": "address",
          "name": "operator",
          "type": "address"
        },
        {
          "indexed": true,
          "internalType": "address",
          "name": "from",
          "type": "address"
        },
        {
          "indexed": true,
          "internalType": "address",
          "name": "to",
          "type": "address"
        },
        {
          "indexed": false,
          "internalType": "uint256[]",
          "name": "ids",
          "type": "uint256[]"
        },
        {
          "indexed": false,
          "internalType": "uint256[]",
          "name": "values",
          "type": "uint256[]"
        }
      ],
      "name": "TransferBatch",
      "type": "event"
    },
    {
      "anonymous": false,
      "inputs": [
        {
          "indexed": true,
          "internalType": "address",
          "name": "operator",
          "type": "address"
        },
        {
          "indexed": true,
          "internalType": "address",
          "name": "from",
          "type": "address"
        },
        {
          "indexed": true,
          "internalType": "address",
          "name": "to",
          "type": "address"
        },
        {
          "indexed": false,
          "internalType": "uint256",
          "name": "id",
          "type": "uint256"
        },
        {
          "indexed": false,
          "internalType": "uint256",
          "name": "value",
          "type": "uint256"
        }
      ],
      "name": "TransferSingle",
      "type": "event"
    },
    {
      "anonymous": false,
      "inputs": [
        {
          "indexed": false,
          "internalType": "string",
          "name": "value",
          "type": "string"
        },
        {
          "indexed": true,
          "internalType": "uint256",
          "name": "id",
          "type": "uint256"
        }
      ],
      "name": "URI",
      "type": "event"
    },
    {
      "inputs": [
        {
          "internalType": "address",
          "name": "account",
          "type": "address"
        },
        {
          "internalType": "uint256",
          "name": "id",
          "type": "uint256"
        }
      ],
      "name": "balanceOf",
      "outputs": [
        {
          "internalType": "uint256",
          "name": "",
          "type": "uint256"
        }
      ],
      "stateMutability": "view",
      "type": "function"
    },
    {
      "inputs": [
        {
          "internalType": "address[]",
          "name": "accounts",
          "type": "address[]"
        },
        {
          "internalType": "uint256[]",
          "name": "ids",
          "type": "uint256[]"
        }
      ],
      "name": "balanceOfBatch",
      "outputs": [
        {
          "internalType": "uint256[]",
          "name": "",
          "type": "uint256[]"
        }
      ],
      "stateMutability": "view",
      "type": "function"
    },
    {
      "inputs": [
        {
          "internalType": "address",
          "name": "_recipient",
          "type": "address"
        }
      ],
      "name": "burn",
      "outputs": [],
      "stateMutability": "nonpayable",
      "type": "function"
    },
    {
      "inputs": [
        {
          "internalType": "address",
          "name": "_owner",
          "type": "address"
        },
        {
          "internalType": "bytes32[]",
          "name": "_proof",
          "type": "bytes32[]"
        }
      ],
      "name": "canClaim",
      "outputs": [
        {
          "internalType": "bool",
          "name": "",
          "type": "bool"
        }
      ],
      "stateMutability": "view",
      "type": "function"
    },
    {
      "inputs": [
        {
          "internalType": "bytes32[]",
          "name": "_proof",
          "type": "bytes32[]"
        }
      ],
      "name": "claimAirdrop",
      "outputs": [],
      "stateMutability": "payable",
      "type": "function"
    },
    {
      "inputs": [
        {
          "internalType": "address",
          "name": "_address",
          "type": "address"
        }
      ],
      "name": "getClaimedAddress",
      "outputs": [
        {
          "internalType": "bool",
          "name": "",
          "type": "bool"
        }
      ],
      "stateMutability": "view",
      "type": "function"
    },
    {
      "inputs": [],
      "name": "getTokenId",
      "outputs": [
        {
          "internalType": "uint256",
          "name": "",
          "type": "uint256"
        }
      ],
      "stateMutability": "view",
      "type": "function"
    },
    {
      "inputs": [],
      "name": "i_root",
      "outputs": [
        {
          "internalType": "bytes32",
          "name": "",
          "type": "bytes32"
        }
      ],
      "stateMutability": "view",
      "type": "function"
    },
    {
      "inputs": [
        {
          "internalType": "address",
          "name": "account",
          "type": "address"
        },
        {
          "internalType": "address",
          "name": "operator",
          "type": "address"
        }
      ],
      "name": "isApprovedForAll",
      "outputs": [
        {
          "internalType": "bool",
          "name": "",
          "type": "bool"
        }
      ],
      "stateMutability": "view",
      "type": "function"
    },
    {
      "inputs": [],
      "name": "owner",
      "outputs": [
        {
          "internalType": "address",
          "name": "",
          "type": "address"
        }
      ],
      "stateMutability": "view",
      "type": "function"
    },
    {
      "inputs": [
        {
          "internalType": "address",
          "name": "_recipient",
          "type": "address"
        }
      ],
      "name": "ownerOf",
      "outputs": [
        {
          "internalType": "address",
          "name": "",
          "type": "address"
        }
      ],
      "stateMutability": "view",
      "type": "function"
    },
    {
      "inputs": [],
      "name": "renounceOwnership",
      "outputs": [],
      "stateMutability": "nonpayable",
      "type": "function"
    },
    {
      "inputs": [
        {
          "internalType": "address",
          "name": "",
          "type": "address"
        }
      ],
      "name": "s_claimed",
      "outputs": [
        {
          "internalType": "bool",
          "name": "",
          "type": "bool"
        }
      ],
      "stateMutability": "view",
      "type": "function"
    },
    {
      "inputs": [],
      "name": "s_nftTokenURIs",
      "outputs": [
        {
          "internalType": "string",
          "name": "",
          "type": "string"
        }
      ],
      "stateMutability": "view",
      "type": "function"
    },
    {
      "inputs": [
        {
          "internalType": "uint256",
          "name": "",
          "type": "uint256"
        }
      ],
      "name": "s_tokenURIs",
      "outputs": [
        {
          "internalType": "string",
          "name": "",
          "type": "string"
        }
      ],
      "stateMutability": "view",
      "type": "function"
    },
    {
      "inputs": [
        {
          "internalType": "address",
          "name": "from",
          "type": "address"
        },
        {
          "internalType": "address",
          "name": "to",
          "type": "address"
        },
        {
          "internalType": "uint256[]",
          "name": "ids",
          "type": "uint256[]"
        },
        {
          "internalType": "uint256[]",
          "name": "amounts",
          "type": "uint256[]"
        },
        {
          "internalType": "bytes",
          "name": "data",
          "type": "bytes"
        }
      ],
      "name": "safeBatchTransferFrom",
      "outputs": [],
      "stateMutability": "nonpayable",
      "type": "function"
    },
    {
      "inputs": [
        {
          "internalType": "address",
          "name": "from",
          "type": "address"
        },
        {
          "internalType": "address",
          "name": "to",
          "type": "address"
        },
        {
          "internalType": "uint256",
          "name": "id",
          "type": "uint256"
        },
        {
          "internalType": "uint256",
          "name": "amount",
          "type": "uint256"
        },
        {
          "internalType": "bytes",
          "name": "data",
          "type": "bytes"
        }
      ],
      "name": "safeTransferFrom",
      "outputs": [],
      "stateMutability": "nonpayable",
      "type": "function"
    },
    {
      "inputs": [
        {
          "internalType": "address",
          "name": "operator",
          "type": "address"
        },
        {
          "internalType": "bool",
          "name": "approved",
          "type": "bool"
        }
      ],
      "name": "setApprovalForAll",
      "outputs": [],
      "stateMutability": "nonpayable",
      "type": "function"
    },
    {
      "inputs": [
        {
          "internalType": "bytes4",
          "name": "interfaceId",
          "type": "bytes4"
        }
      ],
      "name": "supportsInterface",
      "outputs": [
        {
          "internalType": "bool",
          "name": "",
          "type": "bool"
        }
      ],
      "stateMutability": "view",
      "type": "function"
    },
    {
      "inputs": [
        {
          "internalType": "address",
          "name": "newOwner",
          "type": "address"
        }
      ],
      "name": "transferOwnership",
      "outputs": [],
      "stateMutability": "nonpayable",
      "type": "function"
    },
    {
      "inputs": [
        {
          "internalType": "uint256",
          "name": "",
          "type": "uint256"
        }
      ],
      "name": "uri",
      "outputs": [
        {
          "internalType": "string",
          "name": "",
          "type": "string"
        }
      ],
      "stateMutability": "view",
      "type": "function"
    }
  ],
  "transactionHash": "0x39affeb005298cb5536052d931286ddcdfc405b36d02c8da09a1cd36cdebad57",
  "args": [
    "0x99754cefd021c036abab5b3610791ede544baa906a4bcd7ed6cc35f9296f2c27",
    "ipfs://QmT9JJuUya27XKThLvnsB7r1BxTHAyAwRaZc56Ji54h3Fx/"
  ],
  "numDeployments": 1,
  "solcInputHash": "8b8e244f8cbf2f063abb5e773c362ed3",
  "bytecode": "0x60a06040523480156200001157600080fd5b5060405162002526380380620025268339810160408190526200003491620000f5565b6040805160208101909152600081526200004e816200007b565b506200005a336200008d565b608082905260046200006d828262000264565b505060006005555062000330565b600262000089828262000264565b5050565b600380546001600160a01b038381166001600160a01b0319831681179093556040519116919082907f8be0079c531659141344cd1fd0a4f28419497f9722a3daafe3b4186f6b6457e090600090a35050565b634e487b7160e01b600052604160045260246000fd5b600080604083850312156200010957600080fd5b8251602080850151919350906001600160401b03808211156200012b57600080fd5b818601915086601f8301126200014057600080fd5b815181811115620001555762000155620000df565b604051601f8201601f19908116603f01168101908382118183101715620001805762000180620000df565b8160405282815289868487010111156200019957600080fd5b600093505b82841015620001bd57848401860151818501870152928501926200019e565b60008684830101528096505050505050509250929050565b600181811c90821680620001ea57607f821691505b6020821081036200020b57634e487b7160e01b600052602260045260246000fd5b50919050565b601f8211156200025f57600081815260208120601f850160051c810160208610156200023a5750805b601f850160051c820191505b818110156200025b5782815560010162000246565b5050505b505050565b81516001600160401b03811115620002805762000280620000df565b6200029881620002918454620001d5565b8462000211565b602080601f831160018114620002d05760008415620002b75750858301515b600019600386901b1c1916600185901b1785556200025b565b600085815260208120601f198616915b828110156200030157888601518255948401946001909101908401620002e0565b5085821015620003205787850151600019600388901b60f8161c191681555b5050505050600190811b01905550565b6080516121cc6200035a60003960008181610298015281816106b50152610e9f01526121cc6000f3fe6080604052600436106101295760003560e01c806353223ab0116100ab5780638da5cb5b1161006f5780638da5cb5b1461037f578063a22cb4651461039d578063e07ac243146103bd578063e985e9c5146103d2578063f242432a1461041b578063f2fde38b1461043b57600080fd5b806353223ab0146102e75780635c014863146102fa578063715018a61461031a57806374b3c7ec1461032f57806389afcb441461035f57600080fd5b806314afd79e116100f257806314afd79e1461020c57806318894daf146102445780632eb2c2d6146102645780634d75bbf9146102865780634e1273f4146102ba57600080fd5b8062fdd58e1461012e578063010a38f51461016157806301ffc9a714610176578063099c3205146101a65780630e89341c146101df575b600080fd5b34801561013a57600080fd5b5061014e610149366004611705565b61045b565b6040519081526020015b60405180910390f35b34801561016d57600080fd5b5060055461014e565b34801561018257600080fd5b50610196610191366004611745565b6104f4565b6040519015158152602001610158565b3480156101b257600080fd5b506101966101c1366004611762565b6001600160a01b031660009081526006602052604090205460ff1690565b3480156101eb57600080fd5b506101ff6101fa36600461177d565b610544565b60405161015891906117e6565b34801561021857600080fd5b5061022c610227366004611762565b6105d8565b6040516001600160a01b039091168152602001610158565b34801561025057600080fd5b5061019661025f3660046117f9565b610644565b34801561027057600080fd5b5061028461027f3660046119cb565b6106ff565b005b34801561029257600080fd5b5061014e7f000000000000000000000000000000000000000000000000000000000000000081565b3480156102c657600080fd5b506102da6102d5366004611a75565b61074b565b6040516101589190611b7b565b6102846102f5366004611b8e565b610875565b34801561030657600080fd5b506101ff61031536600461177d565b610946565b34801561032657600080fd5b506102846109e0565b34801561033b57600080fd5b5061019661034a366004611762565b60066020526000908152604090205460ff1681565b34801561036b57600080fd5b5061028461037a366004611762565b6109f4565b34801561038b57600080fd5b506003546001600160a01b031661022c565b3480156103a957600080fd5b506102846103b8366004611c2a565b610bb1565b3480156103c957600080fd5b506101ff610bc0565b3480156103de57600080fd5b506101966103ed366004611c66565b6001600160a01b03918216600090815260016020908152604080832093909416825291909152205460ff1690565b34801561042757600080fd5b50610284610436366004611c99565b610bcd565b34801561044757600080fd5b50610284610456366004611762565b610c12565b60006001600160a01b0383166104cb5760405162461bcd60e51b815260206004820152602a60248201527f455243313135353a2061646472657373207a65726f206973206e6f742061207660448201526930b634b21037bbb732b960b11b60648201526084015b60405180910390fd5b506000818152602081815260408083206001600160a01b03861684529091529020545b92915050565b60006001600160e01b03198216636cdb3d1360e11b148061052557506001600160e01b031982166303a24d0760e21b145b806104ee57506301ffc9a760e01b6001600160e01b03198316146104ee565b60606002805461055390611cfe565b80601f016020809104026020016040519081016040528092919081815260200182805461057f90611cfe565b80156105cc5780601f106105a1576101008083540402835291602001916105cc565b820191906000526020600020905b8154815290600101906020018083116105af57829003601f168201915b50505050509050919050565b6001600160a01b03811660009081526006602052604081205460ff166106405760405162461bcd60e51b815260206004820152601a60248201527f41697264726f703a20546f6b656e206e6f7420636c61696d656400000000000060448201526064016104c2565b5090565b6001600160a01b03831660009081526006602052604081205460ff161580156106f757506106f7838380806020026020016040519081016040528093929190818152602001838360200280828437600092019190915250506040516001600160601b031960608a901b1660208201527f0000000000000000000000000000000000000000000000000000000000000000925060340190505b60405160208183030381529060405280519060200120610c8b565b949350505050565b6001600160a01b03851633148061071b575061071b85336103ed565b6107375760405162461bcd60e51b81526004016104c290611d38565b6107448585858585610ca1565b5050505050565b606081518351146107b05760405162461bcd60e51b815260206004820152602960248201527f455243313135353a206163636f756e747320616e6420696473206c656e677468604482015268040dad2e6dac2e8c6d60bb1b60648201526084016104c2565b6000835167ffffffffffffffff8111156107cc576107cc61187f565b6040519080825280602002602001820160405280156107f5578160200160208202803683370190505b50905060005b845181101561086d5761084085828151811061081957610819611d86565b602002602001015185838151811061083357610833611d86565b602002602001015161045b565b82828151811061085257610852611d86565b602090810291909101015261086681611db2565b90506107fb565b509392505050565b3360009081526006602052604090205460ff16156108a85760405163e0cd221960e01b81523360048201526024016104c2565b6108b181610e7e565b6108d05760405163ae18156360e01b81523360048201526024016104c2565b336000908152600660205260408120805460ff1916600190811790915560058054926108fc8385611dcb565b9250508190555061091f3382600160405180602001604052806000815250610ec7565b61092833610fc9565b6000828152600860205260409020906109419082611e24565b505050565b6008602052600090815260409020805461095f90611cfe565b80601f016020809104026020016040519081016040528092919081815260200182805461098b90611cfe565b80156109d85780601f106109ad576101008083540402835291602001916109d8565b820191906000526020600020905b8154815290600101906020018083116109bb57829003601f168201915b505050505081565b6109e8611003565b6109f2600061105d565b565b336001600160a01b03821614610a6a5760405162461bcd60e51b815260206004820152603560248201527f41697264726f703a2043616c6c6572206973206e6f7420746865206f776e65726044820152741037b3103a34329030b4b9323937b8103a37b5b2b760591b60648201526084016104c2565b6001600160a01b03811660009081526006602052604090205460ff16610adc5760405162461bcd60e51b815260206004820152602160248201527f41697264726f703a20546f6b656e206973206e6f7420636c61696d65642079656044820152601d60fa1b60648201526084016104c2565b6001600160a01b03811660009081526007602052604090205460ff1615610b455760405162461bcd60e51b815260206004820181905260248201527f41697264726f703a20546f6b656e20697320616c7265616479206275726e656460448201526064016104c2565b6001600160a01b0381166000818152600760205260409020805460ff19166001908117909155610b769183916110af565b604080516001600160a01b0383168082526001602083015260009290918291600080516020612177833981519152910160405180910390a450565b610bbc338383611219565b5050565b6004805461095f90611cfe565b6001600160a01b038516331480610be95750610be985336103ed565b610c055760405162461bcd60e51b81526004016104c290611d38565b61074485858585856112f9565b610c1a611003565b6001600160a01b038116610c7f5760405162461bcd60e51b815260206004820152602660248201527f4f776e61626c653a206e6577206f776e657220697320746865207a65726f206160448201526564647265737360d01b60648201526084016104c2565b610c888161105d565b50565b600082610c988584611411565b14949350505050565b8151835114610d035760405162461bcd60e51b815260206004820152602860248201527f455243313135353a2069647320616e6420616d6f756e7473206c656e677468206044820152670dad2e6dac2e8c6d60c31b60648201526084016104c2565b6001600160a01b038416610d295760405162461bcd60e51b81526004016104c290611ee4565b3360005b8451811015610e10576000858281518110610d4a57610d4a611d86565b602002602001015190506000858381518110610d6857610d68611d86565b602090810291909101810151600084815280835260408082206001600160a01b038e168352909352919091205490915081811015610db85760405162461bcd60e51b81526004016104c290611f29565b6000838152602081815260408083206001600160a01b038e8116855292528083208585039055908b16825281208054849290610df5908490611dcb565b9250508190555050505080610e0990611db2565b9050610d2d565b50846001600160a01b0316866001600160a01b0316826001600160a01b03167f4a39dc06d4c0dbc64b70af90fd698a233a518aa5d07e595d983b8c0526c8f7fb8787604051610e60929190611f73565b60405180910390a4610e76818787878787611456565b505050505050565b6040516001600160601b03193360601b1660208201526000906104ee9083907f0000000000000000000000000000000000000000000000000000000000000000906034016106dc565b6001600160a01b038416610f275760405162461bcd60e51b815260206004820152602160248201527f455243313135353a206d696e7420746f20746865207a65726f206164647265736044820152607360f81b60648201526084016104c2565b336000610f33856115b1565b90506000610f40856115b1565b90506000868152602081815260408083206001600160a01b038b16845290915281208054879290610f72908490611dcb565b909155505060408051878152602081018790526001600160a01b03808a169260009291871691600080516020612177833981519152910160405180910390a4610fc0836000898989896115fc565b50505050505050565b60606000610fd76000610544565b90508083604051602001610fec929190611fa1565b604051602081830303815290604052915050919050565b6003546001600160a01b031633146109f25760405162461bcd60e51b815260206004820181905260248201527f4f776e61626c653a2063616c6c6572206973206e6f7420746865206f776e657260448201526064016104c2565b600380546001600160a01b038381166001600160a01b0319831681179093556040519116919082907f8be0079c531659141344cd1fd0a4f28419497f9722a3daafe3b4186f6b6457e090600090a35050565b6001600160a01b0383166111115760405162461bcd60e51b815260206004820152602360248201527f455243313135353a206275726e2066726f6d20746865207a65726f206164647260448201526265737360e81b60648201526084016104c2565b33600061111d846115b1565b9050600061112a846115b1565b60408051602080820183526000918290528882528181528282206001600160a01b038b16835290522054909150848110156111b35760405162461bcd60e51b8152602060048201526024808201527f455243313135353a206275726e20616d6f756e7420657863656564732062616c604482015263616e636560e01b60648201526084016104c2565b6000868152602081815260408083206001600160a01b038b81168086529184528285208a8703905582518b81529384018a9052909290881691600080516020612177833981519152910160405180910390a4604080516020810190915260009052610fc0565b816001600160a01b0316836001600160a01b03160361128c5760405162461bcd60e51b815260206004820152602960248201527f455243313135353a2073657474696e6720617070726f76616c20737461747573604482015268103337b91039b2b63360b91b60648201526084016104c2565b6001600160a01b03838116600081815260016020908152604080832094871680845294825291829020805460ff191686151590811790915591519182527f17307eab39ab6107e8899845ad3d59bd9653f200f220920489ca2b5937696c31910160405180910390a3505050565b6001600160a01b03841661131f5760405162461bcd60e51b81526004016104c290611ee4565b33600061132b856115b1565b90506000611338856115b1565b90506000868152602081815260408083206001600160a01b038c1684529091529020548581101561137b5760405162461bcd60e51b81526004016104c290611f29565b6000878152602081815260408083206001600160a01b038d8116855292528083208985039055908a168252812080548892906113b8908490611dcb565b909155505060408051888152602081018890526001600160a01b03808b16928c82169291881691600080516020612177833981519152910160405180910390a4611406848a8a8a8a8a6115fc565b505050505050505050565b600081815b845181101561086d576114428286838151811061143557611435611d86565b60200260200101516116b7565b91508061144e81611db2565b915050611416565b6001600160a01b0384163b15610e765760405163bc197c8160e01b81526001600160a01b0385169063bc197c819061149a9089908990889088908890600401611fd3565b6020604051808303816000875af19250505080156114d5575060408051601f3d908101601f191682019092526114d291810190612031565b60015b611581576114e161204e565b806308c379a00361151a57506114f561206a565b80611500575061151c565b8060405162461bcd60e51b81526004016104c291906117e6565b505b60405162461bcd60e51b815260206004820152603460248201527f455243313135353a207472616e7366657220746f206e6f6e2d455243313135356044820152732932b1b2b4bb32b91034b6b83632b6b2b73a32b960611b60648201526084016104c2565b6001600160e01b0319811663bc197c8160e01b14610fc05760405162461bcd60e51b81526004016104c2906120f4565b604080516001808252818301909252606091600091906020808301908036833701905050905082816000815181106115eb576115eb611d86565b602090810291909101015292915050565b6001600160a01b0384163b15610e765760405163f23a6e6160e01b81526001600160a01b0385169063f23a6e6190611640908990899088908890889060040161213c565b6020604051808303816000875af192505050801561167b575060408051601f3d908101601f1916820190925261167891810190612031565b60015b611687576114e161204e565b6001600160e01b0319811663f23a6e6160e01b14610fc05760405162461bcd60e51b81526004016104c2906120f4565b60008183106116d35760008281526020849052604090206116e2565b60008381526020839052604090205b9392505050565b80356001600160a01b038116811461170057600080fd5b919050565b6000806040838503121561171857600080fd5b611721836116e9565b946020939093013593505050565b6001600160e01b031981168114610c8857600080fd5b60006020828403121561175757600080fd5b81356116e28161172f565b60006020828403121561177457600080fd5b6116e2826116e9565b60006020828403121561178f57600080fd5b5035919050565b60005b838110156117b1578181015183820152602001611799565b50506000910152565b600081518084526117d2816020860160208601611796565b601f01601f19169290920160200192915050565b6020815260006116e260208301846117ba565b60008060006040848603121561180e57600080fd5b611817846116e9565b9250602084013567ffffffffffffffff8082111561183457600080fd5b818601915086601f83011261184857600080fd5b81358181111561185757600080fd5b8760208260051b850101111561186c57600080fd5b6020830194508093505050509250925092565b634e487b7160e01b600052604160045260246000fd5b601f8201601f1916810167ffffffffffffffff811182821017156118bb576118bb61187f565b6040525050565b600067ffffffffffffffff8211156118dc576118dc61187f565b5060051b60200190565b600082601f8301126118f757600080fd5b81356020611904826118c2565b6040516119118282611895565b83815260059390931b850182019282810191508684111561193157600080fd5b8286015b8481101561194c5780358352918301918301611935565b509695505050505050565b600082601f83011261196857600080fd5b813567ffffffffffffffff8111156119825761198261187f565b604051611999601f8301601f191660200182611895565b8181528460208386010111156119ae57600080fd5b816020850160208301376000918101602001919091529392505050565b600080600080600060a086880312156119e357600080fd5b6119ec866116e9565b94506119fa602087016116e9565b9350604086013567ffffffffffffffff80821115611a1757600080fd5b611a2389838a016118e6565b94506060880135915080821115611a3957600080fd5b611a4589838a016118e6565b93506080880135915080821115611a5b57600080fd5b50611a6888828901611957565b9150509295509295909350565b60008060408385031215611a8857600080fd5b823567ffffffffffffffff80821115611aa057600080fd5b818501915085601f830112611ab457600080fd5b81356020611ac1826118c2565b604051611ace8282611895565b83815260059390931b8501820192828101915089841115611aee57600080fd5b948201945b83861015611b1357611b04866116e9565b82529482019490820190611af3565b96505086013592505080821115611b2957600080fd5b50611b36858286016118e6565b9150509250929050565b600081518084526020808501945080840160005b83811015611b7057815187529582019590820190600101611b54565b509495945050505050565b6020815260006116e26020830184611b40565b60006020808385031215611ba157600080fd5b823567ffffffffffffffff811115611bb857600080fd5b8301601f81018513611bc957600080fd5b8035611bd4816118c2565b604051611be18282611895565b82815260059290921b8301840191848101915087831115611c0157600080fd5b928401925b82841015611c1f57833582529284019290840190611c06565b979650505050505050565b60008060408385031215611c3d57600080fd5b611c46836116e9565b915060208301358015158114611c5b57600080fd5b809150509250929050565b60008060408385031215611c7957600080fd5b611c82836116e9565b9150611c90602084016116e9565b90509250929050565b600080600080600060a08688031215611cb157600080fd5b611cba866116e9565b9450611cc8602087016116e9565b93506040860135925060608601359150608086013567ffffffffffffffff811115611cf257600080fd5b611a6888828901611957565b600181811c90821680611d1257607f821691505b602082108103611d3257634e487b7160e01b600052602260045260246000fd5b50919050565b6020808252602e908201527f455243313135353a2063616c6c6572206973206e6f7420746f6b656e206f776e60408201526d195c881bdc88185c1c1c9bdd995960921b606082015260800190565b634e487b7160e01b600052603260045260246000fd5b634e487b7160e01b600052601160045260246000fd5b600060018201611dc457611dc4611d9c565b5060010190565b808201808211156104ee576104ee611d9c565b601f82111561094157600081815260208120601f850160051c81016020861015611e055750805b601f850160051c820191505b81811015610e7657828155600101611e11565b815167ffffffffffffffff811115611e3e57611e3e61187f565b611e5281611e4c8454611cfe565b84611dde565b602080601f831160018114611e875760008415611e6f5750858301515b600019600386901b1c1916600185901b178555610e76565b600085815260208120601f198616915b82811015611eb657888601518255948401946001909101908401611e97565b5085821015611ed45787850151600019600388901b60f8161c191681555b5050505050600190811b01905550565b60208082526025908201527f455243313135353a207472616e7366657220746f20746865207a65726f206164604082015264647265737360d81b606082015260800190565b6020808252602a908201527f455243313135353a20696e73756666696369656e742062616c616e636520666f60408201526939103a3930b739b332b960b11b606082015260800190565b604081526000611f866040830185611b40565b8281036020840152611f988185611b40565b95945050505050565b60008351611fb3818460208801611796565b60609390931b6001600160601b0319169190920190815260140192915050565b6001600160a01b0386811682528516602082015260a060408201819052600090611fff90830186611b40565b82810360608401526120118186611b40565b9050828103608084015261202581856117ba565b98975050505050505050565b60006020828403121561204357600080fd5b81516116e28161172f565b600060033d11156120675760046000803e5060005160e01c5b90565b600060443d10156120785790565b6040516003193d81016004833e81513d67ffffffffffffffff81602484011181841117156120a857505050505090565b82850191508151818111156120c05750505050505090565b843d87010160208285010111156120da5750505050505090565b6120e960208286010187611895565b509095945050505050565b60208082526028908201527f455243313135353a204552433131353552656365697665722072656a656374656040820152676420746f6b656e7360c01b606082015260800190565b6001600160a01b03868116825285166020820152604081018490526060810183905260a060808201819052600090611c1f908301846117ba56fec3d58168c5ae7397731d063d5bbf3d657854427343f4c083240f7aacaa2d0f62a2646970667358221220697b91f649001a12ad9c506f0e0a5f9b959a45d50d296ff0c5f7585f87f1983664736f6c63430008110033",
  "devdoc": {
    "events": {
      "NFTMinted(address,uint256)": {
        "details": "This event will be emitted inside mintNFT function",
        "params": {
          "owner": "Address of the owner of the NFT",
          "tokenId": "ID of the minted NFT"
        }
      }
    },
    "kind": "dev",
    "methods": {
      "balanceOf(address,uint256)": {
        "details": "See {IERC1155-balanceOf}. Requirements: - `account` cannot be the zero address."
      },
      "balanceOfBatch(address[],uint256[])": {
        "details": "See {IERC1155-balanceOfBatch}. Requirements: - `accounts` and `ids` must have the same length."
      },
      "claimAirdrop(bytes32[])": {
        "details": "This function will mint NFTs to the caller",
        "params": {
          "_proof": "will be the hex value of the proof with the give caller address generated from the merkle tree"
        }
      },
      "constructor": {
        "params": {
          "_nftTokenURIs": "NFT token URIs",
          "_root": "Merkle root of the airdrop"
        }
      },
      "isApprovedForAll(address,address)": {
        "details": "See {IERC1155-isApprovedForAll}."
      },
      "owner()": {
        "details": "Returns the address of the current owner."
      },
      "renounceOwnership()": {
        "details": "Leaves the contract without owner. It will not be possible to call `onlyOwner` functions. Can only be called by the current owner. NOTE: Renouncing ownership will leave the contract without an owner, thereby disabling any functionality that is only available to the owner."
      },
      "safeBatchTransferFrom(address,address,uint256[],uint256[],bytes)": {
        "details": "See {IERC1155-safeBatchTransferFrom}."
      },
      "safeTransferFrom(address,address,uint256,uint256,bytes)": {
        "details": "See {IERC1155-safeTransferFrom}."
      },
      "setApprovalForAll(address,bool)": {
        "details": "See {IERC1155-setApprovalForAll}."
      },
      "supportsInterface(bytes4)": {
        "details": "See {IERC165-supportsInterface}."
      },
      "transferOwnership(address)": {
        "details": "Transfers ownership of the contract to a new account (`newOwner`). Can only be called by the current owner."
      },
      "uri(uint256)": {
        "details": "See {IERC1155MetadataURI-uri}. This implementation returns the same URI for *all* token types. It relies on the token type ID substitution mechanism https://eips.ethereum.org/EIPS/eip-1155#metadata[defined in the EIP]. Clients calling this function must replace the `\\{id\\}` substring with the actual token type ID."
      }
    },
    "version": 1
  },
  "userdoc": {
    "kind": "user",
    "methods": {},
    "version": 1
  },
  "storageLayout": {
    "storage": [
      {
        "astId": 166,
        "contract": "contracts/Airdrop.sol:Airdrop",
        "label": "_balances",
        "offset": 0,
        "slot": "0",
        "type": "t_mapping(t_uint256,t_mapping(t_address,t_uint256))"
      },
      {
        "astId": 172,
        "contract": "contracts/Airdrop.sol:Airdrop",
        "label": "_operatorApprovals",
        "offset": 0,
        "slot": "1",
        "type": "t_mapping(t_address,t_mapping(t_address,t_bool))"
      },
      {
        "astId": 174,
        "contract": "contracts/Airdrop.sol:Airdrop",
        "label": "_uri",
        "offset": 0,
        "slot": "2",
        "type": "t_string_storage"
      },
      {
        "astId": 7,
        "contract": "contracts/Airdrop.sol:Airdrop",
        "label": "_owner",
        "offset": 0,
        "slot": "3",
        "type": "t_address"
      },
      {
        "astId": 5381,
        "contract": "contracts/Airdrop.sol:Airdrop",
        "label": "s_nftTokenURIs",
        "offset": 0,
        "slot": "4",
        "type": "t_string_storage"
      },
      {
        "astId": 5383,
        "contract": "contracts/Airdrop.sol:Airdrop",
        "label": "s_tokenCounter",
        "offset": 0,
        "slot": "5",
        "type": "t_uint256"
      },
      {
        "astId": 5387,
        "contract": "contracts/Airdrop.sol:Airdrop",
        "label": "s_claimed",
        "offset": 0,
        "slot": "6",
        "type": "t_mapping(t_address,t_bool)"
      },
      {
        "astId": 5391,
        "contract": "contracts/Airdrop.sol:Airdrop",
        "label": "s_exists",
        "offset": 0,
        "slot": "7",
        "type": "t_mapping(t_uint256,t_bool)"
      },
      {
        "astId": 5395,
        "contract": "contracts/Airdrop.sol:Airdrop",
        "label": "s_tokenURIs",
        "offset": 0,
        "slot": "8",
        "type": "t_mapping(t_uint256,t_string_storage)"
      }
    ],
    "types": {
      "t_address": {
        "encoding": "inplace",
        "label": "address",
        "numberOfBytes": "20"
      },
      "t_bool": {
        "encoding": "inplace",
        "label": "bool",
        "numberOfBytes": "1"
      },
      "t_mapping(t_address,t_bool)": {
        "encoding": "mapping",
        "key": "t_address",
        "label": "mapping(address => bool)",
        "numberOfBytes": "32",
        "value": "t_bool"
      },
      "t_mapping(t_address,t_mapping(t_address,t_bool))": {
        "encoding": "mapping",
        "key": "t_address",
        "label": "mapping(address => mapping(address => bool))",
        "numberOfBytes": "32",
        "value": "t_mapping(t_address,t_bool)"
      },
      "t_mapping(t_address,t_uint256)": {
        "encoding": "mapping",
        "key": "t_address",
        "label": "mapping(address => uint256)",
        "numberOfBytes": "32",
        "value": "t_uint256"
      },
      "t_mapping(t_uint256,t_bool)": {
        "encoding": "mapping",
        "key": "t_uint256",
        "label": "mapping(uint256 => bool)",
        "numberOfBytes": "32",
        "value": "t_bool"
      },
      "t_mapping(t_uint256,t_mapping(t_address,t_uint256))": {
        "encoding": "mapping",
        "key": "t_uint256",
        "label": "mapping(uint256 => mapping(address => uint256))",
        "numberOfBytes": "32",
        "value": "t_mapping(t_address,t_uint256)"
      },
      "t_mapping(t_uint256,t_string_storage)": {
        "encoding": "mapping",
        "key": "t_uint256",
        "label": "mapping(uint256 => string)",
        "numberOfBytes": "32",
        "value": "t_string_storage"
      },
      "t_string_storage": {
        "encoding": "bytes",
        "label": "string",
        "numberOfBytes": "32"
      },
      "t_uint256": {
        "encoding": "inplace",
        "label": "uint256",
        "numberOfBytes": "32"
      }
    }
  }
}