{
  "address": "0xe7f1725E7734CE288F8367e1Bb143E90bb3F0512",
  "abi": [
    {
      "inputs": [
        {
          "internalType": "bytes32",
          "name": "_root",
          "type": "bytes32"
        },
        {
          "internalType": "string",
          "name": "_nftTokenURIs",
          "type": "string"
        },
        {
          "internalType": "address",
          "name": "_nftAddress",
          "type": "address"
        }
      ],
      "stateMutability": "nonpayable",
      "type": "constructor"
    },
    {
      "inputs": [
        {
          "internalType": "address",
          "name": "caller",
          "type": "address"
        }
      ],
      "name": "Airdrop__AlreadyClaimed",
      "type": "error"
    },
    {
      "inputs": [
        {
          "internalType": "address",
          "name": "caller",
          "type": "address"
        }
      ],
      "name": "Airdrop__NotInAllowList",
      "type": "error"
    },
    {
      "anonymous": false,
      "inputs": [
        {
          "indexed": true,
          "internalType": "address",
          "name": "owner",
          "type": "address"
        },
        {
          "indexed": true,
          "internalType": "uint256",
          "name": "tokenId",
          "type": "uint256"
        },
        {
          "indexed": false,
          "internalType": "uint256",
          "name": "amount",
          "type": "uint256"
        }
      ],
      "name": "AirdropClaimed",
      "type": "event"
    },
    {
      "anonymous": false,
      "inputs": [
        {
          "indexed": true,
          "internalType": "address",
          "name": "account",
          "type": "address"
        },
        {
          "indexed": true,
          "internalType": "address",
          "name": "operator",
          "type": "address"
        },
        {
          "indexed": false,
          "internalType": "bool",
          "name": "approved",
          "type": "bool"
        }
      ],
      "name": "ApprovalForAll",
      "type": "event"
    },
    {
      "anonymous": false,
      "inputs": [
        {
          "indexed": true,
          "internalType": "address",
          "name": "previousOwner",
          "type": "address"
        },
        {
          "indexed": true,
          "internalType": "address",
          "name": "newOwner",
          "type": "address"
        }
      ],
      "name": "OwnershipTransferred",
      "type": "event"
    },
    {
      "anonymous": false,
      "inputs": [
        {
          "indexed": true,
          "internalType": "address",
          "name": "operator",
          "type": "address"
        },
        {
          "indexed": true,
          "internalType": "address",
          "name": "from",
          "type": "address"
        },
        {
          "indexed": true,
          "internalType": "address",
          "name": "to",
          "type": "address"
        },
        {
          "indexed": false,
          "internalType": "uint256[]",
          "name": "ids",
          "type": "uint256[]"
        },
        {
          "indexed": false,
          "internalType": "uint256[]",
          "name": "values",
          "type": "uint256[]"
        }
      ],
      "name": "TransferBatch",
      "type": "event"
    },
    {
      "anonymous": false,
      "inputs": [
        {
          "indexed": true,
          "internalType": "address",
          "name": "operator",
          "type": "address"
        },
        {
          "indexed": true,
          "internalType": "address",
          "name": "from",
          "type": "address"
        },
        {
          "indexed": true,
          "internalType": "address",
          "name": "to",
          "type": "address"
        },
        {
          "indexed": false,
          "internalType": "uint256",
          "name": "id",
          "type": "uint256"
        },
        {
          "indexed": false,
          "internalType": "uint256",
          "name": "value",
          "type": "uint256"
        }
      ],
      "name": "TransferSingle",
      "type": "event"
    },
    {
      "anonymous": false,
      "inputs": [
        {
          "indexed": false,
          "internalType": "string",
          "name": "value",
          "type": "string"
        },
        {
          "indexed": true,
          "internalType": "uint256",
          "name": "id",
          "type": "uint256"
        }
      ],
      "name": "URI",
      "type": "event"
    },
    {
      "inputs": [
        {
          "internalType": "address",
          "name": "account",
          "type": "address"
        },
        {
          "internalType": "uint256",
          "name": "id",
          "type": "uint256"
        }
      ],
      "name": "balanceOf",
      "outputs": [
        {
          "internalType": "uint256",
          "name": "",
          "type": "uint256"
        }
      ],
      "stateMutability": "view",
      "type": "function"
    },
    {
      "inputs": [
        {
          "internalType": "address[]",
          "name": "accounts",
          "type": "address[]"
        },
        {
          "internalType": "uint256[]",
          "name": "ids",
          "type": "uint256[]"
        }
      ],
      "name": "balanceOfBatch",
      "outputs": [
        {
          "internalType": "uint256[]",
          "name": "",
          "type": "uint256[]"
        }
      ],
      "stateMutability": "view",
      "type": "function"
    },
    {
      "inputs": [
        {
          "internalType": "bytes32[]",
          "name": "_proof",
          "type": "bytes32[]"
        }
      ],
      "name": "canClaim",
      "outputs": [
        {
          "internalType": "bool",
          "name": "",
          "type": "bool"
        }
      ],
      "stateMutability": "view",
      "type": "function"
    },
    {
      "inputs": [
        {
          "internalType": "bytes32[]",
          "name": "_proof",
          "type": "bytes32[]"
        }
      ],
      "name": "claimAirdrop",
      "outputs": [],
      "stateMutability": "nonpayable",
      "type": "function"
    },
    {
      "inputs": [
        {
          "internalType": "address",
          "name": "_address",
          "type": "address"
        }
      ],
      "name": "getClaimStatus",
      "outputs": [
        {
          "internalType": "bool",
          "name": "",
          "type": "bool"
        }
      ],
      "stateMutability": "view",
      "type": "function"
    },
    {
      "inputs": [
        {
          "internalType": "address",
          "name": "_address",
          "type": "address"
        }
      ],
      "name": "getNftBalance",
      "outputs": [
        {
          "internalType": "uint256",
          "name": "",
          "type": "uint256"
        }
      ],
      "stateMutability": "view",
      "type": "function"
    },
    {
      "inputs": [
        {
          "internalType": "address",
          "name": "_owner",
          "type": "address"
        }
      ],
      "name": "getTokenId",
      "outputs": [
        {
          "internalType": "uint256",
          "name": "",
          "type": "uint256"
        }
      ],
      "stateMutability": "view",
      "type": "function"
    },
    {
      "inputs": [],
      "name": "i_root",
      "outputs": [
        {
          "internalType": "bytes32",
          "name": "",
          "type": "bytes32"
        }
      ],
      "stateMutability": "view",
      "type": "function"
    },
    {
      "inputs": [
        {
          "internalType": "address",
          "name": "account",
          "type": "address"
        },
        {
          "internalType": "address",
          "name": "operator",
          "type": "address"
        }
      ],
      "name": "isApprovedForAll",
      "outputs": [
        {
          "internalType": "bool",
          "name": "",
          "type": "bool"
        }
      ],
      "stateMutability": "view",
      "type": "function"
    },
    {
      "inputs": [
        {
          "internalType": "address",
          "name": "_owner",
          "type": "address"
        }
      ],
      "name": "isTokenExists",
      "outputs": [
        {
          "internalType": "bool",
          "name": "",
          "type": "bool"
        }
      ],
      "stateMutability": "view",
      "type": "function"
    },
    {
      "inputs": [],
      "name": "owner",
      "outputs": [
        {
          "internalType": "address",
          "name": "",
          "type": "address"
        }
      ],
      "stateMutability": "view",
      "type": "function"
    },
    {
      "inputs": [
        {
          "internalType": "uint256",
          "name": "tokenId",
          "type": "uint256"
        }
      ],
      "name": "ownerOf",
      "outputs": [
        {
          "internalType": "address",
          "name": "",
          "type": "address"
        }
      ],
      "stateMutability": "view",
      "type": "function"
    },
    {
      "inputs": [],
      "name": "renounceOwnership",
      "outputs": [],
      "stateMutability": "nonpayable",
      "type": "function"
    },
    {
      "inputs": [
        {
          "internalType": "address",
          "name": "_contractAddress",
          "type": "address"
        }
      ],
      "name": "revokeApproval",
      "outputs": [],
      "stateMutability": "nonpayable",
      "type": "function"
    },
    {
      "inputs": [
        {
          "internalType": "address",
          "name": "",
          "type": "address"
        }
      ],
      "name": "s_claimed",
      "outputs": [
        {
          "internalType": "bool",
          "name": "",
          "type": "bool"
        }
      ],
      "stateMutability": "view",
      "type": "function"
    },
    {
      "inputs": [
        {
          "internalType": "uint256",
          "name": "",
          "type": "uint256"
        }
      ],
      "name": "s_tokenOwners",
      "outputs": [
        {
          "internalType": "address",
          "name": "",
          "type": "address"
        }
      ],
      "stateMutability": "view",
      "type": "function"
    },
    {
      "inputs": [
        {
          "internalType": "address",
          "name": "from",
          "type": "address"
        },
        {
          "internalType": "address",
          "name": "to",
          "type": "address"
        },
        {
          "internalType": "uint256[]",
          "name": "ids",
          "type": "uint256[]"
        },
        {
          "internalType": "uint256[]",
          "name": "amounts",
          "type": "uint256[]"
        },
        {
          "internalType": "bytes",
          "name": "data",
          "type": "bytes"
        }
      ],
      "name": "safeBatchTransferFrom",
      "outputs": [],
      "stateMutability": "nonpayable",
      "type": "function"
    },
    {
      "inputs": [
        {
          "internalType": "address",
          "name": "from",
          "type": "address"
        },
        {
          "internalType": "address",
          "name": "to",
          "type": "address"
        },
        {
          "internalType": "uint256",
          "name": "id",
          "type": "uint256"
        },
        {
          "internalType": "uint256",
          "name": "amount",
          "type": "uint256"
        },
        {
          "internalType": "bytes",
          "name": "data",
          "type": "bytes"
        }
      ],
      "name": "safeTransferFrom",
      "outputs": [],
      "stateMutability": "nonpayable",
      "type": "function"
    },
    {
      "inputs": [
        {
          "internalType": "address",
          "name": "operator",
          "type": "address"
        },
        {
          "internalType": "bool",
          "name": "approved",
          "type": "bool"
        }
      ],
      "name": "setApprovalForAll",
      "outputs": [],
      "stateMutability": "nonpayable",
      "type": "function"
    },
    {
      "inputs": [
        {
          "internalType": "address",
          "name": "_contractAddress",
          "type": "address"
        }
      ],
      "name": "setApprovedContract",
      "outputs": [],
      "stateMutability": "nonpayable",
      "type": "function"
    },
    {
      "inputs": [
        {
          "internalType": "bytes32",
          "name": "_root",
          "type": "bytes32"
        }
      ],
      "name": "setMerkleRoot",
      "outputs": [],
      "stateMutability": "nonpayable",
      "type": "function"
    },
    {
      "inputs": [
        {
          "internalType": "bytes4",
          "name": "interfaceId",
          "type": "bytes4"
        }
      ],
      "name": "supportsInterface",
      "outputs": [
        {
          "internalType": "bool",
          "name": "",
          "type": "bool"
        }
      ],
      "stateMutability": "view",
      "type": "function"
    },
    {
      "inputs": [
        {
          "internalType": "address",
          "name": "newOwner",
          "type": "address"
        }
      ],
      "name": "transferOwnership",
      "outputs": [],
      "stateMutability": "nonpayable",
      "type": "function"
    },
    {
      "inputs": [
        {
          "internalType": "uint256",
          "name": "",
          "type": "uint256"
        }
      ],
      "name": "uri",
      "outputs": [
        {
          "internalType": "string",
          "name": "",
          "type": "string"
        }
      ],
      "stateMutability": "view",
      "type": "function"
    }
  ],
  "transactionHash": "0x2a0b18c98a254ae91cd33a0d2f2fccb10c51f533f22fcbe12bf53162a9cc686d",
  "args": [
    "0x94f9ae854e1f087e27e62c1a89d526f10f4c8b814bf7584bf338b76e88461d96",
    "ipfs://QmT9JJuUya27XKThLvnsB7r1BxTHAyAwRaZc56Ji54h3Fx/",
    "0x5FbDB2315678afecb367f032d93F642f64180aa3"
  ],
  "numDeployments": 1,
  "solcInputHash": "c95cc4de1c74e36fd021c217e6b4f2a3",
  "bytecode": "0x60806040523480156200001157600080fd5b50604051620023cc380380620023cc83398101604081905262000034916200012e565b6040805160208101909152600081526200004e8162000097565b506200005a33620000a9565b600683905560076200006d8382620002af565b50600580546001600160a01b0319166001600160a01b0392909216919091179055506200037b9050565b6002620000a58282620002af565b5050565b600380546001600160a01b038381166001600160a01b0319831681179093556040519116919082907f8be0079c531659141344cd1fd0a4f28419497f9722a3daafe3b4186f6b6457e090600090a35050565b634e487b7160e01b600052604160045260246000fd5b80516001600160a01b03811681146200012957600080fd5b919050565b6000806000606084860312156200014457600080fd5b8351602080860151919450906001600160401b03808211156200016657600080fd5b818701915087601f8301126200017b57600080fd5b815181811115620001905762000190620000fb565b604051601f8201601f19908116603f01168101908382118183101715620001bb57620001bb620000fb565b816040528281528a86848701011115620001d457600080fd5b600093505b82841015620001f85784840186015181850187015292850192620001d9565b6000868483010152809750505050505050620002176040850162000111565b90509250925092565b600181811c908216806200023557607f821691505b6020821081036200025657634e487b7160e01b600052602260045260246000fd5b50919050565b601f821115620002aa57600081815260208120601f850160051c81016020861015620002855750805b601f850160051c820191505b81811015620002a65782815560010162000291565b5050505b505050565b81516001600160401b03811115620002cb57620002cb620000fb565b620002e381620002dc845462000220565b846200025c565b602080601f8311600181146200031b5760008415620003025750858301515b600019600386901b1c1916600185901b178555620002a6565b600085815260208120601f198616915b828110156200034c578886015182559484019460019091019084016200032b565b50858210156200036b5787850151600019600388901b60f8161c191681555b5050505050600190811b01905550565b612041806200038b6000396000f3fe608060405234801561001057600080fd5b50600436106101575760003560e01c806374b3c7ec116100c3578063c9760f711161007c578063c9760f711461033e578063e1e4fec01461036a578063e985e9c514610393578063f1537686146103cf578063f242432a146103f8578063f2fde38b1461040b57600080fd5b806374b3c7ec146102985780637cb64759146102bb5780638da5cb5b146102ce5780639ed4fa5a146102df578063a22cb46514610318578063c637954b1461032b57600080fd5b80634d75bbf9116101155780634d75bbf9146102005780634e1273f41461020957806353223ab0146102295780636352211e1461023c57806369242dc61461027d578063715018a61461029057600080fd5b8062fdd58e1461015c57806301ffc9a7146101825780630e89341c146101a55780631e40dff4146101c55780632eb2c2d6146101d8578063484685b0146101ed575b600080fd5b61016f61016a36600461158d565b61041e565b6040519081526020015b60405180910390f35b6101956101903660046115cd565b6104b7565b6040519015158152602001610179565b6101b86101b33660046115ea565b610507565b6040516101799190611653565b6101956101d3366004611666565b61059b565b6101eb6101e6366004611827565b61062e565b005b6101eb6101fb3660046118d1565b61067a565b61016f60065481565b61021c6102173660046118ec565b6106a3565b60405161017991906119f2565b6101eb610237366004611a05565b6107cd565b61026561024a3660046115ea565b6000908152600d60205260409020546001600160a01b031690565b6040516001600160a01b039091168152602001610179565b6101eb61028b3660046118d1565b610a26565b6101eb610a52565b6101956102a63660046118d1565b60086020526000908152604090205460ff1681565b6101eb6102c93660046115ea565b610a66565b6003546001600160a01b0316610265565b6101956102ed3660046118d1565b6001600160a01b03166000908152600a60209081526040808320548352600990915290205460ff1690565b6101eb610326366004611aa1565b610a73565b61016f6103393660046118d1565b610a82565b61019561034c3660046118d1565b6001600160a01b031660009081526008602052604090205460ff1690565b6102656103783660046115ea565b600d602052600090815260409020546001600160a01b031681565b6101956103a1366004611add565b6001600160a01b03918216600090815260016020908152604080832093909416825291909152205460ff1690565b61016f6103dd3660046118d1565b6001600160a01b03166000908152600a602052604090205490565b6101eb610406366004611b10565b610af1565b6101eb6104193660046118d1565b610b36565b60006001600160a01b03831661048e5760405162461bcd60e51b815260206004820152602a60248201527f455243313135353a2061646472657373207a65726f206973206e6f742061207660448201526930b634b21037bbb732b960b11b60648201526084015b60405180910390fd5b506000818152602081815260408083206001600160a01b03861684529091529020545b92915050565b60006001600160e01b03198216636cdb3d1360e11b14806104e857506001600160e01b031982166303a24d0760e21b145b806104b157506301ffc9a760e01b6001600160e01b03198316146104b1565b60606002805461051690611b75565b80601f016020809104026020016040519081016040528092919081815260200182805461054290611b75565b801561058f5780601f106105645761010080835404028352916020019161058f565b820191906000526020600020905b81548152906001019060200180831161057257829003601f168201915b50505050509050919050565b3360009081526008602052604081205460ff161580156106275750610627838380806020026020016040519081016040528093929190818152602001838360200280828437600092019190915250506006546040516001600160601b03193360601b16602082015290925060340190505b60405160208183030381529060405280519060200120610baf565b9392505050565b6001600160a01b03851633148061064a575061064a85336103a1565b6106665760405162461bcd60e51b815260040161048590611baf565b6106738585858585610bc5565b5050505050565b610682610db0565b6001600160a01b03166000908152600f60205260409020805460ff19169055565b606081518351146107085760405162461bcd60e51b815260206004820152602960248201527f455243313135353a206163636f756e747320616e6420696473206c656e677468604482015268040dad2e6dac2e8c6d60bb1b6064820152608401610485565b6000835167ffffffffffffffff811115610724576107246116db565b60405190808252806020026020018201604052801561074d578160200160208202803683370190505b50905060005b84518110156107c55761079885828151811061077157610771611bfd565b602002602001015185838151811061078b5761078b611bfd565b602002602001015161041e565b8282815181106107aa576107aa611bfd565b60209081029190910101526107be81611c29565b9050610753565b509392505050565b3360009081526008602052604090205460ff16156108005760405163e0cd221960e01b8152336004820152602401610485565b61080981610e0a565b6108285760405163ae18156360e01b8152336004820152602401610485565b6005546040516370a0823160e01b81523360048201526000916001600160a01b0316906370a0823190602401602060405180830381865afa158015610871573d6000803e3d6000fd5b505050506040513d601f19601f820116820180604052508101906108959190611c42565b9050600081116108e75760405162461bcd60e51b815260206004820152601b60248201527f41697264726f703a204e6f20746f6b656e7320746f20636c61696d00000000006044820152606401610485565b6109033360008360405180602001604052806000815250610e35565b336000818152600a602090815260408220829055908052600d90527f81955a0a11e65eac625c29e8882660bae4e165a75d72780094acae8ece9a29ee80546001600160a01b0319168217905561095890610f58565b60008052600e6020527fe710864318d4a32f37d6ce54cb3fadbef648dd12d8dbdf53973564d56b7f881c9061098d9082611ca6565b507fec8156718a8372b1db44bb411437d0870f3e3790d4a08526d024ce1b0b668f6b805460ff19166001179055336000818152600b6020526040808220849055519091907fd0755a9ef5a74f50d34b3503bb5b65ad71a112c001b76dfa6412c9aa4a1f43b090610a009085815260200190565b60405180910390a35050336000908152600860205260409020805460ff19166001179055565b610a2e610db0565b6001600160a01b03166000908152600f60205260409020805460ff19166001179055565b610a5a610db0565b610a646000610f92565b565b610a6e610db0565b600655565b610a7e338383610fe4565b5050565b6005546040516370a0823160e01b81526001600160a01b03838116600483015260009216906370a0823190602401602060405180830381865afa158015610acd573d6000803e3d6000fd5b505050506040513d601f19601f820116820180604052508101906104b19190611c42565b6001600160a01b038516331480610b0d5750610b0d85336103a1565b610b295760405162461bcd60e51b815260040161048590611baf565b61067385858585856110c4565b610b3e610db0565b6001600160a01b038116610ba35760405162461bcd60e51b815260206004820152602660248201527f4f776e61626c653a206e6577206f776e657220697320746865207a65726f206160448201526564647265737360d01b6064820152608401610485565b610bac81610f92565b50565b600082610bbc85846111fc565b14949350505050565b8151835114610c275760405162461bcd60e51b815260206004820152602860248201527f455243313135353a2069647320616e6420616d6f756e7473206c656e677468206044820152670dad2e6dac2e8c6d60c31b6064820152608401610485565b6001600160a01b038416610c4d5760405162461bcd60e51b815260040161048590611d66565b33610c5c818787878787611241565b60005b8451811015610d42576000858281518110610c7c57610c7c611bfd565b602002602001015190506000858381518110610c9a57610c9a611bfd565b602090810291909101810151600084815280835260408082206001600160a01b038e168352909352919091205490915081811015610cea5760405162461bcd60e51b815260040161048590611dab565b6000838152602081815260408083206001600160a01b038e8116855292528083208585039055908b16825281208054849290610d27908490611df5565b9250508190555050505080610d3b90611c29565b9050610c5f565b50846001600160a01b0316866001600160a01b0316826001600160a01b03167f4a39dc06d4c0dbc64b70af90fd698a233a518aa5d07e595d983b8c0526c8f7fb8787604051610d92929190611e08565b60405180910390a4610da88187878787876112e1565b505050505050565b6003546001600160a01b03163314610a645760405162461bcd60e51b815260206004820181905260248201527f4f776e61626c653a2063616c6c6572206973206e6f7420746865206f776e65726044820152606401610485565b6006546040516001600160601b03193360601b1660208201526000916104b19184919060340161060c565b6001600160a01b038416610e955760405162461bcd60e51b815260206004820152602160248201527f455243313135353a206d696e7420746f20746865207a65726f206164647265736044820152607360f81b6064820152608401610485565b336000610ea18561143c565b90506000610eae8561143c565b9050610ebf83600089858589611241565b6000868152602081815260408083206001600160a01b038b16845290915281208054879290610eef908490611df5565b909155505060408051878152602081018790526001600160a01b03808a1692600092918716917fc3d58168c5ae7397731d063d5bbf3d657854427343f4c083240f7aacaa2d0f62910160405180910390a4610f4f83600089898989611487565b50505050505050565b60606000610f666000610507565b90508083604051602001610f7b929190611e36565b604051602081830303815290604052915050919050565b600380546001600160a01b038381166001600160a01b0319831681179093556040519116919082907f8be0079c531659141344cd1fd0a4f28419497f9722a3daafe3b4186f6b6457e090600090a35050565b816001600160a01b0316836001600160a01b0316036110575760405162461bcd60e51b815260206004820152602960248201527f455243313135353a2073657474696e6720617070726f76616c20737461747573604482015268103337b91039b2b63360b91b6064820152608401610485565b6001600160a01b03838116600081815260016020908152604080832094871680845294825291829020805460ff191686151590811790915591519182527f17307eab39ab6107e8899845ad3d59bd9653f200f220920489ca2b5937696c31910160405180910390a3505050565b6001600160a01b0384166110ea5760405162461bcd60e51b815260040161048590611d66565b3360006110f68561143c565b905060006111038561143c565b9050611113838989858589611241565b6000868152602081815260408083206001600160a01b038c168452909152902054858110156111545760405162461bcd60e51b815260040161048590611dab565b6000878152602081815260408083206001600160a01b038d8116855292528083208985039055908a16825281208054889290611191908490611df5565b909155505060408051888152602081018890526001600160a01b03808b16928c821692918816917fc3d58168c5ae7397731d063d5bbf3d657854427343f4c083240f7aacaa2d0f62910160405180910390a46111f1848a8a8a8a8a611487565b505050505050505050565b600081815b84518110156107c55761122d8286838151811061122057611220611bfd565b6020026020010151611542565b91508061123981611c29565b915050611201565b6001600160a01b03851615610da8576001600160a01b0384161580159061128157506001600160a01b0384166000908152600f602052604090205460ff16155b15610da85760405162461bcd60e51b815260206004820152602a60248201527f41697264726f703a207472616e7366657220746f206e6f6e20617070726f7665604482015269190818dbdb9d1c9858dd60b21b6064820152608401610485565b6001600160a01b0384163b15610da85760405163bc197c8160e01b81526001600160a01b0385169063bc197c81906113259089908990889088908890600401611e68565b6020604051808303816000875af1925050508015611360575060408051601f3d908101601f1916820190925261135d91810190611ec6565b60015b61140c5761136c611ee3565b806308c379a0036113a55750611380611eff565b8061138b57506113a7565b8060405162461bcd60e51b81526004016104859190611653565b505b60405162461bcd60e51b815260206004820152603460248201527f455243313135353a207472616e7366657220746f206e6f6e2d455243313135356044820152732932b1b2b4bb32b91034b6b83632b6b2b73a32b960611b6064820152608401610485565b6001600160e01b0319811663bc197c8160e01b14610f4f5760405162461bcd60e51b815260040161048590611f89565b6040805160018082528183019092526060916000919060208083019080368337019050509050828160008151811061147657611476611bfd565b602090810291909101015292915050565b6001600160a01b0384163b15610da85760405163f23a6e6160e01b81526001600160a01b0385169063f23a6e61906114cb9089908990889088908890600401611fd1565b6020604051808303816000875af1925050508015611506575060408051601f3d908101601f1916820190925261150391810190611ec6565b60015b6115125761136c611ee3565b6001600160e01b0319811663f23a6e6160e01b14610f4f5760405162461bcd60e51b815260040161048590611f89565b600081831061155e576000828152602084905260409020610627565b6000838152602083905260409020610627565b80356001600160a01b038116811461158857600080fd5b919050565b600080604083850312156115a057600080fd5b6115a983611571565b946020939093013593505050565b6001600160e01b031981168114610bac57600080fd5b6000602082840312156115df57600080fd5b8135610627816115b7565b6000602082840312156115fc57600080fd5b5035919050565b60005b8381101561161e578181015183820152602001611606565b50506000910152565b6000815180845261163f816020860160208601611603565b601f01601f19169290920160200192915050565b6020815260006106276020830184611627565b6000806020838503121561167957600080fd5b823567ffffffffffffffff8082111561169157600080fd5b818501915085601f8301126116a557600080fd5b8135818111156116b457600080fd5b8660208260051b85010111156116c957600080fd5b60209290920196919550909350505050565b634e487b7160e01b600052604160045260246000fd5b601f8201601f1916810167ffffffffffffffff81118282101715611717576117176116db565b6040525050565b600067ffffffffffffffff821115611738576117386116db565b5060051b60200190565b600082601f83011261175357600080fd5b813560206117608261171e565b60405161176d82826116f1565b83815260059390931b850182019282810191508684111561178d57600080fd5b8286015b848110156117a85780358352918301918301611791565b509695505050505050565b600082601f8301126117c457600080fd5b813567ffffffffffffffff8111156117de576117de6116db565b6040516117f5601f8301601f1916602001826116f1565b81815284602083860101111561180a57600080fd5b816020850160208301376000918101602001919091529392505050565b600080600080600060a0868803121561183f57600080fd5b61184886611571565b945061185660208701611571565b9350604086013567ffffffffffffffff8082111561187357600080fd5b61187f89838a01611742565b9450606088013591508082111561189557600080fd5b6118a189838a01611742565b935060808801359150808211156118b757600080fd5b506118c4888289016117b3565b9150509295509295909350565b6000602082840312156118e357600080fd5b61062782611571565b600080604083850312156118ff57600080fd5b823567ffffffffffffffff8082111561191757600080fd5b818501915085601f83011261192b57600080fd5b813560206119388261171e565b60405161194582826116f1565b83815260059390931b850182019282810191508984111561196557600080fd5b948201945b8386101561198a5761197b86611571565b8252948201949082019061196a565b965050860135925050808211156119a057600080fd5b506119ad85828601611742565b9150509250929050565b600081518084526020808501945080840160005b838110156119e7578151875295820195908201906001016119cb565b509495945050505050565b60208152600061062760208301846119b7565b60006020808385031215611a1857600080fd5b823567ffffffffffffffff811115611a2f57600080fd5b8301601f81018513611a4057600080fd5b8035611a4b8161171e565b604051611a5882826116f1565b82815260059290921b8301840191848101915087831115611a7857600080fd5b928401925b82841015611a9657833582529284019290840190611a7d565b979650505050505050565b60008060408385031215611ab457600080fd5b611abd83611571565b915060208301358015158114611ad257600080fd5b809150509250929050565b60008060408385031215611af057600080fd5b611af983611571565b9150611b0760208401611571565b90509250929050565b600080600080600060a08688031215611b2857600080fd5b611b3186611571565b9450611b3f60208701611571565b93506040860135925060608601359150608086013567ffffffffffffffff811115611b6957600080fd5b6118c4888289016117b3565b600181811c90821680611b8957607f821691505b602082108103611ba957634e487b7160e01b600052602260045260246000fd5b50919050565b6020808252602e908201527f455243313135353a2063616c6c6572206973206e6f7420746f6b656e206f776e60408201526d195c881bdc88185c1c1c9bdd995960921b606082015260800190565b634e487b7160e01b600052603260045260246000fd5b634e487b7160e01b600052601160045260246000fd5b600060018201611c3b57611c3b611c13565b5060010190565b600060208284031215611c5457600080fd5b5051919050565b601f821115611ca157600081815260208120601f850160051c81016020861015611c825750805b601f850160051c820191505b81811015610da857828155600101611c8e565b505050565b815167ffffffffffffffff811115611cc057611cc06116db565b611cd481611cce8454611b75565b84611c5b565b602080601f831160018114611d095760008415611cf15750858301515b600019600386901b1c1916600185901b178555610da8565b600085815260208120601f198616915b82811015611d3857888601518255948401946001909101908401611d19565b5085821015611d565787850151600019600388901b60f8161c191681555b5050505050600190811b01905550565b60208082526025908201527f455243313135353a207472616e7366657220746f20746865207a65726f206164604082015264647265737360d81b606082015260800190565b6020808252602a908201527f455243313135353a20696e73756666696369656e742062616c616e636520666f60408201526939103a3930b739b332b960b11b606082015260800190565b808201808211156104b1576104b1611c13565b604081526000611e1b60408301856119b7565b8281036020840152611e2d81856119b7565b95945050505050565b60008351611e48818460208801611603565b60609390931b6001600160601b0319169190920190815260140192915050565b6001600160a01b0386811682528516602082015260a060408201819052600090611e94908301866119b7565b8281036060840152611ea681866119b7565b90508281036080840152611eba8185611627565b98975050505050505050565b600060208284031215611ed857600080fd5b8151610627816115b7565b600060033d1115611efc5760046000803e5060005160e01c5b90565b600060443d1015611f0d5790565b6040516003193d81016004833e81513d67ffffffffffffffff8160248401118184111715611f3d57505050505090565b8285019150815181811115611f555750505050505090565b843d8701016020828501011115611f6f5750505050505090565b611f7e602082860101876116f1565b509095945050505050565b60208082526028908201527f455243313135353a204552433131353552656365697665722072656a656374656040820152676420746f6b656e7360c01b606082015260800190565b6001600160a01b03868116825285166020820152604081018490526060810183905260a060808201819052600090611a969083018461162756fea264697066735822122017d37824bcfbdae445ef192ed3922b6a10154300a1041b5f557a0f0849c4b2f064736f6c63430008110033",
  "devdoc": {
    "events": {
      "AirdropClaimed(address,uint256,uint256)": {
        "details": "This event will be emitted inside mintNFT function",
        "params": {
          "owner": "Address of the owner of the NFT",
          "tokenId": "ID of the minted NFT"
        }
      }
    },
    "kind": "dev",
    "methods": {
      "balanceOf(address,uint256)": {
        "details": "See {IERC1155-balanceOf}. Requirements: - `account` cannot be the zero address."
      },
      "balanceOfBatch(address[],uint256[])": {
        "details": "See {IERC1155-balanceOfBatch}. Requirements: - `accounts` and `ids` must have the same length."
      },
      "claimAirdrop(bytes32[])": {
        "details": "This function will mint NFTs to the caller",
        "params": {
          "_proof": "will be the hex value of the proof with the give caller address generated from the merkle tree"
        }
      },
      "constructor": {
        "params": {
          "_nftAddress": "Address of the NFT contract",
          "_nftTokenURIs": "NFT token URIs",
          "_root": "Merkle root of the airdrop"
        }
      },
      "isApprovedForAll(address,address)": {
        "details": "See {IERC1155-isApprovedForAll}."
      },
      "owner()": {
        "details": "Returns the address of the current owner."
      },
      "renounceOwnership()": {
        "details": "Leaves the contract without owner. It will not be possible to call `onlyOwner` functions. Can only be called by the current owner. NOTE: Renouncing ownership will leave the contract without an owner, thereby disabling any functionality that is only available to the owner."
      },
      "safeBatchTransferFrom(address,address,uint256[],uint256[],bytes)": {
        "details": "See {IERC1155-safeBatchTransferFrom}."
      },
      "safeTransferFrom(address,address,uint256,uint256,bytes)": {
        "details": "See {IERC1155-safeTransferFrom}."
      },
      "setApprovalForAll(address,bool)": {
        "details": "See {IERC1155-setApprovalForAll}."
      },
      "supportsInterface(bytes4)": {
        "details": "See {IERC165-supportsInterface}."
      },
      "transferOwnership(address)": {
        "details": "Transfers ownership of the contract to a new account (`newOwner`). Can only be called by the current owner."
      },
      "uri(uint256)": {
        "details": "See {IERC1155MetadataURI-uri}. This implementation returns the same URI for *all* token types. It relies on the token type ID substitution mechanism https://eips.ethereum.org/EIPS/eip-1155#metadata[defined in the EIP]. Clients calling this function must replace the `\\{id\\}` substring with the actual token type ID."
      }
    },
    "version": 1
  },
  "userdoc": {
    "kind": "user",
    "methods": {},
    "version": 1
  },
  "storageLayout": {
    "storage": [
      {
        "astId": 166,
        "contract": "contracts/Airdrop.sol:Airdrop",
        "label": "_balances",
        "offset": 0,
        "slot": "0",
        "type": "t_mapping(t_uint256,t_mapping(t_address,t_uint256))"
      },
      {
        "astId": 172,
        "contract": "contracts/Airdrop.sol:Airdrop",
        "label": "_operatorApprovals",
        "offset": 0,
        "slot": "1",
        "type": "t_mapping(t_address,t_mapping(t_address,t_bool))"
      },
      {
        "astId": 174,
        "contract": "contracts/Airdrop.sol:Airdrop",
        "label": "_uri",
        "offset": 0,
        "slot": "2",
        "type": "t_string_storage"
      },
      {
        "astId": 7,
        "contract": "contracts/Airdrop.sol:Airdrop",
        "label": "_owner",
        "offset": 0,
        "slot": "3",
        "type": "t_address"
      },
      {
        "astId": 5040,
        "contract": "contracts/Airdrop.sol:Airdrop",
        "label": "s_tokenCounter",
        "offset": 0,
        "slot": "4",
        "type": "t_struct(Counter)3174_storage"
      },
      {
        "astId": 5043,
        "contract": "contracts/Airdrop.sol:Airdrop",
        "label": "s_nftContract",
        "offset": 0,
        "slot": "5",
        "type": "t_contract(IERC721Enumerable)2789"
      },
      {
        "astId": 5045,
        "contract": "contracts/Airdrop.sol:Airdrop",
        "label": "i_root",
        "offset": 0,
        "slot": "6",
        "type": "t_bytes32"
      },
      {
        "astId": 5047,
        "contract": "contracts/Airdrop.sol:Airdrop",
        "label": "s_nftTokenURIs",
        "offset": 0,
        "slot": "7",
        "type": "t_string_storage"
      },
      {
        "astId": 5051,
        "contract": "contracts/Airdrop.sol:Airdrop",
        "label": "s_claimed",
        "offset": 0,
        "slot": "8",
        "type": "t_mapping(t_address,t_bool)"
      },
      {
        "astId": 5055,
        "contract": "contracts/Airdrop.sol:Airdrop",
        "label": "s_exists",
        "offset": 0,
        "slot": "9",
        "type": "t_mapping(t_uint256,t_bool)"
      },
      {
        "astId": 5059,
        "contract": "contracts/Airdrop.sol:Airdrop",
        "label": "s_tokenIds",
        "offset": 0,
        "slot": "10",
        "type": "t_mapping(t_address,t_uint256)"
      },
      {
        "astId": 5063,
        "contract": "contracts/Airdrop.sol:Airdrop",
        "label": "s_airdropTokens",
        "offset": 0,
        "slot": "11",
        "type": "t_mapping(t_address,t_uint256)"
      },
      {
        "astId": 5069,
        "contract": "contracts/Airdrop.sol:Airdrop",
        "label": "s_nftTokenAmount",
        "offset": 0,
        "slot": "12",
        "type": "t_mapping(t_address,t_mapping(t_uint256,t_uint256))"
      },
      {
        "astId": 5073,
        "contract": "contracts/Airdrop.sol:Airdrop",
        "label": "s_tokenOwners",
        "offset": 0,
        "slot": "13",
        "type": "t_mapping(t_uint256,t_address)"
      },
      {
        "astId": 5077,
        "contract": "contracts/Airdrop.sol:Airdrop",
        "label": "s_tokenURIs",
        "offset": 0,
        "slot": "14",
        "type": "t_mapping(t_uint256,t_string_storage)"
      },
      {
        "astId": 5081,
        "contract": "contracts/Airdrop.sol:Airdrop",
        "label": "s_approvedContracts",
        "offset": 0,
        "slot": "15",
        "type": "t_mapping(t_address,t_bool)"
      }
    ],
    "types": {
      "t_address": {
        "encoding": "inplace",
        "label": "address",
        "numberOfBytes": "20"
      },
      "t_bool": {
        "encoding": "inplace",
        "label": "bool",
        "numberOfBytes": "1"
      },
      "t_bytes32": {
        "encoding": "inplace",
        "label": "bytes32",
        "numberOfBytes": "32"
      },
      "t_contract(IERC721Enumerable)2789": {
        "encoding": "inplace",
        "label": "contract IERC721Enumerable",
        "numberOfBytes": "20"
      },
      "t_mapping(t_address,t_bool)": {
        "encoding": "mapping",
        "key": "t_address",
        "label": "mapping(address => bool)",
        "numberOfBytes": "32",
        "value": "t_bool"
      },
      "t_mapping(t_address,t_mapping(t_address,t_bool))": {
        "encoding": "mapping",
        "key": "t_address",
        "label": "mapping(address => mapping(address => bool))",
        "numberOfBytes": "32",
        "value": "t_mapping(t_address,t_bool)"
      },
      "t_mapping(t_address,t_mapping(t_uint256,t_uint256))": {
        "encoding": "mapping",
        "key": "t_address",
        "label": "mapping(address => mapping(uint256 => uint256))",
        "numberOfBytes": "32",
        "value": "t_mapping(t_uint256,t_uint256)"
      },
      "t_mapping(t_address,t_uint256)": {
        "encoding": "mapping",
        "key": "t_address",
        "label": "mapping(address => uint256)",
        "numberOfBytes": "32",
        "value": "t_uint256"
      },
      "t_mapping(t_uint256,t_address)": {
        "encoding": "mapping",
        "key": "t_uint256",
        "label": "mapping(uint256 => address)",
        "numberOfBytes": "32",
        "value": "t_address"
      },
      "t_mapping(t_uint256,t_bool)": {
        "encoding": "mapping",
        "key": "t_uint256",
        "label": "mapping(uint256 => bool)",
        "numberOfBytes": "32",
        "value": "t_bool"
      },
      "t_mapping(t_uint256,t_mapping(t_address,t_uint256))": {
        "encoding": "mapping",
        "key": "t_uint256",
        "label": "mapping(uint256 => mapping(address => uint256))",
        "numberOfBytes": "32",
        "value": "t_mapping(t_address,t_uint256)"
      },
      "t_mapping(t_uint256,t_string_storage)": {
        "encoding": "mapping",
        "key": "t_uint256",
        "label": "mapping(uint256 => string)",
        "numberOfBytes": "32",
        "value": "t_string_storage"
      },
      "t_mapping(t_uint256,t_uint256)": {
        "encoding": "mapping",
        "key": "t_uint256",
        "label": "mapping(uint256 => uint256)",
        "numberOfBytes": "32",
        "value": "t_uint256"
      },
      "t_string_storage": {
        "encoding": "bytes",
        "label": "string",
        "numberOfBytes": "32"
      },
      "t_struct(Counter)3174_storage": {
        "encoding": "inplace",
        "label": "struct Counters.Counter",
        "members": [
          {
            "astId": 3173,
            "contract": "contracts/Airdrop.sol:Airdrop",
            "label": "_value",
            "offset": 0,
            "slot": "0",
            "type": "t_uint256"
          }
        ],
        "numberOfBytes": "32"
      },
      "t_uint256": {
        "encoding": "inplace",
        "label": "uint256",
        "numberOfBytes": "32"
      }
    }
  }
}