{
  "address": "0x9fE46736679d2D9a65F0992F2272dE9f3c7fa6e0",
  "abi": [
    {
      "inputs": [
        {
          "internalType": "address",
          "name": "_airdropAddress",
          "type": "address"
        },
        {
          "internalType": "string",
          "name": "_name",
          "type": "string"
        },
        {
          "internalType": "string",
          "name": "_symbol",
          "type": "string"
        }
      ],
      "stateMutability": "nonpayable",
      "type": "constructor"
    },
    {
      "anonymous": false,
      "inputs": [
        {
          "indexed": true,
          "internalType": "address",
          "name": "owner",
          "type": "address"
        },
        {
          "indexed": true,
          "internalType": "address",
          "name": "approved",
          "type": "address"
        },
        {
          "indexed": true,
          "internalType": "uint256",
          "name": "tokenId",
          "type": "uint256"
        }
      ],
      "name": "Approval",
      "type": "event"
    },
    {
      "anonymous": false,
      "inputs": [
        {
          "indexed": true,
          "internalType": "address",
          "name": "owner",
          "type": "address"
        },
        {
          "indexed": true,
          "internalType": "address",
          "name": "operator",
          "type": "address"
        },
        {
          "indexed": false,
          "internalType": "bool",
          "name": "approved",
          "type": "bool"
        }
      ],
      "name": "ApprovalForAll",
      "type": "event"
    },
    {
      "anonymous": false,
      "inputs": [
        {
          "indexed": false,
          "internalType": "uint256",
          "name": "_fromTokenId",
          "type": "uint256"
        },
        {
          "indexed": false,
          "internalType": "uint256",
          "name": "_toTokenId",
          "type": "uint256"
        }
      ],
      "name": "BatchMetadataUpdate",
      "type": "event"
    },
    {
      "anonymous": false,
      "inputs": [
        {
          "indexed": false,
          "internalType": "uint256",
          "name": "_tokenId",
          "type": "uint256"
        }
      ],
      "name": "MetadataUpdate",
      "type": "event"
    },
    {
      "anonymous": false,
      "inputs": [
        {
          "indexed": true,
          "internalType": "address",
          "name": "minter",
          "type": "address"
        },
        {
          "indexed": true,
          "internalType": "uint256",
          "name": "tokenId",
          "type": "uint256"
        }
      ],
      "name": "Mint",
      "type": "event"
    },
    {
      "anonymous": false,
      "inputs": [
        {
          "indexed": true,
          "internalType": "address",
          "name": "previousOwner",
          "type": "address"
        },
        {
          "indexed": true,
          "internalType": "address",
          "name": "newOwner",
          "type": "address"
        }
      ],
      "name": "OwnershipTransferred",
      "type": "event"
    },
    {
      "anonymous": false,
      "inputs": [
        {
          "indexed": true,
          "internalType": "address",
          "name": "from",
          "type": "address"
        },
        {
          "indexed": true,
          "internalType": "address",
          "name": "to",
          "type": "address"
        },
        {
          "indexed": true,
          "internalType": "uint256",
          "name": "tokenId",
          "type": "uint256"
        }
      ],
      "name": "Transfer",
      "type": "event"
    },
    {
      "inputs": [
        {
          "internalType": "address",
          "name": "to",
          "type": "address"
        },
        {
          "internalType": "uint256",
          "name": "tokenId",
          "type": "uint256"
        }
      ],
      "name": "approve",
      "outputs": [],
      "stateMutability": "nonpayable",
      "type": "function"
    },
    {
      "inputs": [
        {
          "internalType": "address",
          "name": "owner",
          "type": "address"
        }
      ],
      "name": "balanceOf",
      "outputs": [
        {
          "internalType": "uint256",
          "name": "",
          "type": "uint256"
        }
      ],
      "stateMutability": "view",
      "type": "function"
    },
    {
      "inputs": [],
      "name": "getAirdropAddress",
      "outputs": [
        {
          "internalType": "address",
          "name": "",
          "type": "address"
        }
      ],
      "stateMutability": "view",
      "type": "function"
    },
    {
      "inputs": [],
      "name": "getAllWallets",
      "outputs": [
        {
          "internalType": "uint256[]",
          "name": "",
          "type": "uint256[]"
        }
      ],
      "stateMutability": "view",
      "type": "function"
    },
    {
      "inputs": [
        {
          "internalType": "uint256",
          "name": "tokenId",
          "type": "uint256"
        }
      ],
      "name": "getApproved",
      "outputs": [
        {
          "internalType": "address",
          "name": "",
          "type": "address"
        }
      ],
      "stateMutability": "view",
      "type": "function"
    },
    {
      "inputs": [],
      "name": "getOwnerWallet",
      "outputs": [
        {
          "internalType": "uint256",
          "name": "",
          "type": "uint256"
        }
      ],
      "stateMutability": "view",
      "type": "function"
    },
    {
      "inputs": [
        {
          "internalType": "address",
          "name": "owner",
          "type": "address"
        },
        {
          "internalType": "address",
          "name": "operator",
          "type": "address"
        }
      ],
      "name": "isApprovedForAll",
      "outputs": [
        {
          "internalType": "bool",
          "name": "",
          "type": "bool"
        }
      ],
      "stateMutability": "view",
      "type": "function"
    },
    {
      "inputs": [
        {
          "internalType": "address",
          "name": "_owner",
          "type": "address"
        }
      ],
      "name": "isTokenBurned",
      "outputs": [
        {
          "internalType": "bool",
          "name": "",
          "type": "bool"
        }
      ],
      "stateMutability": "view",
      "type": "function"
    },
    {
      "inputs": [
        {
          "internalType": "uint256",
          "name": "_amount",
          "type": "uint256"
        },
        {
          "internalType": "string",
          "name": "_tokenURI",
          "type": "string"
        }
      ],
      "name": "mint",
      "outputs": [],
      "stateMutability": "nonpayable",
      "type": "function"
    },
    {
      "inputs": [],
      "name": "name",
      "outputs": [
        {
          "internalType": "string",
          "name": "",
          "type": "string"
        }
      ],
      "stateMutability": "view",
      "type": "function"
    },
    {
      "inputs": [
        {
          "internalType": "address",
          "name": "",
          "type": "address"
        },
        {
          "internalType": "address",
          "name": "",
          "type": "address"
        },
        {
          "internalType": "uint256[]",
          "name": "",
          "type": "uint256[]"
        },
        {
          "internalType": "uint256[]",
          "name": "",
          "type": "uint256[]"
        },
        {
          "internalType": "bytes",
          "name": "",
          "type": "bytes"
        }
      ],
      "name": "onERC1155BatchReceived",
      "outputs": [
        {
          "internalType": "bytes4",
          "name": "",
          "type": "bytes4"
        }
      ],
      "stateMutability": "pure",
      "type": "function"
    },
    {
      "inputs": [
        {
          "internalType": "address",
          "name": "",
          "type": "address"
        },
        {
          "internalType": "address",
          "name": "",
          "type": "address"
        },
        {
          "internalType": "uint256",
          "name": "",
          "type": "uint256"
        },
        {
          "internalType": "uint256",
          "name": "",
          "type": "uint256"
        },
        {
          "internalType": "bytes",
          "name": "",
          "type": "bytes"
        }
      ],
      "name": "onERC1155Received",
      "outputs": [
        {
          "internalType": "bytes4",
          "name": "",
          "type": "bytes4"
        }
      ],
      "stateMutability": "pure",
      "type": "function"
    },
    {
      "inputs": [],
      "name": "owner",
      "outputs": [
        {
          "internalType": "address",
          "name": "",
          "type": "address"
        }
      ],
      "stateMutability": "view",
      "type": "function"
    },
    {
      "inputs": [
        {
          "internalType": "uint256",
          "name": "tokenId",
          "type": "uint256"
        }
      ],
      "name": "ownerOf",
      "outputs": [
        {
          "internalType": "address",
          "name": "",
          "type": "address"
        }
      ],
      "stateMutability": "view",
      "type": "function"
    },
    {
      "inputs": [],
      "name": "renounceOwnership",
      "outputs": [],
      "stateMutability": "nonpayable",
      "type": "function"
    },
    {
      "inputs": [],
      "name": "s_tokenIds",
      "outputs": [
        {
          "internalType": "uint256",
          "name": "_value",
          "type": "uint256"
        }
      ],
      "stateMutability": "view",
      "type": "function"
    },
    {
      "inputs": [
        {
          "internalType": "address",
          "name": "from",
          "type": "address"
        },
        {
          "internalType": "address",
          "name": "to",
          "type": "address"
        },
        {
          "internalType": "uint256",
          "name": "tokenId",
          "type": "uint256"
        }
      ],
      "name": "safeTransferFrom",
      "outputs": [],
      "stateMutability": "nonpayable",
      "type": "function"
    },
    {
      "inputs": [
        {
          "internalType": "address",
          "name": "from",
          "type": "address"
        },
        {
          "internalType": "address",
          "name": "to",
          "type": "address"
        },
        {
          "internalType": "uint256",
          "name": "tokenId",
          "type": "uint256"
        },
        {
          "internalType": "bytes",
          "name": "data",
          "type": "bytes"
        }
      ],
      "name": "safeTransferFrom",
      "outputs": [],
      "stateMutability": "nonpayable",
      "type": "function"
    },
    {
      "inputs": [
        {
          "internalType": "address",
          "name": "_airdropAddress",
          "type": "address"
        }
      ],
      "name": "setAirDropAddress",
      "outputs": [],
      "stateMutability": "nonpayable",
      "type": "function"
    },
    {
      "inputs": [
        {
          "internalType": "address",
          "name": "operator",
          "type": "address"
        },
        {
          "internalType": "bool",
          "name": "approved",
          "type": "bool"
        }
      ],
      "name": "setApprovalForAll",
      "outputs": [],
      "stateMutability": "nonpayable",
      "type": "function"
    },
    {
      "inputs": [
        {
          "internalType": "bytes4",
          "name": "interfaceId",
          "type": "bytes4"
        }
      ],
      "name": "supportsInterface",
      "outputs": [
        {
          "internalType": "bool",
          "name": "",
          "type": "bool"
        }
      ],
      "stateMutability": "view",
      "type": "function"
    },
    {
      "inputs": [],
      "name": "symbol",
      "outputs": [
        {
          "internalType": "string",
          "name": "",
          "type": "string"
        }
      ],
      "stateMutability": "view",
      "type": "function"
    },
    {
      "inputs": [
        {
          "internalType": "uint256",
          "name": "tokenId",
          "type": "uint256"
        }
      ],
      "name": "tokenURI",
      "outputs": [
        {
          "internalType": "string",
          "name": "",
          "type": "string"
        }
      ],
      "stateMutability": "view",
      "type": "function"
    },
    {
      "inputs": [],
      "name": "totalSupply",
      "outputs": [
        {
          "internalType": "uint256",
          "name": "",
          "type": "uint256"
        }
      ],
      "stateMutability": "view",
      "type": "function"
    },
    {
      "inputs": [
        {
          "internalType": "address",
          "name": "from",
          "type": "address"
        },
        {
          "internalType": "address",
          "name": "to",
          "type": "address"
        },
        {
          "internalType": "uint256",
          "name": "tokenId",
          "type": "uint256"
        }
      ],
      "name": "transferFrom",
      "outputs": [],
      "stateMutability": "nonpayable",
      "type": "function"
    },
    {
      "inputs": [
        {
          "internalType": "address",
          "name": "newOwner",
          "type": "address"
        }
      ],
      "name": "transferOwnership",
      "outputs": [],
      "stateMutability": "nonpayable",
      "type": "function"
    }
  ],
  "transactionHash": "0x4e6d119471ae6afbf5c791e6a46204e2e09669c47a859983b46e4e4a9358171a",
  "args": [
    "0xe7f1725E7734CE288F8367e1Bb143E90bb3F0512",
    "AI Punks",
    "AIX"
  ],
  "numDeployments": 1,
  "solcInputHash": "2fa812f9003813b81b3274dce54f99f1",
  "bytecode": "0x60806040523480156200001157600080fd5b50604051620023db380380620023db8339810160408190526200003491620001c1565b81816000620000448382620002da565b506001620000538282620002da565b505050620000706200006a620000a660201b60201c565b620000aa565b505060098054336001600160a01b031991821617909155600a80549091166001600160a01b0392909216919091179055620003a6565b3390565b600780546001600160a01b038381166001600160a01b0319831681179093556040519116919082907f8be0079c531659141344cd1fd0a4f28419497f9722a3daafe3b4186f6b6457e090600090a35050565b634e487b7160e01b600052604160045260246000fd5b600082601f8301126200012457600080fd5b81516001600160401b0380821115620001415762000141620000fc565b604051601f8301601f19908116603f011681019082821181831017156200016c576200016c620000fc565b816040528381526020925086838588010111156200018957600080fd5b600091505b83821015620001ad57858201830151818301840152908201906200018e565b600093810190920192909252949350505050565b600080600060608486031215620001d757600080fd5b83516001600160a01b0381168114620001ef57600080fd5b60208501519093506001600160401b03808211156200020d57600080fd5b6200021b8783880162000112565b935060408601519150808211156200023257600080fd5b50620002418682870162000112565b9150509250925092565b600181811c908216806200026057607f821691505b6020821081036200028157634e487b7160e01b600052602260045260246000fd5b50919050565b601f821115620002d557600081815260208120601f850160051c81016020861015620002b05750805b601f850160051c820191505b81811015620002d157828155600101620002bc565b5050505b505050565b81516001600160401b03811115620002f657620002f6620000fc565b6200030e816200030784546200024b565b8462000287565b602080601f8311600181146200034657600084156200032d5750858301515b600019600386901b1c1916600185901b178555620002d1565b600085815260208120601f198616915b82811015620003775788860151825594840194600190910190840162000356565b5085821015620003965787850151600019600388901b60f8161c191681555b5050505050600190811b01905550565b61202580620003b66000396000f3fe608060405234801561001057600080fd5b506004361061018e5760003560e01c8063715018a6116100de578063b88d4fde11610097578063e1c51b3711610071578063e1c51b371461038b578063e985e9c51461039e578063f23a6e61146103b1578063f2fde38b146103d157600080fd5b8063b88d4fde1461032a578063bc197c811461033d578063c87b56dd1461037857600080fd5b8063715018a6146102b757806377097fc8146102bf5780638da5cb5b146102d257806395a23646146102e357806395d89b411461030f578063a22cb4651461031757600080fd5b806323b872dd1161014b57806342842e0e1161012557806342842e0e14610274578063627f0c28146102875780636352211e1461029157806370a08231146102a457600080fd5b806323b872dd1461023b5780633c4966b71461024e5780633d007e571461026357600080fd5b806301ffc9a71461019357806306fdde03146101bb578063081812fc146101d0578063095ea7b3146101fb57806318160ddd146102105780631bfa860114610226575b600080fd5b6101a66101a13660046117ca565b6103e4565b60405190151581526020015b60405180910390f35b6101c361040f565b6040516101b29190611837565b6101e36101de36600461184a565b6104a1565b6040516001600160a01b0390911681526020016101b2565b61020e61020936600461187f565b6104c8565b005b6102186105e2565b6040519081526020016101b2565b61022e6105f2565b6040516101b291906118a9565b61020e6102493660046118ed565b6106b7565b336000908152600c6020526040902054610218565b600a546001600160a01b03166101e3565b61020e6102823660046118ed565b6106e8565b6008546102189081565b6101e361029f36600461184a565b610703565b6102186102b2366004611929565b610763565b61020e6107e9565b61020e6102cd3660046119d0565b6107fd565b6007546001600160a01b03166101e3565b6101a66102f1366004611929565b6001600160a01b03166000908152600b602052604090205460ff1690565b6101c3610b4e565b61020e610325366004611a2b565b610b5d565b61020e610338366004611a67565b610b6c565b61035f61034b366004611b71565b63bc197c8160e01b98975050505050505050565b6040516001600160e01b031990911681526020016101b2565b6101c361038636600461184a565b610ba4565b61020e610399366004611929565b610cb4565b6101a66103ac366004611c2c565b610cde565b61035f6103bf366004611c5f565b63f23a6e6160e01b9695505050505050565b61020e6103df366004611929565b610d0c565b60006001600160e01b03198216632483248360e11b1480610409575061040982610d85565b92915050565b60606000805461041e90611cd7565b80601f016020809104026020016040519081016040528092919081815260200182805461044a90611cd7565b80156104975780601f1061046c57610100808354040283529160200191610497565b820191906000526020600020905b81548152906001019060200180831161047a57829003601f168201915b5050505050905090565b60006104ac82610dd5565b506000908152600460205260409020546001600160a01b031690565b60006104d382610703565b9050806001600160a01b0316836001600160a01b0316036105455760405162461bcd60e51b815260206004820152602160248201527f4552433732313a20617070726f76616c20746f2063757272656e74206f776e656044820152603960f91b60648201526084015b60405180910390fd5b336001600160a01b038216148061056157506105618133610cde565b6105d35760405162461bcd60e51b815260206004820152603d60248201527f4552433732313a20617070726f76652063616c6c6572206973206e6f7420746f60448201527f6b656e206f776e6572206f7220617070726f76656420666f7220616c6c000000606482015260840161053c565b6105dd8383610e34565b505050565b60006105ed60085490565b905090565b606060006105ff60085490565b67ffffffffffffffff81111561061757610617611944565b604051908082528060200260200182016040528015610640578160200160208202803683370190505b50905060005b81518110156106b157600c600061066161029f846001611d21565b6001600160a01b03166001600160a01b031681526020019081526020016000205482828151811061069457610694611d34565b6020908102919091010152806106a981611d4a565b915050610646565b50919050565b6106c13382610ea2565b6106dd5760405162461bcd60e51b815260040161053c90611d63565b6105dd838383610f00565b6105dd83838360405180602001604052806000815250610b6c565b6000818152600260205260408120546001600160a01b0316806104095760405162461bcd60e51b8152602060048201526018602482015277115490cdcc8c4e881a5b9d985b1a59081d1bdad95b88125160421b604482015260640161053c565b60006001600160a01b0382166107cd5760405162461bcd60e51b815260206004820152602960248201527f4552433732313a2061646472657373207a65726f206973206e6f7420612076616044820152683634b21037bbb732b960b91b606482015260840161053c565b506001600160a01b031660009081526003602052604090205490565b6107f1611064565b6107fb60006110be565b565b6000610807611110565b600a54604051627eeac760e11b8152336004820152602481018390529192506000916001600160a01b039091169062fdd58e90604401602060405180830381865afa15801561085a573d6000803e3d6000fd5b505050506040513d601f19601f8201168201806040525081019061087e9190611db0565b116108dc5760405162461bcd60e51b815260206004820152602860248201527f47656e6572617465644e46543a205468657265206973206e6f20746f6b656e20604482015267746f20636c61696d60c01b606482015260840161053c565b336000908152600b602052604090205460ff161561093c5760405162461bcd60e51b815260206004820152601d60248201527f47656e6572617465644e46543a20546f6b656e206973206275726e6564000000604482015260640161053c565b6000610946611110565b600a54604051627eeac760e11b8152336004820152602481018390529192506000916001600160a01b039091169062fdd58e90604401602060405180830381865afa158015610999573d6000803e3d6000fd5b505050506040513d601f19601f820116820180604052508101906109bd9190611db0565b905080851115610a0f5760405162461bcd60e51b815260206004820152601f60248201527f47656e6572617465644e46543a204e6f7420656e6f75676820746f6b656e7300604482015260640161053c565b600a546001600160a01b031663f242432a3330610a2a611110565b6040516001600160e01b031960e086901b1681526001600160a01b03938416600482015292909116602483015260448201526064810188905260a06084820152600060a482015260c401600060405180830381600087803b158015610a8e57600080fd5b505af1158015610aa2573d6000803e3d6000fd5b5050336000908152600b60205260408120805460ff191660011790559150505b85811015610b4657610ad8600880546001019055565b6000610ae360085490565b9050610aef338261117d565b610af98187611308565b336000818152600c6020526040808220849055518392917f0f6798a560793a54c3bcfe86a93cde1e73087d944c0ea20544137d412139688591a35080610b3e81611d4a565b915050610ac2565b505050505050565b60606001805461041e90611cd7565b610b683383836113d3565b5050565b610b763383610ea2565b610b925760405162461bcd60e51b815260040161053c90611d63565b610b9e848484846114a1565b50505050565b6060610baf82610dd5565b60008281526006602052604081208054610bc890611cd7565b80601f0160208091040260200160405190810160405280929190818152602001828054610bf490611cd7565b8015610c415780601f10610c1657610100808354040283529160200191610c41565b820191906000526020600020905b815481529060010190602001808311610c2457829003601f168201915b505050505090506000610c5f60408051602081019091526000815290565b90508051600003610c71575092915050565b815115610ca3578082604051602001610c8b929190611dc9565b60405160208183030381529060405292505050919050565b610cac846114d4565b949350505050565b610cbc611064565b600a80546001600160a01b0319166001600160a01b0392909216919091179055565b6001600160a01b03918216600090815260056020908152604080832093909416825291909152205460ff1690565b610d14611064565b6001600160a01b038116610d795760405162461bcd60e51b815260206004820152602660248201527f4f776e61626c653a206e6577206f776e657220697320746865207a65726f206160448201526564647265737360d01b606482015260840161053c565b610d82816110be565b50565b60006001600160e01b031982166380ac58cd60e01b1480610db657506001600160e01b03198216635b5e139f60e01b145b8061040957506301ffc9a760e01b6001600160e01b0319831614610409565b6000818152600260205260409020546001600160a01b0316610d825760405162461bcd60e51b8152602060048201526018602482015277115490cdcc8c4e881a5b9d985b1a59081d1bdad95b88125160421b604482015260640161053c565b600081815260046020526040902080546001600160a01b0319166001600160a01b0384169081179091558190610e6982610703565b6001600160a01b03167f8c5be1e5ebec7d5bd14f71427d1e84f3dd0314c0f7b2291e5b200ac8c7c3b92560405160405180910390a45050565b600080610eae83610703565b9050806001600160a01b0316846001600160a01b03161480610ed55750610ed58185610cde565b80610cac5750836001600160a01b0316610eee846104a1565b6001600160a01b031614949350505050565b826001600160a01b0316610f1382610703565b6001600160a01b031614610f395760405162461bcd60e51b815260040161053c90611df8565b6001600160a01b038216610f9b5760405162461bcd60e51b8152602060048201526024808201527f4552433732313a207472616e7366657220746f20746865207a65726f206164646044820152637265737360e01b606482015260840161053c565b826001600160a01b0316610fae82610703565b6001600160a01b031614610fd45760405162461bcd60e51b815260040161053c90611df8565b600081815260046020908152604080832080546001600160a01b03199081169091556001600160a01b0387811680865260038552838620805460001901905590871680865283862080546001019055868652600290945282852080549092168417909155905184937fddf252ad1be2c89b69c2b068fc378daa952ba7f163c4a11628f55a4df523b3ef91a4505050565b6007546001600160a01b031633146107fb5760405162461bcd60e51b815260206004820181905260248201527f4f776e61626c653a2063616c6c6572206973206e6f7420746865206f776e6572604482015260640161053c565b600780546001600160a01b038381166001600160a01b0319831681179093556040519116919082907f8be0079c531659141344cd1fd0a4f28419497f9722a3daafe3b4186f6b6457e090600090a35050565b600a546040516378a9bb4360e11b81523360048201526000916001600160a01b03169063f153768690602401602060405180830381865afa158015611159573d6000803e3d6000fd5b505050506040513d601f19601f820116820180604052508101906105ed9190611db0565b6001600160a01b0382166111d35760405162461bcd60e51b815260206004820181905260248201527f4552433732313a206d696e7420746f20746865207a65726f2061646472657373604482015260640161053c565b6000818152600260205260409020546001600160a01b0316156112385760405162461bcd60e51b815260206004820152601c60248201527f4552433732313a20746f6b656e20616c7265616479206d696e74656400000000604482015260640161053c565b6000818152600260205260409020546001600160a01b03161561129d5760405162461bcd60e51b815260206004820152601c60248201527f4552433732313a20746f6b656e20616c7265616479206d696e74656400000000604482015260640161053c565b6001600160a01b038216600081815260036020908152604080832080546001019055848352600290915280822080546001600160a01b0319168417905551839291907fddf252ad1be2c89b69c2b068fc378daa952ba7f163c4a11628f55a4df523b3ef908290a45050565b6000828152600260205260409020546001600160a01b03166113835760405162461bcd60e51b815260206004820152602e60248201527f45524337323155524953746f726167653a2055524920736574206f66206e6f6e60448201526d32bc34b9ba32b73a103a37b5b2b760911b606482015260840161053c565b600082815260066020526040902061139b8282611e83565b506040518281527ff8e1a15aba9398e019f0b49df1a4fde98ee17ae345cb5f6b5e2c27f5033e8ce79060200160405180910390a15050565b816001600160a01b0316836001600160a01b0316036114345760405162461bcd60e51b815260206004820152601960248201527f4552433732313a20617070726f766520746f2063616c6c657200000000000000604482015260640161053c565b6001600160a01b03838116600081815260056020908152604080832094871680845294825291829020805460ff191686151590811790915591519182527f17307eab39ab6107e8899845ad3d59bd9653f200f220920489ca2b5937696c31910160405180910390a3505050565b6114ac848484610f00565b6114b884848484611548565b610b9e5760405162461bcd60e51b815260040161053c90611f43565b60606114df82610dd5565b60006114f660408051602081019091526000815290565b905060008151116115165760405180602001604052806000815250611541565b8061152084611649565b604051602001611531929190611dc9565b6040516020818303038152906040525b9392505050565b60006001600160a01b0384163b1561163e57604051630a85bd0160e11b81526001600160a01b0385169063150b7a029061158c903390899088908890600401611f95565b6020604051808303816000875af19250505080156115c7575060408051601f3d908101601f191682019092526115c491810190611fd2565b60015b611624573d8080156115f5576040519150601f19603f3d011682016040523d82523d6000602084013e6115fa565b606091505b50805160000361161c5760405162461bcd60e51b815260040161053c90611f43565b805181602001fd5b6001600160e01b031916630a85bd0160e11b149050610cac565b506001949350505050565b60606000611656836116dc565b600101905060008167ffffffffffffffff81111561167657611676611944565b6040519080825280601f01601f1916602001820160405280156116a0576020820181803683370190505b5090508181016020015b600019016f181899199a1a9b1b9c1cb0b131b232b360811b600a86061a8153600a85049450846116aa57509392505050565b60008072184f03e93ff9f4daa797ed6e38ed64bf6a1f0160401b831061171b5772184f03e93ff9f4daa797ed6e38ed64bf6a1f0160401b830492506040015b6d04ee2d6d415b85acef81000000008310611747576d04ee2d6d415b85acef8100000000830492506020015b662386f26fc10000831061176557662386f26fc10000830492506010015b6305f5e100831061177d576305f5e100830492506008015b612710831061179157612710830492506004015b606483106117a3576064830492506002015b600a83106104095760010192915050565b6001600160e01b031981168114610d8257600080fd5b6000602082840312156117dc57600080fd5b8135611541816117b4565b60005b838110156118025781810151838201526020016117ea565b50506000910152565b600081518084526118238160208601602086016117e7565b601f01601f19169290920160200192915050565b602081526000611541602083018461180b565b60006020828403121561185c57600080fd5b5035919050565b80356001600160a01b038116811461187a57600080fd5b919050565b6000806040838503121561189257600080fd5b61189b83611863565b946020939093013593505050565b6020808252825182820181905260009190848201906040850190845b818110156118e1578351835292840192918401916001016118c5565b50909695505050505050565b60008060006060848603121561190257600080fd5b61190b84611863565b925061191960208501611863565b9150604084013590509250925092565b60006020828403121561193b57600080fd5b61154182611863565b634e487b7160e01b600052604160045260246000fd5b600067ffffffffffffffff8084111561197557611975611944565b604051601f8501601f19908116603f0116810190828211818310171561199d5761199d611944565b816040528093508581528686860111156119b657600080fd5b858560208301376000602087830101525050509392505050565b600080604083850312156119e357600080fd5b82359150602083013567ffffffffffffffff811115611a0157600080fd5b8301601f81018513611a1257600080fd5b611a218582356020840161195a565b9150509250929050565b60008060408385031215611a3e57600080fd5b611a4783611863565b915060208301358015158114611a5c57600080fd5b809150509250929050565b60008060008060808587031215611a7d57600080fd5b611a8685611863565b9350611a9460208601611863565b925060408501359150606085013567ffffffffffffffff811115611ab757600080fd5b8501601f81018713611ac857600080fd5b611ad78782356020840161195a565b91505092959194509250565b60008083601f840112611af557600080fd5b50813567ffffffffffffffff811115611b0d57600080fd5b6020830191508360208260051b8501011115611b2857600080fd5b9250929050565b60008083601f840112611b4157600080fd5b50813567ffffffffffffffff811115611b5957600080fd5b602083019150836020828501011115611b2857600080fd5b60008060008060008060008060a0898b031215611b8d57600080fd5b611b9689611863565b9750611ba460208a01611863565b9650604089013567ffffffffffffffff80821115611bc157600080fd5b611bcd8c838d01611ae3565b909850965060608b0135915080821115611be657600080fd5b611bf28c838d01611ae3565b909650945060808b0135915080821115611c0b57600080fd5b50611c188b828c01611b2f565b999c989b5096995094979396929594505050565b60008060408385031215611c3f57600080fd5b611c4883611863565b9150611c5660208401611863565b90509250929050565b60008060008060008060a08789031215611c7857600080fd5b611c8187611863565b9550611c8f60208801611863565b94506040870135935060608701359250608087013567ffffffffffffffff811115611cb957600080fd5b611cc589828a01611b2f565b979a9699509497509295939492505050565b600181811c90821680611ceb57607f821691505b6020821081036106b157634e487b7160e01b600052602260045260246000fd5b634e487b7160e01b600052601160045260246000fd5b8082018082111561040957610409611d0b565b634e487b7160e01b600052603260045260246000fd5b600060018201611d5c57611d5c611d0b565b5060010190565b6020808252602d908201527f4552433732313a2063616c6c6572206973206e6f7420746f6b656e206f776e6560408201526c1c881bdc88185c1c1c9bdd9959609a1b606082015260800190565b600060208284031215611dc257600080fd5b5051919050565b60008351611ddb8184602088016117e7565b835190830190611def8183602088016117e7565b01949350505050565b60208082526025908201527f4552433732313a207472616e736665722066726f6d20696e636f72726563742060408201526437bbb732b960d91b606082015260800190565b601f8211156105dd57600081815260208120601f850160051c81016020861015611e645750805b601f850160051c820191505b81811015610b4657828155600101611e70565b815167ffffffffffffffff811115611e9d57611e9d611944565b611eb181611eab8454611cd7565b84611e3d565b602080601f831160018114611ee65760008415611ece5750858301515b600019600386901b1c1916600185901b178555610b46565b600085815260208120601f198616915b82811015611f1557888601518255948401946001909101908401611ef6565b5085821015611f335787850151600019600388901b60f8161c191681555b5050505050600190811b01905550565b60208082526032908201527f4552433732313a207472616e7366657220746f206e6f6e20455243373231526560408201527131b2b4bb32b91034b6b83632b6b2b73a32b960711b606082015260800190565b6001600160a01b0385811682528416602082015260408101839052608060608201819052600090611fc89083018461180b565b9695505050505050565b600060208284031215611fe457600080fd5b8151611541816117b456fea264697066735822122095f7d77cd96ed4c996d9a9485ed32e374814f99129ae92eb6dc226a21ce7d9e264736f6c63430008110033",
  "devdoc": {
    "kind": "dev",
    "methods": {
      "approve(address,uint256)": {
        "details": "See {IERC721-approve}."
      },
      "balanceOf(address)": {
        "details": "See {IERC721-balanceOf}."
      },
      "getApproved(uint256)": {
        "details": "See {IERC721-getApproved}."
      },
      "isApprovedForAll(address,address)": {
        "details": "See {IERC721-isApprovedForAll}."
      },
      "name()": {
        "details": "See {IERC721Metadata-name}."
      },
      "owner()": {
        "details": "Returns the address of the current owner."
      },
      "ownerOf(uint256)": {
        "details": "See {IERC721-ownerOf}."
      },
      "renounceOwnership()": {
        "details": "Leaves the contract without owner. It will not be possible to call `onlyOwner` functions. Can only be called by the current owner. NOTE: Renouncing ownership will leave the contract without an owner, thereby disabling any functionality that is only available to the owner."
      },
      "safeTransferFrom(address,address,uint256)": {
        "details": "See {IERC721-safeTransferFrom}."
      },
      "safeTransferFrom(address,address,uint256,bytes)": {
        "details": "See {IERC721-safeTransferFrom}."
      },
      "setApprovalForAll(address,bool)": {
        "details": "See {IERC721-setApprovalForAll}."
      },
      "supportsInterface(bytes4)": {
        "details": "See {IERC165-supportsInterface}"
      },
      "symbol()": {
        "details": "See {IERC721Metadata-symbol}."
      },
      "tokenURI(uint256)": {
        "details": "See {IERC721Metadata-tokenURI}."
      },
      "transferFrom(address,address,uint256)": {
        "details": "See {IERC721-transferFrom}."
      },
      "transferOwnership(address)": {
        "details": "Transfers ownership of the contract to a new account (`newOwner`). Can only be called by the current owner."
      }
    },
    "version": 1
  },
  "userdoc": {
    "kind": "user",
    "methods": {},
    "version": 1
  },
  "storageLayout": {
    "storage": [
      {
        "astId": 1567,
        "contract": "contracts/GeneratedNFT.sol:GeneratedNFT",
        "label": "_name",
        "offset": 0,
        "slot": "0",
        "type": "t_string_storage"
      },
      {
        "astId": 1569,
        "contract": "contracts/GeneratedNFT.sol:GeneratedNFT",
        "label": "_symbol",
        "offset": 0,
        "slot": "1",
        "type": "t_string_storage"
      },
      {
        "astId": 1573,
        "contract": "contracts/GeneratedNFT.sol:GeneratedNFT",
        "label": "_owners",
        "offset": 0,
        "slot": "2",
        "type": "t_mapping(t_uint256,t_address)"
      },
      {
        "astId": 1577,
        "contract": "contracts/GeneratedNFT.sol:GeneratedNFT",
        "label": "_balances",
        "offset": 0,
        "slot": "3",
        "type": "t_mapping(t_address,t_uint256)"
      },
      {
        "astId": 1581,
        "contract": "contracts/GeneratedNFT.sol:GeneratedNFT",
        "label": "_tokenApprovals",
        "offset": 0,
        "slot": "4",
        "type": "t_mapping(t_uint256,t_address)"
      },
      {
        "astId": 1587,
        "contract": "contracts/GeneratedNFT.sol:GeneratedNFT",
        "label": "_operatorApprovals",
        "offset": 0,
        "slot": "5",
        "type": "t_mapping(t_address,t_mapping(t_address,t_bool))"
      },
      {
        "astId": 2618,
        "contract": "contracts/GeneratedNFT.sol:GeneratedNFT",
        "label": "_tokenURIs",
        "offset": 0,
        "slot": "6",
        "type": "t_mapping(t_uint256,t_string_storage)"
      },
      {
        "astId": 7,
        "contract": "contracts/GeneratedNFT.sol:GeneratedNFT",
        "label": "_owner",
        "offset": 0,
        "slot": "7",
        "type": "t_address"
      },
      {
        "astId": 5538,
        "contract": "contracts/GeneratedNFT.sol:GeneratedNFT",
        "label": "s_tokenIds",
        "offset": 0,
        "slot": "8",
        "type": "t_struct(Counter)3143_storage"
      },
      {
        "astId": 5540,
        "contract": "contracts/GeneratedNFT.sol:GeneratedNFT",
        "label": "s_owner",
        "offset": 0,
        "slot": "9",
        "type": "t_address"
      },
      {
        "astId": 5543,
        "contract": "contracts/GeneratedNFT.sol:GeneratedNFT",
        "label": "airdropInterface",
        "offset": 0,
        "slot": "10",
        "type": "t_contract(Airdrop)5513"
      },
      {
        "astId": 5547,
        "contract": "contracts/GeneratedNFT.sol:GeneratedNFT",
        "label": "s_isTokenBurned",
        "offset": 0,
        "slot": "11",
        "type": "t_mapping(t_address,t_bool)"
      },
      {
        "astId": 5551,
        "contract": "contracts/GeneratedNFT.sol:GeneratedNFT",
        "label": "s_ownerWallet",
        "offset": 0,
        "slot": "12",
        "type": "t_mapping(t_address,t_uint256)"
      }
    ],
    "types": {
      "t_address": {
        "encoding": "inplace",
        "label": "address",
        "numberOfBytes": "20"
      },
      "t_bool": {
        "encoding": "inplace",
        "label": "bool",
        "numberOfBytes": "1"
      },
      "t_contract(Airdrop)5513": {
        "encoding": "inplace",
        "label": "contract Airdrop",
        "numberOfBytes": "20"
      },
      "t_mapping(t_address,t_bool)": {
        "encoding": "mapping",
        "key": "t_address",
        "label": "mapping(address => bool)",
        "numberOfBytes": "32",
        "value": "t_bool"
      },
      "t_mapping(t_address,t_mapping(t_address,t_bool))": {
        "encoding": "mapping",
        "key": "t_address",
        "label": "mapping(address => mapping(address => bool))",
        "numberOfBytes": "32",
        "value": "t_mapping(t_address,t_bool)"
      },
      "t_mapping(t_address,t_uint256)": {
        "encoding": "mapping",
        "key": "t_address",
        "label": "mapping(address => uint256)",
        "numberOfBytes": "32",
        "value": "t_uint256"
      },
      "t_mapping(t_uint256,t_address)": {
        "encoding": "mapping",
        "key": "t_uint256",
        "label": "mapping(uint256 => address)",
        "numberOfBytes": "32",
        "value": "t_address"
      },
      "t_mapping(t_uint256,t_string_storage)": {
        "encoding": "mapping",
        "key": "t_uint256",
        "label": "mapping(uint256 => string)",
        "numberOfBytes": "32",
        "value": "t_string_storage"
      },
      "t_string_storage": {
        "encoding": "bytes",
        "label": "string",
        "numberOfBytes": "32"
      },
      "t_struct(Counter)3143_storage": {
        "encoding": "inplace",
        "label": "struct Counters.Counter",
        "members": [
          {
            "astId": 3142,
            "contract": "contracts/GeneratedNFT.sol:GeneratedNFT",
            "label": "_value",
            "offset": 0,
            "slot": "0",
            "type": "t_uint256"
          }
        ],
        "numberOfBytes": "32"
      },
      "t_uint256": {
        "encoding": "inplace",
        "label": "uint256",
        "numberOfBytes": "32"
      }
    }
  }
}