{
  "address": "0x9fE46736679d2D9a65F0992F2272dE9f3c7fa6e0",
  "abi": [
    {
      "inputs": [
        {
          "internalType": "address",
          "name": "_airdropAddress",
          "type": "address"
        },
        {
          "internalType": "string",
          "name": "_name",
          "type": "string"
        },
        {
          "internalType": "string",
          "name": "_symbol",
          "type": "string"
        },
        {
          "internalType": "uint256",
          "name": "_cost",
          "type": "uint256"
        }
      ],
      "stateMutability": "nonpayable",
      "type": "constructor"
    },
    {
      "anonymous": false,
      "inputs": [
        {
          "indexed": true,
          "internalType": "address",
          "name": "owner",
          "type": "address"
        },
        {
          "indexed": true,
          "internalType": "address",
          "name": "approved",
          "type": "address"
        },
        {
          "indexed": true,
          "internalType": "uint256",
          "name": "tokenId",
          "type": "uint256"
        }
      ],
      "name": "Approval",
      "type": "event"
    },
    {
      "anonymous": false,
      "inputs": [
        {
          "indexed": true,
          "internalType": "address",
          "name": "owner",
          "type": "address"
        },
        {
          "indexed": true,
          "internalType": "address",
          "name": "operator",
          "type": "address"
        },
        {
          "indexed": false,
          "internalType": "bool",
          "name": "approved",
          "type": "bool"
        }
      ],
      "name": "ApprovalForAll",
      "type": "event"
    },
    {
      "anonymous": false,
      "inputs": [
        {
          "indexed": false,
          "internalType": "uint256",
          "name": "_fromTokenId",
          "type": "uint256"
        },
        {
          "indexed": false,
          "internalType": "uint256",
          "name": "_toTokenId",
          "type": "uint256"
        }
      ],
      "name": "BatchMetadataUpdate",
      "type": "event"
    },
    {
      "anonymous": false,
      "inputs": [
        {
          "indexed": false,
          "internalType": "uint256",
          "name": "_tokenId",
          "type": "uint256"
        }
      ],
      "name": "MetadataUpdate",
      "type": "event"
    },
    {
      "anonymous": false,
      "inputs": [
        {
          "indexed": true,
          "internalType": "address",
          "name": "minter",
          "type": "address"
        },
        {
          "indexed": true,
          "internalType": "uint256",
          "name": "tokenId",
          "type": "uint256"
        }
      ],
      "name": "Mint",
      "type": "event"
    },
    {
      "anonymous": false,
      "inputs": [
        {
          "indexed": true,
          "internalType": "address",
          "name": "previousOwner",
          "type": "address"
        },
        {
          "indexed": true,
          "internalType": "address",
          "name": "newOwner",
          "type": "address"
        }
      ],
      "name": "OwnershipTransferred",
      "type": "event"
    },
    {
      "anonymous": false,
      "inputs": [
        {
          "indexed": true,
          "internalType": "address",
          "name": "from",
          "type": "address"
        },
        {
          "indexed": true,
          "internalType": "address",
          "name": "to",
          "type": "address"
        },
        {
          "indexed": true,
          "internalType": "uint256",
          "name": "tokenId",
          "type": "uint256"
        }
      ],
      "name": "Transfer",
      "type": "event"
    },
    {
      "inputs": [
        {
          "internalType": "address",
          "name": "to",
          "type": "address"
        },
        {
          "internalType": "uint256",
          "name": "tokenId",
          "type": "uint256"
        }
      ],
      "name": "approve",
      "outputs": [],
      "stateMutability": "nonpayable",
      "type": "function"
    },
    {
      "inputs": [
        {
          "internalType": "address",
          "name": "owner",
          "type": "address"
        }
      ],
      "name": "balanceOf",
      "outputs": [
        {
          "internalType": "uint256",
          "name": "",
          "type": "uint256"
        }
      ],
      "stateMutability": "view",
      "type": "function"
    },
    {
      "inputs": [],
      "name": "getAirdropAddress",
      "outputs": [
        {
          "internalType": "address",
          "name": "",
          "type": "address"
        }
      ],
      "stateMutability": "view",
      "type": "function"
    },
    {
      "inputs": [
        {
          "internalType": "address",
          "name": "_owner",
          "type": "address"
        }
      ],
      "name": "getAirdropAmount",
      "outputs": [
        {
          "internalType": "uint256",
          "name": "",
          "type": "uint256"
        }
      ],
      "stateMutability": "view",
      "type": "function"
    },
    {
      "inputs": [
        {
          "internalType": "address",
          "name": "_owner",
          "type": "address"
        }
      ],
      "name": "getAirdropTokens",
      "outputs": [
        {
          "internalType": "uint256[]",
          "name": "",
          "type": "uint256[]"
        }
      ],
      "stateMutability": "view",
      "type": "function"
    },
    {
      "inputs": [],
      "name": "getAllWallets",
      "outputs": [
        {
          "internalType": "uint256[]",
          "name": "",
          "type": "uint256[]"
        }
      ],
      "stateMutability": "view",
      "type": "function"
    },
    {
      "inputs": [
        {
          "internalType": "uint256",
          "name": "tokenId",
          "type": "uint256"
        }
      ],
      "name": "getApproved",
      "outputs": [
        {
          "internalType": "address",
          "name": "",
          "type": "address"
        }
      ],
      "stateMutability": "view",
      "type": "function"
    },
    {
      "inputs": [],
      "name": "getCost",
      "outputs": [
        {
          "internalType": "uint256",
          "name": "",
          "type": "uint256"
        }
      ],
      "stateMutability": "view",
      "type": "function"
    },
    {
      "inputs": [],
      "name": "getOwnerWallet",
      "outputs": [
        {
          "internalType": "uint256",
          "name": "",
          "type": "uint256"
        }
      ],
      "stateMutability": "view",
      "type": "function"
    },
    {
      "inputs": [
        {
          "internalType": "address",
          "name": "owner",
          "type": "address"
        },
        {
          "internalType": "address",
          "name": "operator",
          "type": "address"
        }
      ],
      "name": "isApprovedForAll",
      "outputs": [
        {
          "internalType": "bool",
          "name": "",
          "type": "bool"
        }
      ],
      "stateMutability": "view",
      "type": "function"
    },
    {
      "inputs": [
        {
          "internalType": "address",
          "name": "_owner",
          "type": "address"
        },
        {
          "internalType": "uint256",
          "name": "_tokenId",
          "type": "uint256"
        }
      ],
      "name": "isTokenBurned",
      "outputs": [
        {
          "internalType": "bool",
          "name": "",
          "type": "bool"
        }
      ],
      "stateMutability": "view",
      "type": "function"
    },
    {
      "inputs": [
        {
          "internalType": "string",
          "name": "_tokenURI",
          "type": "string"
        }
      ],
      "name": "mint",
      "outputs": [],
      "stateMutability": "payable",
      "type": "function"
    },
    {
      "inputs": [],
      "name": "name",
      "outputs": [
        {
          "internalType": "string",
          "name": "",
          "type": "string"
        }
      ],
      "stateMutability": "view",
      "type": "function"
    },
    {
      "inputs": [
        {
          "internalType": "address",
          "name": "",
          "type": "address"
        },
        {
          "internalType": "address",
          "name": "",
          "type": "address"
        },
        {
          "internalType": "uint256[]",
          "name": "",
          "type": "uint256[]"
        },
        {
          "internalType": "uint256[]",
          "name": "",
          "type": "uint256[]"
        },
        {
          "internalType": "bytes",
          "name": "",
          "type": "bytes"
        }
      ],
      "name": "onERC1155BatchReceived",
      "outputs": [
        {
          "internalType": "bytes4",
          "name": "",
          "type": "bytes4"
        }
      ],
      "stateMutability": "pure",
      "type": "function"
    },
    {
      "inputs": [
        {
          "internalType": "address",
          "name": "",
          "type": "address"
        },
        {
          "internalType": "address",
          "name": "",
          "type": "address"
        },
        {
          "internalType": "uint256",
          "name": "",
          "type": "uint256"
        },
        {
          "internalType": "uint256",
          "name": "",
          "type": "uint256"
        },
        {
          "internalType": "bytes",
          "name": "",
          "type": "bytes"
        }
      ],
      "name": "onERC1155Received",
      "outputs": [
        {
          "internalType": "bytes4",
          "name": "",
          "type": "bytes4"
        }
      ],
      "stateMutability": "pure",
      "type": "function"
    },
    {
      "inputs": [],
      "name": "owner",
      "outputs": [
        {
          "internalType": "address",
          "name": "",
          "type": "address"
        }
      ],
      "stateMutability": "view",
      "type": "function"
    },
    {
      "inputs": [
        {
          "internalType": "uint256",
          "name": "tokenId",
          "type": "uint256"
        }
      ],
      "name": "ownerOf",
      "outputs": [
        {
          "internalType": "address",
          "name": "",
          "type": "address"
        }
      ],
      "stateMutability": "view",
      "type": "function"
    },
    {
      "inputs": [],
      "name": "renounceOwnership",
      "outputs": [],
      "stateMutability": "nonpayable",
      "type": "function"
    },
    {
      "inputs": [],
      "name": "s_tokenIds",
      "outputs": [
        {
          "internalType": "uint256",
          "name": "_value",
          "type": "uint256"
        }
      ],
      "stateMutability": "view",
      "type": "function"
    },
    {
      "inputs": [
        {
          "internalType": "address",
          "name": "from",
          "type": "address"
        },
        {
          "internalType": "address",
          "name": "to",
          "type": "address"
        },
        {
          "internalType": "uint256",
          "name": "tokenId",
          "type": "uint256"
        }
      ],
      "name": "safeTransferFrom",
      "outputs": [],
      "stateMutability": "nonpayable",
      "type": "function"
    },
    {
      "inputs": [
        {
          "internalType": "address",
          "name": "from",
          "type": "address"
        },
        {
          "internalType": "address",
          "name": "to",
          "type": "address"
        },
        {
          "internalType": "uint256",
          "name": "tokenId",
          "type": "uint256"
        },
        {
          "internalType": "bytes",
          "name": "data",
          "type": "bytes"
        }
      ],
      "name": "safeTransferFrom",
      "outputs": [],
      "stateMutability": "nonpayable",
      "type": "function"
    },
    {
      "inputs": [
        {
          "internalType": "address",
          "name": "_airdropAddress",
          "type": "address"
        }
      ],
      "name": "setAirDropAddress",
      "outputs": [],
      "stateMutability": "nonpayable",
      "type": "function"
    },
    {
      "inputs": [
        {
          "internalType": "address",
          "name": "operator",
          "type": "address"
        },
        {
          "internalType": "bool",
          "name": "approved",
          "type": "bool"
        }
      ],
      "name": "setApprovalForAll",
      "outputs": [],
      "stateMutability": "nonpayable",
      "type": "function"
    },
    {
      "inputs": [
        {
          "internalType": "uint256",
          "name": "_cost",
          "type": "uint256"
        }
      ],
      "name": "setCost",
      "outputs": [],
      "stateMutability": "nonpayable",
      "type": "function"
    },
    {
      "inputs": [
        {
          "internalType": "bytes4",
          "name": "interfaceId",
          "type": "bytes4"
        }
      ],
      "name": "supportsInterface",
      "outputs": [
        {
          "internalType": "bool",
          "name": "",
          "type": "bool"
        }
      ],
      "stateMutability": "view",
      "type": "function"
    },
    {
      "inputs": [],
      "name": "symbol",
      "outputs": [
        {
          "internalType": "string",
          "name": "",
          "type": "string"
        }
      ],
      "stateMutability": "view",
      "type": "function"
    },
    {
      "inputs": [
        {
          "internalType": "uint256",
          "name": "tokenId",
          "type": "uint256"
        }
      ],
      "name": "tokenURI",
      "outputs": [
        {
          "internalType": "string",
          "name": "",
          "type": "string"
        }
      ],
      "stateMutability": "view",
      "type": "function"
    },
    {
      "inputs": [],
      "name": "totalSupply",
      "outputs": [
        {
          "internalType": "uint256",
          "name": "",
          "type": "uint256"
        }
      ],
      "stateMutability": "view",
      "type": "function"
    },
    {
      "inputs": [
        {
          "internalType": "address",
          "name": "from",
          "type": "address"
        },
        {
          "internalType": "address",
          "name": "to",
          "type": "address"
        },
        {
          "internalType": "uint256",
          "name": "tokenId",
          "type": "uint256"
        }
      ],
      "name": "transferFrom",
      "outputs": [],
      "stateMutability": "nonpayable",
      "type": "function"
    },
    {
      "inputs": [
        {
          "internalType": "address",
          "name": "newOwner",
          "type": "address"
        }
      ],
      "name": "transferOwnership",
      "outputs": [],
      "stateMutability": "nonpayable",
      "type": "function"
    }
  ],
  "transactionHash": "0xb0f31009080cdea04cecb9613f86a1fa61858828bd206d0395e7853c29028b10",
  "args": [
    "0xe7f1725E7734CE288F8367e1Bb143E90bb3F0512",
    "AI Punks",
    "AIX",
    "10000000000000000"
  ],
  "numDeployments": 1,
  "solcInputHash": "f4a786384166054a4db676d0b797a1f6",
  "bytecode": "0x6080604052662386f26fc10000600a553480156200001c57600080fd5b5060405162002991380380620029918339810160408190526200003f91620001d0565b828260006200004f8382620002f1565b5060016200005e8282620002f1565b5050506200007b62000075620000b560201b60201c565b620000b9565b60098054336001600160a01b031991821617909155600b80549091166001600160a01b0395909516949094179093555050600a55620003bd565b3390565b600780546001600160a01b038381166001600160a01b0319831681179093556040519116919082907f8be0079c531659141344cd1fd0a4f28419497f9722a3daafe3b4186f6b6457e090600090a35050565b634e487b7160e01b600052604160045260246000fd5b600082601f8301126200013357600080fd5b81516001600160401b03808211156200015057620001506200010b565b604051601f8301601f19908116603f011681019082821181831017156200017b576200017b6200010b565b816040528381526020925086838588010111156200019857600080fd5b600091505b83821015620001bc57858201830151818301840152908201906200019d565b600093810190920192909252949350505050565b60008060008060808587031215620001e757600080fd5b84516001600160a01b0381168114620001ff57600080fd5b60208601519094506001600160401b03808211156200021d57600080fd5b6200022b8883890162000121565b945060408701519150808211156200024257600080fd5b50620002518782880162000121565b606096909601519497939650505050565b600181811c908216806200027757607f821691505b6020821081036200029857634e487b7160e01b600052602260045260246000fd5b50919050565b601f821115620002ec57600081815260208120601f850160051c81016020861015620002c75750805b601f850160051c820191505b81811015620002e857828155600101620002d3565b5050505b505050565b81516001600160401b038111156200030d576200030d6200010b565b62000325816200031e845462000262565b846200029e565b602080601f8311600181146200035d5760008415620003445750858301515b600019600386901b1c1916600185901b178555620002e8565b600085815260208120601f198616915b828110156200038e578886015182559484019460019091019084016200036d565b5085821015620003ad5787850151600019600388901b60f8161c191681555b5050505050600190811b01905550565b6125c480620003cd6000396000f3fe6080604052600436106101cd5760003560e01c8063715018a6116100f7578063bc197c8111610095578063e1c51b3711610064578063e1c51b3714610537578063e985e9c514610557578063f23a6e61146105a0578063f2fde38b146105cd57600080fd5b8063bc197c81146104a7578063bd3e19d4146104ef578063c87b56dd14610504578063d85d3d271461052457600080fd5b806395d89b41116100d157806395d89b4114610432578063a22cb46514610447578063b06c873914610467578063b88d4fde1461048757600080fd5b8063715018a6146103df578063724bc3de146103f45780638da5cb5b1461041457600080fd5b806323b872dd1161016f57806344a0d68a1161013e57806344a0d68a14610368578063627f0c28146103885780636352211e1461039f57806370a08231146103bf57600080fd5b806323b872dd146102e85780633c4966b7146103085780633d007e571461032a57806342842e0e1461034857600080fd5b8063095ea7b3116101ab578063095ea7b314610261578063129077a61461028357806318160ddd146102a35780631bfa8601146102c657600080fd5b806301ffc9a7146101d257806306fdde0314610207578063081812fc14610229575b600080fd5b3480156101de57600080fd5b506101f26101ed366004611c59565b6105ed565b60405190151581526020015b60405180910390f35b34801561021357600080fd5b5061021c610618565b6040516101fe9190611cc6565b34801561023557600080fd5b50610249610244366004611cd9565b6106aa565b6040516001600160a01b0390911681526020016101fe565b34801561026d57600080fd5b5061028161027c366004611d07565b6106d1565b005b34801561028f57600080fd5b506101f261029e366004611d07565b6107eb565b3480156102af57600080fd5b506102b86107fe565b6040519081526020016101fe565b3480156102d257600080fd5b506102db61080e565b6040516101fe9190611d33565b3480156102f457600080fd5b50610281610303366004611d77565b6108d3565b34801561031457600080fd5b50336000908152600e60205260409020546102b8565b34801561033657600080fd5b50600b546001600160a01b0316610249565b34801561035457600080fd5b50610281610363366004611d77565b610904565b34801561037457600080fd5b50610281610383366004611cd9565b61091f565b34801561039457600080fd5b506008546102b89081565b3480156103ab57600080fd5b506102496103ba366004611cd9565b61092c565b3480156103cb57600080fd5b506102b86103da366004611db8565b61098c565b3480156103eb57600080fd5b50610281610a12565b34801561040057600080fd5b506102b861040f366004611db8565b610a26565b34801561042057600080fd5b506007546001600160a01b0316610249565b34801561043e57600080fd5b5061021c610a3a565b34801561045357600080fd5b50610281610462366004611dd5565b610a49565b34801561047357600080fd5b506102db610482366004611db8565b610a58565b34801561049357600080fd5b506102816104a2366004611eb2565b610ac4565b3480156104b357600080fd5b506104d66104c2366004611fc0565b63bc197c8160e01b98975050505050505050565b6040516001600160e01b031990911681526020016101fe565b3480156104fb57600080fd5b50600a546102b8565b34801561051057600080fd5b5061021c61051f366004611cd9565b610afc565b61028161053236600461207f565b610c0c565b34801561054357600080fd5b50610281610552366004611db8565b610ec0565b34801561056357600080fd5b506101f26105723660046120c8565b6001600160a01b03918216600090815260056020908152604080832093909416825291909152205460ff1690565b3480156105ac57600080fd5b506104d66105bb3660046120f6565b63f23a6e6160e01b9695505050505050565b3480156105d957600080fd5b506102816105e8366004611db8565b610eea565b60006001600160e01b03198216632483248360e11b1480610612575061061282610f63565b92915050565b60606000805461062790612172565b80601f016020809104026020016040519081016040528092919081815260200182805461065390612172565b80156106a05780601f10610675576101008083540402835291602001916106a0565b820191906000526020600020905b81548152906001019060200180831161068357829003601f168201915b5050505050905090565b60006106b582610fb3565b506000908152600460205260409020546001600160a01b031690565b60006106dc8261092c565b9050806001600160a01b0316836001600160a01b03160361074e5760405162461bcd60e51b815260206004820152602160248201527f4552433732313a20617070726f76616c20746f2063757272656e74206f776e656044820152603960f91b60648201526084015b60405180910390fd5b336001600160a01b038216148061076a575061076a8133610572565b6107dc5760405162461bcd60e51b815260206004820152603d60248201527f4552433732313a20617070726f76652063616c6c6572206973206e6f7420746f60448201527f6b656e206f776e6572206f7220617070726f76656420666f7220616c6c0000006064820152608401610745565b6107e68383611012565b505050565b60006107f78383611080565b9392505050565b600061080960085490565b905090565b6060600061081b60085490565b67ffffffffffffffff81111561083357610833611e13565b60405190808252806020026020018201604052801561085c578160200160208202803683370190505b50905060005b81518110156108cd57600e600061087d6103ba8460016121bc565b6001600160a01b03166001600160a01b03168152602001908152602001600020548282815181106108b0576108b06121cf565b6020908102919091010152806108c5816121e5565b915050610862565b50919050565b6108dd33826110fc565b6108f95760405162461bcd60e51b8152600401610745906121fe565b6107e683838361117a565b6107e683838360405180602001604052806000815250610ac4565b6109276112de565b600a55565b6000818152600260205260408120546001600160a01b0316806106125760405162461bcd60e51b8152602060048201526018602482015277115490cdcc8c4e881a5b9d985b1a59081d1bdad95b88125160421b6044820152606401610745565b60006001600160a01b0382166109f65760405162461bcd60e51b815260206004820152602960248201527f4552433732313a2061646472657373207a65726f206973206e6f7420612076616044820152683634b21037bbb732b960b91b6064820152608401610745565b506001600160a01b031660009081526003602052604090205490565b610a1a6112de565b610a246000611338565b565b6000806107f783610a3561138a565b6114d3565b60606001805461062790612172565b610a5433838361155a565b5050565b6001600160a01b0381166000908152600d60209081526040808320805482518185028101850190935280835260609493830182828015610ab757602002820191906000526020600020905b815481526020019060010190808311610aa3575b5093979650505050505050565b610ace33836110fc565b610aea5760405162461bcd60e51b8152600401610745906121fe565b610af684848484611628565b50505050565b6060610b0782610fb3565b60008281526006602052604081208054610b2090612172565b80601f0160208091040260200160405190810160405280929190818152602001828054610b4c90612172565b8015610b995780601f10610b6e57610100808354040283529160200191610b99565b820191906000526020600020905b815481529060010190602001808311610b7c57829003601f168201915b505050505090506000610bb760408051602081019091526000815290565b90508051600003610bc9575092915050565b815115610bfb578082604051602001610be392919061224b565b60405160208183030381529060405292505050919050565b610c048461165b565b949350505050565b6000610c1661138a565b90506000610c2433836114d3565b9050600082600081518110610c3b57610c3b6121cf565b60200260200101519050600082118015610c56575060008351115b8015610cd55750600b546040516331a9108f60e11b81526004810183905233916001600160a01b031690636352211e90602401602060405180830381865afa158015610ca6573d6000803e3d6000fd5b505050506040513d601f19601f82011682018060405250810190610cca919061227a565b6001600160a01b0316145b15610dba57336000908152600c6020908152604080832084845290915290205460ff1615610d3c5760405162461bcd60e51b8152602060048201526014602482015273151bdad95b88185b1c9958591e48189d5c9b995960621b6044820152606401610745565b600b54604051637a94c56560e11b815233600482015260248101839052600160448201526001600160a01b039091169063f5298aca90606401600060405180830381600087803b158015610d8f57600080fd5b505af1158015610da3573d6000803e3d6000fd5b505050508180610db290612297565b925050610e50565b600a54341015610e245760405162461bcd60e51b815260206004820152602f60248201527f45746865722076616c75652073656e74206973206e6f7420636f72726563742060448201526e199bdc881b5a5b9d08185b5bdd5b9d608a1b6064820152608401610745565b610e5060405180604001604052806008815260200167436f73743a20257360c01b815250600a546116ce565b610e5e600880546001019055565b6000610e6960085490565b9050610e753382611713565b610e7f818661172d565b336000818152600e6020526040808220849055518392917f0f6798a560793a54c3bcfe86a93cde1e73087d944c0ea20544137d412139688591a35050505050565b610ec86112de565b600b80546001600160a01b0319166001600160a01b0392909216919091179055565b610ef26112de565b6001600160a01b038116610f575760405162461bcd60e51b815260206004820152602660248201527f4f776e61626c653a206e6577206f776e657220697320746865207a65726f206160448201526564647265737360d01b6064820152608401610745565b610f6081611338565b50565b60006001600160e01b031982166380ac58cd60e01b1480610f9457506001600160e01b03198216635b5e139f60e01b145b8061061257506301ffc9a760e01b6001600160e01b0319831614610612565b6000818152600260205260409020546001600160a01b0316610f605760405162461bcd60e51b8152602060048201526018602482015277115490cdcc8c4e881a5b9d985b1a59081d1bdad95b88125160421b6044820152606401610745565b600081815260046020526040902080546001600160a01b0319166001600160a01b03841690811790915581906110478261092c565b6001600160a01b03167f8c5be1e5ebec7d5bd14f71427d1e84f3dd0314c0f7b2291e5b200ac8c7c3b92560405160405180910390a45050565b600b54604051627eeac760e11b81526001600160a01b03848116600483015260248201849052600092169062fdd58e90604401602060405180830381865afa1580156110d0573d6000803e3d6000fd5b505050506040513d601f19601f820116820180604052508101906110f491906122ae565b159392505050565b6000806111088361092c565b9050806001600160a01b0316846001600160a01b0316148061114f57506001600160a01b0380821660009081526005602090815260408083209388168352929052205460ff165b80610c045750836001600160a01b0316611168846106aa565b6001600160a01b031614949350505050565b826001600160a01b031661118d8261092c565b6001600160a01b0316146111b35760405162461bcd60e51b8152600401610745906122c7565b6001600160a01b0382166112155760405162461bcd60e51b8152602060048201526024808201527f4552433732313a207472616e7366657220746f20746865207a65726f206164646044820152637265737360e01b6064820152608401610745565b826001600160a01b03166112288261092c565b6001600160a01b03161461124e5760405162461bcd60e51b8152600401610745906122c7565b600081815260046020908152604080832080546001600160a01b03199081169091556001600160a01b0387811680865260038552838620805460001901905590871680865283862080546001019055868652600290945282852080549092168417909155905184937fddf252ad1be2c89b69c2b068fc378daa952ba7f163c4a11628f55a4df523b3ef91a4505050565b6007546001600160a01b03163314610a245760405162461bcd60e51b815260206004820181905260248201527f4f776e61626c653a2063616c6c6572206973206e6f7420746865206f776e65726044820152606401610745565b600780546001600160a01b038381166001600160a01b0319831681179093556040519116919082907f8be0079c531659141344cd1fd0a4f28419497f9722a3daafe3b4186f6b6457e090600090a35050565b600b546040516378a9bb4360e11b81523360048201526060916000916001600160a01b039091169063f153768690602401600060405180830381865afa1580156113d8573d6000803e3d6000fd5b505050506040513d6000823e601f3d908101601f19168201604052611400919081019061230c565b90506000805b825181101561148a57336000908152600c602052604081208451909190859084908110611435576114356121cf565b60209081029190910181015182528101919091526040016000205460ff1661147857828181518110611469576114696121cf565b6020026020010151915061148a565b80611482816121e5565b915050611406565b506040805160018082528183019092526000916020808301908036833701905050905081816000815181106114c1576114c16121cf565b60209081029190910101529392505050565b600080805b8351811015611552576001600160a01b0385166000908152600c602052604081208551909190869084908110611510576115106121cf565b60209081029190910181015182528101919091526040016000205460ff16611540578161153c816121e5565b9250505b8061154a816121e5565b9150506114d8565b509392505050565b816001600160a01b0316836001600160a01b0316036115bb5760405162461bcd60e51b815260206004820152601960248201527f4552433732313a20617070726f766520746f2063616c6c6572000000000000006044820152606401610745565b6001600160a01b03838116600081815260056020908152604080832094871680845294825291829020805460ff191686151590811790915591519182527f17307eab39ab6107e8899845ad3d59bd9653f200f220920489ca2b5937696c31910160405180910390a3505050565b61163384848461117a565b61163f848484846117f8565b610af65760405162461bcd60e51b8152600401610745906123b2565b606061166682610fb3565b600061167d60408051602081019091526000815290565b9050600081511161169d57604051806020016040528060008152506107f7565b806116a7846118f9565b6040516020016116b892919061224b565b6040516020818303038152906040529392505050565b610a5482826040516024016116e4929190612404565b60408051601f198184030181529190526020810180516001600160e01b0316632d839cb360e21b17905261198c565b610a548282604051806020016040528060008152506119ad565b6000828152600260205260409020546001600160a01b03166117a85760405162461bcd60e51b815260206004820152602e60248201527f45524337323155524953746f726167653a2055524920736574206f66206e6f6e60448201526d32bc34b9ba32b73a103a37b5b2b760911b6064820152608401610745565b60008281526006602052604090206117c08282612474565b506040518281527ff8e1a15aba9398e019f0b49df1a4fde98ee17ae345cb5f6b5e2c27f5033e8ce79060200160405180910390a15050565b60006001600160a01b0384163b156118ee57604051630a85bd0160e11b81526001600160a01b0385169063150b7a029061183c903390899088908890600401612534565b6020604051808303816000875af1925050508015611877575060408051601f3d908101601f1916820190925261187491810190612571565b60015b6118d4573d8080156118a5576040519150601f19603f3d011682016040523d82523d6000602084013e6118aa565b606091505b5080516000036118cc5760405162461bcd60e51b8152600401610745906123b2565b805181602001fd5b6001600160e01b031916630a85bd0160e11b149050610c04565b506001949350505050565b60606000611906836119e0565b600101905060008167ffffffffffffffff81111561192657611926611e13565b6040519080825280601f01601f191660200182016040528015611950576020820181803683370190505b5090508181016020015b600019016f181899199a1a9b1b9c1cb0b131b232b360811b600a86061a8153600a850494508461195a57509392505050565b60006a636f6e736f6c652e6c6f679050600080835160208501845afa505050565b6119b78383611ab8565b6119c460008484846117f8565b6107e65760405162461bcd60e51b8152600401610745906123b2565b60008072184f03e93ff9f4daa797ed6e38ed64bf6a1f0160401b8310611a1f5772184f03e93ff9f4daa797ed6e38ed64bf6a1f0160401b830492506040015b6d04ee2d6d415b85acef81000000008310611a4b576d04ee2d6d415b85acef8100000000830492506020015b662386f26fc100008310611a6957662386f26fc10000830492506010015b6305f5e1008310611a81576305f5e100830492506008015b6127108310611a9557612710830492506004015b60648310611aa7576064830492506002015b600a83106106125760010192915050565b6001600160a01b038216611b0e5760405162461bcd60e51b815260206004820181905260248201527f4552433732313a206d696e7420746f20746865207a65726f20616464726573736044820152606401610745565b6000818152600260205260409020546001600160a01b031615611b735760405162461bcd60e51b815260206004820152601c60248201527f4552433732313a20746f6b656e20616c7265616479206d696e746564000000006044820152606401610745565b6000818152600260205260409020546001600160a01b031615611bd85760405162461bcd60e51b815260206004820152601c60248201527f4552433732313a20746f6b656e20616c7265616479206d696e746564000000006044820152606401610745565b6001600160a01b038216600081815260036020908152604080832080546001019055848352600290915280822080546001600160a01b0319168417905551839291907fddf252ad1be2c89b69c2b068fc378daa952ba7f163c4a11628f55a4df523b3ef908290a45050565b6001600160e01b031981168114610f6057600080fd5b600060208284031215611c6b57600080fd5b81356107f781611c43565b60005b83811015611c91578181015183820152602001611c79565b50506000910152565b60008151808452611cb2816020860160208601611c76565b601f01601f19169290920160200192915050565b6020815260006107f76020830184611c9a565b600060208284031215611ceb57600080fd5b5035919050565b6001600160a01b0381168114610f6057600080fd5b60008060408385031215611d1a57600080fd5b8235611d2581611cf2565b946020939093013593505050565b6020808252825182820181905260009190848201906040850190845b81811015611d6b57835183529284019291840191600101611d4f565b50909695505050505050565b600080600060608486031215611d8c57600080fd5b8335611d9781611cf2565b92506020840135611da781611cf2565b929592945050506040919091013590565b600060208284031215611dca57600080fd5b81356107f781611cf2565b60008060408385031215611de857600080fd5b8235611df381611cf2565b915060208301358015158114611e0857600080fd5b809150509250929050565b634e487b7160e01b600052604160045260246000fd5b604051601f8201601f1916810167ffffffffffffffff81118282101715611e5257611e52611e13565b604052919050565b600067ffffffffffffffff831115611e7457611e74611e13565b611e87601f8401601f1916602001611e29565b9050828152838383011115611e9b57600080fd5b828260208301376000602084830101529392505050565b60008060008060808587031215611ec857600080fd5b8435611ed381611cf2565b93506020850135611ee381611cf2565b925060408501359150606085013567ffffffffffffffff811115611f0657600080fd5b8501601f81018713611f1757600080fd5b611f2687823560208401611e5a565b91505092959194509250565b60008083601f840112611f4457600080fd5b50813567ffffffffffffffff811115611f5c57600080fd5b6020830191508360208260051b8501011115611f7757600080fd5b9250929050565b60008083601f840112611f9057600080fd5b50813567ffffffffffffffff811115611fa857600080fd5b602083019150836020828501011115611f7757600080fd5b60008060008060008060008060a0898b031215611fdc57600080fd5b8835611fe781611cf2565b97506020890135611ff781611cf2565b9650604089013567ffffffffffffffff8082111561201457600080fd5b6120208c838d01611f32565b909850965060608b013591508082111561203957600080fd5b6120458c838d01611f32565b909650945060808b013591508082111561205e57600080fd5b5061206b8b828c01611f7e565b999c989b5096995094979396929594505050565b60006020828403121561209157600080fd5b813567ffffffffffffffff8111156120a857600080fd5b8201601f810184136120b957600080fd5b610c0484823560208401611e5a565b600080604083850312156120db57600080fd5b82356120e681611cf2565b91506020830135611e0881611cf2565b60008060008060008060a0878903121561210f57600080fd5b863561211a81611cf2565b9550602087013561212a81611cf2565b94506040870135935060608701359250608087013567ffffffffffffffff81111561215457600080fd5b61216089828a01611f7e565b979a9699509497509295939492505050565b600181811c9082168061218657607f821691505b6020821081036108cd57634e487b7160e01b600052602260045260246000fd5b634e487b7160e01b600052601160045260246000fd5b80820180821115610612576106126121a6565b634e487b7160e01b600052603260045260246000fd5b6000600182016121f7576121f76121a6565b5060010190565b6020808252602d908201527f4552433732313a2063616c6c6572206973206e6f7420746f6b656e206f776e6560408201526c1c881bdc88185c1c1c9bdd9959609a1b606082015260800190565b6000835161225d818460208801611c76565b835190830190612271818360208801611c76565b01949350505050565b60006020828403121561228c57600080fd5b81516107f781611cf2565b6000816122a6576122a66121a6565b506000190190565b6000602082840312156122c057600080fd5b5051919050565b60208082526025908201527f4552433732313a207472616e736665722066726f6d20696e636f72726563742060408201526437bbb732b960d91b606082015260800190565b6000602080838503121561231f57600080fd5b825167ffffffffffffffff8082111561233757600080fd5b818501915085601f83011261234b57600080fd5b81518181111561235d5761235d611e13565b8060051b915061236e848301611e29565b818152918301840191848101908884111561238857600080fd5b938501935b838510156123a65784518252938501939085019061238d565b98975050505050505050565b60208082526032908201527f4552433732313a207472616e7366657220746f206e6f6e20455243373231526560408201527131b2b4bb32b91034b6b83632b6b2b73a32b960711b606082015260800190565b6040815260006124176040830185611c9a565b90508260208301529392505050565b601f8211156107e657600081815260208120601f850160051c8101602086101561244d5750805b601f850160051c820191505b8181101561246c57828155600101612459565b505050505050565b815167ffffffffffffffff81111561248e5761248e611e13565b6124a28161249c8454612172565b84612426565b602080601f8311600181146124d757600084156124bf5750858301515b600019600386901b1c1916600185901b17855561246c565b600085815260208120601f198616915b82811015612506578886015182559484019460019091019084016124e7565b50858210156125245787850151600019600388901b60f8161c191681555b5050505050600190811b01905550565b6001600160a01b038581168252841660208201526040810183905260806060820181905260009061256790830184611c9a565b9695505050505050565b60006020828403121561258357600080fd5b81516107f781611c4356fea2646970667358221220d5af3c19c7c16d9fc5c139c45833bf1ee5e57950f86373ad53d4c625049f0f3564736f6c63430008110033",
  "devdoc": {
    "kind": "dev",
    "methods": {
      "approve(address,uint256)": {
        "details": "See {IERC721-approve}."
      },
      "balanceOf(address)": {
        "details": "See {IERC721-balanceOf}."
      },
      "getApproved(uint256)": {
        "details": "See {IERC721-getApproved}."
      },
      "isApprovedForAll(address,address)": {
        "details": "See {IERC721-isApprovedForAll}."
      },
      "name()": {
        "details": "See {IERC721Metadata-name}."
      },
      "owner()": {
        "details": "Returns the address of the current owner."
      },
      "ownerOf(uint256)": {
        "details": "See {IERC721-ownerOf}."
      },
      "renounceOwnership()": {
        "details": "Leaves the contract without owner. It will not be possible to call `onlyOwner` functions. Can only be called by the current owner. NOTE: Renouncing ownership will leave the contract without an owner, thereby disabling any functionality that is only available to the owner."
      },
      "safeTransferFrom(address,address,uint256)": {
        "details": "See {IERC721-safeTransferFrom}."
      },
      "safeTransferFrom(address,address,uint256,bytes)": {
        "details": "See {IERC721-safeTransferFrom}."
      },
      "setApprovalForAll(address,bool)": {
        "details": "See {IERC721-setApprovalForAll}."
      },
      "supportsInterface(bytes4)": {
        "details": "See {IERC165-supportsInterface}"
      },
      "symbol()": {
        "details": "See {IERC721Metadata-symbol}."
      },
      "tokenURI(uint256)": {
        "details": "See {IERC721Metadata-tokenURI}."
      },
      "transferFrom(address,address,uint256)": {
        "details": "See {IERC721-transferFrom}."
      },
      "transferOwnership(address)": {
        "details": "Transfers ownership of the contract to a new account (`newOwner`). Can only be called by the current owner."
      }
    },
    "version": 1
  },
  "userdoc": {
    "kind": "user",
    "methods": {},
    "version": 1
  },
  "storageLayout": {
    "storage": [
      {
        "astId": 1636,
        "contract": "contracts/GeneratedNFT.sol:GeneratedNFT",
        "label": "_name",
        "offset": 0,
        "slot": "0",
        "type": "t_string_storage"
      },
      {
        "astId": 1638,
        "contract": "contracts/GeneratedNFT.sol:GeneratedNFT",
        "label": "_symbol",
        "offset": 0,
        "slot": "1",
        "type": "t_string_storage"
      },
      {
        "astId": 1642,
        "contract": "contracts/GeneratedNFT.sol:GeneratedNFT",
        "label": "_owners",
        "offset": 0,
        "slot": "2",
        "type": "t_mapping(t_uint256,t_address)"
      },
      {
        "astId": 1646,
        "contract": "contracts/GeneratedNFT.sol:GeneratedNFT",
        "label": "_balances",
        "offset": 0,
        "slot": "3",
        "type": "t_mapping(t_address,t_uint256)"
      },
      {
        "astId": 1650,
        "contract": "contracts/GeneratedNFT.sol:GeneratedNFT",
        "label": "_tokenApprovals",
        "offset": 0,
        "slot": "4",
        "type": "t_mapping(t_uint256,t_address)"
      },
      {
        "astId": 1656,
        "contract": "contracts/GeneratedNFT.sol:GeneratedNFT",
        "label": "_operatorApprovals",
        "offset": 0,
        "slot": "5",
        "type": "t_mapping(t_address,t_mapping(t_address,t_bool))"
      },
      {
        "astId": 2687,
        "contract": "contracts/GeneratedNFT.sol:GeneratedNFT",
        "label": "_tokenURIs",
        "offset": 0,
        "slot": "6",
        "type": "t_mapping(t_uint256,t_string_storage)"
      },
      {
        "astId": 7,
        "contract": "contracts/GeneratedNFT.sol:GeneratedNFT",
        "label": "_owner",
        "offset": 0,
        "slot": "7",
        "type": "t_address"
      },
      {
        "astId": 5799,
        "contract": "contracts/GeneratedNFT.sol:GeneratedNFT",
        "label": "s_tokenIds",
        "offset": 0,
        "slot": "8",
        "type": "t_struct(Counter)3243_storage"
      },
      {
        "astId": 5801,
        "contract": "contracts/GeneratedNFT.sol:GeneratedNFT",
        "label": "s_owner",
        "offset": 0,
        "slot": "9",
        "type": "t_address"
      },
      {
        "astId": 5804,
        "contract": "contracts/GeneratedNFT.sol:GeneratedNFT",
        "label": "s_cost",
        "offset": 0,
        "slot": "10",
        "type": "t_uint256"
      },
      {
        "astId": 5807,
        "contract": "contracts/GeneratedNFT.sol:GeneratedNFT",
        "label": "airdropInterface",
        "offset": 0,
        "slot": "11",
        "type": "t_contract(Airdrop)5774"
      },
      {
        "astId": 5813,
        "contract": "contracts/GeneratedNFT.sol:GeneratedNFT",
        "label": "s_isTokenBurned",
        "offset": 0,
        "slot": "12",
        "type": "t_mapping(t_address,t_mapping(t_uint256,t_bool))"
      },
      {
        "astId": 5818,
        "contract": "contracts/GeneratedNFT.sol:GeneratedNFT",
        "label": "s_airdropTokens",
        "offset": 0,
        "slot": "13",
        "type": "t_mapping(t_address,t_array(t_uint256)dyn_storage)"
      },
      {
        "astId": 5822,
        "contract": "contracts/GeneratedNFT.sol:GeneratedNFT",
        "label": "s_ownerWallet",
        "offset": 0,
        "slot": "14",
        "type": "t_mapping(t_address,t_uint256)"
      },
      {
        "astId": 5828,
        "contract": "contracts/GeneratedNFT.sol:GeneratedNFT",
        "label": "s_airdropTokenAmount",
        "offset": 0,
        "slot": "15",
        "type": "t_mapping(t_address,t_mapping(t_uint256,t_uint256))"
      }
    ],
    "types": {
      "t_address": {
        "encoding": "inplace",
        "label": "address",
        "numberOfBytes": "20"
      },
      "t_array(t_uint256)dyn_storage": {
        "base": "t_uint256",
        "encoding": "dynamic_array",
        "label": "uint256[]",
        "numberOfBytes": "32"
      },
      "t_bool": {
        "encoding": "inplace",
        "label": "bool",
        "numberOfBytes": "1"
      },
      "t_contract(Airdrop)5774": {
        "encoding": "inplace",
        "label": "contract Airdrop",
        "numberOfBytes": "20"
      },
      "t_mapping(t_address,t_array(t_uint256)dyn_storage)": {
        "encoding": "mapping",
        "key": "t_address",
        "label": "mapping(address => uint256[])",
        "numberOfBytes": "32",
        "value": "t_array(t_uint256)dyn_storage"
      },
      "t_mapping(t_address,t_bool)": {
        "encoding": "mapping",
        "key": "t_address",
        "label": "mapping(address => bool)",
        "numberOfBytes": "32",
        "value": "t_bool"
      },
      "t_mapping(t_address,t_mapping(t_address,t_bool))": {
        "encoding": "mapping",
        "key": "t_address",
        "label": "mapping(address => mapping(address => bool))",
        "numberOfBytes": "32",
        "value": "t_mapping(t_address,t_bool)"
      },
      "t_mapping(t_address,t_mapping(t_uint256,t_bool))": {
        "encoding": "mapping",
        "key": "t_address",
        "label": "mapping(address => mapping(uint256 => bool))",
        "numberOfBytes": "32",
        "value": "t_mapping(t_uint256,t_bool)"
      },
      "t_mapping(t_address,t_mapping(t_uint256,t_uint256))": {
        "encoding": "mapping",
        "key": "t_address",
        "label": "mapping(address => mapping(uint256 => uint256))",
        "numberOfBytes": "32",
        "value": "t_mapping(t_uint256,t_uint256)"
      },
      "t_mapping(t_address,t_uint256)": {
        "encoding": "mapping",
        "key": "t_address",
        "label": "mapping(address => uint256)",
        "numberOfBytes": "32",
        "value": "t_uint256"
      },
      "t_mapping(t_uint256,t_address)": {
        "encoding": "mapping",
        "key": "t_uint256",
        "label": "mapping(uint256 => address)",
        "numberOfBytes": "32",
        "value": "t_address"
      },
      "t_mapping(t_uint256,t_bool)": {
        "encoding": "mapping",
        "key": "t_uint256",
        "label": "mapping(uint256 => bool)",
        "numberOfBytes": "32",
        "value": "t_bool"
      },
      "t_mapping(t_uint256,t_string_storage)": {
        "encoding": "mapping",
        "key": "t_uint256",
        "label": "mapping(uint256 => string)",
        "numberOfBytes": "32",
        "value": "t_string_storage"
      },
      "t_mapping(t_uint256,t_uint256)": {
        "encoding": "mapping",
        "key": "t_uint256",
        "label": "mapping(uint256 => uint256)",
        "numberOfBytes": "32",
        "value": "t_uint256"
      },
      "t_string_storage": {
        "encoding": "bytes",
        "label": "string",
        "numberOfBytes": "32"
      },
      "t_struct(Counter)3243_storage": {
        "encoding": "inplace",
        "label": "struct Counters.Counter",
        "members": [
          {
            "astId": 3242,
            "contract": "contracts/GeneratedNFT.sol:GeneratedNFT",
            "label": "_value",
            "offset": 0,
            "slot": "0",
            "type": "t_uint256"
          }
        ],
        "numberOfBytes": "32"
      },
      "t_uint256": {
        "encoding": "inplace",
        "label": "uint256",
        "numberOfBytes": "32"
      }
    }
  }
}