{
  "address": "0x5FbDB2315678afecb367f032d93F642f64180aa3",
  "abi": [
    {
      "inputs": [
        {
          "internalType": "string",
          "name": "_name",
          "type": "string"
        },
        {
          "internalType": "string",
          "name": "_symbol",
          "type": "string"
        },
        {
          "internalType": "uint256",
          "name": "_cost",
          "type": "uint256"
        },
        {
          "internalType": "uint256",
          "name": "_maxSupply",
          "type": "uint256"
        },
        {
          "internalType": "uint256",
          "name": "_maxMintAmount",
          "type": "uint256"
        },
        {
          "internalType": "string",
          "name": "_baseURI",
          "type": "string"
        }
      ],
      "stateMutability": "nonpayable",
      "type": "constructor"
    },
    {
      "anonymous": false,
      "inputs": [
        {
          "indexed": true,
          "internalType": "address",
          "name": "owner",
          "type": "address"
        },
        {
          "indexed": true,
          "internalType": "address",
          "name": "approved",
          "type": "address"
        },
        {
          "indexed": true,
          "internalType": "uint256",
          "name": "tokenId",
          "type": "uint256"
        }
      ],
      "name": "Approval",
      "type": "event"
    },
    {
      "anonymous": false,
      "inputs": [
        {
          "indexed": true,
          "internalType": "address",
          "name": "owner",
          "type": "address"
        },
        {
          "indexed": true,
          "internalType": "address",
          "name": "operator",
          "type": "address"
        },
        {
          "indexed": false,
          "internalType": "bool",
          "name": "approved",
          "type": "bool"
        }
      ],
      "name": "ApprovalForAll",
      "type": "event"
    },
    {
      "anonymous": false,
      "inputs": [
        {
          "indexed": false,
          "internalType": "uint256",
          "name": "amount",
          "type": "uint256"
        },
        {
          "indexed": true,
          "internalType": "address",
          "name": "minter",
          "type": "address"
        },
        {
          "indexed": true,
          "internalType": "uint256",
          "name": "tokenId",
          "type": "uint256"
        }
      ],
      "name": "Mint",
      "type": "event"
    },
    {
      "anonymous": false,
      "inputs": [
        {
          "indexed": true,
          "internalType": "address",
          "name": "previousOwner",
          "type": "address"
        },
        {
          "indexed": true,
          "internalType": "address",
          "name": "newOwner",
          "type": "address"
        }
      ],
      "name": "OwnershipTransferred",
      "type": "event"
    },
    {
      "anonymous": false,
      "inputs": [
        {
          "indexed": true,
          "internalType": "address",
          "name": "from",
          "type": "address"
        },
        {
          "indexed": true,
          "internalType": "address",
          "name": "to",
          "type": "address"
        },
        {
          "indexed": true,
          "internalType": "uint256",
          "name": "tokenId",
          "type": "uint256"
        }
      ],
      "name": "Transfer",
      "type": "event"
    },
    {
      "anonymous": false,
      "inputs": [
        {
          "indexed": false,
          "internalType": "uint256",
          "name": "amount",
          "type": "uint256"
        },
        {
          "indexed": true,
          "internalType": "address",
          "name": "withdrawer",
          "type": "address"
        }
      ],
      "name": "Withdraw",
      "type": "event"
    },
    {
      "inputs": [
        {
          "internalType": "address",
          "name": "to",
          "type": "address"
        },
        {
          "internalType": "uint256",
          "name": "tokenId",
          "type": "uint256"
        }
      ],
      "name": "approve",
      "outputs": [],
      "stateMutability": "nonpayable",
      "type": "function"
    },
    {
      "inputs": [
        {
          "internalType": "address",
          "name": "owner",
          "type": "address"
        }
      ],
      "name": "balanceOf",
      "outputs": [
        {
          "internalType": "uint256",
          "name": "",
          "type": "uint256"
        }
      ],
      "stateMutability": "view",
      "type": "function"
    },
    {
      "inputs": [
        {
          "internalType": "uint256",
          "name": "tokenId",
          "type": "uint256"
        }
      ],
      "name": "getApproved",
      "outputs": [
        {
          "internalType": "address",
          "name": "",
          "type": "address"
        }
      ],
      "stateMutability": "view",
      "type": "function"
    },
    {
      "inputs": [],
      "name": "getBaseURI",
      "outputs": [
        {
          "internalType": "string",
          "name": "",
          "type": "string"
        }
      ],
      "stateMutability": "view",
      "type": "function"
    },
    {
      "inputs": [],
      "name": "getCost",
      "outputs": [
        {
          "internalType": "uint256",
          "name": "",
          "type": "uint256"
        }
      ],
      "stateMutability": "view",
      "type": "function"
    },
    {
      "inputs": [],
      "name": "getMaxMintAmount",
      "outputs": [
        {
          "internalType": "uint256",
          "name": "",
          "type": "uint256"
        }
      ],
      "stateMutability": "view",
      "type": "function"
    },
    {
      "inputs": [],
      "name": "getMaxSupply",
      "outputs": [
        {
          "internalType": "uint256",
          "name": "",
          "type": "uint256"
        }
      ],
      "stateMutability": "view",
      "type": "function"
    },
    {
      "inputs": [],
      "name": "getTotalSupply",
      "outputs": [
        {
          "internalType": "uint256",
          "name": "",
          "type": "uint256"
        }
      ],
      "stateMutability": "view",
      "type": "function"
    },
    {
      "inputs": [
        {
          "internalType": "address",
          "name": "_owner",
          "type": "address"
        }
      ],
      "name": "getWalletOwner",
      "outputs": [
        {
          "internalType": "uint256[]",
          "name": "",
          "type": "uint256[]"
        }
      ],
      "stateMutability": "view",
      "type": "function"
    },
    {
      "inputs": [
        {
          "internalType": "address",
          "name": "owner",
          "type": "address"
        },
        {
          "internalType": "address",
          "name": "operator",
          "type": "address"
        }
      ],
      "name": "isApprovedForAll",
      "outputs": [
        {
          "internalType": "bool",
          "name": "",
          "type": "bool"
        }
      ],
      "stateMutability": "view",
      "type": "function"
    },
    {
      "inputs": [
        {
          "internalType": "uint256",
          "name": "_mintAmount",
          "type": "uint256"
        }
      ],
      "name": "mint",
      "outputs": [],
      "stateMutability": "payable",
      "type": "function"
    },
    {
      "inputs": [],
      "name": "name",
      "outputs": [
        {
          "internalType": "string",
          "name": "",
          "type": "string"
        }
      ],
      "stateMutability": "view",
      "type": "function"
    },
    {
      "inputs": [],
      "name": "owner",
      "outputs": [
        {
          "internalType": "address",
          "name": "",
          "type": "address"
        }
      ],
      "stateMutability": "view",
      "type": "function"
    },
    {
      "inputs": [
        {
          "internalType": "uint256",
          "name": "tokenId",
          "type": "uint256"
        }
      ],
      "name": "ownerOf",
      "outputs": [
        {
          "internalType": "address",
          "name": "",
          "type": "address"
        }
      ],
      "stateMutability": "view",
      "type": "function"
    },
    {
      "inputs": [],
      "name": "renounceOwnership",
      "outputs": [],
      "stateMutability": "nonpayable",
      "type": "function"
    },
    {
      "inputs": [
        {
          "internalType": "address",
          "name": "from",
          "type": "address"
        },
        {
          "internalType": "address",
          "name": "to",
          "type": "address"
        },
        {
          "internalType": "uint256",
          "name": "tokenId",
          "type": "uint256"
        }
      ],
      "name": "safeTransferFrom",
      "outputs": [],
      "stateMutability": "nonpayable",
      "type": "function"
    },
    {
      "inputs": [
        {
          "internalType": "address",
          "name": "from",
          "type": "address"
        },
        {
          "internalType": "address",
          "name": "to",
          "type": "address"
        },
        {
          "internalType": "uint256",
          "name": "tokenId",
          "type": "uint256"
        },
        {
          "internalType": "bytes",
          "name": "data",
          "type": "bytes"
        }
      ],
      "name": "safeTransferFrom",
      "outputs": [],
      "stateMutability": "nonpayable",
      "type": "function"
    },
    {
      "inputs": [
        {
          "internalType": "address",
          "name": "operator",
          "type": "address"
        },
        {
          "internalType": "bool",
          "name": "approved",
          "type": "bool"
        }
      ],
      "name": "setApprovalForAll",
      "outputs": [],
      "stateMutability": "nonpayable",
      "type": "function"
    },
    {
      "inputs": [
        {
          "internalType": "uint256",
          "name": "_newCost",
          "type": "uint256"
        }
      ],
      "name": "setCost",
      "outputs": [],
      "stateMutability": "nonpayable",
      "type": "function"
    },
    {
      "inputs": [
        {
          "internalType": "uint256",
          "name": "_amount",
          "type": "uint256"
        }
      ],
      "name": "setMaxMintAmount",
      "outputs": [],
      "stateMutability": "nonpayable",
      "type": "function"
    },
    {
      "inputs": [
        {
          "internalType": "bytes4",
          "name": "interfaceId",
          "type": "bytes4"
        }
      ],
      "name": "supportsInterface",
      "outputs": [
        {
          "internalType": "bool",
          "name": "",
          "type": "bool"
        }
      ],
      "stateMutability": "view",
      "type": "function"
    },
    {
      "inputs": [],
      "name": "symbol",
      "outputs": [
        {
          "internalType": "string",
          "name": "",
          "type": "string"
        }
      ],
      "stateMutability": "view",
      "type": "function"
    },
    {
      "inputs": [
        {
          "internalType": "uint256",
          "name": "index",
          "type": "uint256"
        }
      ],
      "name": "tokenByIndex",
      "outputs": [
        {
          "internalType": "uint256",
          "name": "",
          "type": "uint256"
        }
      ],
      "stateMutability": "view",
      "type": "function"
    },
    {
      "inputs": [
        {
          "internalType": "address",
          "name": "owner",
          "type": "address"
        },
        {
          "internalType": "uint256",
          "name": "index",
          "type": "uint256"
        }
      ],
      "name": "tokenOfOwnerByIndex",
      "outputs": [
        {
          "internalType": "uint256",
          "name": "",
          "type": "uint256"
        }
      ],
      "stateMutability": "view",
      "type": "function"
    },
    {
      "inputs": [
        {
          "internalType": "uint256",
          "name": "_tokenId",
          "type": "uint256"
        }
      ],
      "name": "tokenURI",
      "outputs": [
        {
          "internalType": "string",
          "name": "",
          "type": "string"
        }
      ],
      "stateMutability": "view",
      "type": "function"
    },
    {
      "inputs": [],
      "name": "totalSupply",
      "outputs": [
        {
          "internalType": "uint256",
          "name": "",
          "type": "uint256"
        }
      ],
      "stateMutability": "view",
      "type": "function"
    },
    {
      "inputs": [
        {
          "internalType": "address",
          "name": "from",
          "type": "address"
        },
        {
          "internalType": "address",
          "name": "to",
          "type": "address"
        },
        {
          "internalType": "uint256",
          "name": "tokenId",
          "type": "uint256"
        }
      ],
      "name": "transferFrom",
      "outputs": [],
      "stateMutability": "nonpayable",
      "type": "function"
    },
    {
      "inputs": [
        {
          "internalType": "address",
          "name": "newOwner",
          "type": "address"
        }
      ],
      "name": "transferOwnership",
      "outputs": [],
      "stateMutability": "nonpayable",
      "type": "function"
    },
    {
      "inputs": [],
      "name": "withdraw",
      "outputs": [],
      "stateMutability": "nonpayable",
      "type": "function"
    }
  ],
  "transactionHash": "0x9c731814cc8ac02059ad000bc7efbe29e5c6cc70179e3f02bcbf82ae1ce2878b",
  "args": [
    "Dapp Punks",
    "DPX",
    "10000000000000000",
    10000,
    10,
    "ipfs://QmQ2jnDYecFhrf3asEWjyjZRX1pZSsNWG3qHzmNDvXa9qg/"
  ],
  "numDeployments": 1,
  "solcInputHash": "c3244cb05c047d1abd811b9a8d6b8f39",
  "bytecode": "0x60c06040526005608090815264173539b7b760d91b60a052600c90620000269082620001be565b503480156200003457600080fd5b506040516200246238038062002462833981016040819052620000579162000339565b85856000620000678382620001be565b506001620000768282620001be565b505050620000936200008d620000c360201b60201c565b620000c7565b600d849055600e839055600f8290556010620000b08282620001be565b5050600060115550620003e69350505050565b3390565b600a80546001600160a01b038381166001600160a01b0319831681179093556040519116919082907f8be0079c531659141344cd1fd0a4f28419497f9722a3daafe3b4186f6b6457e090600090a35050565b634e487b7160e01b600052604160045260246000fd5b600181811c908216806200014457607f821691505b6020821081036200016557634e487b7160e01b600052602260045260246000fd5b50919050565b601f821115620001b957600081815260208120601f850160051c81016020861015620001945750805b601f850160051c820191505b81811015620001b557828155600101620001a0565b5050505b505050565b81516001600160401b03811115620001da57620001da62000119565b620001f281620001eb84546200012f565b846200016b565b602080601f8311600181146200022a5760008415620002115750858301515b600019600386901b1c1916600185901b178555620001b5565b600085815260208120601f198616915b828110156200025b578886015182559484019460019091019084016200023a565b50858210156200027a5787850151600019600388901b60f8161c191681555b5050505050600190811b01905550565b600082601f8301126200029c57600080fd5b81516001600160401b0380821115620002b957620002b962000119565b604051601f8301601f19908116603f01168101908282118183101715620002e457620002e462000119565b816040528381526020925086838588010111156200030157600080fd5b600091505b8382101562000325578582018301518183018401529082019062000306565b600093810190920192909252949350505050565b60008060008060008060c087890312156200035357600080fd5b86516001600160401b03808211156200036b57600080fd5b620003798a838b016200028a565b975060208901519150808211156200039057600080fd5b6200039e8a838b016200028a565b965060408901519550606089015194506080890151935060a0890151915080821115620003ca57600080fd5b50620003d989828a016200028a565b9150509295509295509295565b61206c80620003f66000396000f3fe6080604052600436106101c25760003560e01c806370a08231116100f7578063a22cb46511610095578063c87b56dd11610064578063c87b56dd146104c8578063d6e7b8e4146104e8578063e985e9c5146104fd578063f2fde38b1461054657600080fd5b8063a22cb4651461045e578063b88d4fde1461047e578063bd3e19d41461049e578063c4e41b22146104b357600080fd5b80638da5cb5b116100d15780638da5cb5b146103eb57806395d89b4114610409578063966708a51461041e578063a0712d681461044b57600080fd5b806370a08231146103a1578063714c5398146103c1578063715018a6146103d657600080fd5b80632f745c591161016457806344a0d68a1161013e57806344a0d68a1461032c5780634c0f38c21461034c5780634f6ccce7146103615780636352211e1461038157600080fd5b80632f745c59146102d75780633ccfd60b146102f757806342842e0e1461030c57600080fd5b8063088a4ed0116101a0578063088a4ed014610256578063095ea7b31461027857806318160ddd1461029857806323b872dd146102b757600080fd5b806301ffc9a7146101c757806306fdde03146101fc578063081812fc1461021e575b600080fd5b3480156101d357600080fd5b506101e76101e2366004611a74565b610566565b60405190151581526020015b60405180910390f35b34801561020857600080fd5b50610211610591565b6040516101f39190611ae8565b34801561022a57600080fd5b5061023e610239366004611afb565b610623565b6040516001600160a01b0390911681526020016101f3565b34801561026257600080fd5b50610276610271366004611afb565b61064a565b005b34801561028457600080fd5b50610276610293366004611b30565b610657565b3480156102a457600080fd5b506008545b6040519081526020016101f3565b3480156102c357600080fd5b506102766102d2366004611b5a565b610771565b3480156102e357600080fd5b506102a96102f2366004611b30565b6107a2565b34801561030357600080fd5b50610276610838565b34801561031857600080fd5b50610276610327366004611b5a565b610906565b34801561033857600080fd5b50610276610347366004611afb565b610921565b34801561035857600080fd5b50600e546102a9565b34801561036d57600080fd5b506102a961037c366004611afb565b61092e565b34801561038d57600080fd5b5061023e61039c366004611afb565b6109c1565b3480156103ad57600080fd5b506102a96103bc366004611b96565b610a21565b3480156103cd57600080fd5b50610211610aa7565b3480156103e257600080fd5b50610276610ab6565b3480156103f757600080fd5b50600a546001600160a01b031661023e565b34801561041557600080fd5b50610211610aca565b34801561042a57600080fd5b5061043e610439366004611b96565b610ad9565b6040516101f39190611bb1565b610276610459366004611afb565b610b7b565b34801561046a57600080fd5b50610276610479366004611bf5565b610d67565b34801561048a57600080fd5b50610276610499366004611c47565b610d76565b3480156104aa57600080fd5b50600d546102a9565b3480156104bf57600080fd5b506011546102a9565b3480156104d457600080fd5b506102116104e3366004611afb565b610dae565b3480156104f457600080fd5b50600f546102a9565b34801561050957600080fd5b506101e7610518366004611d23565b6001600160a01b03918216600090815260056020908152604080832093909416825291909152205460ff1690565b34801561055257600080fd5b50610276610561366004611b96565b610e62565b60006001600160e01b0319821663780e9d6360e01b148061058b575061058b82610edb565b92915050565b6060600080546105a090611d56565b80601f01602080910402602001604051908101604052809291908181526020018280546105cc90611d56565b80156106195780601f106105ee57610100808354040283529160200191610619565b820191906000526020600020905b8154815290600101906020018083116105fc57829003601f168201915b5050505050905090565b600061062e82610f2b565b506000908152600460205260409020546001600160a01b031690565b610652610f8a565b600f55565b6000610662826109c1565b9050806001600160a01b0316836001600160a01b0316036106d45760405162461bcd60e51b815260206004820152602160248201527f4552433732313a20617070726f76616c20746f2063757272656e74206f776e656044820152603960f91b60648201526084015b60405180910390fd5b336001600160a01b03821614806106f057506106f08133610518565b6107625760405162461bcd60e51b815260206004820152603d60248201527f4552433732313a20617070726f76652063616c6c6572206973206e6f7420746f60448201527f6b656e206f776e6572206f7220617070726f76656420666f7220616c6c00000060648201526084016106cb565b61076c8383610fe4565b505050565b61077b3382611052565b6107975760405162461bcd60e51b81526004016106cb90611d90565b61076c8383836110d1565b60006107ad83610a21565b821061080f5760405162461bcd60e51b815260206004820152602b60248201527f455243373231456e756d657261626c653a206f776e657220696e646578206f7560448201526a74206f6620626f756e647360a81b60648201526084016106cb565b506001600160a01b03919091166000908152600660209081526040808320938352929052205490565b610840610f8a565b6040514790600090339083908381818185875af1925050503d8060008114610884576040519150601f19603f3d011682016040523d82523d6000602084013e610889565b606091505b50509050806108cd5760405162461bcd60e51b815260206004820152601060248201526f2a3930b739b332b9103330b4b632b21760811b60448201526064016106cb565b60405182815233907f8353ffcac0876ad14e226d9783c04540bfebf13871e868157d2a391cad98e9189060200160405180910390a25050565b61076c83838360405180602001604052806000815250610d76565b610929610f8a565b600d55565b600061093960085490565b821061099c5760405162461bcd60e51b815260206004820152602c60248201527f455243373231456e756d657261626c653a20676c6f62616c20696e646578206f60448201526b7574206f6620626f756e647360a01b60648201526084016106cb565b600882815481106109af576109af611ddd565b90600052602060002001549050919050565b6000818152600260205260408120546001600160a01b03168061058b5760405162461bcd60e51b8152602060048201526018602482015277115490cdcc8c4e881a5b9d985b1a59081d1bdad95b88125160421b60448201526064016106cb565b60006001600160a01b038216610a8b5760405162461bcd60e51b815260206004820152602960248201527f4552433732313a2061646472657373207a65726f206973206e6f7420612076616044820152683634b21037bbb732b960b91b60648201526084016106cb565b506001600160a01b031660009081526003602052604090205490565b6060601080546105a090611d56565b610abe610f8a565b610ac86000611242565b565b6060600180546105a090611d56565b60606000610ae683610a21565b905060008167ffffffffffffffff811115610b0357610b03611c31565b604051908082528060200260200182016040528015610b2c578160200160208202803683370190505b50905060005b82811015610b7357610b4485826107a2565b828281518110610b5657610b56611ddd565b602090810291909101015280610b6b81611e09565b915050610b32565b509392505050565b600f54811115610bcd5760405162461bcd60e51b815260206004820152601e60248201527f4d696e7420616d6f756e742065786365656473206d617820616d6f756e74000060448201526064016106cb565b60008111610c285760405162461bcd60e51b815260206004820152602260248201527f4d696e7420616d6f756e74206d7573742062652067726561746572207468616e604482015261020360f41b60648201526084016106cb565b6000600d5482610c389190611e22565b905080341015610ca25760405162461bcd60e51b815260206004820152602f60248201527f45746865722076616c75652073656e74206973206e6f7420636f72726563742060448201526e199bdc881b5a5b9d08185b5bdd5b9d608a1b60648201526084016106cb565b6000610cad600b5490565b90506000805b84811015610d2957610cc58184611e39565b91505b6000828152600260205260409020546001600160a01b031615610cf75781610cef81611e09565b925050610cc8565b610d013383611294565b60118054906000610d1183611e09565b91905055508080610d2190611e09565b915050610cb3565b50604051848152819033907f4e3883c75cc9c752bb1db2e406a822e4a75067ae77ad9a0a4d179f2709b9e1f69060200160405180910390a350505050565b610d7233838361142d565b5050565b610d803383611052565b610d9c5760405162461bcd60e51b81526004016106cb90611d90565b610da8848484846114fb565b50505050565b6000818152600260205260409020546060906001600160a01b0316610e2d5760405162461bcd60e51b815260206004820152602f60248201527f4552433732314d657461646174613a2055524920717565727920666f72206e6f60448201526e3732bc34b9ba32b73a103a37b5b2b760891b60648201526084016106cb565b6010610e388361152e565b600c604051602001610e4c93929190611ee9565b6040516020818303038152906040529050919050565b610e6a610f8a565b6001600160a01b038116610ecf5760405162461bcd60e51b815260206004820152602660248201527f4f776e61626c653a206e6577206f776e657220697320746865207a65726f206160448201526564647265737360d01b60648201526084016106cb565b610ed881611242565b50565b60006001600160e01b031982166380ac58cd60e01b1480610f0c57506001600160e01b03198216635b5e139f60e01b145b8061058b57506301ffc9a760e01b6001600160e01b031983161461058b565b6000818152600260205260409020546001600160a01b0316610ed85760405162461bcd60e51b8152602060048201526018602482015277115490cdcc8c4e881a5b9d985b1a59081d1bdad95b88125160421b60448201526064016106cb565b600a546001600160a01b03163314610ac85760405162461bcd60e51b815260206004820181905260248201527f4f776e61626c653a2063616c6c6572206973206e6f7420746865206f776e657260448201526064016106cb565b600081815260046020526040902080546001600160a01b0319166001600160a01b0384169081179091558190611019826109c1565b6001600160a01b03167f8c5be1e5ebec7d5bd14f71427d1e84f3dd0314c0f7b2291e5b200ac8c7c3b92560405160405180910390a45050565b60008061105e836109c1565b9050806001600160a01b0316846001600160a01b031614806110a557506001600160a01b0380821660009081526005602090815260408083209388168352929052205460ff165b806110c95750836001600160a01b03166110be84610623565b6001600160a01b0316145b949350505050565b826001600160a01b03166110e4826109c1565b6001600160a01b03161461110a5760405162461bcd60e51b81526004016106cb90611f1c565b6001600160a01b03821661116c5760405162461bcd60e51b8152602060048201526024808201527f4552433732313a207472616e7366657220746f20746865207a65726f206164646044820152637265737360e01b60648201526084016106cb565b61117983838360016115c1565b826001600160a01b031661118c826109c1565b6001600160a01b0316146111b25760405162461bcd60e51b81526004016106cb90611f1c565b600081815260046020908152604080832080546001600160a01b03199081169091556001600160a01b0387811680865260038552838620805460001901905590871680865283862080546001019055868652600290945282852080549092168417909155905184937fddf252ad1be2c89b69c2b068fc378daa952ba7f163c4a11628f55a4df523b3ef91a4505050565b600a80546001600160a01b038381166001600160a01b0319831681179093556040519116919082907f8be0079c531659141344cd1fd0a4f28419497f9722a3daafe3b4186f6b6457e090600090a35050565b6001600160a01b0382166112ea5760405162461bcd60e51b815260206004820181905260248201527f4552433732313a206d696e7420746f20746865207a65726f206164647265737360448201526064016106cb565b6000818152600260205260409020546001600160a01b03161561134f5760405162461bcd60e51b815260206004820152601c60248201527f4552433732313a20746f6b656e20616c7265616479206d696e7465640000000060448201526064016106cb565b61135d6000838360016115c1565b6000818152600260205260409020546001600160a01b0316156113c25760405162461bcd60e51b815260206004820152601c60248201527f4552433732313a20746f6b656e20616c7265616479206d696e7465640000000060448201526064016106cb565b6001600160a01b038216600081815260036020908152604080832080546001019055848352600290915280822080546001600160a01b0319168417905551839291907fddf252ad1be2c89b69c2b068fc378daa952ba7f163c4a11628f55a4df523b3ef908290a45050565b816001600160a01b0316836001600160a01b03160361148e5760405162461bcd60e51b815260206004820152601960248201527f4552433732313a20617070726f766520746f2063616c6c65720000000000000060448201526064016106cb565b6001600160a01b03838116600081815260056020908152604080832094871680845294825291829020805460ff191686151590811790915591519182527f17307eab39ab6107e8899845ad3d59bd9653f200f220920489ca2b5937696c31910160405180910390a3505050565b6115068484846110d1565b611512848484846116f5565b610da85760405162461bcd60e51b81526004016106cb90611f61565b6060600061153b836117f6565b600101905060008167ffffffffffffffff81111561155b5761155b611c31565b6040519080825280601f01601f191660200182016040528015611585576020820181803683370190505b5090508181016020015b600019016f181899199a1a9b1b9c1cb0b131b232b360811b600a86061a8153600a850494508461158f57509392505050565b60018111156116305760405162461bcd60e51b815260206004820152603560248201527f455243373231456e756d657261626c653a20636f6e7365637574697665207472604482015274185b9cd9995c9cc81b9bdd081cdd5c1c1bdc9d1959605a1b60648201526084016106cb565b816001600160a01b03851661168c5761168781600880546000838152600960205260408120829055600182018355919091527ff3f7a9fe364faab93b216da50a3214154f22a0a2b415b23a84c8169e8b636ee30155565b6116af565b836001600160a01b0316856001600160a01b0316146116af576116af85826118ce565b6001600160a01b0384166116cb576116c68161196b565b6116ee565b846001600160a01b0316846001600160a01b0316146116ee576116ee8482611a1a565b5050505050565b60006001600160a01b0384163b156117eb57604051630a85bd0160e11b81526001600160a01b0385169063150b7a0290611739903390899088908890600401611fb3565b6020604051808303816000875af1925050508015611774575060408051601f3d908101601f1916820190925261177191810190611ff0565b60015b6117d1573d8080156117a2576040519150601f19603f3d011682016040523d82523d6000602084013e6117a7565b606091505b5080516000036117c95760405162461bcd60e51b81526004016106cb90611f61565b805181602001fd5b6001600160e01b031916630a85bd0160e11b1490506110c9565b506001949350505050565b60008072184f03e93ff9f4daa797ed6e38ed64bf6a1f0160401b83106118355772184f03e93ff9f4daa797ed6e38ed64bf6a1f0160401b830492506040015b6d04ee2d6d415b85acef81000000008310611861576d04ee2d6d415b85acef8100000000830492506020015b662386f26fc10000831061187f57662386f26fc10000830492506010015b6305f5e1008310611897576305f5e100830492506008015b61271083106118ab57612710830492506004015b606483106118bd576064830492506002015b600a831061058b5760010192915050565b600060016118db84610a21565b6118e5919061200d565b600083815260076020526040902054909150808214611938576001600160a01b03841660009081526006602090815260408083208584528252808320548484528184208190558352600790915290208190555b5060009182526007602090815260408084208490556001600160a01b039094168352600681528383209183525290812055565b60085460009061197d9060019061200d565b600083815260096020526040812054600880549394509092849081106119a5576119a5611ddd565b9060005260206000200154905080600883815481106119c6576119c6611ddd565b60009182526020808320909101929092558281526009909152604080822084905585825281205560088054806119fe576119fe612020565b6001900381819060005260206000200160009055905550505050565b6000611a2583610a21565b6001600160a01b039093166000908152600660209081526040808320868452825280832085905593825260079052919091209190915550565b6001600160e01b031981168114610ed857600080fd5b600060208284031215611a8657600080fd5b8135611a9181611a5e565b9392505050565b60005b83811015611ab3578181015183820152602001611a9b565b50506000910152565b60008151808452611ad4816020860160208601611a98565b601f01601f19169290920160200192915050565b602081526000611a916020830184611abc565b600060208284031215611b0d57600080fd5b5035919050565b80356001600160a01b0381168114611b2b57600080fd5b919050565b60008060408385031215611b4357600080fd5b611b4c83611b14565b946020939093013593505050565b600080600060608486031215611b6f57600080fd5b611b7884611b14565b9250611b8660208501611b14565b9150604084013590509250925092565b600060208284031215611ba857600080fd5b611a9182611b14565b6020808252825182820181905260009190848201906040850190845b81811015611be957835183529284019291840191600101611bcd565b50909695505050505050565b60008060408385031215611c0857600080fd5b611c1183611b14565b915060208301358015158114611c2657600080fd5b809150509250929050565b634e487b7160e01b600052604160045260246000fd5b60008060008060808587031215611c5d57600080fd5b611c6685611b14565b9350611c7460208601611b14565b925060408501359150606085013567ffffffffffffffff80821115611c9857600080fd5b818701915087601f830112611cac57600080fd5b813581811115611cbe57611cbe611c31565b604051601f8201601f19908116603f01168101908382118183101715611ce657611ce6611c31565b816040528281528a6020848701011115611cff57600080fd5b82602086016020830137600060208483010152809550505050505092959194509250565b60008060408385031215611d3657600080fd5b611d3f83611b14565b9150611d4d60208401611b14565b90509250929050565b600181811c90821680611d6a57607f821691505b602082108103611d8a57634e487b7160e01b600052602260045260246000fd5b50919050565b6020808252602d908201527f4552433732313a2063616c6c6572206973206e6f7420746f6b656e206f776e6560408201526c1c881bdc88185c1c1c9bdd9959609a1b606082015260800190565b634e487b7160e01b600052603260045260246000fd5b634e487b7160e01b600052601160045260246000fd5b600060018201611e1b57611e1b611df3565b5060010190565b808202811582820484141761058b5761058b611df3565b8082018082111561058b5761058b611df3565b8054600090600181811c9080831680611e6657607f831692505b60208084108203611e8757634e487b7160e01b600052602260045260246000fd5b818015611e9b5760018114611eb057611edd565b60ff1986168952841515850289019650611edd565b60008881526020902060005b86811015611ed55781548b820152908501908301611ebc565b505084890196505b50505050505092915050565b6000611ef58286611e4c565b8451611f05818360208901611a98565b611f1181830186611e4c565b979650505050505050565b60208082526025908201527f4552433732313a207472616e736665722066726f6d20696e636f72726563742060408201526437bbb732b960d91b606082015260800190565b60208082526032908201527f4552433732313a207472616e7366657220746f206e6f6e20455243373231526560408201527131b2b4bb32b91034b6b83632b6b2b73a32b960711b606082015260800190565b6001600160a01b0385811682528416602082015260408101839052608060608201819052600090611fe690830184611abc565b9695505050505050565b60006020828403121561200257600080fd5b8151611a9181611a5e565b8181038181111561058b5761058b611df3565b634e487b7160e01b600052603160045260246000fdfea26469706673582212207ee4d38b03ede1e9a1f9e1e63ae1e77c8d55d1a9d740ec995a8b0bf5fe2c76ff64736f6c63430008110033",
  "devdoc": {
    "kind": "dev",
    "methods": {
      "approve(address,uint256)": {
        "details": "See {IERC721-approve}."
      },
      "balanceOf(address)": {
        "details": "See {IERC721-balanceOf}."
      },
      "getApproved(uint256)": {
        "details": "See {IERC721-getApproved}."
      },
      "isApprovedForAll(address,address)": {
        "details": "See {IERC721-isApprovedForAll}."
      },
      "name()": {
        "details": "See {IERC721Metadata-name}."
      },
      "owner()": {
        "details": "Returns the address of the current owner."
      },
      "ownerOf(uint256)": {
        "details": "See {IERC721-ownerOf}."
      },
      "renounceOwnership()": {
        "details": "Leaves the contract without owner. It will not be possible to call `onlyOwner` functions. Can only be called by the current owner. NOTE: Renouncing ownership will leave the contract without an owner, thereby disabling any functionality that is only available to the owner."
      },
      "safeTransferFrom(address,address,uint256)": {
        "details": "See {IERC721-safeTransferFrom}."
      },
      "safeTransferFrom(address,address,uint256,bytes)": {
        "details": "See {IERC721-safeTransferFrom}."
      },
      "setApprovalForAll(address,bool)": {
        "details": "See {IERC721-setApprovalForAll}."
      },
      "supportsInterface(bytes4)": {
        "details": "See {IERC165-supportsInterface}."
      },
      "symbol()": {
        "details": "See {IERC721Metadata-symbol}."
      },
      "tokenByIndex(uint256)": {
        "details": "See {IERC721Enumerable-tokenByIndex}."
      },
      "tokenOfOwnerByIndex(address,uint256)": {
        "details": "See {IERC721Enumerable-tokenOfOwnerByIndex}."
      },
      "totalSupply()": {
        "details": "See {IERC721Enumerable-totalSupply}."
      },
      "transferFrom(address,address,uint256)": {
        "details": "See {IERC721-transferFrom}."
      },
      "transferOwnership(address)": {
        "details": "Transfers ownership of the contract to a new account (`newOwner`). Can only be called by the current owner."
      }
    },
    "version": 1
  },
  "userdoc": {
    "kind": "user",
    "methods": {},
    "version": 1
  },
  "storageLayout": {
    "storage": [
      {
        "astId": 138,
        "contract": "contracts/NFT.sol:NFT",
        "label": "_name",
        "offset": 0,
        "slot": "0",
        "type": "t_string_storage"
      },
      {
        "astId": 140,
        "contract": "contracts/NFT.sol:NFT",
        "label": "_symbol",
        "offset": 0,
        "slot": "1",
        "type": "t_string_storage"
      },
      {
        "astId": 144,
        "contract": "contracts/NFT.sol:NFT",
        "label": "_owners",
        "offset": 0,
        "slot": "2",
        "type": "t_mapping(t_uint256,t_address)"
      },
      {
        "astId": 148,
        "contract": "contracts/NFT.sol:NFT",
        "label": "_balances",
        "offset": 0,
        "slot": "3",
        "type": "t_mapping(t_address,t_uint256)"
      },
      {
        "astId": 152,
        "contract": "contracts/NFT.sol:NFT",
        "label": "_tokenApprovals",
        "offset": 0,
        "slot": "4",
        "type": "t_mapping(t_uint256,t_address)"
      },
      {
        "astId": 158,
        "contract": "contracts/NFT.sol:NFT",
        "label": "_operatorApprovals",
        "offset": 0,
        "slot": "5",
        "type": "t_mapping(t_address,t_mapping(t_address,t_bool))"
      },
      {
        "astId": 1188,
        "contract": "contracts/NFT.sol:NFT",
        "label": "_ownedTokens",
        "offset": 0,
        "slot": "6",
        "type": "t_mapping(t_address,t_mapping(t_uint256,t_uint256))"
      },
      {
        "astId": 1192,
        "contract": "contracts/NFT.sol:NFT",
        "label": "_ownedTokensIndex",
        "offset": 0,
        "slot": "7",
        "type": "t_mapping(t_uint256,t_uint256)"
      },
      {
        "astId": 1195,
        "contract": "contracts/NFT.sol:NFT",
        "label": "_allTokens",
        "offset": 0,
        "slot": "8",
        "type": "t_array(t_uint256)dyn_storage"
      },
      {
        "astId": 1199,
        "contract": "contracts/NFT.sol:NFT",
        "label": "_allTokensIndex",
        "offset": 0,
        "slot": "9",
        "type": "t_mapping(t_uint256,t_uint256)"
      },
      {
        "astId": 7,
        "contract": "contracts/NFT.sol:NFT",
        "label": "_owner",
        "offset": 0,
        "slot": "10",
        "type": "t_address"
      },
      {
        "astId": 3266,
        "contract": "contracts/NFT.sol:NFT",
        "label": "s_tokenIds",
        "offset": 0,
        "slot": "11",
        "type": "t_struct(Counter)1943_storage"
      },
      {
        "astId": 3269,
        "contract": "contracts/NFT.sol:NFT",
        "label": "s_baseExtension",
        "offset": 0,
        "slot": "12",
        "type": "t_string_storage"
      },
      {
        "astId": 3271,
        "contract": "contracts/NFT.sol:NFT",
        "label": "s_cost",
        "offset": 0,
        "slot": "13",
        "type": "t_uint256"
      },
      {
        "astId": 3273,
        "contract": "contracts/NFT.sol:NFT",
        "label": "s_maxSupply",
        "offset": 0,
        "slot": "14",
        "type": "t_uint256"
      },
      {
        "astId": 3275,
        "contract": "contracts/NFT.sol:NFT",
        "label": "s_maxMintAmount",
        "offset": 0,
        "slot": "15",
        "type": "t_uint256"
      },
      {
        "astId": 3277,
        "contract": "contracts/NFT.sol:NFT",
        "label": "s_baseURI",
        "offset": 0,
        "slot": "16",
        "type": "t_string_storage"
      },
      {
        "astId": 3279,
        "contract": "contracts/NFT.sol:NFT",
        "label": "s_totalSupply",
        "offset": 0,
        "slot": "17",
        "type": "t_uint256"
      },
      {
        "astId": 3283,
        "contract": "contracts/NFT.sol:NFT",
        "label": "s_tokenURIs",
        "offset": 0,
        "slot": "18",
        "type": "t_mapping(t_uint256,t_string_storage)"
      }
    ],
    "types": {
      "t_address": {
        "encoding": "inplace",
        "label": "address",
        "numberOfBytes": "20"
      },
      "t_array(t_uint256)dyn_storage": {
        "base": "t_uint256",
        "encoding": "dynamic_array",
        "label": "uint256[]",
        "numberOfBytes": "32"
      },
      "t_bool": {
        "encoding": "inplace",
        "label": "bool",
        "numberOfBytes": "1"
      },
      "t_mapping(t_address,t_bool)": {
        "encoding": "mapping",
        "key": "t_address",
        "label": "mapping(address => bool)",
        "numberOfBytes": "32",
        "value": "t_bool"
      },
      "t_mapping(t_address,t_mapping(t_address,t_bool))": {
        "encoding": "mapping",
        "key": "t_address",
        "label": "mapping(address => mapping(address => bool))",
        "numberOfBytes": "32",
        "value": "t_mapping(t_address,t_bool)"
      },
      "t_mapping(t_address,t_mapping(t_uint256,t_uint256))": {
        "encoding": "mapping",
        "key": "t_address",
        "label": "mapping(address => mapping(uint256 => uint256))",
        "numberOfBytes": "32",
        "value": "t_mapping(t_uint256,t_uint256)"
      },
      "t_mapping(t_address,t_uint256)": {
        "encoding": "mapping",
        "key": "t_address",
        "label": "mapping(address => uint256)",
        "numberOfBytes": "32",
        "value": "t_uint256"
      },
      "t_mapping(t_uint256,t_address)": {
        "encoding": "mapping",
        "key": "t_uint256",
        "label": "mapping(uint256 => address)",
        "numberOfBytes": "32",
        "value": "t_address"
      },
      "t_mapping(t_uint256,t_string_storage)": {
        "encoding": "mapping",
        "key": "t_uint256",
        "label": "mapping(uint256 => string)",
        "numberOfBytes": "32",
        "value": "t_string_storage"
      },
      "t_mapping(t_uint256,t_uint256)": {
        "encoding": "mapping",
        "key": "t_uint256",
        "label": "mapping(uint256 => uint256)",
        "numberOfBytes": "32",
        "value": "t_uint256"
      },
      "t_string_storage": {
        "encoding": "bytes",
        "label": "string",
        "numberOfBytes": "32"
      },
      "t_struct(Counter)1943_storage": {
        "encoding": "inplace",
        "label": "struct Counters.Counter",
        "members": [
          {
            "astId": 1942,
            "contract": "contracts/NFT.sol:NFT",
            "label": "_value",
            "offset": 0,
            "slot": "0",
            "type": "t_uint256"
          }
        ],
        "numberOfBytes": "32"
      },
      "t_uint256": {
        "encoding": "inplace",
        "label": "uint256",
        "numberOfBytes": "32"
      }
    }
  }
}